:400000000010002011000000810300008103000008B500F005FC00F0B5F90000F8B572B680220021D2004D4800F09DFF8023DA004B48002100F097FF0022101C4949FF25E5
:4000400054584700261CAE431031E3B2351CC919002B07D00F78013B7E194F78DBB237700231F5E7E4B204320019102AE6D1C0223D4D9104296080203C4F3D4C3D4A3E4DC5
:40008000C10399263E6023603C4F1060C02429603B4A3C49600340263E6010603A4F0B603A4B022531263A4C1D6099203E6039498023394F256002041E06384C0A60802018
:4000C0003E603749374E384B2260384F82050A601E603C78062025433D703D78344A05433D7011688026F3020B43324F324C13603878324E2178171C3578172D05D9304A32
:400100007078B178033E9642F6D12E4B2E4C2F4E1925186021600520356000F031FD2C482C4A01780520116000F060FE3C682A4B2A4D23402A483B60202610272F6080215B
:400140000660284F284D294E294A2A4B2A480C0614601C602F600660F8BDC04600300F4000400F40840F000004000140100001400C00014000000440080004400001044051
:40018000080104400803044008040440000404401804044000500F4004500F4010500F4018500F40100001002001054000700F4000010B40CCF1FF0FCDF1FF0FC9F1FF0F22
:4001C000BDF1FF0F1CFF0B4020FF0B402CFF0B40E5F1FF0F28FF0B40FFFFFBFF08020240200202401000008000000240AF04008008010B4004010B404000024010B5064CBD
:400200002378002B07D10548002802D0044800E000BF0121217010BDF000002000000000800F000008B5084B002B03D00748084900E000BF07480168002903D0064A002A54
:4002400000D0904708BDC04600000000800F0000F4000020D00000200000000010B562B600F084FC00280ED16524012000F0A8FD00F07CFC002806D1013CE4B2002CF4D1BB
:40028000034B40221A6000F063FC00F09BFAFEE7C000002008B500F0EDFA00F025FB00F08DFB08BD70B5054B0D1C161C0024C9B21C8000F077FB3580201C70BD0C010020E2
:4002C000F0B50A275F4387B002900591161C00252A4CBD4219DA00F0F5FA80B220802388002B0CD00220278800F06AFD00F0EAFA81B221802288BA42F4D8002706E0012095
:40030000013500F05DFDADB2E2E7052700253580208800282FD023883088019301994218059993B233808B4221D201982A1893B2049304998D4209D002994819039000F084
:40034000A7FA039A01351070ADB2F2E772B62088019A831A99B2218062B602984219013A1378172BD4D0052000F02AFDD0E7308000F0BAFA0527381C07B0F0BD0C0100204C
:4003800000B5FEE770B50F490F4A01394B1C14D0506895681468031C1E1AAE4202D040CC40C3F9E7D0681D1C5C1B844202D0002640C3F9E710320139E8E700F0A5FDFFF7B3
:4003C0004DFFFEE701000000D40F000008B500239A00032B02D80D48815800E00C490D4801338150302BF3D1FFF718FE0A490B4B086800221A60002800D108608022D305EE
:40040000186801210843186008BDC046000000008103000000000020C0000020C80000200047000038B5041C013806280BD800F061FD2406260F11080400174820E0174BF7
:4004400009E0174B07E0002000F0ACFC002302E0144B00E0144B5A78187800021043022C04D0032C07D0012C15D104E0040A0302234398B20FE000BA0DE00C4800E00C4858
:40048000C578817842780378180628430D02284311040843E3E738BDD87F0000C57F0000D47F0000D27F0000D67F0000C17F0000C97F000038B50220FFF7B4FF051C032097
:4004C000FFF7B0FF6C1CE1010C180220FFF7AAFF0023421CD201191CA24209D21078451EEDB2FD2D00D80121C318DBB20132F3E705485B420578DCB2AC4201D0062002E0E1
:400500000029FBD0002038BDC07F0000F0B5A34CA544FFF7BFFE62B600250095002603AF962124A849003A1CFF23FFF7C9FE0028F5D139880423062967D924AA1478012CCC
:4005400063D193236B4492221F786A4413783C021C4324AF3A19177953790197E71D9C4603238F4251D89179042317294DD1E3189BB2002B08D0BAAA8949D7187A18177881
:40058000013BC01980B2F3E762464042019F110282B239430823914237D168E0342900D09AE0012D00D0F6E0032C00D0F3E06FA80021802200F0D7FC80266FA988193519A8
:4005C0002639E21EFF39AEB200F0C4FC832E00D0DAE0BC797979009F26020E43002F0AD1391C802204A800F0BEFCFF2004A900F0EDFA01200090301C6FA900F0E7FA0125D4
:40060000002800D1C3E000260A23002168469130012703706A4624AC6B4692330E32277000200F1D197058701180BBB25C4FBAACE418E4192778013BC0199BB280B2002BD0
:40064000F4D14442A0B2BAAF564C7B181F19564C38701F19554C000A38701B19172707311F7089B224A89623FFF71CFE57E724AF79783B79081C31380A2801D90523C4E707
:4006800000F02EFC0611FC8C2FFC32428C507800012D00D07FE0002C7DD1FFF70BFF434243413B7163E0012D75D1012C73D1002B71D13F4A25A8146821889524CF090770EA
:4006C0003A0A97209627FF216C446F446844397022700370042199E7012D5CD1022C5AD96BE7012D57D119E7012D54D19620371943009F424DD86FAA901925A9221C00F0FC
:4007000029FCBEB2002380E7002C44D104AB294A191CA0CAA0C125AF21CB21C708210125231C73E7012D36D1032C34D196226A449521177869440C7838021A02204387180A
:40074000FF01002280210139CC5D1219D2B20029F9D1002B08D1FF2806D1174B174918780C78171A3A1BD2B2504224AB1871002301214BE7FFF79EFE002802D110488024E5
:40078000046000F011FB06E00125002601E0061CB8E7032339E7042337E7C04614FDFFFFA7FDFFFFACFDFFFFADFDFFFFAEFDFFFFD4000020A80F0000D07F0000D17F000081
:4007C000C0000020144810B50368002219680B1C013BBF2B03D01C781219D2B2F8E740680478A21AD3B2A34201D1002902D1002000F0D8FAFFF75EFE084C2168221C4029D8
:4008000001D0002803D000231360FFF77FFE8020206000F0C9FA10BDD4000020C000002008B50B4B10201A680A49024000D10A600B68802B0BD1002201200A60FFF7F2FD4E
:40084000002804D00120FFF7EDFDFFF7E9FD08BD00030B40C000002008B5054B802219681006084318600A2000F088FA08BDC0460000064010B5054C2378002B03D100F056
:40088000BFF801202070FFF7E7FF10BD10010020094B00B51968094B1A6891420AD019684A1C4039481E8141484205490240885C1A6000E0002000BDAC010020240100201A
:4008C00068010020064B074A1B68116800B58B4202D31268981A02E010684133181A00BDAC010020240100200C4A0D4B002130B5106811601D68802464022C431C601D68E3
:40090000084C2C401C60084B084C1D68084B25601970084D08492960106030BDC80F064004030640FFFFFEFF24010020AC010020A9010020C00F0640ED0F0000124910B5F0
:400940000A68531C3F3A541EA241544223400F4A1468A342FBD00C681268944208D10C4C0F2224682240082A02D00A4A10600AE0094C02222260094CC0B2E0540B60084BD0
:4009800019680A431A6010BD200100201C0100200802064040020640800F064028010020880F064038B5041C4518AC4204D02078FFF7C4FF0134F8E738BD00000B4A0023D3
:4009C000116810B513600A4B80201C684002204318601C68074820401860074B07481C68022399430460116010BDC046880F064004020640FFFFFEFF1C0100202001002095
:400A00001D4A1E4B1E4810B51E4900241A60046001221D4B1D480A601D490360072008601C491D4804600A601C4A0A2013601C4B1C6000F0ADF90A20032100F07FF9194974
:400A40000A2000F06FF918481849194A194B04600C60146018491C60184A194B04200860146018481C601849184A194B04600C7014601C6010BDC0460B000002000006408C
:400A8000400006404800064007000080000306400403064044000640100306400002064004020640010E0000880E0640C80E0640480F0640080F0640C80F0640880F064093
:400AC000AC01002024010020A9010020200100201C0100200E4B8422D00418601968802250020843186019680A481960C3239A00094B026000210948094A196009490A4BB2
:400B000010600A4A19600A4910601C20086070470001054024010540380105401027000014010540881300000C010540080105402801054008B500F02CF8044B01211A682E
:400B40000A431A6000F029F808BDC0460000054010B5054C2378002B03D1FFF7BBFF01202070FFF7E7FF10BD18010020024B18680106C80F7047C0460400044000000000EA
:400B80000230800804D0C0460138FDD1C046C0467047EFF3108072B6704780F310887047094A10B513680020141C1A0F11070A2A08D0002806D1F0221206914200D1181C93
:400BC0002368F2E710BDC04608000040F0B5071CABB00124FF2800D995E0002900D192E0002508ACB623D7207F2223706070A5700AA8E5706260802200F0ACF92E1C291CFC
:400C00002A1C0195B31C98002558002D02D05219294301960136202EF4D1002A02D1002968D100E0002100910291384D384E2C60384C34603268002AFCDB2B68FFF7B0FF37
:400C4000041E60D1FFF7A5FF334B05901968B6200491D8226946BFB2087603974A7668460C210A5A294F42832C49294A06A8386011601F1C3368002BFCDB2B68A020010649
:400C80008B4201D0002B2ED1009A002A2CD0002180220AA800F067F9019B029902331D4A08AC980001512C6032603468002CFCDB2B68FFF775FF041E16D107ABB6201870A3
:400CC000D92168460C225970115A10485980144A03600F4B1A6031680029FCDB2B68A0252E06B34200D01C1C049838600598FFF754FF08E0019E01250236B300E058009583
:400D00000290E25091E7201C2BB0F0BD08000040040000400400008008010B40050000800600008000B51F2800D901BE024A800083181868196000BD4000002038B5041C26
:400D40000D1E032D00D901BE1F2C00D901BEFFF720FFA308084A99008B1803221440944019680634A2409143A5400C1C2C431C60FFF713FF38BDC04600E400E01F23184038
:400D8000024A0121814011607047C04600E100E01F231840024A0121814011607047C04680E100E001BE7047034B04491A6890B2084318607047C0460CED00E00400FA05AC
:400DC00010B5041C8022074B1002844205D91868FFF7D6FE04496418F4E758686043FFF7CFFE10BDDC0000200080FFFF08B5034B197A4843FFF7C4FE08BDC046DC00002061
:400E0000264B10B51868002800D0804724490A6852071DD5234C23681A0716D0224B234A186811684B1C40394C1EA1414C42204923400C68A34203D11E4B20221A70E9E787
:400E40001D49C0B2C8541360E4E71C49042008601B4A1468A20720D51A4B0F2118680140082917D0184A194B1468186884420CD01C68621C3F3C601E8441614214480A40F5
:400E8000845C14490C601A60E6E7134C022122688A432260114B0220186010BD14010020CC0F06400803064040030640AC01002024010020A901002068010020C00F06407A
:400EC0008C0F064008020640200100201C0100202801002040020640880F0640800F064002B4714649084900095649008E4402BC7047C04602B4714649084900095C49000F
:400F00008E4402BC7047C04670B50E4B0E4D0024E81A85101E1CAC4204D0A100725890470134F8E700F044F80849094A0E1C541AA5100024AC4204D0A300F0588047013494
:400F4000F8E770BDBC0F0000BC0F0000BC0F0000C40F000010B50023934203D0CC5CC4540133F9E710BD00B58218031C934202D019700133FAE700BD08100000B100000047
:400F80000000000001330F4003410F4004430F4002600F40E61062048E04D84018808C40C608E608020111019311C80411140101F8B5C046F8BC08BC9E4670472502000015
:400FC000CD030000F8B5C046F8BC08BC9E467047FD010000E80F0000D000002020000000C00000000000000000000000780F00007C0F00000000E02EC05D00001800000041
:4010000000366E010000000000000000000000000000000000000000000000000000000000000000000000000000000000000000000000000000000000000000000000000B
:401040000000000000000000000000000000000000000000000000000000000000000000000000000000000000000000000000000000000000000000000000000000000070
:401080000010002091100000892600008926000080B500AF024B83F3088801F0F9FAC0460010002080B584B000AF021CFB1D1A70224A3B1C0B3312781A70214A3B1C0A33C4
:4010C00012781A701F4B1B68013BFB601AE01E4B1868391C0B31FA68131C5B009B18C31801331B780B70184B1868391C0A31FA68131C5B009B18C31802331B780B70FB6895
:40110000013BFB60FB68002B0ADB0F4B1968FA68131C5B009B185B5CFA1D12789A42D6D90A4B3A1C0B3212781A60094B3A1C0A3212781A60BD4604B080BDC046CCF1FF0FAD
:40114000CDF1FF0F00780000F00000201CFF0B4020FF0B4080B500AF274B274A12688021C9020A431A601820FFF79CFF234B19221A60052001F06CFB214B224A1278D2B288
:401180001A60052001F058FC1B4B1B4A11681E4A0A401A601D4B21221A601D4B10221A601C4B30221A601C4B11221A601B4B20221A601B4B11221A601A4B31221A601A4B8F
:4011C000802212061A60194B802212061A60184B184A1A60184B194A1A60194B174A1A60184B164A1A60184B184A1A60184B194A1A60BD4680BDC04600010B402CFF0B40A1
:4012000028FF0B40E5F1FF0FFFFFFBFF080202400C0202402002024024020240280202402C0202403002024008010B4004010B400000024003000080400002401700008026
:4012400080000240040002404400024022000080840002403801008080B582B000AF72B6554B01221A70FB1D00221A7023E0FB1D1A78131C5B009B185B00504A9B183B6043
:401280003B681A78597809020A43997809040A43DB781B0613431A1C3B6819795B791B020B439BB2101C191C01F07EFAFB1DFA1D127801321A70FB1D1B78012BD7D9404A53
:4012C000404B101C191C01F07FFA3F4B802252001A803E4B01221A703D4BC02292041A603C4BCC2292001A603B4B3C4A1A603C4B99221A603B4B80221A603B4B3B4A1A60E6
:401300003B4B802212021A603A4B40221A603A4B3A4A1A603A4B06221A603A4B3A4A1A603A4B13221A603A4B3A4A1A603A4B02221A603A4B3A4A1A603A4B02221A603A4B64
:40134000992212041A60394B802212061A60384B992212041A60374BC02292051A60364B364A1A60364B802292051A60354B992212041A60344BC02292041A60334B142288
:401380001A60334B02221A60324B324A1278D2B202210A43D2B21A702E4B2E4A1278D2B206210A43D2B21A70FFF7D4FE01F04CFABD4602B080BDC0461C700F4078760000D1
:4013C00084760000A476000000600F4002600F4004000140080001400C000140EEEE0300100001400000044008000440B66D5B000C00044000010440080104400600180060
:401400000002044008020440B66D0F000003044008030440A46DDB000004044008040440B10D00001804044000500F4004500F4010500F4018500F4020500F4004009900AA
:4014400024500F4030500F4038500F40E00105402000004000700F4010B5064C2378002B07D10548002802D0044800E000BF0121217010BD08010020000000005476000064
:4014800008B5084B002B03D00748084900E000BF07480168002903D0064A002A00D0904708BDC04600000000547600000C010020D00000200000000080B584B000AF021C22
:4014C0003960FB1D1A703B681B88D9B23B1C0F33FA1D12784A401A703B1C0F331B781B01DAB23B1C0F331B785340DAB23B1C0F331A703B681B881B0A9BB29AB23B1C0F33B3
:401500001B781B029BB253409AB23B1C0F331B78DB009BB253409AB23B1C0F331B781B09DBB253409BB29AB23B681A80BD4604B080BDC04680B582B000AF78607B68012268
:4015400052421A80BD4602B080BDC04680B584B000AF78600A1CBB1C1A803B1C0E33181CFFF7E8FF0AE07B681A787B6801337B603B1C0E33101C191CFFF79EFFBB1C1B88BE
:401580005A1E9341DBB2BA1CB91C098801391180002BE8D13B1C0E331B88181CBD4604B080BDC04680B586B000AFF860B960BB1D1A80BB687B6109E07B691A787B6901338B
:4015C0007B61FB68101C191CFFF776FFBB1D1B885A1E9341DBB2BA1DB91D098801391180002BE9D1BD4606B080BDC04680B582B000AF021CFB1D1A70FB1D1A78131C5B0098
:401600009B189B00024A9B18181CBD4602B080BD9401002090B583B000AF7860081C111C1A1CFB1C1870BB1C19707B1C1A707B68FE229A707B683A1C18321278DA707B6895
:40164000FA1C12785A717B68BA1C12789A717B1C1B78181CFFF7CAFF031C9A797B681A717B1C1B78181CFFF7C1FF041C7B1C1B78181CFFF7BBFF031C9B790133DBB2A371AA
:401680007B680333181C0521FFF760FF031C1A1C7B68FF2111401C780020204001431970120A92B25878002101400A435A7079687B681A1C08327B68DB78081C111C1A1C3E
:4016C000FFF770FF7B683A1C1C321278101C191CFFF7F2FE7B681A1C08327B68DB78D2187B6819785B781B020B439BB2DBB213707B681A1C08327B68DB780133D2187B6821
:4017000019785B781B020B439BB21B0A9BB2DBB213703B1C18331B789BB208339BB2181CBD4603B090BDC04680B584B002AF7860081C111C1A1CFB1C1870BB1C19707B1CB5
:401740001A707968FB1C1A78BB1C1B78781C00780090381C103000780190081C111C1A1C0023FFF757FF031C181CBD4602B080BD80B584B000AF786039603B689A1C3B68F2
:40178000DB7806337968081C111C1A1C05F050FF3B68DB7806337A68D318FB603B681A785B781B0213439BB2DAB2FB681A70FB685A1C3B6819785B781B020B439BB21B0A9C
:4017C0009BB2DBB213703B68DB7808339BB2181CBD4604B080BDC04680B588B002AF3A601A1CFB1D1870BB1D19707B1D1A703B1C0C33BA6A1A603B1C0C337A1D12781A7159
:401800003B1C0C333A1C203212785A713B1C0C333A1C243212789A713B1C0C333A1C2C321278DA713B1C0C3303221A723B681A1C08323B1C0C33101C191C092205F0F8FEB8
:401840003B680022DA713968FB1D1A78BB1D1B7832200090081C111C1A1C0923FFF764FF031C181CBD4606B080BDC04680B58EB002AFBA607B603B1C0F33021C1A703B1CB4
:401880000E330A1C1A703B1C14337A681A603B1C1433BA6B5A603B1C1433FA6B9A603B1C14333A6CDA603B1C14337A6C1A613B1C1433BA6C5A613B1C1433FA6C9A61BB68A5
:4018C0001A1C08323B1C1433101C191C1C2205F0AFFEBB681E22DA71B9683B1C0F331A783B1C0E331B7827200090081C111C1A1C1C23FFF719FF031C181CBD460CB080BD7A
:4019000080B584B000AF78600A1CBB1C1A803B1C0E3300221A80FE2001F0CEF80FE03B1C0E333A1C0E32128801321A803B1C0E331B887A68D3181B78181C01F0BDF83B1CA7
:401940000E331A88BB1C1B8801339A42E7DBBD4604B080BD00000000F0B58BB006AF62B601F094F802F0E0F8FA235B00181C01F03FF801F05DF901F069FA01F077FB01F08D
:401980000FFD01F0E3FB01F067FC01F07BFD01F0B3F901F0B3FA244B01221A70224B01225A70224B181C01F0F1F8202000F0A4FC031C1A1C3B1C0F331A701D4B181C01F08E
:4019C000E5F800E0C0461B4B1B78DBB2012BF9D1184B00221A70184B1B78012B45D1174B1A88174B1B889A4203D1164B01221A7008E0124B1A88144B1B889A4202D1114BA6
:401A000000221A700F4B1B78002B21D10B4B1A880E4B1B88D3189AB2084B1A80074B1B88181C01F033FA20E03C0300205C7600006876000024010020D800002056010020CE
:401A4000DA0000205201002054010020DC000020F34B1A88F34B1B88D31A9AB2F04B1A80EF4B1B88181C01F011FA00F075FC00F03FFDED4B1B881BB2181C05F05BFD051CD5
:401A80000E1CEA4B1B881BB25B42181C05F052FD031C0C1C281C311C1A1C231C02F0B6FD031C0C1C181C211CDA4BD94A04F01AFF031C0C1C181C211CD74AD84B04F018FB40
:401AC000031C0C1C181C211C05F000FD031C9AB2D74B1A80D74B1B881BB25B42181C05F029FD051C0E1CD14B1B881BB25B42181C05F020FD031C0C1C281C311C1A1C231C90
:401B000002F084FD031C0C1C181C211CC14BC04A04F0E8FE031C0C1C181C211CBE4ABF4B04F0E6FA031C0C1C181C211C05F0CEFC031C9AB2C04B1A80C04B1B881BB2181CB6
:401B400003F0D2FE041CBE4B1B881BB2181C03F0CBFE021CBB4B1B68101C191C03F0CAFC031C1A1CB84B1B68101C191C03F092FB031C201C191C03F07DF8031C181C03F05E
:401B800093FE031C9AB2AD4B1A80AF4B1B6880221206141C5C40AD4B1A68AD4B1B68101C191C03F067F8031C1A1CAA4B1B68101C191C03F09FFC031C201C191C03F06AFB48
:401BC000031C1A1CA44B1B68101C191C03F052F8031C1A1CA04B1A609B4B1B68802212065A409E4B1B68101C191C03F053FB031C1A1C974B1B68101C191C03F03BF8031C9B
:401C00001A1C934B1A60924B1A68904B1A60944B1A688D4B1B68101C191C03F03BFB031C1A1C8E4B1B68101C191C03F023F8031C1A1C8A4B1A608B4B1B881BB2181C03F0EB
:401C400053FE041C884B1B881BB2181C03F04CFE021C864B1B68101C191C03F04BFC031C1A1C794B1B68101C191C03F013FB031C201C191C02F0FEFF031C181C03F014FE5D
:401C8000031C9AB2774B1A806F4B1B6880221206141C5C40764B1A68764B1B68101C191C02F0E8FF031C1A1C6A4B1B68101C191C03F020FC031C201C191C03F0EBFA031C55
:401CC0001A1C6D4B1B68101C191C02F0D3FF031C1A1C694B1A605C4B1B68802212065A40664B1B68101C191C03F0D4FA031C1A1C604B1B68101C191C02F0BCFF031C1A1C11
:401D00005C4B1A605B4B1A68594B1A60544B1A684D4B1B68101C191C03F0BCFA031C1A1C564B1B68101C191C02F0A4FF031C1A1C524B1A603E4B1B881AB2404B1B881BB228
:401D4000D31A181C03F0D0FD021C4D4B1A60424B1A684C4B1B68101C191C02F08BFF031C1A1C494B1A603C4B1A68474B1B68101C191C03F055F9031C1A1C444B1A60334B4D
:401D80001A68414B1B68101C191C03F049F9031C1A1C3F4B1A60284B1B881AB2314B1B881BB2D31A181C03F09FFD021C394B1A60314B1A68334B1B68101C191C02F05AFF5E
:401DC000031C1A1C344B1A602B4B1A68324B1B68101C191C03F024F9031C1A1C2F4B1A60234B1A682C4B1B68101C191C03F018F9031C1A1C2A4B1A60104B1B881BB2181C51
:401E000003F072FD041C214B1A684BE0C046C0460000000000806640182D4454FB21094056010020DC0000205E010020620100206A010020600100206C010020440300201E
:401E40005A01002070010020D4000020300300202C030020E00000203803002074010020E400002060040020580100207C010020480300204C03002018020020800100207D
:401E800034030020E800002014020020100200207801002050030020400300205C04002084010020964B1B68101C191C03F0F2F9031C201C191C02F0DDFE031C181C03F081
:401EC000F3FC031C9AB28F4B1A808F4B1A688C4B1B68101C191C03F0DDF9031C1A1C8B4B1B68101C191C02F0C5FE031C1A1C874B1A60874B1C68874B1A68854B1B68101CA6
:401F0000191C03F0C7F9031C201C191C03F0F2FA031C1A1C7E4B1A607F4B1C687D4B1A687D4B1B68101C191C03F0B4F9031C201C191C03F0DFFA031C1A1C774B1A60774B1F
:401F40001C68714B1A68724B1B68101C191C03F0A1F9031C201C191C03F0CCFA031C1A1C6E4B1A606E4B1C68674B1A686A4B1B68101C191C03F08EF9031C201C191C03F099
:401F8000B9FA031C1A1C664B1A60664B1B881BB2181C03F0A9FC041C634B1A68634B1B68101C191C03F076F9031C201C191C02F061FE031C181C03F077FC031C9AB2594B14
:401FC0001A805B4B1A68594B1B68101C191C03F061F9031C1A1C574B1B68101C191C02F049FE031C1A1C534B1A60534B1C684E4B1A68514B1B68101C191C03F04BF9031CB6
:40200000201C191C03F076FA031C1A1C4A4B1A604A4B1C68444B1A68484B1B68101C191C03F038F9031C201C191C03F063FA031C1A1C424B1A60424B1C683D4B1A683E4BC3
:402040001B68101C191C03F025F9031C201C191C03F050FA031C1A1C394B1A60394B1C68334B1A68354B1B68101C191C03F012F9031C201C191C03F03DFA031C1A1C314B56
:402080001A603B1C0E3301221A703B1C0E331B78002B5DD12C4B1A882C4B1A802A4B5A882A4B5A80284B5A88284B9A80264B9A88264BDA80244B9A88244B1A81224BDA8863
:4020C000224B5A81204B1A89204B9A811E4B1A891E4BDA811C4B5A891C4B1A821A4B5A891A4B5A82184B5A89184B9A82164B9A89164BDA82144BDA89144B1A8360E0C04654
:402100003403002044030020780100207001002038030020100200202C0300203003002074010020600400205C04002050030020840100207C010020180200204C03002091
:40214000480300208001002028010020380100205C4BFA2292001A805A4B1A885A4B1A80584B1A88584B5A80564B1A88564B9A80544B1A88544BDA80524B1A88524B1A81CB
:40218000504B1A88504B5A814E4B1A884E4B9A814C4B1A884C4BDA814A4B1A884A4B1A82484B1A88484B5A82464B1A88464B9A82444B1A88444BDA82424B1A88424B1A83F1
:4021C000424B1B78181C142102F00AFD0B1CDBB2002B34D13E4B1D783D4B5C783D4B1B881BB2181C03F080FB061C3B4B1B881BB2181C03F079FB021C384B009601920022C6
:402200000292002203920022049200220592281C211C1A1C0023FFF729FB3C1C0C34304A2E4B101C191CFFF7A3FA031C23802C4A3B1C0C331B88101C191CFFF761FB234BDD
:402240001B78181C642102F0CBFC0B1CDBB2002B30D11E4B00221A701D4B19781C4B5A78204B1C78204B1B789C46204B1E78204B1D68204B1878194B7B6063460093019655
:4022800002950390081C111C7A68231CFFF7A4FA3C1C0A34124A114B101C191CFFF768FA031C23800E4A3B1C0A331B88101C191CFFF726FB054B1B780133DAB2034B1A70A3
:4022C000FFF780FB2801002038010020900100203C03002060040020440300201C02002054030020EC00002088010020890100208C010020ED00002080B584B000AF021CCC
:40230000FB1D1A706B20002101F0A0FCFB1D1B78181C01F0A7FD6B20012101F01FFD012001F006FE021C3B1C0F331A70084B094A116820220A4001D0182200E010221A60FB
:402340003B1C0F331B785BB2181CBD4604B080BD680007406400074098B500AF6B20002101F074FCA82001F07DFD6B20012101F0F5FC002001F0DCFD031CDAB24E4B1A701F
:40238000002001F0D5FD031CDAB24C4B1A70002001F0CEFD031CDAB2494B1A70002001F0C7FD031CDAB2474B1A70002001F0C0FD031CDAB2444B1A70012001F0B9FD031CB4
:4023C000DAB2424B1A70424B424A116820220A4001D0182200E010221A60384B1B785BB21B029AB2344B1B7813439AB23A4B1A80344B1B785BB21B029AB2314B1B78134339
:402400009AB2364B1A80314B1B785BB21B029AB22D4B1B7813439AB2314B1A802E4B1B881BB2181C05F086F8031C0C1C181C211C204B1F4A04F056FA031C0C1C181C211CD5
:4024400005F044F8031C9AB2264B1A80234B1B881BB2181C05F06EF8031C0C1C181C211C144B134A04F03EFA031C0C1C181C211C05F02CF8031C9AB21B4B1A80184B1B8866
:402480001BB2181C05F056F8031C0C1C181C211C084B074A04F026FA031C0C1C181C211C05F014F8031C9AB2104B1A80BD4698BDEC51B81E85EB813FC5010020C4010020E9
:4024C000CB010020CA010020D1010020D00100206800074064000740C6010020CC010020D2010020580100205A0100205C01002098B500AF1D20002101F0A8FBA82001F0E9
:40250000B1FC1D20012101F029FC002001F010FD031CDAB24E4B1A70002001F009FD031CDAB24C4B1A70002001F002FD031CDAB2494B1A70002001F0FBFC031CDAB2474B8C
:402540001A70002001F0F4FC031CDAB2444B1A70012001F0EDFC031CDAB2424B1A70424B424A116820220A4001D0182200E010221A60384B1B785BB21B029AB2344B1B78FC
:4025800013439AB23A4B1A80344B1B785BB21B029AB2314B1B7813439AB2364B1A80314B1B785BB21B029AB22D4B1B7813439AB2314B1A802E4B1B881BB2181C04F0BAFFF4
:4025C000031C0C1C181C211C204B1F4A04F08AF9031C0C1C181C211C04F078FF031C9AB2264B1A80234B1B881BB2181C04F0A2FF031C0C1C181C211C144B134A04F072F9C5
:40260000031C0C1C181C211C04F060FF031C9AB21B4B1A80184B1B881BB2181C04F08AFF031C0C1C181C211C084B074A04F05AF9031C0C1C181C211C04F048FF031C9AB29F
:40264000104B1A80BD4698BD08AC1C5A643BBF3FE0010020DF010020E5010020E4010020E9010020E80100206800074064000740E2010020E6010020EA0100205E01002039
:40268000600100206201002080B500AFFEE7C04680B586B000AF254B7B61254B3B61234B7B61234B3B6132E03B691B68FB603B695B68BB603B699B683B6000237B600CE03F
:4026C000FB681A68BB681A60BB680433BB60FB680433FB607B6804337B607A683B689A42EED13B69DB683B6000237B6008E0BB6800221A60BB680433BB607B6804337B6048
:402700007A683B689A42F2D13B6910333B617B695A1E9341DBB27A69013A7A61002BC3D104F060FFFFF718F9FEE7C04601000000A479000080B582B000AF00237B600FE017
:402740007B68032B04D8134B7A689200D35800E0114B124A796889008B507B6801337B607B682F2BECD9FEF777FD0D4B00221A600C4B1B68002B02D10A4B00221A608023D5
:40278000DB058022D205126801210A431A60BD4602B080BD801000008926000000000020C8000020C000002080B582B000AF786039607A683B68101C00211A1C04F041FF81
:4027C000BD4602B080BDC04680B586B000AF7860396000233B6100237B612EE07B699B007A68D3181B68BB603B1C0F33BA681A70BB68FF229343BB6017E03B695B003A688E
:40280000D3181B781A1CBB68D3183A69520039688A1852781A703B6901333B613B1C0F333A1C0F321278013A1A703B1C0F331B78002BE2D17B6901337B617B69072BCDD99D
:40284000BD4606B080BDC04680B500AFBD4680BD0230800804D0C0460138FDD1C046C0467047EFF3108072B6704780F31088704780B584B000AF021C3960FB1D1A708023B3
:402880009B05FB60FB1D1B781F2B02D9002000F095F8FB1D1B7810339B00FA68D3181B68BB60FB1D1B7810339B00FA68D3183A681A60BB68181CBD4604B080BD90B587B083
:4028C00000AF0A1CFB1D011C1970BB1D1A70BB1D1B78032B02D9002000F070F8FB1D1B781F2B02D9002000F069F8FB1D1A7803231340DB0006337B613C1C1334FFF7B1FF5E
:40290000031C2370FB1D1B789B08DBB29B0014495B181B68FB607B690322111C99400B1CDA43FB681340FB60BB1D1A787B69111C99400B1CFA681343FB60FB1D1B789B0881
:40294000DBB29B00064A9B18FA681A603B1C13331B78181CFFF789FFBD4607B090BDC04600E400E080B582B000AF021CFB1D1A70064BFA1D11781F220A400121081C904035
:40298000021C1A60BD4602B080BDC04600E100E080B582B000AF021CFB1D1A70064BFA1D11781F220A400121081C9040021C1A60BD4602B080BDC04680E100E080B582B026
:4029C00000AF021CFB1D1A7001BEBD4602B080BD80B500AF044B044A12681204120C03490A431A60BD4680BD0CED00E00400FA0580B582B000AF786008E00C4B1B68181C75
:402A0000FFF726FF7B680A4A9B187B607A6880231B029A42F1D8074B1B687A685343181CFFF716FFBD4602B080BDC046000100200080FFFFF800002080B582B000AF021C00
:402A4000BB1D1A80BB1D1B88044A12785343181CFFF7FEFEBD4602B080BDC046FC00002080B500AF00F03EF8BD4680BD80B500AF054B054A1268802109060A431A6000F013
:402A800017F8BD4680BDC0460000064080B500AF064B1B78002B04D1FFF7E2FF034B01221A70FFF7E3FFBD4680BDC046F801002080B500AFBD4680BD80B582B000AF786098
:402AC000C046064B1A680F231340082BF9D0044B7A681A60BD4602B080BDC046080206404002064080B500AF174B184A1A60184B00221A60174B01221A60174B174A1A60A4
:402B0000174B07221A60174B00221A60164B01221A60164B114A1A60154B00221A60154B00221A60144B00221A60144B00221A60134B00221A60134B00221A60124B0022FD
:402B40001A60BD4680BDC046000006400B000002400006404800064000030640070000800403064010030640440006400002064004020640880E0640C80E0640480F064005
:402B8000080F0640C80F0640880F064080B584B000AF78600023FB6009E07A68FB68D3181B78181CFFF788FFFB680133FB607A68FB68D3181B78002BEFD1BD4604B080BD5F
:402BC00080B500AF094B00221A60094B0C221A60012000F079F8074B181C00F03BF8054B181C00F045F8BD4680BDC04600010540240105401027000090B583B000AFFC1DBC
:402C0000FFF72FFE031C2370084B084A126801210A431A60FB1D1B78181CFFF726FE0120182100F033F8BD4603B090BD0000054080B500AF064B1B78002B04D1FFF7C0FF84
:402C4000034B01221A70FFF7D7FFBD4680BDC0460002002080B582B000AF7860034B7A681204120C1A60BD4602B080BD1401054080B582B000AF7860034B7A681204120CBB
:402C80001A60BD4602B080BD0C01054090B585B000AF786039603C1C0F34FFF7E2FD031C2370084B3A687968081C9040021C1A603B1C0F331B78181CFFF7D7FDBD4605B056
:402CC00090BDC0460800054080B582B000AF7860024B7A681A60BD4602B080BD3801054080B582B000AF7860024B7A681A60BD4602B080BD3001054080B500AF00F05AF808
:402D0000054B181C00F016F8032000F021F800F047F8BD4680BDC0461D2D000080B500AF0120FFF7DDFF024B01221A70BD4680BD2401002080B582B000AF7860034A8023F2
:402D40007968D150BD4602B080BDC0460000002090B585B000AF021CFB1D1A700623FB603C1C0B34FFF77DFD031C23700B4B0B4A1268C021101C8843011CFA1D1078FA68F8
:402D8000041C9440221C0A431A603B1C0B331B78181CFFF76AFDBD4605B090BD10E400E080B500AF024B802252021A60BD4680BD00E100E080B500AF024B802252021A6045
:402DC000BD4680BD80E100E080B500AF0E4B8022D2041A600C4B0C4A12681A600A4B0A4A12681A60094B0C221A60002000F07AF8642000F03DF8322000F048F8044B31229A
:402E00001A60BD4680BDC04680010540A4010540A801054090B583B000AFFC1DFFF721FD031C2370084B084A126804210A431A60FB1D1B78181CFFF718FD0420182100F0EC
:402E400033F8BD4603B090BD0000054080B500AF064B1B78002B04D1FFF7B6FF034B01221A70FFF7D7FFBD4680BDC0460102002080B582B000AF7860034B7A681204120CEA
:402E80001A60BD4602B080BD9401054080B582B000AF7860034B7A681204120C1A60BD4602B080BD8C01054090B585B000AF786039603C1C0F34FFF7D4FC031C2370084B3C
:402EC0003A687968081C9040021C1A603B1C0F331B78181CFFF7C9FCBD4605B090BDC0460800054080B582B000AF7860024B7A681A60BD4602B080BDB801054080B500AFE5
:402F000000F05EF8054B181C00F01CF8032000F025F800F04BF8BD4680BDC046212F000080B500AF00F056F8054B181CFFF72EFE6420FFF75DFD01F0E9F8BD4680BDC04616
:402F40000478000080B582B000AF7860024B7A681A64BD4602B080BD0000002090B585B000AF021CFB1D1A700623FB603C1C0B34FFF777FC031C23700B4B0B4A1268C02103
:402F8000101C8843011CFA1D1078FA68041C9440221C0A431A603B1C0B331B78181CFFF764FCBD4605B090BD00E400E080B500AF024B01221A60BD4680BDC04600E100E0B3
:402FC00080B500AF024B01221A60BD4680BDC04680E100E080B582B000AF094B1B68DAB2FB1D7F218A431A70054BFA1D12781A60FB1D1B78DB09DBB2181CBD4602B080BD47
:403000001000044080B500AF084B802292041A60074B0C221A60022000F080F8E1231B01181C00F04FF8BD4680BDC046C0010540E401054090B583B000AFFC1DFFF711FC8B
:40304000031C2370084B084A126808210A431A60FB1D1B78181CFFF708FC0820182100F03FF8BD4603B090BD0000054080B500AF064B1B78002B04D1FFF7C4FF034B0122F4
:403080001A70FFF7D7FFBD4680BDC0460202002080B582B000AF7860034B7A681204120C1A60BD4602B080BDC801054080B500AF034B1B681B041B0C181CBD4680BDC0460F
:4030C000C801054080B582B000AF7860034B7A681204120C1A60BD4602B080BDD401054090B585B000AF786039603C1C0F34FFF7B8FB031C2370084B3A687968081C904090
:40310000021C1A603B1C0F331B78181CFFF7ADFBBD4605B090BDC0460800054080B582B000AF7860024B7A681A60BD4602B080BDF801054080B582B000AF7860024B7A68BD
:403140001A60BD4602B080BDF001054080B500AF00F078F8054B181C00F036F8032000F041F800F065F8BD4680BDC0467131000098B500AF0220FFF7DDFF104B1B78012B3C
:4031800006D10E4B00221A700D4B00221A700FE00B4B1B781C1CFFF789FF031C99B2094B6200D152064B1B780133DAB2044B1A700020FFF76DFFBD4698BDC04603020020DC
:4031C000260100202801002080B582B000AF7860034A8C237968D150BD4602B080BDC0460000002090B585B000AF021CFB1D1A701E23FB603C1C0B34FFF733FB031C237049
:403200000A4B0A4A126892009108FA1D1078FA68041C9440221C0A431A603B1C0B331B78181CFFF722FBBD4605B090BD10E400E080B500AF024B802212031A60BD4680BD5C
:4032400000E100E080B500AF024B802212031A60BD4680BD80E100E080B500AF00F05EF8054B181C00F01CF8032000F025F800F04BF8BD4680BDC0467D32000080B500AFBC
:403280000220FFF757FF044B01221A70034B00221A70BD4680BDC046030200202601002080B582B000AF7860024B7A685A64BD4602B080BD0000002090B585B000AF021CC4
:4032C000FB1D1A700E23FB603C1C0B34FFF7C9FA031C23700A4B0A4A11680A4A1140FA1D1078FA68041C9440221C0A431A603B1C0B331B78181CFFF7B8FABD4605B090BDD4
:4033000000E400E0FF3FFFFF80B500AF024B02221A60BD4680BDC04600E100E080B500AF024B02221A60BD4680BDC04680E100E080B500AF094B00221A60094B0C221A6091
:40334000012000F087F8074B181C00F049F8054B181C00F053F8BD4680BDC0464001054064010540FFFF000090B583B000AFFC1DFFF777FA031C2370084B084A1268022138
:403380000A431A60FB1D1B78181CFFF76EFA0220182100F041F8BD4603B090BD0000054080B500AF064B1B78002B04D1FFF7C0FF034B01221A70FFF7D7FFBD4680BDC046B3
:4033C0000402002080B582B000AF7860034B7A681204120C1A60BD4602B080BD4801054080B582B000AF7860034B7A681204120C1A60BD4602B080BD5401054080B582B09C
:4034000000AF7860034B7A681204120C1A60BD4602B080BD4C01054090B585B000AF786039603C1C0F34FFF71CFA031C2370084B3A687968081C9040021C1A603B1C0F33B5
:403440001B78181CFFF711FABD4605B090BDC0460800054080B582B000AF7860024B7A681A60BD4602B080BD7801054080B582B000AF7860024B7A681A60BD4602B080BD5C
:403480007001054080B500AF00F046F9054B181C00F002F9032000F00DF900F033F9BD4680BDC046A934000080B500AF0120FFF7DDFF764B1B780C2B00D9D4E09A00744B34
:4034C000D3181B689F46002000F0F2FAFF2000F02DF96E4B1B781A1C6E4B5200D35A181CFFF77EFFBFE0002000F020F9FF2000F043F9664B1B781A1C664B5200D35A181CF6
:40350000FFF76EFFAFE0002000F036F9FF2000F059F95E4B1B781A1C5E4B5200D35A181CFFF75EFF9FE0002000F04CF9FF2000F06DF9564B1B781A1C564B5200D35A181CD1
:40354000FFF74EFF8FE0002000F060F9FF2000F083F94E4B1B781A1C4E4B5200D35A181CFFF73EFF7FE0002000F076F9FF2000F099F9464B1B781A1C464B5200D35A181CA7
:40358000FFF72EFF6FE0002000F08CF9FF2000F0AFF93E4B1B781A1C3E4B5200D35A181CFFF71EFF5FE0002000F0A2F9FF2000F0C5F9364B1B781A1C364B5200D35A181C77
:4035C000FFF70EFF4FE0002000F0B8F9FF2000F0DBF92E4B1B781A1C2E4B5200D35A181CFFF7FEFE3FE0002000F0CEF9FF2000F0F1F9264B1B781A1C264B5200D35A181C48
:40360000FFF7EEFE2FE0002000F0E4F9FF2000F007FA1E4B1B781A1C1E4B5200D35A181CFFF7DEFE1FE0002000F0FAF9FF2000F01BFA164B1B781A1C164B5200D35A181C18
:40364000FFF7CEFE0FE0002000F00EFAFF2000F02FFA0E4B1B781A1C0E4B5200D35A181CFFF7BEFEC0460020FFF7ACFE074B1B780133DAB2054B1A70044B1B780D2B02D137
:40368000024B00221A70BD4680BDC046050200200C7800003801002080B582B000AF7860034A84237968D150BD4602B080BDC0460000002090B585B000AF021CFB1D1A70E2
:4036C0000E23FB603C1C0B34FFF7CBF8031C23700A4B0A4A11680A4A1140FA1D1078FA68041C9440221C0A431A603B1C0B331B78181CFFF7BAF8BD4605B090BD10E400E09E
:40370000FF3FFFFF80B500AF024B802292021A60BD4680BD00E100E080B500AF024B802292021A60BD4680BD80E100E080B584B000AF021CFB1D1A700E4B1B68DAB23B1C72
:403740000F3304218A431A70FB1D1B789B00DAB204231340D9B23B1C0F333A1C0F3212780A431A70034B3A1C0F3212781A60BD4604B080BD0004044080B584B000AF021CC8
:40378000FB1D1A700E4B1B68DAB23B1C0F3308218A431A70FB1D1B78DB00DAB208231340D9B23B1C0F333A1C0F3212780A431A70034B3A1C0F3212781A60BD4604B080BD5D
:4037C0000004044080B584B000AF021CFB1D1A700D4B1B68DAB23B1C0F3301218A431A70FB1D1A7801231340D9B23B1C0F333A1C0F3212780A431A70034B3A1C0F32127884
:403800001A60BD4604B080BD0000044080B584B000AF021CFB1D1A700E4B1B68DAB23B1C0F3302218A431A70FB1D1B785B00DAB202231340D9B23B1C0F333A1C0F32127834
:403840000A431A70034B3A1C0F3212781A60BD4604B080BD0000044080B584B000AF021CFB1D1A700E4B1B68DAB23B1C0F3304218A431A70FB1D1B789B00DAB204231340AF
:40388000D9B23B1C0F333A1C0F3212780A431A70034B3A1C0F3212781A60BD4604B080BD0000044080B584B000AF021CFB1D1A700E4B1B68DAB23B1C0F3308218A431A7072
:4038C000FB1D1B78DB00DAB208231340D9B23B1C0F333A1C0F3212780A431A70034B3A1C0F3212781A60BD4604B080BD0000044080B584B000AF021CFB1D1A700E4B1B6847
:40390000DAB23B1C0F3310218A431A70FB1D1B781B01DAB210231340D9B23B1C0F333A1C0F3212780A431A70034B3A1C0F3212781A60BD4604B080BD0000044080B584B05B
:4039400000AF021CFB1D1A700E4B1B68DAB23B1C0F3320218A431A70FB1D1B785B01DAB220231340D9B23B1C0F333A1C0F3212780A431A70034B3A1C0F3212781A60BD460E
:4039800004B080BD0000044080B584B000AF021CFB1D1A700E4B1B68DAB23B1C0F3320218A431A70FB1D1B785B01DAB220231340D9B23B1C0F333A1C0F3212780A431A701C
:4039C000034B3A1C0F3212781A60BD4604B080BD0003044080B584B000AF021CFB1D1A700E4B1B68DAB23B1C0F3340218A431A70FB1D1B789B01DAB240231340D9B23B1CA7
:403A00000F333A1C0F3212780A431A70034B3A1C0F3212781A60BD4604B080BD0003044080B584B000AF021CFB1D1A700D4B1B68D9B23B1C0F337F220A401A70FB1D1B7831
:403A4000DB01D9B23B1C0F333A1C0F3212780A431A70044B3A1C0F3212781A60BD4604B080BDC0460003044080B584B000AF021CFB1D1A700D4B1B68DAB23B1C0F33012129
:403A80008A431A70FB1D1A7801231340D9B23B1C0F333A1C0F3212780A431A70034B3A1C0F3212781A60BD4604B080BD0001044080B584B000AF021CFB1D1A700E4B1B689C
:403AC000DAB23B1C0F3340218A431A70FB1D1B789B01DAB240231340D9B23B1C0F333A1C0F3212780A431A70034B3A1C0F3212781A60BD4604B080BD0000044080B500AF3F
:403B000000F02CF8BD4680BD80B500AF054B054A1268802109060A431A6000F017F8BD4680BDC0460000074080B500AF064B1B78002B04D1FFF7E2FF034B01221A70FFF7A1
:403B4000E3FFBD4680BDC0460802002080B500AF0B20FEF707FFBD4680BDC04680B500AF234B00221A60234B234A1A60234B234A12680C210A431A60214B224A1A60224B58
:403B800000221A60214B00221A60214B214A1A60214B00221A600B20FEF7FAFE0B200321FEF78CFE1D4B0B20191CFEF761FE1C4B00221A601B4B00221A601B4B00221A60FF
:403BC0001A4B1B4A1A601B4B00221A601A4B00221A601A4B10221A70194B00221A80194B00221A60184B00221A60BD4680BDC0460000074060000740770800807000074054
:403C00000003074007030080040307401003074000020740070100800402074025410000C80E0740880E0740480F0740080F074013010000C80F0740880F074062040020F8
:403C4000700400206C0400207404002080B584B000AF786039600023FB600423BB60374B1B78DBB2102B64D1354B1A680123134002D00823BB605CE00B20FEF789FE7B68D6
:403C80005A00FF2313407B603B68002B03D12B4B24221A7006E0294B25221A707B68012213437B60274B7A681A60274B274A1A60274B02221A60C046234B1A68254B13401C
:403CC000FAD0214B1A680423134002D00023BB601CE01D4B1A680223134002D00223BB6014E0194B1A680123134007D0134B10221A700123BB600123FB6007E00F4B10229F
:403D00001A7080235B00BB600123FB600E4B114A1A60FB68002B0CD00F4B0F4A1268520052081A600C4B0C4A1268802109060A431A60BB68181CBD4604B080BD6204002007
:403D40006400074040020740000F07401703000068000740070100000000074080B584B000AF786039600023FB600423BB60364B1B78DAB220231340DBB2002B5ED07B6859
:403D80005A00FF2313407B603B68002B03D12E4B24221A7006E02C4B25221A707B68012213437B60294B2A4A1A6000F017F9C046284B1A6801231340FAD1274B7A681A609C
:403DC000C046224B1A68254B1340FAD01F4B1A680423134002D00023BB601CE01B4B1A680223134002D00223BB6014E0174B1A680123134007D0144B10221A700123BB60DD
:403E00000123FB6007E0104B10221A7080235B00BB600123FB600D4B104A1A60FB68002B0CD00F4B0E4A1268520052081A600C4B0B4A1268802109060A431A60BB68181C91
:403E4000BD4604B080BDC04662040020000F0740170300006800074040020740070100000000074080B584B000AF78600023FB600423BB60294B1B78DAB220231340DBB265
:403E8000002B46D0264B7A681A60C046254B1A68254B1340FAD0234B1A680423134005D01E4B60221A700023BB601FE01D4B1A680223134005D0194B60221A700223BB6097
:403EC00014E0184B1A680123134007D0134B10221A700123BB600123FB6007E00F4B10221A7080235B00BB600123FB600D4B0E4A1A60FB68002B0CD00C4B0C4A1268520021
:403F000052081A60094B094A1268802109060A431A60BB68181CBD4604B080BD6204002040020740000F0740070100000000074080B584B000AF786001235B42FB601F4BA0
:403F40001B78DAB220231340DBB2002B30D0C0461B4B1A680423134004D11A4B1A681A4B1340F5D0164B1A680423134010D0174B1B68FB60124B04221A607B68002B03D1D7
:403F8000134B04221A6013E00C4B60221A700FE00C4B104A1A60104B0F4A1268520052081A600D4B0C4A1268802109060A431A60FB68181CBD4604B080BDC0466204002089
:403FC000C00F0740000F0740010100004003074068000740170300000000074080B582B000AF264B1B687B60C04600F04FF8031C002BFAD0002000F057F8214B204A1268D4
:404000000F218A431A601F4B1E4A1268520052081A607A682023134011D0002000F044F80320FEF709FD012000F03EF8C04600F05FF8031C002BFAD00320FEF7FDFC0020FB
:4040400000F032F80320FEF7F7FC0F4B01221A600C4B0C4A1268802109060A431A60084B074A12680F218A430E210A431A60012000F01AF8BD4602B080BDC04664000740AF
:404080000C000140000007406800074080B500AF044B1A68022313405B08DBB2181CBD4680BDC0460403044080B584B000AF021CFB1D1A700D4B1B68DAB23B1C0F330121E1
:4040C0008A431A70FB1D1A7801231340D9B23B1C0F333A1C0F3212780A431A70034B3A1C0F3212781A60BD4604B080BD0003044080B500AF044B1B68DAB201231340DBB2C2
:40410000181CBD4680BDC0460403044080B500AF034B40221A60FEF75BFCBD4680BDC046C000002080B582B000AF00233B60C24B1B68002B02D0C04B1B689847BF4B1A68E0
:404140000123134002D0BE4B00221A60BD4B1B78DAB220231340DBB2002B3CD0BA4B1A6880235B0013400AD0B84B1B889BB2C022920013439AB2B54B1A8001233B60B24BBF
:404180001A68012313400AD0B04B1B889BB29022920013439AB2AD4B1A8001233B603B68002B18D0A74B1B78DAB201231340DBB2002B01D0012300E00223A44A128892B24E
:4041C00091B21A1C0B1C13439BB29AB29F4B1A809C4B00221A709B4B1B78DAB220231340DBB2002B00D1AAE1974B1A68102313401CD0974B10221A60924B1B78DAB20123E6
:404200001340DBB2002B01D0012300E002238F4A128892B291B21A1C0B1C13439BB29AB28A4B1A80874B10221A70BEE1854B1B78DAB208231340DBB2002B29D0824B1A682A
:40424000022313400ED0824B02221A607F4B1B889BB28822920013439AB27C4B1A8001233B6015E0774B1B78DAB201231340DBB2002B03D0734B25221A7009E0714B242273
:404280001A70744B1B68002B02D0734B10221A606C4B1B78DAB204231340DBB2002B00D111E1684B1B78DAB201231340DBB2002B5BD06A4B1A680823134033D0684B1A68E7
:4042C000684B19680F231940674B1B68CB18D31A7B607B68082B02D908237B601EE07B68002B1BD1614B614A1168614A0A401A6008237B6001233B6010E05E4B1A685A4B6C
:404300001B68D2185C4B1B68DBB21370564B1B685A1C554B1A607B68013B7B607B68002BEBD11EE04D4B1A680423134019D0514B1A684D4B1B68D2184F4B1B68DBB2137093
:40434000494B1B685A1C484B1A60474B1A68444B1B689A4203D2494B04221A6001E001233B60474B474A1A60ADE0374B1A680223134032D0364B02221A60434B1A68434B93
:4043800019680F231940414B186880231B02034001D0012300E00023CB18D21A3A4B1A60394B1A683A4B1A60284B1B889BB28422920013439AB2254B1A80364B354A126856
:4043C000802149020A431A60324B324A1168324A0A401A6001233B6075E0304B1A681023134065D013E0284B1A681A4B1B689A4214D22B4B2B4A1168234A12688A18127883
:40440000D2B21A60204B1B685A1C1F4B1A601F4B1A680F231340082BE5D100E0C0461A4B1A680C4B1B689A4202D10B4B40221A601D4B1E4A1A6046E00C0200208C0E0740D5
:40444000880E0740620400200C0F074070040020000F074084040020880F0740CC0F074080040020080307406C04002060000740FFFEFFFF640400204003074068000740FC
:40448000C00F0740ED0F00007C040020080207407404002004020740FFFFFEFF8C0F07404002074068040020800F0740F30700003F4B1A684023134005D03E4B1A683E4B27
:4044C0001A6001233B603B68002B6ED03B4B3B4A11683B4A0A401A603A4B00221A603A4B00221A60394B1B78DAB202231340DBB2002B19D0364B1B78DAB201231340DBB208
:40450000002B01D0092300E00A23324A128892B291B21A1C0B1C13439BB29AB22D4B1A802B4B60221A7040E02B4B2C4A116820220A4001D0182200E010221A6035E0244B9D
:404540001B78DAB210231340DBB2002B2DD1244B234A1268520052081A601D4B10221A70164B164A11681F4A0A401A60134B134A11681D4A0A401A60124B00221A60124B24
:4045800000221A60194B1A4A1A601A4B1A4A1A601A4B1B4A1A601B4B1B4A1A60104B104A1268802109060A431A60BD4602B080BD8C0F07407C0400207404002060000740F8
:4045C000FFFEFFFFC80F0740880F0740780400206204002070040020680007406400074000000740FF5FFFFFFFFCFFFF800F0740ED0F0000C00F0740F3070000400F0740A0
:40460000FF0F0000000F07401703000008B500F003F808BD00000000F0B54D4644465F465646F0B485B002920393039C029E65006F08BC467742374301946546FC0F254386
:40464000A9466B4D8846A94528D84C0067084442B9460443E40F4F463C43AC421ED8039D019F644CAA463D19354344D05746BD1702242540CC0F25434F46041C3C4304D15B
:40468000022D43D03ADC002D0ADA644626430ED14546002D4ADB41493F4801E001F078F905B03CBC90469946A246AB46F0BD504EB4452ED04E4FB94535D04C466646A71B51
:4046C0003C153C2C1FDC5646002E42DB01F010FD00F03EFA00F090F8012D35D0022D28D0002DDDD02E4A2F4B02F06EFB2E4A2F4B02F06AFBD4E700F07FF8D1E7032DC4D118
:404700002B482C49CCE725492348E5E726482749C6E7E14522D0012D2AD02CDD022DF5D0032DC7D1ECE740460028B4DA22482349B6E71B4A1B4B02F047FB021C0B1C1A4881
:404740001A4902F041FBABE70B1C80210A069918A6E73C34BADA1A481A49BDE7012D12D014DD022D0CD0032DDDD11748174997E71748184994E7002D9CD1114811498FE76E
:40478000154816498CE71648164989E7002DCAD11548164984E7C046182D4454FB21F93F075C143326A6A13C182D4454FB210940182D4454FB2109C0182D4454FB21F9BF6F
:4047C0000000000000000000D221337F7CD902C00000000000000080D221337F7CD90240182D4454FB21E9BF182D4454FB21E93F0000F07F000010C0F8B556465F464D46BF
:4048000044468146C648F0B44E0088468A46770887420FDDC34B4A469F4200DDA6E000D1A1E05646002E00DCE4E0BF48BF4D8146A846A3E0BE498F4200DDB4E0BD4DAF4228
:4048400000DCA3E00123584283464A4643464846414602F047F8061C0F1C321C3B1C02F041F8904B8E4A041C0D1C02F03BF88E4A8E4B01F08DF8221C2B1C02F033F88C4A16
:404880008C4B01F085F8221C2B1C02F02BF88A4A8A4B01F07DF8221C2B1C02F023F8884A884B01F075F8221C2B1C02F01BF8864A864B01F06DF8321C3B1C02F013F8844A84
:4048C000844B061C0F1C201C291C02F00BF8824A824B02F079FA221C2B1C02F003F8804A804B02F071FA221C2B1C01F0FBFF7E4A7E4B02F069FA221C2B1C01F0F3FF7C4A40
:404900007C4B02F061FA221C2B1C01F0EBFF0B1C5946021C013100D171E05846C400391C301C01F035F84A46434601F0DBFF824E824D37193A687B6802F046FA4A46434607
:4049400002F042FA2D19021C0B1C2868696802F03BFA544681468846002C0FDA80200506691888460AE0002A00D15AE7484641464A46434601F00CF88146884648464146C5
:404980003CBC90469946A246AB46F8BD5A4A5B4B4846414600F0FCFF594A5A4B00F056F90028EBD14EE74846414600F0D1F8644A041C0D1C974233DC624A974259DC221C2D
:4049C0002B1C00F0E5FF4E4A4E4B02F0FDF94E4A4E4B061C0F1C201C291C00F0D9FF021C0B1C301C391C01F083FB002481468846A3462AE74C4F544CB946A046BEE7301CA3
:404A0000391C00F0C5FF4A46434601F06BFF021C0B1C4846414602F0D7F981468846ADE74A4B9F421ADC3A4A3A4B02F0CDF9384A384B061C0F1C201C291C01F053FF304AF7
:404A4000304B00F0A5FF021C0B1C301C391C01F04FFB8146022088468346F6E62E482F49221C2B1C01F044FB032681468846B346EBE6234A234B02F0A7F9214A214B061C19
:404A80000F1C201C291C00F083FF021C0B1C301C391C01F02DFB8846012181468B46D4E611DA22E33AAD903FEB0D76244B7BA93F513DD0A0660DB13F6E204CC5CD45B73FA9
:404AC000FF8300922449C23F0D5555555555D53F2F6C6A2C44B4A2BF9AFDDE522DDEAD3F6D9A74AFF2B0B33F711623FEC671BC3FC4EB98999999C93F9C7500883CE4377E02
:404B0000000000000000F03F0000000000000040000000000000F83F000000000000F0BFFFFF0F440000F07F182D4454FB21F93FFFFFDB3FFFFF1F3E40780000607800002C
:404B4000FFFFF23FFFFFE53FFB21F9BFFF7F0340490049087047C046002934D00123002210B488422CD301242407A14204D2814202D209011B01F8E7E400A14204D28142F3
:404B800002D249005B00F8E7884201D3401A1A434C08A04202D3001B5C0822438C08A04202D3001B9C082243CC08A04202D3001BDC082243002803D01B0901D00909E3E730
:404BC000101C10BC7047002801D00020C04307B4024802A14018029003BDC046190000000029F0D003B5FFF7B9FF0EBC4243891A1847C0467047C0468446101C62468C46A6
:404C0000191C634600E0C0461FB501F0FFFD002801D40021C8421FBD10B501F045FD4042013010BD10B501F0F1FD002801DB002010BD012010BDC04610B501F0E7FD002828
:404C400001DD002010BD012010BDC04610B501F069FD002801DC002010BD012010BDC04610B501F05FFD002801DA002010BD012010BDC046F8B5430242004F024C00C00FDD
:404C80009B09120E061C9C46240EC90FBF09884257D0151B002D00DC7EE0002C41D1002F64D0013D002D00D0ABE0DB1B141C061C590144D59A019509281C02F075FC053893
:404CC0008540844200DD79E0001B1F242B1C411C221ACB4095401F1C2B1C5D1EAB413B43012500240F201840042800D004338021CF0401221F401640002F05D0FF2D5AD0C4
:404D0000B34C23402C1C0135EDB2DA08012D3BDD53025A0AE4B2E4052243F607101C3043F8BDFF2A2BD08021CC04274301231B2D49DD6746FB1A141C061C5901BAD4651CD0
:404D4000D0E7151B002D4FDD002C13D0FF2A5AD08024E1040F4301231B2D00DCB0E06344141C590155D4651C061CBBE7551C141C061CB7E7002F7CD1551C141CB2E7802781
:404D800063467D00FF24ADE7002AC3D0002C28D08020C1030A43BBE7002D47D1501CC3B2012B00DC96E06446E51B680158D53D1B0E1C141C80E7FF240022ACE7844B241A00
:404DC0002B40651C8EE73E1C2021EE404D1BAF403B1C5F1EBB4133436746FB1A141C061CABE757027A0A96E7002D7FD1541CE1B2012953DDFF2C00D19BE0FB185B08951C74
:404E000070E7FF2A92D1061C802063464500FF2468E7671CFF2F3CD06D4A01261E4013405B083343A51C061C3C1C5BE76842002A25D0FF2C70D08022D6041D1C3543AC4678
:404E400001261B2809DC62462025C2402B1A60469840061C701E86411643BB1B0E1C27E7141C002D00D027E700260125042300244AE7013D002D08D1FB18141C71E7002B46
:404E800050D1651C3B1C0E1C2CE7FF2A00D062E7B9E780235D00FF24042335E7002A7CD1002B00D1A1E0002F00D1AFE0FB18590100D4B0E0464E022533400124061C11E7B3
:404EC0003C1C2023EC405D1BAF403B1C5F1EBB41234344E7002A12D16546002D41D1002FC2D03B1C0E1C01250024FBE66D42002A23D1002B66D1651C3B1C061CF2E6624616
:404F0000002A38D1002F07D1802200265500314BFF24F9E6FF2C93D13B1C80270E1C7D00FF24DFE601380028F4D16646BB1B0E1CBEE680277D000423E6E6FF2C5CD08022FA
:404F4000D1040B439C4601231B2D08DC20216246EA4063464D1BAB40591E8B411343DB19FFE6002F38D0EB1B5A014BD57B1B0E1C01250024B6E6002F00D100E78020D3089B
:404F8000C403234204D0FF08274201D13B1C0E1C8021DB004D00FF24A4E6002B20D0002F00D1ECE68022DE08D503311C2E4203D0F908294200D0311C061C8020CB00450080
:404FC000FF248FE6013D002D14D1FB18C9E6C046FFFFFFFBFCFFFF0363460125002481E6802465003B1CFF247CE63B1C061C0125002477E6FF2CA6D13B1C8027061C7D006E
:40500000FF246FE6002B00D12EE769E66346061C0125002466E6061C0125002462E6C046F0B55F4656464D464446F0B44502440083B00E1C6D0A240EC70F002C07D1002D3E
:4050400000D091E0042101228846924609E0FF2C55D08023180400210543ED007F3C88468A46331C58007602D90F760A000E8B464CD101229446002E00D081E05B467B401F
:405080006246414601930A430F2A50D9201A690181467501A94200D3B3E00122534299441B2400260127621E381C10404B007600002900DAA9E09D4200D8A6E0013C002C13
:4050C00000DCABE000280CD0191C76005B00002901DB9D4201D85B1B3E43013C002C00DC9CE059007200002B01DB8D4201D8491B3A43013C4B0056000029EADAEBE7002DA5
:405100002DD10820022180468A46AAE7FF2820D08022130400211E438C465B467B4062464146F6007F3801930A430F2AAED8564992008A589746019BFF260025F0052843CD
:40514000DE07304303B03CBC90469946A246AB46F0BD331C5A1E934102339C468EE70C22032390469A467CE7281C02F01DFA7622441F5342A5401C1A00208046824670E760
:40518000301C02F011FA7623411F8E405A420021101A8C4672E700233C4DFF26CEE75F46351C01976346022BC5D0032B63D0012B43D049467F31002935DD0F272F40042F5C
:4051C00000D004352B0103D5314A494615408031FE29B0DCA801450ACEB2019BAEE700260025ABE78020C1030D4211D00E420FD10E4373025D0AFF265B469FE701975346EB
:40520000D1E7491B1A2401264CE75B1B3E4355E70D436A02550A3B1CFF268FE71D1C6B1E9D413543C5E77E2467424A46B91A1B2908DD019B0026002580E7019D00262B4062
:4052400000257BE74E469E36281CB5402B1C5D1EAB41C84003430F251D40042D00D004335A0103D5019B0126002567E79C01650A019B002662E78027FC0325436E02750AC4
:40528000019BFF265AE7C04680780000FFFF7F00FFFFFFF7F0B55F4656464D464446F0B44502460083B00F1C6D0A360EC40F002E06D1002D70D1042101228846924609E013
:4052C000FF2E43D08023180400210543ED007F3E88468A46381C43007F02C10F7F0A1B0E8B463AD10121002F62D158466040424601900A430F2A3FD92C04F018260C3B0466
:405300001A0C311C51433F0C2D0C7E436A438146080C36182C1CB3187C439A4200D99AE009041D04080C2E18B5011B0C691E8D41B20EE7181543BC0125432B014BD50120E7
:40534000284001216D088944054344E0002D1ED10820022180468A46BCE7FF2B12D08022100407435846002160404246FF007F3B01900A430F2ABFD890005B4A8446624456
:4053800010688746391C4A1E91410231ADE70C22032390469A469DE7281C02F005F97622461F5342B5401E1A00208046824691E7381C02F0F9F87621431F4A429F400021EF
:4053C000131A92E70194514602292CD0032900D180E0012948D04E467F36002E51DD0F242C40042C00D004352A0103D53F494E460D408036FE2E3DDD019B01241C40FF21F3
:405400000025C805E2072843104303B03CBC90469946A246AB46F0BD0024354DFF21F0E751460229D2D1019D01242C40FF210025E7E75E463D1C0196C6E73D1CC4E78026BE
:40544000F3031D420BD01F4209D11F437A02550A5C46FF21D5E780225702E41960E71D436F027D0AFF21CCE7019B00251940CCB20021C6E70198AD0101246D0AF1B204406C
:40548000BFE77E2673424A469F1A1B2F05DD019D01242C4000210025B3E749469E312C1C8D402E1CFC40751EAE4126430F203040042800D00436700105D5019F01243C4024
:4054C000012100259DE7019AB30101245D0A1440002196E78022D00305436C020199650A01240C40FF218CE7C0780000FFFFFFF7FFFF7F00F8B5430245004F024C00C20F8E
:40550000980984462D0E200EC90FBF09FF2854D0012671408A423BD02C1A002C00DC89E0002825D1002F4BD16E1C2C1C6346151C0F221A40042A00D004338027F9040122AA
:4055400019402A40002906D0FF2E00D181E0B14D341C2B400136F6B2DD08012E62DD6B025D0AE4B2E4052543281CD2071043F8BDFF2D51D08021CB041F4301261B2C70DD65
:4055800067462C1CBB1B151C580122D4661CCFE72E1A002E76DD002832D0FF2D3CD08024E1040F4301231B2E00DCD1E063442C1C58017AD4661C151CBAE7002FAAD1A7E746
:4055C000013C002C6DD163462C1CDB1B151C5801DCD59A019609301C01F0E6FF05388640844239DC001B1F231A1A331C311C441C9340E1405E1EB3410B430126002497E7A0
:40560000002F00D190E7013E002E03D164463B192C1CCDE7FF2DC5D1151C802263465600FF2485E7002D9CD0002C28D08020C7033D4394E7002C45D16B1CD8B2012800DC1B
:4056400090E06446E61B730157D53E1B2C1C0D1CC1E7FF24002585E76E4B241A3340661C66E7381C2021E0400C1BA7403E1C771EBE41064367462C1CBB1B151C84E7690244
:405680004D0A6FE7002E79D16C1CE0B201284BDDFF2C00D198E061467F18AE1C7B08151C46E7FF2D00D068E7B6E7671CFF2F36D058480121194003405B08A61C0B433C1C35
:4056C000151C35E76642002D1ED0FF286FD080256246EB041A43944601251B2E09DC62462023F24064469E1BB440251C6C1EA54115437B1B041C0D1C69E7002E0CD1002294
:4057000001260423002426E76446002C55D1461C3B1C041C0D1C0BE72C1C151C5BE780235E00FF24042316E7002D00D08DE06546002D00D1ADE0002F00D181E07B195C0105
:4057400000D47EE0334F151C3B4002260124EFE6381C2023F0409E1BB7403B1C5F1EBB41034323E7002D15D16546002D47D1002FC5D03B1C0D1C01260024D9E67642002DDA
:4057800026D16546002D00D07DE0461C3B1C041C151CCDE66546002D40D1002F07D1802100224E001C4BFF24D5E6FF2894D180203B1C0D1C4600FF24BAE6013E002EF4D103
:4057C0003B1B0D1C041C02E780256E000423C2E6FF2852D080246146E30419438C4601231B2E09DC20216446F44065468E1BB5402B1C591E8B412343DB19041CD8E6002FEB
:405800001ED0EB1B58014BD57B1B01260D1C00248EE6C046FFFFFFFBFCFFFF03002F00D1FAE68020EB08C403234237D0FF08274234D13B1C0D1C8022DB005600FF2477E694
:405840006346151C0126002472E66446002C14D0002F00D1E0E68023E608D803311C064203D0F908014200D0311C151C8022CB005600FF245CE6FF28B1D180203B1C151CCC
:405880004600FF2454E6013E002EF4D17B19041C8EE63B1C151C0126002449E6151CCAE7002B00D12BE7CCE743024200590A00B5130EC20F00207E2B0DDD9D2B0CDC8020B2
:4058C00000040143952B0ADC9620C31AD9404842002A00D1081C00BD02495018FBE7963B9940F4E7FFFFFF7F70B5041E3CD0C50F00D04442201C01F057FE9E21261C0B1AED
:40590000962B0ADC0838844061024C0ADBB2DB051C43ED07201C284370BD992B0ADD0522141A311CE140041C1B34A6400A1C711E8E41164305281BDC144C0F223440164050
:40594000042E00D00434620105D59F231B1AFF2B0CD00E4804405E1CF1B2E40801290ADD6402640ADBB2D2E7002500230024CEE7411F8E40E0E7002CF4D0002B03D080223F
:40598000D0030443ECE76602740AC0E7FFFFFFFBF8B55F4656464D464446F0B40C03460F640A3443A3465E001C03DB0F9C46630A98464D00530F44461C436D0DC90F760D93
:4059C000D2000F1CC000A1469246AB1B614500D1A4E0002B00DCF5E0002E0CD1261C164300D1C2E0013B002B00D046E15C464B46821AE71A21E0D24EB54200D1CDE080240D
:405A00004A4627043A439146382B00DD0FE11F2B00DD50E12026F61A4C4652465746B440B740DA4022433E1C4C46771EBE41DC403243261C5B46821A9F1B904280414642E3
:405A4000BB1B141C2E1C0F1C180200D4AEE05D02690A88464246002A00D1D9E0404601F0A3FD051C083D1F2D00DDDAE02822131A201C4146D840A940031C0B43AC40AE426F
:405A800000DD90E0AE1B711C1F2900DD00E11F20851B1A1C201CAA40C840AC401043661EB4410443CB40012200260F202040042864D0201DA042A441654280215B190124D3
:405AC0000D041D402740002D07D09D4EB24200D19AE09C49161C0B4001325C07C00852050443DB08550D012D62DD1B0376051B0B760D00200021090D201C0A05924C13437B
:405B0000760575081C402C436300FF07590839433CBC90469946A246AB46F8BD002B00DC91E0002E31D0864EB54200D1A9E080244E4622041643B146382B00DD18E11F2B24
:405B400000DD73E12026F61A4A46B240904652464446DA4022435446B440261C741EA6414C463243DC401218F6E0041C0F206A1C5B462E1C0F1C204004289AD180252D0481
:405B800001211D400F40201C9DE7144300D0DDE06A1C5B46041C2E1C87E780215B46041C0A012E1C81E7761B664D2B40721C7CE7211C194300D167E2002E41D0802002031E
:405BC000134392E7002B00D088E0691C4E05740D012C00DC1AE15B46161C4C46821A191B90429B415B42C91A88460B0200D49EE0371ABA4592415E46A41B5342E11A8846A2
:405C00003C1C2E1C674625E7161C0023002470E7201C01F0C9FC2030051C083D1F2D00DC24E7031C283B9C40231C002427E74A4653461A430026002A00D1FBE60122F9E605
:405C40001D032B0B55E7002B00D004E16E1C7405630D012B00DCAAE039498E4200D130E11118814280414B4642425B449B18DC0749080C435B08AA1C17E7314FBD4200D06C
:405C8000C2E6041C80205B460F1C02012E1C0CE7301C1F381A1CC240151C202900D182E03F218E1BB3401C43631E9C412C43012200230026F9E61C1C203C4F46E7403E1CCB
:405CC000202B72D04022D41A4B46A3401A1C57463A43531E9A4132430026ABE65F42002D50D0174DAE4200D155E180245A4621040A439346382F00DDDAE01F2F00DD78E131
:405D00002021CC1B051C5A46A240FD40A04015435B46421E90412843FB4057463C1AA24592414846C11A55424B1B67468CE6081C104330D100270122002304200026CCE698
:405D4000FF070000FFFF7FFFFFFF0F80013B002B24D153461A184C46824280415C444342E3182E1C141C18023ED4721C0F1C9CE64A4653461A430024002A00D1F3E6012234
:405D80001218E9E75B46034300D083E0231C721C5446674689E6141C2E1C5BE6CD4EB54200D0C9E66DE700237DE700228FE75E460643002D00D0F4E0002E00D14CE14B4612
:405DC000134300D17EE115184E46854280415E444242B3181E0200D482E1BF4F2C1C3B4002220F1C012660E6BA4D701CA8424BD0B94F0125254062083B402C1CDF0714436A
:405E00003C43B21C5B08061C0F1C4EE65E460643002D2CD1002E00D07DE04E46141C164388D04B466746012200263EE61E1C203E4C46F440261C202B00D1D8E04022D41ADB
:405E40004B46A3401A1C54462243531E9A4132430024121880E75B42002D37D15C46044300D0D7E0721C4B4654460F1C1DE6002E6ED14B46141C134300D1DCE080254B4693
:405E800067462A01934E10E68021061C0A010023042022E6013F002F79D1171A5B46BA45AD414946CA1A68423C1C131A6746CBE55F46074300230020002F00D12DE7012038
:405EC0002BE780252A010023042006E6814DAE4200D1D3E080245D4622041543AB46382B00DDB0E01F2B00DDDBE02025ED1A021C5C46AC40DA40A840451EA84122430243F3
:405F00005846D840031C55465419544592414B4450421B1827E74A465646324300D185E0851B5B464C46A8429241191B56428B1B1E0200D4ADE057463D1A5B46AA4589410E
:405F4000E41A4A42A31A67462C1C01220026ACE54D46161C154344D05C468021C0086207E3080D0310432B4200D181E04C46E10829427DD1F70866073E430B1C6746700F05
:405F8000DB008022F40003431201524E8DE5514DAE4200D0AEE680204B4654466746020183E5002E5ED04C4614431AD0C7088025584643072C03C0081F43204208D04E467E
:405FC000F308234204D15246D5087707181C2F43C300FC00780F0F1C802103430A013D4E63E5802632015B46041C3A4E5DE5002229E7391C20395C46CC40221C202F67D0E7
:406000004023DF1B5D46BD402843431E98411043002382E6013B002B2CD150445C469042AD414C446A42A318041C9CE65B46041C0122002639E58024042100272201274B40
:406040004842244E49E55D46054300230022002D00D158E7012256E7141C4B460F1C0122002622E5141C80224B461201194E1CE5061C84E7174A964200D030E70F1C802196
:406080004B4654460A0110E57405660D002300242FE5181C284300D14CE62C1C0122002603E51C1C203C5D46E5402C1C202B1CD04022D31A5A469A400243501E82412243D4
:4060C000002320E75B46041C0F1C01220026ECE4002599E7FF070000FFFF7FFFFFFF7F002C1C0F1C01220026DFE40022E4E7C046F0B54D4644465F465646F0B41D1C4B0030
:40610000141C0E035B0DCA0F87B0071C360B98469146002B1DD1321C024300D181E1002E00D104E2301C01F03FFA272800DDF8E12821031C083B0A1A391C9E40D1400E43EA
:406140009F40C14B0021181A002280468A4600920FE0BE48834231D080214B031E43BC487A0FF600002100231643FF0080448A460093291C201C251C4A000C03CB0F240B22
:40618000520D9B4625D1211C014300D150E1002C00D1C2E1201C01F007FA272800DDB6E1031C2822083B291C121A9C40D1400C439D40A54B1A1A0020029019E0321C3A43C5
:4061C00000D029E108270223BA46002600270093CFE79E48824200D113E180214B031C439B49680FE40000230443ED005218029348465B46434002985146019301430F2996
:4062000000D8DFE043469A1A0492A64200D86EE171087B08F6073343FA07894698460292280E240204432D022704390CAB46250C00914846291CFEF78FFC009F061C4743A1
:40624000291C4846FEF7CCFC434608041A0C1043874207D90019013E844203D8874201D9013E0019C11B8A46081C291CFEF774FC009B071C4343291C50469946FEF7B0FCCA
:40628000424610040B04010C0B43994504D91B19013F9C4200D864E136043E435F464A46390C89469B1A59463204170C0A0449467943120C03928C460399300C7A43414306
:4062C0004F4678438C44170C6744B94202D9802149024018390C120440183F04110C7F18834200D227E100D141E102991B1ACF1BB942804141425A1A9046A24200D15FE122
:40630000101C291CFEF728FC009B02904343291C40469A46FEF764FC380C090401438A450AD9029A0919013A02928C4204D88A4502D9013A029209195346C81A291C0590B2
:40634000FEF70AFC009A291C4243804605989246FEF746FC3F040D043A0C2A43924509D901214B4212199844944203D8924501D998441219029D43462F041F435046111AEF
:406380003804030C4D465D430398AC46039D3A0C584355434B465A43AC44030C63449D4202D980256D0252191D0C000452191B04050C5B19914200D2E6E000D13DE10122F3
:4063C00017435AE0890023488C46604401688F46019B1E4A0026002700200021381C0F0D3C051D4D34431205254015436E00DB077108194307B03CBC90469946A246AB4607
:40640000F0BD211C03202943029000D0F0E60223002400250293EBE60C20032182460091A7E604270123BA46002600270093A0E60121002400250291DAE601270023074E8E
:406440007F42024AC8E7C0460DFCFFFFFF07000001FCFFFF00790000FFFF0F80FFFF0F002F1C5A46029D261C0192022DB0D0032D00D101E1012D00D19CE0049B82481A1838
:40648000002A00DC8CE00F243C40042C05D03B1DBB42BF417D4276191F1CF10105D57B4A04998020C40016400A19794B9A4200DD8EE77507FF08760251052F43360B4A0D80
:4064C000019B89E700220026002785E7802001030E4216D00C4214D10C432603360B5B462F1C6C4A78E74C460194009DBDE7A64243D00498B846013800270490B14602976D
:406500008EE60E4333031E0B624A4B4664E7041C283CA5402C1C00254BE601F045F820303BE6061C283EB7403E1C002709E601F03BF82030F9E5029A013E111C5944594585
:40654000924152421219D3189C4204D298426BD816D01B1ACBE6A342FBD18B45F6D9231AC5E6994500D897E6013F1B1994E6029ABA42E0D302990023B9E6AF42B9D947E650
:406580008F4251D80023B2E60919013F58468C4219D9914200D012E7984200D00FE76CE73D4C049D631B382B1CDD019B00220026002711E7019B00222B40002600270BE768
:4065C00001277F4259E78A4203D800D0F7E69842E2D25D4668005845AD416D422C19013F0919D6E71F2B34DC049C2C4A381CA518311CAF40D840A9403C1C0143671EBC410B
:406600000F1C2743DE400F233B40042B05D03A1DBA42BF417D427619171C320211D5019B012200260027D7E659445945924152421219D318013E1B1A59E6002BA4D1002014
:40664000AAE77007FF08710207430E0B019B0022C2E61349049C301C0A1BD040051C202B08D0104BE1188E4037437B1E9F412F430026C8E70026F7E780221003064331037C
:406680000E0B019B034AA7E6FF030000FFFFFFFEFE070000FF07000002FCFFFF1E040000E2FBFFFF3E040000F0B5944647461A03061C580080B4170B420D19480D034C0003
:4066C000DB0F2D0B640DC90F9846844208D0144882420DD00120944212D004BC9046F0BD2B1C33430120002BF7D10D488242F1D163463B430120002BEFD101209442ECD107
:40670000BD42EAD16645E8D1414506D0002CE4D1281C3043451EA841DFE70020DDE7C046FF070000F0B557464E464546E0B4041C4E000803C90F8A46171C59001A03050B76
:40674000700D160B4A0D3049DB0F9C46884232D02D498A4235D000280FD1291C21434B424B419846002A0BD0002B1AD1E2452CD05546002D18D1012018E0002AF6D1904655
:40678000311C39434B424B414146002906D1002BECD056460120002E08D005E00020002B04D16746002FE6D1012358421CBC90469946A246F0BD2B1C2343C9D0022148425B
:4067C000F4E7331C3B43C6D0F8E7904205DC09DA5246002AE8D00120E8E75446002CE3D10120E3E7B542C3D807D00020B542DDD250460028D8D00120D8E7BC42B8D80020F4
:40680000BC42F5D3D2E7C046FF070000F0B544465F4656464D46F0B49446061C1A035800170B420D2E480D034C00DB0F2D0B640DC90F9846844233D02948824236D0002CF9
:4068400019D0002A20D1934663463B43584258415B468246002B1DD051460020002904D14246002A14D1012460423CBC90469946A246AB46F0BD2B1C3343584243419B465E
:40688000002AE1D0002BEBD1414515D00029EAD10120EAE70028F7D001200029E5D0E2E72B1C33430220002BDFD1C5E763463B430220002BD9D1C2E79442E7DC05DBBD4279
:4068C000E4D806D00020BD42CFD20029CBD00120CBE76645DAD800206645F6D3C5E7C046FF070000F0B5564644465F464D46F0B44F001D1C0B03141C1A0B7B0D87B0061C93
:4069000092469846CF0F002B21D1024300D149E15346002B00D1E4E1504600F045FE031E272B00DDD8E1083B5146994028228846111A321CCA4041460A4392469E40D84B3F
:406940000022181A002180469146039111E0D54883423ED0802153464A031A43D000710F0843D14A824600230020F600904499460390291C201C251C4A000C03CB0F240B8B
:40698000520D9B4631D1211C014300D112E1002C00D19DE1201C00F007FE272800DD91E1031C2822083B291C121A9C40D1400C439D40BB4B59461A1A794000204B460191FB
:4069C00003430F2B26D89900B84B8C46634419688F46111C314300D0DFE0082600200221B146824600260391C3E7AE48824200D1C9E080214B031C43AB49680FE4000443D2
:406A0000ED0052180020594679404B46019103430F2BD8D942443304290404921A0C0F0C101C7843360C331C80462D0C7B43301C6843111C69439C4643468346180C0818F5
:406A40006044844500D91FE1010C4346039119040B0C0004C0182104240C0590101C6243090C02924843321C66434A43029BB146060C9046B4461A1C62444244904502D99B
:406A8000802673029944160CB046C14400044B46060C12040293931956463204100C021C6A439C46031C7B439146320C574398461B0C9A46D144B94455434F4502D98027F7
:406AC0007E02AD194B461F0C4646ED191F0433041E0C031C4B436043514354431A0C8018B046401847449A46814202D980214E02A419039B1A1C62445A44624589414E4227
:406B00005146B34603040E049C460299330C6344CE18B046C246DA44D219BA42BF4151467B426F18F9189946DA459B415E42029BB3469845B64176425B461E43000C49453C
:406B40009B41AF42AD4136186F425842384336180598341956020643CB0D6402701E8641D20D164349021C430E43E0012FD50127049D374073083E1CE00701351E43049596
:406B80000643640823E0231C2B430320002B00D039E700240025022035E70C22032391460393E6E6042600230120B1469A4600260390DEE600240025012024E703985446B2
:406BC000022844D0032800D1EAE0012860D0049A37495018002800DC95E00F273740042F05D0311DB142B641754264190E1CE10105D53048049A8023DF000440D0192E49F6
:406C0000884224DC019B6507F6086402420501272E43240B520D1F4000200021090D0D052543264C12052C4014436300301C5E08FF07311C394307B03CBC90469946A24604
:406C4000AB46F0BD5A462E1C01920228BAD1019E01273740134A00240026DDE7544601970398ADE701260027154C76420D4AD3E72E1CA5E7802213035146194235D10B43EE
:406C80001D032C0B074AC7E780214B029B44DBE6019B00221840C7B200240026BCE7C0460DFCFFFFFF07000001FCFFFF40790000FF030000FFFFFFFEFE070000FFFF0F801E
:406CC000FFFF0F00041C283CA5402C1C002570E600F06AFC203060E6283B9E40B24600262DE600F061FC203019E61C4206D11C432603340B5F462E1C2E4A8DE70B43180321
:406D0000040B2C4A88E72C4F049D7B1B382B06DD019E012737400022002400267CE71F2B21DC049A254F351CD119201C8E40DD408840321C2843561EB241061C1643DC4020
:406D40000F233340042B05D0371DB742B641714264183E1C250217D5019B01271F4001220024002658E71648049A211C871AF9400D1C202B12D0134BD01884402643721E4F
:406D800096412E430024DBE7019A6507F6086002012717402E43040B00223DE70024EDE780210F033C43019824030127240B0740004A31E7FF07000002FCFFFF1E040000EB
:406DC000E2FBFFFF3E040000F0B557464E464546E0B4071C0D034E00680ACC0F790F08438446111C18035A00FD00400ADF0F4B0F1843CA4BC900760D520D8A469A4200D14D
:406E0000E0E001235F40B946BC4200D1A8E0B71A002F00DC10E1002A12D15246024300D1D4E0013F002F00D060E151466F1ABD42AD4162466B42101A3D1CC31A371C24E0A4
:406E4000B64A964200D1E3E080210B041843382F00DD23E11F2F00DD66E12021C91B021C53468A40FB401A4353468B40191C4B1E9941031C0A43FB40AA1A67469542AD41EA
:406E8000F81A6B42C31A151C371C1A0200D4C7E05E02710A88464246002A00D1F0E0404600F082FB021C083A1F2A00DDF1E02823181A2E1C4146C6409140331C0B4395403E
:406EC000974200DDA9E0D01B411C1F2900DD12E11F273A1A2E1C181CCE409040954030436A1E9541CB400543012100270F262E40042E00D172E02E1DAE42AD41684280224E
:406F00001B180125100418402C40002807D0834FB94200D1B0E0824A0F1C13400131F20849055E073243DB08480D012800DC79E01B0378051E0B470D00200021090D7D05CE
:406F40000B05784F1E43101C37406A0817437E007108E40721431CBC90469946A246F0BDB31A002B00DCA6E0002A3ED06B4A96424ED080210F043843382B00DC18E15346C5
:406F8000184300270022002800D001225219AA42AD4167446B42FB18151C371C1E023FD55E487E1C864200D17BE15D4901222A400B406808151CD90705430D435B08B91CA6
:406FC000371C93E7014300D11BE71CE7711C371C0F2663462E40042E00D08CE7802201261004344018402E1C8FE752460243EDD0013B002B09D157467919A9429241554241
:4070000060444319371C0D1CC8E744498E42B3D1802063460101371C68E7BF1A404A1340791C63E7151C1D4300D121E2002F3ED0802631030B437BE7002F00D086E0721CA3
:4070400051054B0D012B00DCF0E05746EA1B95429B416746391A5B42C91A88460B0200D49DE05446651BAA459241C01B5742C31B9846371C4C460EE70F1C002600225BE7EE
:40708000281C00F091FA2030021C083A1F2A00DC0DE7283885402B1C002511E75746384300230022002800D1E6E60122E4E61D032E0B002740E7002B00D0D9E0771C790544
:4070C0004A0D012A00DC95E0144B9F4200D1FEE051464919A942AD4162466B428018C2184908D5070D435308B11CFFE60B498E4200D0ACE68CE7061C1F3E1F1CF7403E1C67
:40710000202973D03F22101A83401D436B1E9D413543012100230027E8E6C046FF070000FFFF7FFFFFFF0F803B1C203B011CD9400B1C202F5CD04022D71BB840021C50465D
:407140000243511E8A411A43002395E67F42002E40D0CA4CA24200D11FE1802166460B041E43B446382F00DDA9E01F2F00DD3DE12023DE1B291C6446B440F940B5406B1E28
:407180009D41214363460D43FB4057467D1BC01AAA459B415F42C31B4C46171C75E60D1C154320D100240121002304260027B6E61F2B4ADC2021C91A071C52468F40DA40E0
:4071C0003A4357468F40391C4F1EB941D8400A43071CDBE664462C4369D1511C031C5546171C4C4682E6151C371C54E600238CE70022A4E767462F43002E00D0D4E0002FF9
:4072000000D126E15346034300D1E4E051464F19AF42AD4160446E4283191E0200D44EE197483D1C0340022101275FE661462943002E29D1002976D151460143B2D0031CDF
