:400000000010002011000000810300008103000008B500F005FC00F0B5F90000F8B572B680220021D2004D4800F09DFF8023DA004B48002100F097FF0022101C4949FF25E5
:4000400054584700261CAE431031E3B2351CC919002B07D00F78013B7E194F78DBB237700231F5E7E4B204320019102AE6D1C0223D4D9104296080203C4F3D4C3D4A3E4DC5
:40008000C10399263E6023603C4F1060C02429603B4A3C49600340263E6010603A4F0B603A4B022531263A4C1D6099203E6039498023394F256002041E06384C0A60802018
:4000C0003E603749374E384B2260384F82050A601E603C78062025433D703D78344A05433D7011688026F3020B43324F324C13603878324E2178171C3578172D05D9304A32
:400100007078B178033E9642F6D12E4B2E4C2F4E1925186021600520356000F031FD2C482C4A01780520116000F060FE3C682A4B2A4D23402A483B60202610272F6080215B
:400140000660284F284D294E294A2A4B2A480C0614601C602F600660F8BDC04600300F4000400F40840F000004000140100001400C00014000000440080004400001044051
:40018000080104400803044008040440000404401804044000500F4004500F4010500F4018500F40100001002001054000700F4000010B40CCF1FF0FCDF1FF0FC9F1FF0F22
:4001C000BDF1FF0F1CFF0B4020FF0B402CFF0B40E5F1FF0F28FF0B40FFFFFBFF08020240200202401000008000000240AF04008008010B4004010B404000024010B5064CBD
:400200002378002B07D10548002802D0044800E000BF0121217010BDF000002000000000800F000008B5084B002B03D00748084900E000BF07480168002903D0064A002A54
:4002400000D0904708BDC04600000000800F0000F4000020D00000200000000010B562B600F084FC00280ED16524012000F0A8FD00F07CFC002806D1013CE4B2002CF4D1BB
:40028000034B40221A6000F063FC00F09BFAFEE7C000002008B500F0EDFA00F025FB00F08DFB08BD70B5054B0D1C161C0024C9B21C8000F077FB3580201C70BD0C010020E2
:4002C000F0B50A275F4387B002900591161C00252A4CBD4219DA00F0F5FA80B220802388002B0CD00220278800F06AFD00F0EAFA81B221802288BA42F4D8002706E0012095
:40030000013500F05DFDADB2E2E7052700253580208800282FD023883088019301994218059993B233808B4221D201982A1893B2049304998D4209D002994819039000F084
:40034000A7FA039A01351070ADB2F2E772B62088019A831A99B2218062B602984219013A1378172BD4D0052000F02AFDD0E7308000F0BAFA0527381C07B0F0BD0C0100204C
:4003800000B5FEE770B50F490F4A01394B1C14D0506895681468031C1E1AAE4202D040CC40C3F9E7D0681D1C5C1B844202D0002640C3F9E710320139E8E700F0A5FDFFF7B3
:4003C0004DFFFEE701000000D40F000008B500239A00032B02D80D48815800E00C490D4801338150302BF3D1FFF718FE0A490B4B086800221A60002800D108608022D305EE
:40040000186801210843186008BDC046000000008103000000000020C0000020C80000200047000038B5041C013806280BD800F061FD2406260F11080400174820E0174BF7
:4004400009E0174B07E0002000F0ACFC002302E0144B00E0144B5A78187800021043022C04D0032C07D0012C15D104E0040A0302234398B20FE000BA0DE00C4800E00C4858
:40048000C578817842780378180628430D02284311040843E3E738BDD87F0000C57F0000D47F0000D27F0000D67F0000C17F0000C97F000038B50220FFF7B4FF051C032097
:4004C000FFF7B0FF6C1CE1010C180220FFF7AAFF0023421CD201191CA24209D21078451EEDB2FD2D00D80121C318DBB20132F3E705485B420578DCB2AC4201D0062002E0E1
:400500000029FBD0002038BDC07F0000F0B5A34CA544FFF7BFFE62B600250095002603AF962124A849003A1CFF23FFF7C9FE0028F5D139880423062967D924AA1478012CCC
:4005400063D193236B4492221F786A4413783C021C4324AF3A19177953790197E71D9C4603238F4251D89179042317294DD1E3189BB2002B08D0BAAA8949D7187A18177881
:40058000013BC01980B2F3E762464042019F110282B239430823914237D168E0342900D09AE0012D00D0F6E0032C00D0F3E06FA80021802200F0D7FC80266FA988193519A8
:4005C0002639E21EFF39AEB200F0C4FC832E00D0DAE0BC797979009F26020E43002F0AD1391C802204A800F0BEFCFF2004A900F0EDFA01200090301C6FA900F0E7FA0125D4
:40060000002800D1C3E000260A23002168469130012703706A4624AC6B4692330E32277000200F1D197058701180BBB25C4FBAACE418E4192778013BC0199BB280B2002BD0
:40064000F4D14442A0B2BAAF564C7B181F19564C38701F19554C000A38701B19172707311F7089B224A89623FFF71CFE57E724AF79783B79081C31380A2801D90523C4E707
:4006800000F02EFC0611FC8C2FFC32428C507800012D00D07FE0002C7DD1FFF70BFF434243413B7163E0012D75D1012C73D1002B71D13F4A25A8146821889524CF090770EA
:4006C0003A0A97209627FF216C446F446844397022700370042199E7012D5CD1022C5AD96BE7012D57D119E7012D54D19620371943009F424DD86FAA901925A9221C00F0FC
:4007000029FCBEB2002380E7002C44D104AB294A191CA0CAA0C125AF21CB21C708210125231C73E7012D36D1032C34D196226A449521177869440C7838021A02204387180A
:40074000FF01002280210139CC5D1219D2B20029F9D1002B08D1FF2806D1174B174918780C78171A3A1BD2B2504224AB1871002301214BE7FFF79EFE002802D110488024E5
:40078000046000F011FB06E00125002601E0061CB8E7032339E7042337E7C04614FDFFFFA7FDFFFFACFDFFFFADFDFFFFAEFDFFFFD4000020A80F0000D07F0000D17F000081
:4007C000C0000020144810B50368002219680B1C013BBF2B03D01C781219D2B2F8E740680478A21AD3B2A34201D1002902D1002000F0D8FAFFF75EFE084C2168221C4029D8
:4008000001D0002803D000231360FFF77FFE8020206000F0C9FA10BDD4000020C000002008B50B4B10201A680A49024000D10A600B68802B0BD1002201200A60FFF7F2FD4E
:40084000002804D00120FFF7EDFDFFF7E9FD08BD00030B40C000002008B5054B802219681006084318600A2000F088FA08BDC0460000064010B5054C2378002B03D100F056
:40088000BFF801202070FFF7E7FF10BD10010020094B00B51968094B1A6891420AD019684A1C4039481E8141484205490240885C1A6000E0002000BDAC010020240100201A
:4008C00068010020064B074A1B68116800B58B4202D31268981A02E010684133181A00BDAC010020240100200C4A0D4B002130B5106811601D68802464022C431C601D68E3
:40090000084C2C401C60084B084C1D68084B25601970084D08492960106030BDC80F064004030640FFFFFEFF24010020AC010020A9010020C00F0640ED0F0000124910B5F0
:400940000A68531C3F3A541EA241544223400F4A1468A342FBD00C681268944208D10C4C0F2224682240082A02D00A4A10600AE0094C02222260094CC0B2E0540B60084BD0
:4009800019680A431A6010BD200100201C0100200802064040020640800F064028010020880F064038B5041C4518AC4204D02078FFF7C4FF0134F8E738BD00000B4A0023D3
:4009C000116810B513600A4B80201C684002204318601C68074820401860074B07481C68022399430460116010BDC046880F064004020640FFFFFEFF1C0100202001002095
:400A00001D4A1E4B1E4810B51E4900241A60046001221D4B1D480A601D490360072008601C491D4804600A601C4A0A2013601C4B1C6000F0ADF90A20032100F07FF9194974
:400A40000A2000F06FF918481849194A194B04600C60146018491C60184A194B04200860146018481C601849184A194B04600C7014601C6010BDC0460B000002000006408C
:400A8000400006404800064007000080000306400403064044000640100306400002064004020640010E0000880E0640C80E0640480F0640080F0640C80F0640880F064093
:400AC000AC01002024010020A9010020200100201C0100200E4B8422D00418601968802250020843186019680A481960C3239A00094B026000210948094A196009490A4BB2
:400B000010600A4A19600A4910601C20086070470001054024010540380105401027000014010540881300000C010540080105402801054008B500F02CF8044B01211A682E
:400B40000A431A6000F029F808BDC0460000054010B5054C2378002B03D1FFF7BBFF01202070FFF7E7FF10BD18010020024B18680106C80F7047C0460400044000000000EA
:400B80000230800804D0C0460138FDD1C046C0467047EFF3108072B6704780F310887047094A10B513680020141C1A0F11070A2A08D0002806D1F0221206914200D1181C93
:400BC0002368F2E710BDC04608000040F0B5071CABB00124FF2800D995E0002900D192E0002508ACB623D7207F2223706070A5700AA8E5706260802200F0ACF92E1C291CFC
:400C00002A1C0195B31C98002558002D02D05219294301960136202EF4D1002A02D1002968D100E0002100910291384D384E2C60384C34603268002AFCDB2B68FFF7B0FF37
:400C4000041E60D1FFF7A5FF334B05901968B6200491D8226946BFB2087603974A7668460C210A5A294F42832C49294A06A8386011601F1C3368002BFCDB2B68A020010649
:400C80008B4201D0002B2ED1009A002A2CD0002180220AA800F067F9019B029902331D4A08AC980001512C6032603468002CFCDB2B68FFF775FF041E16D107ABB6201870A3
:400CC000D92168460C225970115A10485980144A03600F4B1A6031680029FCDB2B68A0252E06B34200D01C1C049838600598FFF754FF08E0019E01250236B300E058009583
:400D00000290E25091E7201C2BB0F0BD08000040040000400400008008010B40050000800600008000B51F2800D901BE024A800083181868196000BD4000002038B5041C26
:400D40000D1E032D00D901BE1F2C00D901BEFFF720FFA308084A99008B1803221440944019680634A2409143A5400C1C2C431C60FFF713FF38BDC04600E400E01F23184038
:400D8000024A0121814011607047C04600E100E01F231840024A0121814011607047C04680E100E001BE7047034B04491A6890B2084318607047C0460CED00E00400FA05AC
:400DC00010B5041C8022074B1002844205D91868FFF7D6FE04496418F4E758686043FFF7CFFE10BDDC0000200080FFFF08B5034B197A4843FFF7C4FE08BDC046DC00002061
:400E0000264B10B51868002800D0804724490A6852071DD5234C23681A0716D0224B234A186811684B1C40394C1EA1414C42204923400C68A34203D11E4B20221A70E9E787
:400E40001D49C0B2C8541360E4E71C49042008601B4A1468A20720D51A4B0F2118680140082917D0184A194B1468186884420CD01C68621C3F3C601E8441614214480A40F5
:400E8000845C14490C601A60E6E7134C022122688A432260114B0220186010BD14010020CC0F06400803064040030640AC01002024010020A901002068010020C00F06407A
:400EC0008C0F064008020640200100201C0100202801002040020640880F0640800F064002B4714649084900095649008E4402BC7047C04602B4714649084900095C49000F
:400F00008E4402BC7047C04670B50E4B0E4D0024E81A85101E1CAC4204D0A100725890470134F8E700F044F80849094A0E1C541AA5100024AC4204D0A300F0588047013494
:400F4000F8E770BDBC0F0000BC0F0000BC0F0000C40F000010B50023934203D0CC5CC4540133F9E710BD00B58218031C934202D019700133FAE700BD08100000B100000047
:400F80000000000001330F4003410F4004430F4002600F40E61062048E04D84018808C40C608E608020111019311C80411140101F8B5C046F8BC08BC9E4670472502000015
:400FC000CD030000F8B5C046F8BC08BC9E467047FD010000E80F0000D000002020000000C00000000000000000000000780F00007C0F00000000E02EC05D00001800000041
:4010000000366E010000000000000000000000000000000000000000000000000000000000000000000000000000000000000000000000000000000000000000000000000B
:401040000000000000000000000000000000000000000000000000000000000000000000000000000000000000000000000000000000000000000000000000000000000070
:401080000010002091100000191B0000191B000008B5024B83F3088800F040FD00100020F8B572B66E4B012280241A700021E2006C48802504F0C5FB00216B48EA0004F0E9
:4010C000C0FB0023191C694FFF22D8592037061C96434A00C4B2351CBA18002C07D01778013C7E195778E4B237700232F5E7C0B204330918202BE6D180235D4D5C005D4EFC
:40110000C0225D492C8090040127CC235B4D37709C0008605A4F5B4E5B495C4B2C609922802437605A4D0A605A4F1C6080265A495A4B320240243D600A60594D1C60594FD1
:40114000594A5A495A4C06265A4B3D60166013252160594F594A5A4C1D600221594D5A4B17602160594F9922594C1D601304396080252360574A584C2F06C025176023605C
:40118000AF05564A564D574C176025608027564D564CBA052A602360554B564F564A1860564D1420386011602C788023214329702978DF020E432E70514E524A3068524D7D
:4011C00007433760514B10782978341C1E78172E05D94F4F58789978033BBB42F6D14D4A4D4B4E4D19261060296005201E6000F0E3FC4B484B4F01780520396000F04EFDAC
:40120000494D2268494E1540494B2560102021243460484F1860484A484E49481125302120243960474B156080273460464A0560464C474E47483D0631211960464F15604F
:4012400046492560464B0660464D474E474A484C484819603960296022600660F8BDC0461C700F4000300F4000400F401C61000000600F4002600F400400014008000140F4
:40128000EEEE03000C0001401000014000000440B66D5B00080004400C00044000010440060018000801044000020440B66D0F000802044000030440A46DDB00080304405B
:4012C00000040440B10D0000080404401804044000500F4004500F4010500F4018500F400400990020500F4024500F4030500F4038500F40E00105402000004000700F4086
:4013000000010B40CCF1FF0FCDF1FF0FC9F1FF0FBDF1FF0F1CFF0B402CFF0B4020FF0B40E5F1FF0F28FF0B40FFFFFBFF080202400C020240200202402402024028020240DE
:401340002C0202403002024008010B4004010B400300008000000240800002401700008040000240040002403801008022000080440002408400024010B5064C2378002B7B
:4013800007D10548002802D0044800E000BF0121217010BD68010020000000005C60000008B5084B002B03D00748084900E000BF07480168002903D0064A002A00D090473C
:4013C00008BDC046000000005C6000006C010020D00000200000000000B589B0021C0449684604F037FA684600F0D0FC09B000BD6060000000000000F0B585B062B600F03B
:4014000061FC01F07FF8FA20400000F031FC00F005FD00F093FD00F02DFE00F009FF00F06DFE00F0A7FE00F0ABFF00F025FD00F0B1FD9D4B3A229D481A705A7000F0A6FCA2
:4014400000F070F900F02AFA00F0DCFA984800F09DFC984E3178371C0129FAD1964D00202A783070012A25D173886C889C4201D1327103E0F188994200D130713279A888CD
:40148000002A01D11D1800E01D1AA8B2708000F02FFD337AC82B02D1FF2000F09BFD347ACD2C03D10020307200F094FD317A0131317201E000F01CFD00F04AF900F0FCF924
:4014C00000F0B2FA0A23F05E04F03EF80C23F25E041C50420D1C04F037F8021C0B1C201C291C01F0C7FB674B654A03F005FA664A664B02F007FE04F0B5F830611423F05E53
:40150000404204F021F80D1C0C23F15E041C484204F01AF8021C0B1C201C291C01F0AAFB584B574A03F0E8F9574A584B02F0EAFD04F098F8604B614D9C68B06101901C2372
:40154000F05E02F0DBF9211C02F0A8F8296801F0CFFE04F033F84E4A4E4B03F0CDF902900391306904F02AF84B4A4C4B03F0C4F9021C0B1C0298039902F014FA424A434BEA
:4015800003F0BAF93F4B3E4A02F0BCFD444A454B03F0B2F904F066F828601E23F05E02F0ADF9211C02F07AF8454A116801F0A0FE04F004F8364A374B03F09EF9041C01989E
:4015C0000D1C03F0FBFF344A344B03F095F9021C0B1C201C291C02F0E5F92B4A2B4B03F08BF9284B264A02F08DFD2D4A2D4B03F083F904F037F8324908602023F05E404289
:4016000003F0A2FF041C2223F05E0D1C03F09CFF021C0B1C201C291C01F02CFB194B184A03F06AF9184A194B02F06CFD03F058FF7062FFF7D1FE234800F0A8FBFA239900FC
:401640003A1DF187318531877187B187BE1C3C1C3D1C3B1CF187D1873E1C3A1CB81D083448354A334C364E325037C187E18729801980318011803980EBE6C046C046C04637
:401680000000000000806640182D4454FB210940CDCCCCCCCCCCEC3F9A9999999999B93F000000000000204098030020636000006D60000084010020D4000020A003002038
:4016C000B40400207A60000038B5051C0C1C6B20002100F08DFF0D4800F058FB281C00F0DFFF0B4800F052FB201C00F0D9FF094800F04CFB084B10201A68910600D518206B
:4017000006490860064800F041FB38BD7E6000008D6000009C6000006400074068000740AB60000008B520200F21FFF7CDFF21202021FFF7C9FF24201021FFF7C5FF0248AF
:4017400000F024FB08BDC046BB6000000000000038B500216B2000F04BFFA82000F0A0FF01216B2001F062F8002000F0D9FF2E4D2870002000F0D4FF6870002000F0D0FFBD
:40178000A870002000F0CCFFE870002000F0C8FF2871012000F0C4FF244BC0B26871196810222B1C8C0600D51822214C0125226059571C780A02224392B2DA800325595705
:4017C0009D780C022C43197940B2A5B204020C43A4B21D815C8110B203F0B6FE114B104A03F08AF803F07CFE124B188028B203F0ABFE0C4B0A4A03F07FF803F071FE0E4A1B
:40180000108020B203F0A0FE064B054A03F074F803F066FE094D288038BDC046C046C046EC51B81E85EB813F200200206400074068000740A2010020A00100201A020020BB
:4018400038B5051C0C1C1D20002100F0D1FE0D4800F09CFA281C00F023FF0B4800F096FA201C00F01DFF094800F090FA084B10201A68910600D5182006490860064800F060
:4018800085FA38BDCA600000D7600000E46000006400074068000740F160000008B520206721FFF7CDFF024800F070FA08BDC046FF6000000000000038B500211D2000F014
:4018C00097FEA82000F0ECFE01211D2000F0AEFF002000F025FF2E4D2873002000F020FF6873002000F01CFFA873002000F018FFE873002000F014FF2874012000F010FFBA
:40190000244BC0B26874196810222B1C8C0600D51822214C0D25226059571C7B0A02224392B25A820F2559579D7B0C022C43197C40B2A5B204020C43A4B29D82DC8210B215
:4019400003F002FE114B104A02F0D6FF03F0C8FD124B188028B203F0F7FD0C4B0A4A02F0CBFF03F0BDFD0E4A108020B203F0ECFD064B054A02F0C0FF03F0B2FD094D2880EE
:4019800038BDC046C046C04608AC1C5A643BBF3F2002002064000740680007408E010020980100209001002038B5051C0C1C1D20002100F01DFE0D4800F0E8F9281C00F0AB
:4019C0006FFE0B4800F0E2F9201C00F069FE094800F0DCF9084B10201A68910600D5182006490860064800F0D1F938BDCE600000DB600000E860000064000740680007404B
:401A0000F560000008B525202021FFF7CDFF26200021FFF7C9FF024800F0B8F908BDC0460D6100000000000038B500211D2000F0DFFD882000F034FE01211D2000F0F6FEDF
:401A4000002000F06DFE2E4D2876002000F068FE6876002000F064FEA876002000F060FEE876002000F05CFE2877012000F058FE244BC0B26877196810222B1C8C0600D591
:401A80001822214C1925226059571C7E0A02224392B2DA831B2559579D7E0C022C43197F40B2A5B204020C43A4B21D845C8410B203F04AFD114B104A02F01EFF03F010FD0D
:401AC000124B188028B203F03FFD0C4B0A4A02F013FF03F005FD0E4A108020B203F034FD064B054A02F008FF03F0FAFC094D288038BDC046C046C0467B14AE47E17AC43FFD
:401B0000200200206400074068000740A6010020A40100201802002000B5FEE770B50F490F4A01394B1C14D0506895681468031C1E1AAE4202D040CC40C3F9E7D0681D1CA4
:401B40005C1B844202D0002640C3F9E710320139E8E703F047FEFFF74FFCFEE701000000FC63000008B500239A00032B02D80D48815800E00C490D4801338150302BF3D1E6
:401B8000FFF78EFA0A490B4B086800221A60002800D108608022D305186801210843186008BDC04680100000191B000000000020C0000020C80000200230800804D0C046A7
:401BC0000138FDD1C046C0467047EFF3108072B6704780F31088704700B51F2800D901BE024A800083181868196000BD4000002038B5041C0D1E032D00D901BE1F2C00D9D3
:401C000001BEFFF7E2FFA308084A99008B1803221440944019680634A2409143A5400C1C2C431C60FFF7D5FF38BDC04600E400E01F231840024A0121814011607047C0469F
:401C400000E100E01F231840024A0121814011607047C04680E100E0034B04491A6890B2084318607047C0460CED00E00400FA0510B5041C8022074B1002844205D91868A1
:401C8000FFF79AFF04496418F4E758686043FFF793FF10BDF00000200080FFFF08B5034B197A4843FFF788FF08BDC046F0000020034B802219681006084318607047C04623
:401CC0000000064010B5054C2378002B03D100F015F801202070FFF7EBFF10BD5402002000B5044B0F211A6811400829F9D0024B186000BD0802064040020640124A134B08
:401D0000134810B51A6000230360124A124C1348012121600260124807240460114C1248236001601149124C0A601248124A134913602360124A0360124C13480B60136065
:401D40002360036010BDC0460B000002000006404000064007000080480006400003064004030640100306404400064000020640880E0640C80E064004020640480F06401A
:401D8000080F0640C80F0640880F064010B5041C0134631E1878002802D0FFF7A1FFF7E710BD0000074B00221A600749074B0C20012208601A6006480649074A08601060DF
:401DC0007047C04600010540240105403801054010270000140105400C01054038B50C1C051CFFF7F2FE034BA5401D60FFF7F1FE38BDC0460800054010B5FFF7E6FE064B2C
:401E000001241A6822431A60FFF7E3FE201C1821FFF7E4FF10BDC0460000054010B5054C2378002B03D1FFF7BDFF01202070FFF7E3FF10BD5C020020014B18607047C04628
:401E40003001054008B50120FFF7F6FF014B01221A7008BD8401002010B5041CFFF7B5FE044BA2011968C024A14311431960FFF7B0FE10BD10E400E0074810B5074B084A2D
:401E80008024640204301C60C2670320FFF7E4FF04490C6010BDC0460000002080E100E0451E000000E100E00B4B8022D004186019680C2019601A6800211A60074B084A07
:401EC0001860084B642011601860074A074B3221312011601860704780010540A4010540B8010540940105408C010540A8010540014B80B2186070478C01054038B50C1CE7
:401F0000051CFFF762FE034BA5401D60FFF761FE38BDC0460800054010B5FFF756FE064B04241A6822431A60FFF753FE201C1821FFF7E4FF10BDC0460000054010B5054C31
:401F40002378002B03D1FFF7AFFF01202070FFF7E3FF10BD5D02002008B500F031F80448FFF714FF6420FFF783FE00F0CFFC08BD9862000010B5041CFFF727FE044BA201BC
:401F80001968C024A14311431960FFF722FE10BD00E400E010B5064B064A074801241C6002640320FFF7E6FF04490C6010BDC04680E100E0591F00000000002000E100E084
:401FC000034B802218681040C1091860C8B2704710000440044BFE2219680A4001210840104318607047C046000204408022074B90041860064A074B0C210220116018600E
:40200000E12105480A0102607047C046C0010540E4010540F8010540D4010540014B80B218607047C8010540014B186880B27047C801054038B50C1C051CFFF7C6FD034BE4
:40204000A5401D60FFF7C5FD38BDC0460800054010B5FFF7BAFD064B08241A6822431A60FFF7B7FD201C1821FFF7E4FF10BDC0460000054010B5054C2378002B03D1FFF7F8
:40208000B5FF01202070FFF7E3FF10BD5E020020014B18607047C046F001054038B50220FFF7F6FF0A4A0B4C1378012B02D10020107007E02578FFF7B7FF074A690088524C
:4020C0002078013020700020FFF7A8FF38BDC0465F0200201C020020AC01002010B5041CFFF773FD044BA1071A689400A20811431960FFF76EFD10BD10E400E0074810B55E
:40210000074B084A802424038C301C6002600320FFF7E4FF04490C6010BDC0460000002080E100E09D20000000E100E008B50220FFF7AEFF034B0449012200201A700870CD
:4021400008BDC0465F0200201C02002038B5041CFFF73BFD054B06491D68A2032C1C0C4014431C60FFF735FD38BDC04600E400E0FF3FFFFF10B5064B064A074802241C60F0
:4021800042640320FFF7E2FF04490C6010BDC04680E100E02D2100000000002000E100E0074B00221A600749074B0C20012208601A6006480649074A086010607047C0463F
:4021C000400105406401054078010540FFFF0000540105404C010540014B80B21860704748010540014B80B2186070475401054038B50C1C051CFFF7E8FC034BA5401D6085
:40220000FFF7E7FC38BDC0460800054010B5FFF7DCFC064B02241A6822431A60FFF7D9FC201C1821FFF7E4FF10BDC0460000054010B5054C2378002B03D1FFF7B1FF01206A
:402240002070FFF7E3FF10BD60020020014B18607047C0467001054038B50120FFF7F6FF3B4C20780C2868D83A4D00F0A9FF070E151C232A31383F464D545B00002000F038
:4022800027F9FF2000F094F852E0002000F090F8FF2000F099F84BE0002000F095F8FF2000F09EF844E0002000F09AF8FF2000F0A3F83DE0002000F09FF8FF2000F0A8F8A9
:4022C00036E0002000F0A4F8FF2000F0ADF82FE0002000F0A9F8FF2000F0B2F828E0002000F0AEF8FF2000F0B7F821E0002000F0B3F8FF2000F0BCF81AE0002000F0B8F83A
:40230000FF2000F0C1F813E0002000F0BDF8FF2000F0C6F80CE0002000F0C2F8FF2000F0CBF805E0002000F0C7F8FF2000F0D0F823785800285AFFF755FF0020FFF74CFF1D
:4023400021780131CAB20D2A00D10022227038BD61020020BC01002038B5041CFFF735FC054B06491D68A2032C1C0C4014431C60FFF72FFC38BDC04610E400E0FF3FFFFF75
:40238000074810B5074B084A8024A40208301C60C2670320FFF7E0FF04490C6010BDC0460000002080E100E05922000000E100E0044BFB22196880000A40042108401043A6
:4023C0001860704700040440044BF7221968C0000A400821084010431860704700040440044BFE2219680A4001210840104318607047C04600000440044BFD221968400099
:402400000A400221084010431860704700000440044BFB22196880000A400421084010431860704700000440044BF7221968C0000A4008210840104318607047000004400D
:40244000044BEF22196800010A401021084010431860704700000440044BDF22196840010A402021084010431860704700000440044BDF22196840010A402021084010430E
:402480001860704700030440044BBF22196880010A404021084010431860704700030440044B7F2219681140C201081C1043C1B21960704700030440044BFE2219680A4098
:4024C00001210840104318607047C04600010440044BBF22196880010A40402108401043186070470000044008B5054B802219681006084318600B20FFF79AFB08BDC04630
:402500000000074010B5054C2378002B03D100F007F801202070FFF7E7FF10BD640200201C4B10B51C4A00241C481C601C4B02601A680C210A431A601A481B4B1B4A18605B
:402540001B4914601B4B1C4A1C480C60186014600B20FFF777FB0B200321FFF749FB18490B20FFF739FB174917480C60174B184A184904601C6018480A60184B1849102239
:4025800004601C6017480A70174B184A04801C60146010BD00000740770800806000074070000740070300800003074004030740100307400002074004020740070100801F
:4025C00021290000C80E0740880E0740480F074013010000080F0740C80F0740880F0740B8040020C8040020C4040020CC04002070B5234A041C13780420102B3FD12148D6
:40260000012605680820354239D16400FF231C40002902D12420107002E0252111703443194D1A4E2C601A4B1A4C0221266019602068194D17492842FAD00E6804233340C2
:402640000ED10E68022006420CD10868012310211170184201D0181C04E08022500001E00020031C2560002B09D00C4C802225686E0071082160236815061D43256070BDF3
:40268000B804002064000740400207401703000068000740000F0740070100000000074030B51A49021C0B7804209C062CD518480260184A184C15682542FAD01068042317
:4026C000034004D0602300200B70031C0FE015680220054202D060250D7008E01568102001230870181C1D4201D1802148001460002B09D0094C226851004D082560236851
:40270000802211061943216030BDC046B804002040020740000F0740070100000000074010B5174B011C18781A1C830625D5154B1C68640704D41448046814480442F6D022
:402740001C6804231C420BD0114C20680D4C2360002902D10F4A136011E0602111700EE00D49094A0D4811600468802263005908016004681306234303600120404210BDAB
:40278000B8040020C00F0740000F074001010000400307406800074017030000000007401E4B70B51D6800F095F80028FBD0002000F098F81A4A0F2110681A4E8843106063
:4027C0003468630058083060141CAB060FD5002000F088F80320FFF761FA012000F082F800F08CF80028FBD00320FFF757FA002000F078F80C4D0320FFF750FA01202860E0
:40280000326880210B061343336026680F25AE430E221643266000F065F870BD640007400C000140000007406800074070B5224C051C237804209A063DD56D00FF20054043
:40284000002902D12426267003E025210122217015431A4E1A4B3360FFF7A2FF19480168CA07FBD4184A156035681849134A0D42FAD01068042303400ED1156802200542F4
:402880000CD11068012310222270184201D0181C04E08024600001E00020031C3160002B09D00B4E802331684D006A083260346819062143316070BDB8040020000F0740EA
:4028C0001703000068000740400207400701000000000740024B18688107C80F7047C04604030440044BFE2219680A4001210840104318607047C04600030440024B012121
:40290000186808407047C0460403044008B5034B40221A60FFF7A0F908BDC046C0000020F8B5AD4B1868002800D08047AB490A68D00702D5AA4D00242C60AA4B1E78B106C5
:4029400001D4002124E0A84F3868391C0027C40506D5A64AC0251488AE002643168001270868C00706D5A14A902114888D002543158001E0002FE4D09C4E0121378818786D
:40298000002408404542684142183A4332801C701D781022AC0600D4F5E0934E306810420CD0934C914922600F881D780120284045426841013038430880D9E01C782407D1
:4029C0001BD5356802273D4209D08949874C0F6025888827B8002843208001210DE01878C40702D525221A7007E02424814D1C702F68002F01D0804802601A78042422421C
:402A000000D19AE01D780120054243D07B4F08253E682E4223D07A4C7A4F26687A4C22683F68B61A0F223A40B21AAA4207D8002A06D1764F76493E6831403960011C2A1C7D
:402A4000744D20682F68013A3E1873480568EFB23770266801362660002AF1D117E03A68224214D0684F6B4E3D6832686A4E55193268D6B22E703D68614A01353D603F68FE
:402A80001668B74202D26548046000E0011C6448644C48E0366802273E4220D05449624A0F60624F15683E683C680F213140E70B6D1A3840281A106016685D4A4B4C16605C
:402AC000258884218F002F4327805A4F80263868720202433A603C68574E26402BE0574A1468E40621D556480568504A0F261468404F34404C4A082C0CD010683C68A042E6
:402B000008D216684F48AF193C780460166801361660EAE716683F68BE4202D1364A402515604948494C206007E01568680604D53D493F4F0E683E6001E000294AD0334C5C
:402B400033492268424D2C4F00201140414E2160286038603478A1070CD5244D01222F881E7832405442624109323A432A8060221A702FE0384B10211A68940600D5182188
:402B80002648016026E01E78164023D133490F68780044080C601A701C4B314A1D6831482A401A601F682A4C38401860124B2660264D1E601A4E244A2E601A4F2A482B4C78
:402BC0002B4E0B4B3A6020601E600D68802217062F430F60F8BDC046680200208C0E0740880E0740B80400200C0F0740C8040020000F0740DC040020880F0740CC0F0740D6
:402C0000D804002008030740C404002060000740FFFEFFFFBC0400204003074068000740ED0F0000C00F0740D404002008020740CC04002004020740FFFFFEFF8C0F07402E
:402C4000C004002040020740F3070000800F0740C80F0740D00400206400074000000740FF5FFFFFFFFCFFFFFF0F0000400F07401703000008B500F003F808BD0000000093
:402C8000F0B54D4644465F465646F0B485B002920393039C029E65006F08BC467742374301946546FC0F2543A9466B4D8846A94528D84C0067084442B9460443E40F4F4699
:402CC0003C43AC421ED8039D019F644CAA463D19354344D05746BD1702242540CC0F25434F46041C3C4304D1022D43D03ADC002D0ADA644626430ED14546002D4ADB4149A5
:402D00003F4801E000F04EFE05B03CBC90469946A246AB46F0BD504EB4452ED04E4FB94535D04C466646A71B3C153C2C1FDC5646002E42DB01F0E6F900F03EFA00F090F8C7
:402D4000012D35D0022D28D0002DDDD02E4A2F4B02F044F82E4A2F4B02F040F8D4E700F07FF8D1E7032DC4D12B482C49CCE725492348E5E726482749C6E7E14522D0012D33
:402D80002AD02CDD022DF5D0032DC7D1ECE740460028B4DA22482349B6E71B4A1B4B02F01DF8021C0B1C1A481A4902F017F8ABE70B1C80210A069918A6E73C34BADA1A48E7
:402DC0001A49BDE7012D12D014DD022D0CD0032DDDD11748174997E71748184994E7002D9CD1114811498FE7154816498CE71648164989E7002DCAD11548164984E7C04656
:402E0000182D4454FB21F93F075C143326A6A13C182D4454FB210940182D4454FB2109C0182D4454FB21F9BF0000000000000000D221337F7CD902C000000000000000801D
:402E4000D221337F7CD90240182D4454FB21E9BF182D4454FB21E93F0000F07F000010C0F8B556465F464D4644468146C648F0B44E0088468A46770887420FDDC34B4A46D3
:402E80009F4200DDA6E000D1A1E05646002E00DCE4E0BF48BF4D8146A846A3E0BE498F4200DDB4E0BD4DAF4200DCA3E00123584283464A4643464846414601F01DFD061C42
:402EC0000F1C321C3B1C01F017FD904B8E4A041C0D1C01F011FD8E4A8E4B00F063FD221C2B1C01F009FD8C4A8C4B00F05BFD221C2B1C01F001FD8A4A8A4B00F053FD221CF5
:402F00002B1C01F0F9FC884A884B00F04BFD221C2B1C01F0F1FC864A864B00F043FD321C3B1C01F0E9FC844A844B061C0F1C201C291C01F0E1FC824A824B01F04FFF221C89
:402F40002B1C01F0D9FC804A804B01F047FF221C2B1C01F0D1FC7E4A7E4B01F03FFF221C2B1C01F0C9FC7C4A7C4B01F037FF221C2B1C01F0C1FC0B1C5946021C013100D16C
:402F800071E05846C400391C301C00F00BFD4A46434601F0B1FC824E824D37193A687B6801F01CFF4A46434601F018FF2D19021C0B1C2868696801F011FF54468146884651
:402FC000002C0FDA80200506691888460AE0002A00D15AE7484641464A46434600F0E2FC81468846484641463CBC90469946A246AB46F8BD5A4A5B4B4846414600F0D2FC9E
:40300000594A5A4B00F060F90028EBD14EE74846414600F0D1F8644A041C0D1C974233DC624A974259DC221C2B1C00F0BBFC4E4A4E4B01F0D3FE4E4A4E4B061C0F1C201CA6
:40304000291C00F0AFFC021C0B1C301C391C01F059F8002481468846A3462AE74C4F544CB946A046BEE7301C391C00F09BFC4A46434601F041FC021C0B1C4846414601F016
:40308000ADFE81468846ADE74A4B9F421ADC3A4A3A4B01F0A3FE384A384B061C0F1C201C291C01F029FC304A304B00F07BFC021C0B1C301C391C01F025F881460220884645
:4030C0008346F6E62E482F49221C2B1C01F01AF8032681468846B346EBE6234A234B01F07DFE214A214B061C0F1C201C291C00F059FC021C0B1C301C391C01F003F888465C
:40310000012181468B46D4E611DA22E33AAD903FEB0D76244B7BA93F513DD0A0660DB13F6E204CC5CD45B73FFF8300922449C23F0D5555555555D53F2F6C6A2C44B4A2BF57
:403140009AFDDE522DDEAD3F6D9A74AFF2B0B33F711623FEC671BC3FC4EB98999999C93F9C7500883CE4377E000000000000F03F0000000000000040000000000000F83FCB
:40318000000000000000F0BFFFFF0F440000F07F182D4454FB21F93FFFFFDB3FFFFF1F3EA0620000C0620000FFFFF23FFFFFE53FFB21F9BFFF7F0340490049087047C0469B
:4031C00002B4714649084900095C49008E4402BC7047C046002934D00123002210B488422CD301242407A14204D2814202D209011B01F8E7E400A14204D2814202D24900AB
:403200005B00F8E7884201D3401A1A434C08A04202D3001B5C0822438C08A04202D3001B9C082243CC08A04202D3001BDC082243002803D01B0901D00909E3E7101C10BCEE
:403240007047002801D00020C04307B4024802A14018029003BDC046190000000029F0D003B5FFF7B9FF0EBC4243891A1847C0467047C0468446101C62468C46191C634659
:4032800000E0C0461FB501F0CBFA002801D40021C8421FBD10B501F011FA4042013010BD10B501F0BDFA002801DB002010BD012010BDC04610B501F0B3FA002801DD00207E
:4032C00010BD012010BDC04610B501F035FA002801DC002010BD012010BDC04610B501F02BFA002801DA002010BD012010BDC046F8B5430242004F024C00C00F9B09120E1F
:40330000061C9C46240EC90FBF09884257D0151B002D00DC7EE0002C41D1002F64D0013D002D00D0ABE0DB1B141C061C590144D59A019509281C02F037FA053885408442A5
:4033400000DD79E0001B1F242B1C411C221ACB4095401F1C2B1C5D1EAB413B43012500240F201840042800D004338021CF0401221F401640002F05D0FF2D5AD0B34C234086
:403380002C1C0135EDB2DA08012D3BDD53025A0AE4B2E4052243F607101C3043F8BDFF2A2BD08021CC04274301231B2D49DD6746FB1A141C061C5901BAD4651CD0E7151BE5
:4033C000002D4FDD002C13D0FF2A5AD08024E1040F4301231B2D00DCB0E06344141C590155D4651C061CBBE7551C141C061CB7E7002F7CD1551C141CB2E7802763467D00DC
:40340000FF24ADE7002AC3D0002C28D08020C1030A43BBE7002D47D1501CC3B2012B00DC96E06446E51B680158D53D1B0E1C141C80E7FF240022ACE7844B241A2B40651CD3
:403440008EE73E1C2021EE404D1BAF403B1C5F1EBB4133436746FB1A141C061CABE757027A0A96E7002D7FD1541CE1B2012953DDFF2C00D19BE0FB185B08951C70E7FF2A79
:4034800092D1061C802063464500FF2468E7671CFF2F3CD06D4A01261E4013405B083343A51C061C3C1C5BE76842002A25D0FF2C70D08022D6041D1C3543AC4601261B2828
:4034C00009DC62462025C2402B1A60469840061C701E86411643BB1B0E1C27E7141C002D00D027E700260125042300244AE7013D002D08D1FB18141C71E7002B50D1651CA8
:403500003B1C0E1C2CE7FF2A00D062E7B9E780235D00FF24042335E7002A7CD1002B00D1A1E0002F00D1AFE0FB18590100D4B0E0464E022533400124061C11E73C1C202353
:40354000EC405D1BAF403B1C5F1EBB41234344E7002A12D16546002D41D1002FC2D03B1C0E1C01250024FBE66D42002A23D1002B66D1651C3B1C061CF2E66246002A38D117
:40358000002F07D1802200265500314BFF24F9E6FF2C93D13B1C80270E1C7D00FF24DFE601380028F4D16646BB1B0E1CBEE680277D000423E6E6FF2C5CD08022D1040B43A4
:4035C0009C4601231B2D08DC20216246EA4063464D1BAB40591E8B411343DB19FFE6002F38D0EB1B5A014BD57B1B0E1C01250024B6E6002F00D100E78020D308C40323422C
:4036000004D0FF08274201D13B1C0E1C8021DB004D00FF24A4E6002B20D0002F00D1ECE68022DE08D503311C2E4203D0F908294200D0311C061C8020CB004500FF248FE6AD
:40364000013D002D14D1FB18C9E6C046FFFFFFFBFCFFFF0363460125002481E6802465003B1CFF247CE63B1C061C0125002477E6FF2CA6D13B1C8027061C7D00FF246FE627
:40368000002B00D12EE769E66346061C0125002466E6061C0125002462E6C046F0B55F4656464D464446F0B44502460083B00F1C6D0A360EC40F002E06D1002D70D10421D7
:4036C00001228846924609E0FF2E43D08023180400210543ED007F3E88468A46381C43007F02C10F7F0A1B0E8B463AD10121002F62D158466040424601900A430F2A3FD979
:403700002C04F018260C3B041A0C311C51433F0C2D0C7E436A438146080C36182C1CB3187C439A4200D99AE009041D04080C2E18B5011B0C691E8D41B20EE7181543BC012F
:4037400025432B014BD50120284001216D088944054344E0002D1ED10820022180468A46BCE7FF2B12D08022100407435846002160404246FF007F3B01900A430F2ABFD842
:4037800090005B4A8446624410688746391C4A1E91410231ADE70C22032390469A469DE7281C02F001F87622461F5342B5401E1A00208046824691E7381C01F0F5FF762157
:4037C000431F4A429F400021131A92E70194514602292CD0032900D180E0012948D04E467F36002E51DD0F242C40042C00D004352A0103D53F494E460D408036FE2E3DDD5E
:40380000019B01241C40FF210025C805E2072843104303B03CBC90469946A246AB46F0BD0024354DFF21F0E751460229D2D1019D01242C40FF210025E7E75E463D1C0196F4
:40384000C6E73D1CC4E78026F3031D420BD01F4209D11F437A02550A5C46FF21D5E780225702E41960E71D436F027D0AFF21CCE7019B00251940CCB20021C6E70198AD01B4
:4038800001246D0AF1B20440BFE77E2673424A469F1A1B2F05DD019D01242C4000210025B3E749469E312C1C8D402E1CFC40751EAE4126430F203040042800D004367001D8
:4038C00005D5019F01243C40012100259DE7019AB30101245D0A1440002196E78022D00305436C020199650A01240C40FF218CE7E0620000FFFFFFF7FFFF7F0070B5041EE3
:403900003CD0C50F00D04442201C01F04DFF9E21261C0B1A962B0ADC0838844061024C0ADBB2DB051C43ED07201C284370BD992B0ADD0522141A311CE140041C1B34A640F7
:403940000A1C711E8E41164305281BDC144C0F2234401640042E00D00434620105D59F231B1AFF2B0CD00E4804405E1CF1B2E40801290ADD6402640ADBB2D2E70025002361
:403980000024CEE7411F8E40E0E7002CF4D0002B03D08022D0030443ECE76602740AC0E7FFFFFFFBF8B55F4656464D464446F0B40C03460F640A3443A3465E001C03DB0FEF
:4039C0009C46630A98464D00530F44461C436D0DC90F760DD2000F1CC000A1469246AB1B614500D1A4E0002B00DCF5E0002E0CD1261C164300D1C2E0013B002B00D046E19D
:403A00005C464B46821AE71A21E0D24EB54200D1CDE080244A4627043A439146382B00DD0FE11F2B00DD50E12026F61A4C4652465746B440B740DA4022433E1C4C46771EDD
:403A4000BE41DC403243261C5B46821A9F1B904280414642BB1B141C2E1C0F1C180200D4AEE05D02690A88464246002A00D1D9E0404601F099FE051C083D1F2D00DDDAE038
:403A80002822131A201C4146D840A940031C0B43AC40AE4200DD90E0AE1B711C1F2900DD00E11F20851B1A1C201CAA40C840AC401043661EB4410443CB40012200260F2014
:403AC0002040042864D0201DA042A441654280215B1901240D041D402740002D07D09D4EB24200D19AE09C49161C0B4001325C07C00852050443DB08550D012D62DD1B03F0
:403B000076051B0B760D00200021090D201C0A05924C1343760575081C402C436300FF07590839433CBC90469946A246AB46F8BD002B00DC91E0002E31D0864EB54200D104
:403B4000A9E080244E4622041643B146382B00DD18E11F2B00DD73E12026F61A4A46B240904652464446DA4022435446B440261C741EA6414C463243DC401218F6E0041C7F
:403B80000F206A1C5B462E1C0F1C204004289AD180252D0401211D400F40201C9DE7144300D0DDE06A1C5B46041C2E1C87E780215B46041C0A012E1C81E7761B664D2B402E
:403BC000721C7CE7211C194300D167E2002E41D080200203134392E7002B00D088E0691C4E05740D012C00DC1AE15B46161C4C46821A191B90429B415B42C91A88460B0270
:403C000000D49EE0371ABA4592415E46A41B5342E11A88463C1C2E1C674625E7161C0023002470E7201C01F0BFFD2030051C083D1F2D00DC24E7031C283B9C40231C002490
:403C400027E74A4653461A430026002A00D1FBE60122F9E61D032B0B55E7002B00D004E16E1C7405630D012B00DCAAE039498E4200D130E11118814280414B4642425B44A0
:403C80009B18DC0749080C435B08AA1C17E7314FBD4200D0C2E6041C80205B460F1C02012E1C0CE7301C1F381A1CC240151C202900D182E03F218E1BB3401C43631E9C41A3
:403CC0002C43012200230026F9E61C1C203C4F46E7403E1C202B72D04022D41A4B46A3401A1C57463A43531E9A4132430026ABE65F42002D50D0174DAE4200D155E180245A
:403D00005A4621040A439346382F00DDDAE01F2F00DD78E12021CC1B051C5A46A240FD40A04015435B46421E90412843FB4057463C1AA24592414846C11A55424B1B67469E
:403D40008CE6081C104330D100270122002304200026CCE6FF070000FFFF7FFFFFFF0F80013B002B24D153461A184C46824280415C444342E3182E1C141C18023ED4721C4F
:403D80000F1C9CE64A4653461A430024002A00D1F3E601221218E9E75B46034300D083E0231C721C5446674689E6141C2E1C5BE6CD4EB54200D0C9E66DE700237DE70022D5
:403DC0008FE75E460643002D00D0F4E0002E00D14CE14B46134300D17EE115184E46854280415E444242B3181E0200D482E1BF4F2C1C3B4002220F1C012660E6BA4D701C9B
:403E0000A8424BD0B94F0125254062083B402C1CDF0714433C43B21C5B08061C0F1C4EE65E460643002D2CD1002E00D07DE04E46141C164388D04B466746012200263EE6BD
:403E40001E1C203E4C46F440261C202B00D1D8E04022D41A4B46A3401A1C54462243531E9A4132430024121880E75B42002D37D15C46044300D0D7E0721C4B4654460F1C39
:403E80001DE6002E6ED14B46141C134300D1DCE080254B4667462A01934E10E68021061C0A010023042022E6013F002F79D1171A5B46BA45AD414946CA1A68423C1C131AD2
:403EC0006746CBE55F46074300230020002F00D12DE701202BE780252A010023042006E6814DAE4200D1D3E080245D4622041543AB46382B00DDB0E01F2B00DDDBE02025FA
:403F0000ED1A021C5C46AC40DA40A840451EA841224302435846D840031C55465419544592414B4450421B1827E74A465646324300D185E0851B5B464C46A8429241191B90
:403F400056428B1B1E0200D4ADE057463D1A5B46AA458941E41A4A42A31A67462C1C01220026ACE54D46161C154344D05C468021C0086207E3080D0310432B4200D181E08C
:403F80004C46E10829427DD1F70866073E430B1C6746700FDB008022F40003431201524E8DE5514DAE4200D0AEE680204B4654466746020183E5002E5ED04C4614431AD0AD
:403FC000C7088025584643072C03C0081F43204208D04E46F308234204D15246D5087707181C2F43C300FC00780F0F1C802103430A013D4E63E5802632015B46041C3A4E18
:404000005DE5002229E7391C20395C46CC40221C202F67D04023DF1B5D46BD402843431E98411043002382E6013B002B2CD150445C469042AD414C446A42A318041C9CE679
:404040005B46041C0122002639E58024042100272201274B4842244E49E55D46054300230022002D00D158E7012256E7141C4B460F1C0122002622E5141C80224B461201EA
:40408000194E1CE5061C84E7174A964200D030E70F1C80214B4654460A0110E57405660D002300242FE5181C284300D14CE62C1C0122002603E51C1C203C5D46E5402C1CEE
:4040C000202B1CD04022D31A5A469A400243501E82412243002320E75B46041C0F1C01220026ECE4002599E7FF070000FFFF7FFFFFFF7F002C1C0F1C01220026DFE4002271
:40410000E4E7C046F0B54D4644465F465646F0B41D1C4B00141C0E035B0DCA0F87B0071C360B98469146002B1DD1321C024300D181E1002E00D104E2301C01F035FB272831
:4041400000DDF8E12821031C083B0A1A391C9E40D1400E439F40C14B0021181A002280468A4600920FE0BE48834231D080214B031E43BC487A0FF600002100231643FF0073
:4041800080448A460093291C201C251C4A000C03CB0F240B520D9B4625D1211C014300D150E1002C00D1C2E1201C01F0FDFA272800DDB6E1031C2822083B291C121A9C407B
:4041C000D1400C439D40A54B1A1A0020029019E0321C3A4300D029E108270223BA46002600270093CFE79E48824200D113E180214B031C439B49680FE40000230443ED00D1
:404200005218029348465B46434002985146019301430F2900D8DFE043469A1A0492A64200D86EE171087B08F6073343FA07894698460292280E240204432D022704390C20
:40424000AB46250C00914846291CFEF7C3FF009F061C4743291C4846FFF700F8434608041A0C1043874207D90019013E844203D8874201D9013E0019C11B8A46081C291C35
:40428000FEF7A8FF009B071C4343291C50469946FEF7E4FF424610040B04010C0B43994504D91B19013F9C4200D864E136043E435F464A46390C89469B1A59463204170CAB
:4042C0000A0449467943120C03928C460399300C7A4341434F4678438C44170C6744B94202D9802149024018390C120440183F04110C7F18834200D227E100D141E10299E8
:404300001B1ACF1BB942804141425A1A9046A24200D15FE1101C291CFEF75CFF009B02904343291C40469A46FEF798FF380C090401438A450AD9029A0919013A02928C4293
:4043400004D88A4502D9013A029209195346C81A291C0590FEF73EFF009A291C4243804605989246FEF77AFF3F040D043A0C2A43924509D901214B4212199844944203D80B
:40438000924501D998441219029D43462F041F435046111A3804030C4D465D430398AC46039D3A0C584355434B465A43AC44030C63449D4202D980256D0252191D0C000469
:4043C00052191B04050C5B19914200D2E6E000D13DE1012217435AE0890023488C46604401688F46019B1E4A0026002700200021381C0F0D3C051D4D3443120525401543FD
:404400006E00DB077108194307B03CBC90469946A246AB46F0BD211C03202943029000D0F0E60223002400250293EBE60C20032182460091A7E604270123BA4600260027C3
:404440000093A0E60121002400250291DAE601270023074E7F42024AC8E7C0460DFCFFFFFF07000001FCFFFF20630000FFFF0F80FFFF0F002F1C5A46029D261C0192022D50
:40448000B0D0032D00D101E1012D00D19CE0049B82481A18002A00DC8CE00F243C40042C05D03B1DBB42BF417D4276191F1CF10105D57B4A04998020C40016400A19794BB0
:4044C0009A4200DD8EE77507FF08760251052F43360B4A0D019B89E700220026002785E7802001030E4216D00C4214D10C432603360B5B462F1C6C4A78E74C460194009DC1
:40450000BDE7A64243D00498B846013800270490B14602978EE60E4333031E0B624A4B4664E7041C283CA5402C1C00254BE601F03BF920303BE6061C283EB7403E1C002775
:4045400009E601F031F92030F9E5029A013E111C59445945924152421219D3189C4204D298426BD816D01B1ACBE6A342FBD18B45F6D9231AC5E6994500D897E6013F1B19C7
:4045800094E6029ABA42E0D302990023B9E6AF42B9D947E68F4251D80023B2E60919013F58468C4219D9914200D012E7984200D00FE76CE73D4C049D631B382B1CDD019B85
:4045C00000220026002711E7019B00222B40002600270BE701277F4259E78A4203D800D0F7E69842E2D25D4668005845AD416D422C19013F0919D6E71F2B34DC049C2C4AC8
:40460000381CA518311CAF40D840A9403C1C0143671EBC410F1C2743DE400F233B40042B05D03A1DBA42BF417D427619171C320211D5019B012200260027D7E659445945B8
:40464000924152421219D318013E1B1A59E6002BA4D10020AAE77007FF08710207430E0B019B0022C2E61349049C301C0A1BD040051C202B08D0104BE1188E4037437B1E09
:404680009F412F430026C8E70026F7E780221003064331030E0B019B034AA7E6FF030000FFFFFFFEFE070000FF07000002FCFFFF1E040000E2FBFFFF3E040000F0B594464C
:4046C00047461A03061C580080B4170B420D19480D034C00DB0F2D0B640DC90F9846844208D0144882420DD00120944212D004BC9046F0BD2B1C33430120002BF7D10D480E
:404700008242F1D163463B430120002BEFD101209442ECD1BD42EAD16645E8D1414506D0002CE4D1281C3043451EA841DFE70020DDE7C046FF070000F0B557464E46454697
:40474000E0B4041C4E000803C90F8A46171C59001A03050B700D160B4A0D3049DB0F9C46884232D02D498A4235D000280FD1291C21434B424B419846002A0BD0002B1AD1BB
:40478000E2452CD05546002D18D1012018E0002AF6D19046311C39434B424B414146002906D1002BECD056460120002E08D005E00020002B04D16746002FE6D101235842DC
:4047C0001CBC90469946A246F0BD2B1C2343C9D002214842F4E7331C3B43C6D0F8E7904205DC09DA5246002AE8D00120E8E75446002CE3D10120E3E7B542C3D807D0002099
:40480000B542DDD250460028D8D00120D8E7BC42B8D80020BC42F5D3D2E7C046FF070000F0B544465F4656464D46F0B49446061C1A035800170B420D2E480D034C00DB0F0E
:404840002D0B640DC90F9846844233D02948824236D0002C19D0002A20D1934663463B43584258415B468246002B1DD051460020002904D14246002A14D1012460423CBCE6
:4048800090469946A246AB46F0BD2B1C3343584243419B46002AE1D0002BEBD1414515D00029EAD10120EAE70028F7D001200029E5D0E2E72B1C33430220002BDFD1C5E7E1
:4048C00063463B430220002BD9D1C2E79442E7DC05DBBD42E4D806D00020BD42CFD20029CBD00120CBE76645DAD800206645F6D3C5E7C046FF070000F0B5564644465F4677
:404900004D46F0B44F001D1C0B03141C1A0B7B0D87B0061C92469846CF0F002B21D1024300D149E15346002B00D1E4E1504600F03BFF031E272B00DDD8E1083B51469940AD
:4049400028228846111A321CCA4041460A4392469E40D84B0022181A002180469146039111E0D54883423ED0802153464A031A43D000710F0843D14A824600230020F600CD
:40498000904499460390291C201C251C4A000C03CB0F240B520D9B4631D1211C014300D112E1002C00D19DE1201C00F0FDFE272800DD91E1031C2822083B291C121A9C40CD
:4049C000D1400C439D40BB4B59461A1A794000204B46019103430F2B26D89900B84B8C46634419688F46111C314300D0DFE0082600200221B146824600260391C3E7AE4802
:404A0000824200D1C9E080214B031C43AB49680FE4000443ED0052180020594679404B46019103430F2BD8D942443304290404921A0C0F0C101C7843360C331C80462D0CF9
:404A40007B43301C6843111C69439C4643468346180C08186044844500D91FE1010C4346039119040B0C0004C0182104240C0590101C6243090C02924843321C66434A433D
:404A8000029BB146060C9046B4461A1C62444244904502D9802673029944160CB046C14400044B46060C12040293931956463204100C021C6A439C46031C7B439146320CCE
:404AC000574398461B0C9A46D144B94455434F4502D980277E02AD194B461F0C4646ED191F0433041E0C031C4B436043514354431A0C8018B046401847449A46814202D9CF
:404B000080214E02A419039B1A1C62445A44624589414E425146B34603040E049C460299330C6344CE18B046C246DA44D219BA42BF4151467B426F18F9189946DA459B41F3
:404B40005E42029BB3469845B64176425B461E43000C49459B41AF42AD4136186F425842384336180598341956020643CB0D6402701E8641D20D164349021C430E43E00188
:404B80002FD50127049D374073083E1CE00701351E4304950643640823E0231C2B430320002B00D039E700240025022035E70C22032391460393E6E6042600230120B146A9
:404BC0009A4600260390DEE600240025012024E703985446022844D0032800D1EAE0012860D0049A37495018002800DC95E00F273740042F05D0311DB142B6417542641931
:404C00000E1CE10105D53048049A8023DF000440D0192E49884224DC019B6507F6086402420501272E43240B520D1F4000200021090D0D052543264C12052C4014436300CF
:404C4000301C5E08FF07311C394307B03CBC90469946A246AB46F0BD5A462E1C01920228BAD1019E01273740134A00240026DDE7544601970398ADE701260027154C764226
:404C80000D4AD3E72E1CA5E7802213035146194235D10B431D032C0B074AC7E780214B029B44DBE6019B00221840C7B200240026BCE7C0460DFCFFFFFF07000001FCFFFFA1
:404CC00060630000FF030000FFFFFFFEFE070000FFFF0F80FFFF0F00041C283CA5402C1C002570E600F060FD203060E6283B9E40B24600262DE600F057FD203019E61C42E3
:404D000006D11C432603340B5F462E1C2E4A8DE70B431803040B2C4A88E72C4F049D7B1B382B06DD019E012737400022002400267CE71F2B21DC049A254F351CD119201CC8
:404D40008E40DD408840321C2843561EB241061C1643DC400F233340042B05D0371DB742B641714264183E1C250217D5019B01271F4001220024002658E71648049A211C38
:404D8000871AF9400D1C202B12D0134BD01884402643721E96412E430024DBE7019A6507F6086002012717402E43040B00223DE70024EDE780210F033C43019824030127D4
:404DC000240B0740004A31E7FF07000002FCFFFF1E040000E2FBFFFF3E040000F0B557464E464546E0B4071C0D034E00680ACC0F790F08438446111C18035A00FD00400A51
:404E0000DF0F4B0F1843CA4BC900760D520D8A469A4200D1E0E001235F40B946BC4200D1A8E0B71A002F00DC10E1002A12D15246024300D1D4E0013F002F00D060E1514666
:404E40006F1ABD42AD4162466B42101A3D1CC31A371C24E0B64A964200D1E3E080210B041843382F00DD23E11F2F00DD66E12021C91B021C53468A40FB401A4353468B40DD
:404E8000191C4B1E9941031C0A43FB40AA1A67469542AD41F81A6B42C31A151C371C1A0200D4C7E05E02710A88464246002A00D1F0E0404600F078FC021C083A1F2A00DD7A
:404EC000F1E02823181A2E1C4146C6409140331C0B439540974200DDA9E0D01B411C1F2900DD12E11F273A1A2E1C181CCE409040954030436A1E9541CB4005430121002773
:404F00000F262E40042E00D172E02E1DAE42AD41684280221B180125100418402C40002807D0834FB94200D1B0E0824A0F1C13400131F20849055E073243DB08480D0128A7
:404F400000DC79E01B0378051E0B470D00200021090D7D050B05784F1E43101C37406A0817437E007108E40721431CBC90469946A246F0BDB31A002B00DCA6E0002A3ED06A
:404F80006B4A96424ED080210F043843382B00DC18E15346184300270022002800D001225219AA42AD4167446B42FB18151C371C1E023FD55E487E1C864200D17BE15D4944
:404FC00001222A400B406808151CD90705430D435B08B91C371C93E7014300D11BE71CE7711C371C0F2663462E40042E00D08CE7802201261004344018402E1C8FE75246FF
:405000000243EDD0013B002B09D157467919A9429241554260444319371C0D1CC8E744498E42B3D1802063460101371C68E7BF1A404A1340791C63E7151C1D4300D121E2B6
:40504000002F3ED0802631030B437BE7002F00D086E0721C51054B0D012B00DCF0E05746EA1B95429B416746391A5B42C91A88460B0200D49DE05446651BAA459241C01B38
:405080005742C31B9846371C4C460EE70F1C002600225BE7281C00F087FB2030021C083A1F2A00DC0DE7283885402B1C002511E75746384300230022002800D1E6E60122BF
:4050C000E4E61D032E0B002740E7002B00D0D9E0771C79054A0D012A00DC95E0144B9F4200D1FEE051464919A942AD4162466B428018C2184908D5070D435308B11CFFE695
:405100000B498E4200D0ACE68CE7061C1F3E1F1CF7403E1C202973D03F22101A83401D436B1E9D413543012100230027E8E6C046FF070000FFFF7FFFFFFF0F803B1C203B11
:40514000011CD9400B1C202F5CD04022D71BB840021C50460243511E8A411A43002395E67F42002E40D0CA4CA24200D11FE1802166460B041E43B446382F00DDA9E01F2F41
:4051800000DD3DE12023DE1B291C6446B440F940B5406B1E9D41214363460D43FB4057467D1BC01AAA459B415F42C31B4C46171C75E60D1C154320D100240121002304262A
:4051C0000027B6E61F2B4ADC2021C91A071C52468F40DA403A4357468F40391C4F1EB941D8400A43071CDBE664462C4369D1511C031C5546171C4C4682E6151C371C54E661
:4052000000238CE70022A4E767462F43002E00D0D4E0002F00D126E15346034300D1E4E051464F19AF42AD4160446E4283191E0200D44EE197483D1C0340022101275FE6E3
:4052400061462943002E29D1002976D151460143B2D0031C55464C460121002750E61F1C203F011CF9400F1C202B00D1C6E04022D31A9840021C50460243531E9A413A4395
:4052800000278DE65B42002E30D167462F4300D0C8E0511C031C5546171C31E6002965D15746074300D1C8E0031C802055464C460101774F24E68023371C190104260023A6
:4052C00037E6013F002F6ED154466146651B401A68E767463D430023002D00D15FE701255DE7802631010023042622E668498A4200D1C1E08027664639040E43B446382B21
:4053000000DDA2E01F2B00DDD0E02021C91A2E1C67468F408D40DE403E43291C67464D1EA941DF40351C0D433E1C554455459B4130185E428319171C3AE65646064354D091
:405340005746EA1B63469542B641191A7342CB1A1E0200D4A2E07D1B6446AA45BF41001B7A42831A4C4601210027C9E5564606433FD0624680215707ED08D3080A033D43AB
:40538000134208D0C608164205D15546EC0845072543331C4C46680FDB0080260343ED0031013B4FACE53A498A4200D0E4E68026031C55464C463101171CA1E5002F4CD017
:4053C0005346034315D062468026ED085107D30837030D433B42DED0C2083A42DBD15546E9084507131C0D43D5E763460121002786E5802739016346254F81E500223AE7B5
:405400003C1C203C6646E640331C202F5FD04024E71B6646BE40311C0D43691E8D411D430023BCE6013B002B22D155445545BF417B426044C318171CBAE58021042200246C
:405440000901154B5642124F73E563461D430026002D00D169E7012567E78022031C554611010B4F4CE5031C55460121002747E507498A4200D042E78021031C55460901DE
:40548000171C3DE57F057F0D002600225EE5C046FF070000FFFF7FFFFFFF7F001D1C154300D189E6151C0121002729E51F1C203F6146F940202B10D04026F31A67469F40FA
:4054C0003B1C1D436B1E9D410D4300262DE70021A2E73D1C0121002712E50023F1E7C046134A0B0330B5051C48001C0BC90F430D0020934211DD0F4883420FDC80225003D9
:405500000D4A0443D01A1F280BDD0C4DEB1ADC40221C5042002900D1101C30BD084C0819FBE7C54007482A1C1D18AC402243F0E7FE0300001D040000330400001304000099
:40554000FFFFFF7FEDFBFFFFF8B5041E2DD0C50F00D04442201C00F027F916490A1A0A2816DD0B388440570526037A0D360B002700200021381C0F0D3B050F4C33431C4046
:405580001605344361004A08ED07111C2943F8BD0B26011C301A1531231CC4408B40520521031F1C0E0B520DE2E70025002200260027DDE71E040000FFFF0F80410070B514
:4055C0000E0E731C4202C50FD8B2540A012815DD6307E024A000120B341800200021181C0B0D1E051C4B324361054C08134023435A005608ED07311C294370BD002E16D1C8
:40560000002C1ED0201C00F0CFF80A281DDC0B22111A021C231C1532CB4094401E1C231C34030E4E220B301A41054C0DD5E7002C03D06307120B0A4CCFE7094C002200234D
:40564000CBE7002400220023C7E7011C0B398C40261C0023E4E7C046FFFF0F8089030000FF070000F0B5041C4800400D0A03CD0F411C630F520A4F051A43E6007B0D012B26
:405680003BDD42494318FE2B2CDC002B4EDDA401770FD200611E8C413D4E224380193A430F261640042E47D18027FC0414401DD0FF2838D0374B1A40031C0130C6B2D208AC
:4056C000012E17DC002A06D0002B29D08027FC03224351024A0ADBB2DB051A43ED07101C2843F0BD802148000422FF23C6B2D208012EE7DD51024A0AEDE7002806D132434B
:405700000120002A15D104220023EFE71643E9D08024A004D20080260243FF237000BFE75002420AD8E7FF230022D5E7173305DA012005220023D9E70432B5E78023164F3F
:4057400019040A433C1A1F2C0DDC1449331C4718BE40301C461EB041BA40E34002431A43012000239CE70E4B171C191ACF403B1C202C09D00B4C001982403243561EB241AD
:405780001A43012000238BE70022F6E780FCFFFF81FCFFFFFFFFFFFB9E03000082FCFFFF7E030000A2FCFFFF1C2101231B04984201D3000C10391B0A984201D3000A08390F
:4057C0001B09984201D30009043902A2105C40187047C0460403020201010101000000000000000070B50E4B0E4D0024E81A85101E1CAC4204D0A100725890470134F8E777
:4058000000F0EAFD0849094A0E1C541AA5100024AC4204D0A300F05880470134F8E770BDE4630000E4630000E4630000EC63000010B50023934203D0CC5CC4540133F9E7BF
:4058400010BD00B58218031C934202D019700133FAE700BD0EB400B59CB01DAB02A904CB822202900861920009488A810122886048615042074AC88110681D9A019300F0C6
:4058800063F8029900230B701CB008BC03B01847FFFFFF7F64010020F7B501919168071C141C002940D190239289D80002423BD02568216963696E1A58000096C618009829
:4058C000F50FAB1901305D10A84201DB009D0235381C53050FD5291C00F004FB061E13D02169009AFFF7A4FFA7891649802239401143A18111E02A1C00F04AFB061E0CD193
:40590000381C216900F0A6FA0C203860A58940263543A5810124604213E0009B6561F018ED1A26612060A560A668002E08DD694627680A793A70A3680137013B2760A36038
:405940000020FEBD7FFBFFFFF0B5A1B0049007938B890E1C171C19060FD53269002A0CD1402100F0BFFA30603061002803D1049C0C262660D6E04020706108AD002120241A
:40598000302369616C76AB763C1C2278002A04D1E01B069019D003970FE0252AF8D00134F3E70399321C09780498FFF775FF039A01320392013000D1AFE003990698CB1B26
:4059C0008342EEDB0D9F3A180D922178002900D1A3E001206A4600234742633201342B60EB606F60AB601370AB65504F2178381C052200F0C1FA002807D0C71B2B680120E9
:405A0000B840184328600134EFE72B68D90603D568462021633001701A0703D56A462B276332177021782A2901D00B9B0EE0079A1068111D0791002801DB0B9004E0022255
:405A400047421343EF602B60013409E020783038092804D80A277B4301341B18F6E70B9323782E2B18D161782A2909D1079B02341A68191D0791002A0DDA012042420AE0C5
:405A80000134002220783038092804D80A277A4301341218F6E70992254F2178381C032200F06AFA002806D02B68C21B4021914019432960013421781E4806222976671CE0
:405AC00000F05AFA002817D01B4800280BD12868079C0723C10501D5E41800E007349C430834079414E007AA00920498291C321C124B00E000BF07E007AC00940498291CB5
:405B0000321C0E4B00F08CF8059005994A1C04D00D99059A8C180D9436E7B589690601D40D9801E00127784221B0F0BDA2630000A8630000AC6300000000000099580000BE
:405B4000F7B5151C01930A698B6800900C1C934200DA131C201C2B6043300178002901D001332B602668B00602D52F6802372F602268062616401CD0261C433637782268E6
:405B80003E1C731E9E4192061CD5A319181C40303021271CC17045373A784133DA70023610E0617E0098019A089FB847013006D00136E3682868191A8E42F2DBDCE70120D4
:405BC00040422CE00027B7420ADAE119433109780098019A089B98470130F0D00137F2E72B68256806212940E6680025042903D1F01AC743FD170540A2682669B24201DD71
:405C0000931BED180027AF4208DAA17E0098019A089EB0470130D2D00137F4E70020FEBDF0B50D1C8BB0433507930590069204950A7E0C1C109B6E2A00D1A8E012D8632A63
:405C400024D009D8002A00D1B1E0582A00D0C1E045310A707D4D51E0642A1FD0692A00D0B8E01BE0732A00D1A5E009D86F2A2BD0702A00D0AEE00A68202616430E6038E07B
:405C8000752A21D0782A00D0A4E032E018680E1C051D1D600368423633709EE026681F68300606D4750604D5381D186000203D5E02E03D1D1D603D68644B002D3BDA049912
:405CC0002D226D420A7036E027681E683D0605D4780603D5351D1D60358802E0311D196035685A4B207E039308276F281ED00A271CE0271C45377820554D38701A68266852
:405D0000111D03951960300603D4750601D5158800E01568F00702D520231E4326601027002D03D12668202086432660261C43360022327001E003930A276168A160002965
:405D400003DB2068042398432060002D02D1049E00290ED0049E281C391CFDF77FFA039A013E515C281C3170391CFDF733FA051EF1D1049B9A1B2261082F33D12768F80781
:405D800030D5606890422DDC013262602AE008681E684969050606D4450604D5351D1D603368198003E0321D1A603768396000202061049E16E01E68311D19603668301C34
:405DC00000F01EF965682061A84200D925612369636004E0261C4236327001212161049F00223A7007990598009109AA211C069BFFF7A6FE01300CD0351C2269AB1B9342E6
:405E00000ADA29780598069A079FB84701350130F3D10122504217E02668B10705D4099BE068984210DA181C0EE00025E7680998391A8D42F3DA617E0598069A079EB04777
:405E40000130E6D00135F1E70BB0F0BDB3630000C463000030B5002940D004390B68002B00DAC9181E4A1368141C002B02D14B60116033E099420FD20D684A199A4205D14E
:405E800010682B1855680B604D6000E04B60216024E08A4203D8131C5A68002AF9D11D685C198C420BD10C682D1958191D60904214D1116852686C181C605A600EE08C420A
:405EC00002D90C21016009E008680D18954203D114685268001908604A60596030BDC0466C02002070B50323CD1C9D430835061C0C2D01D20C2501E0002D2DDB8D422BD3E2
:405F00001C4A1368111C1C1C002C12D02068421B0CD40B2A02D92260A41815E0A34202D166680E601CE065685D6019E0231C6468EAE7301C291C00F051F8421C0CD0C41CD2
:405F400003218C43844201D1256009E0211A301C00F044F80130F7D10C243460002008E0201C0B300722211D9043431A01D05D42E55070BD6C02002000B5C9B282189042A6
:405F800004D003788B4202D00130F8E7002000BDF8B5061C0C1C151C002904D1111CFFF7A1FF041C18E0002A03D1FFF753FF2C1C12E000F02CF8A8420ED2301C291CFFF720
:405FC00091FF071E07D0211C2A1CFFF731FC301C211CFFF73FFF3C1C201CF8BD38B5074C0023051C081C236000F01CF8431C03D12168002900D0296038BDC046E0040020FD
:406000000023C25C0133002AFBD1581E704704390B6800B5181F002B02DAC8581918081F00BD00000A4A00B51368002B0CD018186946884202D81060181C00BD054B0C2203
:4060400001201A604342F7E7034B1360EFE7C04670020020E0040020E80400200000000025640055415254204F4B0D0A0053746172746564204F4B0D0A003B0D0A004759B3
:4060800052205720416464204F6B0D0A00475952205720526567204F6B0D0A00475952205720446174204F6B0D0A0047595220572053746F70204F6B0D0A004779726F20F1
:4060C000737461727465640D0A00414343205720416464204F6B00414343205720526567204F6B00414343205720446174204F6B0041434320572053746F70204F6B00418B
:40610000636320737461727465640D0A004D616720737461727465640D0A000001000F405B320F4037330F4002400F4006410F4004420F400C430F4002600F40830F03079C
:40614000042C06D10A030B050C090D020EF01430164C170318801A10209C2106222228143307341F36E03A803B08400645154615480F49FF4A074BFF4C404D204EF04F0594
:406180005008580459045A045F01604061A86240632082058506870889018F1C901094079506971899069B089C029E01A008A112A601A807A920B008B210B31EB406B52014
:4061C000B601B701B820BB08BE55BF10C034C106C5ECC6B0C80BC9FFCAFFCBFFCEF0CF44D00CD401D804D904DA04DB04DF01E6C0EA40EB02000205100722088109880F188D
:4062000010A0120C1480152019841A401B101D901F8020022148221023122608272029102B802F8030303108360839803A143C023F9041084240482049014A084C804F2862
:40624000511056105740581159858210C0E8C26DC45ECA85CC46CEBED003D224D60FE280E4046F10DA80271067088B049F10C880D8800A045004C202D404180819406408C9
:4062800072048008894092049408C602D801DC04E201100111010000426F6F740D0A0000E2652F227F2B7A3C075C143326A6813CBDCBF07A8807703C075C143326A6913C18
:4062C0004FBB610567ACDD3F182D4454FB21E93F9BF681D20B73EF3F182D4454FB21F93F0037000042380000423800003A3800002838000028380000203800003A380000F6
:406300002838000020380000283800003A380000CC370000CC370000CC3700004638000018420000E4430000D844000074440000D84400004E440000D84400007444000075
:40634000E4430000E44300004E44000074440000FA440000FA440000FA440000E0440000284A0000844C0000844C0000584C0000D04B0000D04B0000784C0000584C000053
:40638000D04B0000784C0000D04B0000584C0000704C0000704C0000704C0000884C00004300232D302B2000686C4C00656667454647003031323334353637383941424332
:4063C000444546003031323334353637383961626364656600000000F8B5C046F8BC08BC9E467047A1130000651B0000F8B5C046F8BC08BC9E4670477913000010640000AC
:40640000D00000209800000080030000000000000000000001006400010000000AD7233C030100000AD7A33C0AD7A33B0AD7A33B0000E02EC05D00001800000000366E0181
:406440000000000000000000000000000000000000000000000000000000000000000000A06300000000000000000000000000000000000000000000000000000000000019
:4064800000000000000000000000000000000000000000000000000000000000000000000000000000010020000000000000000000000000000000000000000000000000BB
:4064C000000000000000000000000000000000000000000000000000000000000000000000000000000000000000000000000000000000000000000000000000000000009C
:40650000000000000000000000000000000000000000000000000000000000000000000000000000000000000000000000000000000000000000000000000000000000005B
:40654000000000000000000000000000000000000000000000000000000000000000000000000000000000000000000000000000000000000000000000000000000000001B
:4065800000000000000000000000000000000000000000000000000000000000000000000000000000000000000000000000000000000000000000000000000000000000DB
:407FC0003E911000002000000080540000000000000001000000000000000000000000000000000000000000000000000000000000000000000000000000000000000000AD
:0200000490303A
:020000006A5440
:0200000490402A
:20000000FFFFFFFF00000000000000000000000000000000000000000000000000000000E4
:0200000490501A
:0C000000000204C81193110004E87BE723
:0200000490600A
:0100000001FE
:00000001FF