:400000000010002011000000810300008103000008B500F005FC00F0B5F90000F8B572B680220021D2004D4800F09DFF8023DA004B48002100F097FF0022101C4949FF25E5
:4000400054584700261CAE431031E3B2351CC919002B07D00F78013B7E194F78DBB237700231F5E7E4B204320019102AE6D1C0223D4D9104296080203C4F3D4C3D4A3E4DC5
:40008000C10399263E6023603C4F1060C02429603B4A3C49600340263E6010603A4F0B603A4B022531263A4C1D6099203E6039498023394F256002041E06384C0A60802018
:4000C0003E603749374E384B2260384F82050A601E603C78062025433D703D78344A05433D7011688026F3020B43324F324C13603878324E2178171C3578172D05D9304A32
:400100007078B178033E9642F6D12E4B2E4C2F4E1925186021600520356000F031FD2C482C4A01780520116000F060FE3C682A4B2A4D23402A483B60202610272F6080215B
:400140000660284F284D294E294A2A4B2A480C0614601C602F600660F8BDC04600300F4000400F40840F000004000140100001400C00014000000440080004400001044051
:40018000080104400803044008040440000404401804044000500F4004500F4010500F4018500F40100001002001054000700F4000010B40CCF1FF0FCDF1FF0FC9F1FF0F22
:4001C000BDF1FF0F1CFF0B4020FF0B402CFF0B40E5F1FF0F28FF0B40FFFFFBFF08020240200202401000008000000240AF04008008010B4004010B404000024010B5064CBD
:400200002378002B07D10548002802D0044800E000BF0121217010BDF000002000000000800F000008B5084B002B03D00748084900E000BF07480168002903D0064A002A54
:4002400000D0904708BDC04600000000800F0000F4000020D00000200000000010B562B600F084FC00280ED16524012000F0A8FD00F07CFC002806D1013CE4B2002CF4D1BB
:40028000034B40221A6000F063FC00F09BFAFEE7C000002008B500F0EDFA00F025FB00F08DFB08BD70B5054B0D1C161C0024C9B21C8000F077FB3580201C70BD0C010020E2
:4002C000F0B50A275F4387B002900591161C00252A4CBD4219DA00F0F5FA80B220802388002B0CD00220278800F06AFD00F0EAFA81B221802288BA42F4D8002706E0012095
:40030000013500F05DFDADB2E2E7052700253580208800282FD023883088019301994218059993B233808B4221D201982A1893B2049304998D4209D002994819039000F084
:40034000A7FA039A01351070ADB2F2E772B62088019A831A99B2218062B602984219013A1378172BD4D0052000F02AFDD0E7308000F0BAFA0527381C07B0F0BD0C0100204C
:4003800000B5FEE770B50F490F4A01394B1C14D0506895681468031C1E1AAE4202D040CC40C3F9E7D0681D1C5C1B844202D0002640C3F9E710320139E8E700F0A5FDFFF7B3
:4003C0004DFFFEE701000000D40F000008B500239A00032B02D80D48815800E00C490D4801338150302BF3D1FFF718FE0A490B4B086800221A60002800D108608022D305EE
:40040000186801210843186008BDC046000000008103000000000020C0000020C80000200047000038B5041C013806280BD800F061FD2406260F11080400174820E0174BF7
:4004400009E0174B07E0002000F0ACFC002302E0144B00E0144B5A78187800021043022C04D0032C07D0012C15D104E0040A0302234398B20FE000BA0DE00C4800E00C4858
:40048000C578817842780378180628430D02284311040843E3E738BDD87F0000C57F0000D47F0000D27F0000D67F0000C17F0000C97F000038B50220FFF7B4FF051C032097
:4004C000FFF7B0FF6C1CE1010C180220FFF7AAFF0023421CD201191CA24209D21078451EEDB2FD2D00D80121C318DBB20132F3E705485B420578DCB2AC4201D0062002E0E1
:400500000029FBD0002038BDC07F0000F0B5A34CA544FFF7BFFE62B600250095002603AF962124A849003A1CFF23FFF7C9FE0028F5D139880423062967D924AA1478012CCC
:4005400063D193236B4492221F786A4413783C021C4324AF3A19177953790197E71D9C4603238F4251D89179042317294DD1E3189BB2002B08D0BAAA8949D7187A18177881
:40058000013BC01980B2F3E762464042019F110282B239430823914237D168E0342900D09AE0012D00D0F6E0032C00D0F3E06FA80021802200F0D7FC80266FA988193519A8
:4005C0002639E21EFF39AEB200F0C4FC832E00D0DAE0BC797979009F26020E43002F0AD1391C802204A800F0BEFCFF2004A900F0EDFA01200090301C6FA900F0E7FA0125D4
:40060000002800D1C3E000260A23002168469130012703706A4624AC6B4692330E32277000200F1D197058701180BBB25C4FBAACE418E4192778013BC0199BB280B2002BD0
:40064000F4D14442A0B2BAAF564C7B181F19564C38701F19554C000A38701B19172707311F7089B224A89623FFF71CFE57E724AF79783B79081C31380A2801D90523C4E707
:4006800000F02EFC0611FC8C2FFC32428C507800012D00D07FE0002C7DD1FFF70BFF434243413B7163E0012D75D1012C73D1002B71D13F4A25A8146821889524CF090770EA
:4006C0003A0A97209627FF216C446F446844397022700370042199E7012D5CD1022C5AD96BE7012D57D119E7012D54D19620371943009F424DD86FAA901925A9221C00F0FC
:4007000029FCBEB2002380E7002C44D104AB294A191CA0CAA0C125AF21CB21C708210125231C73E7012D36D1032C34D196226A449521177869440C7838021A02204387180A
:40074000FF01002280210139CC5D1219D2B20029F9D1002B08D1FF2806D1174B174918780C78171A3A1BD2B2504224AB1871002301214BE7FFF79EFE002802D110488024E5
:40078000046000F011FB06E00125002601E0061CB8E7032339E7042337E7C04614FDFFFFA7FDFFFFACFDFFFFADFDFFFFAEFDFFFFD4000020A80F0000D07F0000D17F000081
:4007C000C0000020144810B50368002219680B1C013BBF2B03D01C781219D2B2F8E740680478A21AD3B2A34201D1002902D1002000F0D8FAFFF75EFE084C2168221C4029D8
:4008000001D0002803D000231360FFF77FFE8020206000F0C9FA10BDD4000020C000002008B50B4B10201A680A49024000D10A600B68802B0BD1002201200A60FFF7F2FD4E
:40084000002804D00120FFF7EDFDFFF7E9FD08BD00030B40C000002008B5054B802219681006084318600A2000F088FA08BDC0460000064010B5054C2378002B03D100F056
:40088000BFF801202070FFF7E7FF10BD10010020094B00B51968094B1A6891420AD019684A1C4039481E8141484205490240885C1A6000E0002000BDAC010020240100201A
:4008C00068010020064B074A1B68116800B58B4202D31268981A02E010684133181A00BDAC010020240100200C4A0D4B002130B5106811601D68802464022C431C601D68E3
:40090000084C2C401C60084B084C1D68084B25601970084D08492960106030BDC80F064004030640FFFFFEFF24010020AC010020A9010020C00F0640ED0F0000124910B5F0
:400940000A68531C3F3A541EA241544223400F4A1468A342FBD00C681268944208D10C4C0F2224682240082A02D00A4A10600AE0094C02222260094CC0B2E0540B60084BD0
:4009800019680A431A6010BD200100201C0100200802064040020640800F064028010020880F064038B5041C4518AC4204D02078FFF7C4FF0134F8E738BD00000B4A0023D3
:4009C000116810B513600A4B80201C684002204318601C68074820401860074B07481C68022399430460116010BDC046880F064004020640FFFFFEFF1C0100202001002095
:400A00001D4A1E4B1E4810B51E4900241A60046001221D4B1D480A601D490360072008601C491D4804600A601C4A0A2013601C4B1C6000F0ADF90A20032100F07FF9194974
:400A40000A2000F06FF918481849194A194B04600C60146018491C60184A194B04200860146018481C601849184A194B04600C7014601C6010BDC0460B000002000006408C
:400A8000400006404800064007000080000306400403064044000640100306400002064004020640010E0000880E0640C80E0640480F0640080F0640C80F0640880F064093
:400AC000AC01002024010020A9010020200100201C0100200E4B8422D00418601968802250020843186019680A481960C3239A00094B026000210948094A196009490A4BB2
:400B000010600A4A19600A4910601C20086070470001054024010540380105401027000014010540881300000C010540080105402801054008B500F02CF8044B01211A682E
:400B40000A431A6000F029F808BDC0460000054010B5054C2378002B03D1FFF7BBFF01202070FFF7E7FF10BD18010020024B18680106C80F7047C0460400044000000000EA
:400B80000230800804D0C0460138FDD1C046C0467047EFF3108072B6704780F310887047094A10B513680020141C1A0F11070A2A08D0002806D1F0221206914200D1181C93
:400BC0002368F2E710BDC04608000040F0B5071CABB00124FF2800D995E0002900D192E0002508ACB623D7207F2223706070A5700AA8E5706260802200F0ACF92E1C291CFC
:400C00002A1C0195B31C98002558002D02D05219294301960136202EF4D1002A02D1002968D100E0002100910291384D384E2C60384C34603268002AFCDB2B68FFF7B0FF37
:400C4000041E60D1FFF7A5FF334B05901968B6200491D8226946BFB2087603974A7668460C210A5A294F42832C49294A06A8386011601F1C3368002BFCDB2B68A020010649
:400C80008B4201D0002B2ED1009A002A2CD0002180220AA800F067F9019B029902331D4A08AC980001512C6032603468002CFCDB2B68FFF775FF041E16D107ABB6201870A3
:400CC000D92168460C225970115A10485980144A03600F4B1A6031680029FCDB2B68A0252E06B34200D01C1C049838600598FFF754FF08E0019E01250236B300E058009583
:400D00000290E25091E7201C2BB0F0BD08000040040000400400008008010B40050000800600008000B51F2800D901BE024A800083181868196000BD4000002038B5041C26
:400D40000D1E032D00D901BE1F2C00D901BEFFF720FFA308084A99008B1803221440944019680634A2409143A5400C1C2C431C60FFF713FF38BDC04600E400E01F23184038
:400D8000024A0121814011607047C04600E100E01F231840024A0121814011607047C04680E100E001BE7047034B04491A6890B2084318607047C0460CED00E00400FA05AC
:400DC00010B5041C8022074B1002844205D91868FFF7D6FE04496418F4E758686043FFF7CFFE10BDDC0000200080FFFF08B5034B197A4843FFF7C4FE08BDC046DC00002061
:400E0000264B10B51868002800D0804724490A6852071DD5234C23681A0716D0224B234A186811684B1C40394C1EA1414C42204923400C68A34203D11E4B20221A70E9E787
:400E40001D49C0B2C8541360E4E71C49042008601B4A1468A20720D51A4B0F2118680140082917D0184A194B1468186884420CD01C68621C3F3C601E8441614214480A40F5
:400E8000845C14490C601A60E6E7134C022122688A432260114B0220186010BD14010020CC0F06400803064040030640AC01002024010020A901002068010020C00F06407A
:400EC0008C0F064008020640200100201C0100202801002040020640880F0640800F064002B4714649084900095649008E4402BC7047C04602B4714649084900095C49000F
:400F00008E4402BC7047C04670B50E4B0E4D0024E81A85101E1CAC4204D0A100725890470134F8E700F044F80849094A0E1C541AA5100024AC4204D0A300F0588047013494
:400F4000F8E770BDBC0F0000BC0F0000BC0F0000C40F000010B50023934203D0CC5CC4540133F9E710BD00B58218031C934202D019700133FAE700BD08100000B100000047
:400F80000000000001330F4003410F4004430F4002600F40E61062048E04D84018808C40C608E608020111019311C80411140101F8B5C046F8BC08BC9E4670472502000015
:400FC000CD030000F8B5C046F8BC08BC9E467047FD010000E80F0000D000002020000000C00000000000000000000000780F00007C0F00000000E02EC05D00001800000041
:4010000000366E010000000000000000000000000000000000000000000000000000000000000000000000000000000000000000000000000000000000000000000000000B
:401040000000000000000000000000000000000000000000000000000000000000000000000000000000000000000000000000000000000000000000000000000000000070
:401080000010002091100000391A0000391A000080B500AF024B83F3088800F0D1FCC0460010002080B584B000AF021CFB1D1A70224A3B1C0B3312781A70214A3B1C0A33A3
:4010C00012781A701F4B1B68013BFB601AE01E4B1868391C0B31FA68131C5B009B18C31801331B780B70184B1868391C0A31FA68131C5B009B18C31802331B780B70FB6895
:40110000013BFB60FB68002B0ADB0F4B1968FA68131C5B009B185B5CFA1D12789A42D6D90A4B3A1C0B3212781A60094B3A1C0A3212781A60BD4604B080BDC046CCF1FF0FAD
:40114000CDF1FF0FF04A0000DC0000201CFF0B4020FF0B4080B500AF274B274A12688021C9020A431A601820FFF79CFF234B19221A60052000F044FD214B224A1278D2B201
:401180001A60052000F030FE1B4B1B4A11681E4A0A401A601D4B21221A601D4B10221A601C4B30221A601C4B11221A601B4B20221A601B4B11221A601A4B31221A601A4BB6
:4011C000802212061A60194B802212061A60184B184A1A60184B194A1A60194B174A1A60184B164A1A60184B184A1A60184B194A1A60BD4680BDC04600010B402CFF0B40A1
:4012000028FF0B40E5F1FF0FFFFFFBFF080202400C0202402002024024020240280202402C0202403002024008010B4004010B400000024003000080400002401700008026
:4012400080000240040002404400024022000080840002403801008080B582B000AF72B6554B01221A70FB1D00221A7023E0FB1D1A78131C5B009B185B00504A9B183B6043
:401280003B681A78597809020A43997809040A43DB781B0613431A1C3B6819795B791B020B439BB2101C191C00F056FCFB1DFA1D127801321A70FB1D1B78012BD7D9404A7A
:4012C000404B101C191C00F057FC3F4B802252001A803E4B01221A703D4BC02292041A603C4BCC2292001A603B4B3C4A1A603C4B99221A603B4B80221A603B4B3B4A1A600D
:401300003B4B802212021A603A4B40221A603A4B3A4A1A603A4B06221A603A4B3A4A1A603A4B13221A603A4B3A4A1A603A4B02221A603A4B3A4A1A603A4B02221A603A4B64
:40134000992212041A60394B802212061A60384B992212041A60374BC02292051A60364B364A1A60364B802292051A60354B992212041A60344BC02292041A60334B142288
:401380001A60334B02221A60324B324A1278D2B202210A43D2B21A702E4B2E4A1278D2B206210A43D2B21A70FFF7D4FE00F024FCBD4602B080BDC0461C700F406849000035
:4013C000744900009449000000600F4002600F4004000140080001400C000140EEEE0300100001400000044008000440B66D5B000C000440000104400801044006001800DA
:401400000002044008020440B66D0F000003044008030440A46DDB000004044008040440B10D00001804044000500F4004500F4010500F4018500F4020500F4004009900AA
:4014400024500F4030500F4038500F40E00105402000004000700F4010B5064C2378002B07D10548002802D0044800E000BF0121217010BD5801002000000000CC480000CA
:4014800008B5084B002B03D00748084900E000BF07480168002903D0064A002A00D0904708BDC04600000000CC4800005C010020D00000200000000080B58AB000AF7860C8
:4014C000391C0831074A7B68081C111C1A1C02F0F9FD3B1C0833181C00F01AFDBD460AB080BDC046D048000080B582B000AF62B600F0A4FC01F0DAFCFA235B00181C00F0B5
:401500004FFC00F057FD00F063FE00F071FF01F009F900F0DDFF01F061F801F075F900F0ADFD00F0ADFE7C4B181C00F0F1FC00F085F97A4B181C00F0EBFC00E0C046784B0F
:401540001B78DBB2012BF9D1754B00221A70754B1B78DBB20133DAB2724B1A70714B1B78DBB20A2B02D16F4B00221A706D4B1B786C4B1B78DBB26E2B02D16A4B00221A70C9
:40158000694B1B78012B31D1684B1A88684B1B889A4203D1674B01221A7008E0634B1A88654B1B889A4202D1624B00221A70614B1B78002B0DD15D4B1A88604B1B88D3189E
:4015C0009AB25A4B1A80594B1B88181C00F020FE0CE0564B1A88594B1B88D31A9AB2534B1A80524B1B88181C00F012FE00F054F9534B1B881BB2181CFFF75EFF514B181CDA
:4016000000F086FC504B1B881BB2181CFFF754FF4C4B181C00F07CFC4C4B1B881BB2181CFFF74AFF4A4B181C00F072FCFB1D01221A70FB1D1B78002B34D1464B1A88464B78
:401640001A80444B5A88444B5A80424B5A88424B9A80404B9A88404BDA803E4B9A883E4B1A813C4BDA883C4B5A813A4B1A893A4B9A81384B1A89384BDA81364B5A89364B83
:401680001A82344B5A89344B5A82324B5A89324B9A82304B9A89304BDA822E4BDA892E4B1A834BE72B4BFA2292001A80294B1A88294B1A80274B1A88274B5A80254B1A88EB
:4016C000254B9A80234B1A88234BDA80214B1A88214B1A811F4B1A881F4B5A811D4B1A881D4B9A811B4B1A881B4BDA81194B1A88194B1A82174B1A88174B5A82154B1A8882
:40170000154B9A82134B1A88134BDA82114B1A88114B1A8312E7C046D4480000E04800007401002075010020D4000020A6010020D6000020A2010020A4010020D8000020DD
:40174000A8010020F0480000AA010020AC010020F4480000780100208801002080B582B000AF0A1CFB1D011C1970BB1D1A706B20002101F02DFC134B181C00F0C9FBFB1DD2
:401780001B78181C01F02EFD0F4B181C00F0C0FBBB1D1B78181C01F025FD0C4B181C00F0B7FB0B4B0B4A116820220A4001D0182200E010221A60084B181C00F0A9FBBD46C9
:4017C00002B080BD04490000104900001C4900006800074064000740F848000080B584B000AF021CFB1D1A706B20002101F0F0FBFB1D1B78181C01F0F5FC6B20012101F096
:401800006DFC012001F054FD021C3B1C0F331A70084B094A116820220A4001D0182200E010221A603B1C0F331B785BB2181CBD4604B080BD680007406400074080B500AFBA
:4018400020200F21FFF78AFF2020FFF7C7FF031C181CFFF731FE21202021FFF77FFF2120FFF7BCFF031C181CFFF726FE24201021FFF774FF2420FFF7B1FF031C181CFFF79F
:401880001BFE034B181C00F043FBBD4680BDC046284900000000000090B585B000AF6B20002101F095FBA82001F09CFC6B20012101F014FC002001F0FBFC031CDAB2504B05
:4018C0001A70002001F0F4FC031CDAB24D4B1A70002001F0EDFC031CDAB24B4B1A70002001F0E6FC031CDAB2484B1A70002001F0DFFC031CDAB2464B1A70012001F0D8FC78
:40190000031CDAB2434B1A70434B444A116820220A4001D0182200E010221A60394B1B785BB21B029AB2364B1B7813439AB23C4B1A80364B1B785BB21B029AB2324B1B782E
:4019400013439AB2374B1A80324B1B785BB21B029AB22F4B1B7813439AB2334B1A80304B1B881BB2181C02F01DFB031C0C1C181C211C224B204A02F06FF8031C0C1C181CD0
:40198000211C02F0DBFA031C9AB2284B1A80254B1B881BB2181C02F005FB031C0C1C181C211C164B144A02F057F8031C0C1C181C211C02F0C3FA031C9AB21D4B1A801A4BB4
:4019C0001B881BB2181C02F0EDFA031C0C1C181C211C0A4B084A02F03FF8031C0C1C181C211C02F0ABFA031C9AB2124B1A80BD4605B090BDC046C046EC51B81E85EB813FDD
:401A0000B1010020B0010020B7010020B6010020BD010020BC0100206800074064000740B2010020B8010020BE010020A8010020AA010020AC01002080B500AFFEE7C04684
:401A400080B586B000AF254B7B61254B3B61234B7B61234B3B6132E03B691B68FB603B695B68BB603B699B683B6000237B600CE0FB681A68BB681A60BB680433BB60FB6804
:401A80000433FB607B6804337B607A683B689A42EED13B69DB683B6000237B6008E0BB6800221A60BB680433BB607B6804337B607A683B689A42F2D13B6910333B617B6963
:401AC0005A1E9341DBB27A69013A7A61002BC3D102F0C0FAFFF708FDFEE7C04601000000CC4B000080B582B000AF00237B600FE07B68032B04D8134B7A689200D35800E0DE
:401B0000114B124A796889008B507B6801337B607B682F2BECD9FFF79FFB0D4B00221A600C4B1B68002B02D10A4B00221A608023DB058022D205126801210A431A60BD4605
:401B400002B080BD80100000391A000000000020C8000020C000002080B582B000AF786039607A683B68101C00211A1C02F0A1FABD4602B080BDC04680B586B000AF7860A5
:401B8000396000233B6100237B612EE07B699B007A68D3181B68BB603B1C0F33BA681A70BB68FF229343BB6017E03B695B003A68D3181B781A1CBB68D3183A69520039686C
:401BC0008A1852781A703B6901333B613B1C0F333A1C0F321278013A1A703B1C0F331B78002BE2D17B6901337B617B69072BCDD9BD4606B080BDC04680B500AFBD4680BD22
:401C00000230800804D0C0460138FDD1C046C0467047EFF3108072B6704780F31088704780B584B000AF021C3960FB1D1A7080239B05FB60FB1D1B781F2B02D9002000F044
:401C400095F8FB1D1B7810339B00FA68D3181B68BB60FB1D1B7810339B00FA68D3183A681A60BB68181CBD4604B080BD90B587B000AF0A1CFB1D011C1970BB1D1A70BB1DDD
:401C80001B78032B02D9002000F070F8FB1D1B781F2B02D9002000F069F8FB1D1A7803231340DB0006337B613C1C1334FFF7B1FF031C2370FB1D1B789B08DBB29B001449F2
:401CC0005B181B68FB607B690322111C99400B1CDA43FB681340FB60BB1D1A787B69111C99400B1CFA681343FB60FB1D1B789B08DBB29B00064A9B18FA681A603B1C1333AF
:401D00001B78181CFFF789FFBD4607B090BDC04600E400E080B582B000AF021CFB1D1A70064BFA1D11781F220A400121081C9040021C1A60BD4602B080BDC04600E100E0D4
:401D400080B582B000AF021CFB1D1A70064BFA1D11781F220A400121081C9040021C1A60BD4602B080BDC04680E100E080B582B000AF021CFB1D1A7001BEBD4602B080BDA3
:401D800080B500AF044B044A12681204120C03490A431A60BD4680BD0CED00E00400FA0580B582B000AF786008E00C4B1B68181CFFF726FF7B680A4A9B187B607A6880237C
:401DC0001B029A42F1D8074B1B687A685343181CFFF716FFBD4602B080BDC046EC0000200080FFFFE400002080B582B000AF021CBB1D1A80BB1D1B88044A12785343181C4C
:401E0000FFF7FEFEBD4602B080BDC046E800002080B500AF00F028F8BD4680BD80B500AF054B054A1268802109060A431A6000F017F8BD4680BDC0460000064080B500AF99
:401E4000064B1B78002B04D1FFF7E2FF034B01221A70FFF7E3FFBD4680BDC046CC01002080B500AFBD4680BD80B500AF174B184A1A60184B00221A60174B01221A60174BFB
:401E8000174A1A60174B07221A60174B00221A60164B01221A60164B114A1A60154B00221A60154B00221A60144B00221A60144B00221A60134B00221A60134B00221A602E
:401EC000124B00221A60BD4680BDC046000006400B000002400006404800064000030640070000800403064010030640440006400002064004020640880E0640C80E0640B0
:401F0000480F0640080F0640C80F0640880F064080B584B000AF78600023FB6009E07A68FB68D3181B78181C01F0BCFAFB680133FB607A68FB68D3181B78002BEFD1BD4615
:401F400004B080BD80B500AF094B00221A60094B0C221A60012000F079F8074B181C00F03BF8054B181C00F045F8BD4680BDC04600010540240105401027000090B583B01F
:401F800000AFFC1DFFF745FE031C2370084B084A126801210A431A60FB1D1B78181CFFF73CFE0120182100F033F8BD4603B090BD0000054080B500AF064B1B78002B04D1D2
:401FC000FFF7C0FF034B01221A70FFF7D7FFBD4680BDC046D401002080B582B000AF7860034B7A681204120C1A60BD4602B080BD1401054080B582B000AF7860034B7A68F4
:402000001204120C1A60BD4602B080BD0C01054090B585B000AF786039603C1C0F34FFF7F8FD031C2370084B3A687968081C9040021C1A603B1C0F331B78181CFFF7EDFD3A
:40204000BD4605B090BDC0460800054080B582B000AF7860024B7A681A60BD4602B080BD3801054080B582B000AF7860024B7A681A60BD4602B080BD3001054080B500AF1E
:4020800000F05AF8054B181C00F016F8032000F021F800F047F8BD4680BDC046A120000080B500AF0120FFF7DDFF024B01221A70BD4680BD7401002080B582B000AF786066
:4020C000034A80237968D150BD4602B080BDC0460000002090B585B000AF021CFB1D1A700623FB603C1C0B34FFF793FD031C23700B4B0B4A1268C021101C8843011CFA1D69
:402100001078FA68041C9440221C0A431A603B1C0B331B78181CFFF780FDBD4605B090BD10E400E080B500AF024B802252021A60BD4680BD00E100E080B500AF024B80229F
:4021400052021A60BD4680BD80E100E080B500AF0E4B8022D2041A600C4B0C4A12681A600A4B0A4A12681A60094B0C221A60002000F07AF8642000F03DF8322000F048F8FA
:40218000044B31221A60BD4680BDC04680010540A4010540A801054090B583B000AFFC1DFFF737FD031C2370084B084A126804210A431A60FB1D1B78181CFFF72EFD0420D4
:4021C000182100F033F8BD4603B090BD0000054080B500AF064B1B78002B04D1FFF7B6FF034B01221A70FFF7D7FFBD4680BDC046D501002080B582B000AF7860034B7A68AF
:402200001204120C1A60BD4602B080BD9401054080B582B000AF7860034B7A681204120C1A60BD4602B080BD8C01054090B585B000AF786039603C1C0F34FFF7EAFC031C64
:402240002370084B3A687968081C9040021C1A603B1C0F331B78181CFFF7DFFCBD4605B090BDC0460800054080B582B000AF7860024B7A681A60BD4602B080BDB801054059
:4022800080B500AF00F05EF8054B181C00F01CF8032000F025F800F04BF8BD4680BDC046A522000080B500AF00F056F8054B181CFFF72EFE6420FFF773FD01F0E7F8BD4677
:4022C00080BDC046F44A000080B582B000AF7860024B7A681A64BD4602B080BD0000002090B585B000AF021CFB1D1A700623FB603C1C0B34FFF78DFC031C23700B4B0B4AD0
:402300001268C021101C8843011CFA1D1078FA68041C9440221C0A431A603B1C0B331B78181CFFF77AFCBD4605B090BD00E400E080B500AF024B01221A60BD4680BDC0468F
:4023400000E100E080B500AF024B01221A60BD4680BDC04680E100E080B582B000AF094B1B68DAB2FB1D7F218A431A70054BFA1D12781A60FB1D1B78DB09DBB2181CBD4601
:4023800002B080BD1000044080B500AF084B802292041A60074B0C221A60022000F080F8E1231B01181C00F04FF8BD4680BDC046C0010540E401054090B583B000AFFC1D2C
:4023C000FFF727FC031C2370084B084A126808210A431A60FB1D1B78181CFFF71EFC0820182100F03FF8BD4603B090BD0000054080B500AF064B1B78002B04D1FFF7C4FFC3
:40240000034B01221A70FFF7D7FFBD4680BDC046D601002080B582B000AF7860034B7A681204120C1A60BD4602B080BDC801054080B500AF034B1B681B041B0C181CBD469A
:4024400080BDC046C801054080B582B000AF7860034B7A681204120C1A60BD4602B080BDD401054090B585B000AF786039603C1C0F34FFF7CEFB031C2370084B3A687968B7
:40248000081C9040021C1A603B1C0F331B78181CFFF7C3FBBD4605B090BDC0460800054080B582B000AF7860024B7A681A60BD4602B080BDF801054080B582B000AF78606F
:4024C000024B7A681A60BD4602B080BDF001054080B500AF00F078F8054B181C00F036F8032000F041F800F065F8BD4680BDC046F524000098B500AF0220FFF7DDFF104BE2
:402500001B78012B06D10E4B00221A700D4B00221A700FE00B4B1B781C1CFFF789FF031C99B2094B6200D152064B1B780133DAB2044B1A700020FFF76DFFBD4698BDC046CE
:40254000D7010020760100207801002080B582B000AF7860034A8C237968D150BD4602B080BDC0460000002090B585B000AF021CFB1D1A701E23FB603C1C0B34FFF749FBD9
:40258000031C23700A4B0A4A126892009108FA1D1078FA68041C9440221C0A431A603B1C0B331B78181CFFF738FBBD4605B090BD10E400E080B500AF024B802212031A6061
:4025C000BD4680BD00E100E080B500AF024B802212031A60BD4680BD80E100E080B500AF00F05EF8054B181C00F01CF8032000F025F800F04BF8BD4680BDC0460126000075
:4026000080B500AF0220FFF757FF044B01221A70034B00221A70BD4680BDC046D70100207601002080B582B000AF7860024B7A685A64BD4602B080BD0000002090B585B016
:4026400000AF021CFB1D1A700E23FB603C1C0B34FFF7DFFA031C23700A4B0A4A11680A4A1140FA1D1078FA68041C9440221C0A431A603B1C0B331B78181CFFF7CEFABD4669
:4026800005B090BD00E400E0FF3FFFFF80B500AF024B02221A60BD4680BDC04600E100E080B500AF024B02221A60BD4680BDC04680E100E080B500AF094B00221A60094BC4
:4026C0000C221A60012000F087F8074B181C00F049F8054B181C00F053F8BD4680BDC0464001054064010540FFFF000090B583B000AFFC1DFFF78DFA031C2370084B084AA4
:40270000126802210A431A60FB1D1B78181CFFF784FA0220182100F041F8BD4603B090BD0000054080B500AF064B1B78002B04D1FFF7C0FF034B01221A70FFF7D7FFBD46CF
:4027400080BDC046D801002080B582B000AF7860034B7A681204120C1A60BD4602B080BD4801054080B582B000AF7860034B7A681204120C1A60BD4602B080BD5401054079
:4027800080B582B000AF7860034B7A681204120C1A60BD4602B080BD4C01054090B585B000AF786039603C1C0F34FFF732FA031C2370084B3A687968081C9040021C1A605E
:4027C0003B1C0F331B78181CFFF727FABD4605B090BDC0460800054080B582B000AF7860024B7A681A60BD4602B080BD7801054080B582B000AF7860024B7A681A60BD4629
:4028000002B080BD7001054080B500AF00F046F9054B181C00F002F9032000F00DF900F033F9BD4680BDC0462D28000080B500AF0120FFF7DDFF764B1B780C2B00D9D4E0B2
:402840009A00744BD3181B689F46002000F0F2FAFF2000F02DF96E4B1B781A1C6E4B5200D35A181CFFF77EFFBFE0002000F020F9FF2000F043F9664B1B781A1C664B52008A
:40288000D35A181CFFF76EFFAFE0002000F036F9FF2000F059F95E4B1B781A1C5E4B5200D35A181CFFF75EFF9FE0002000F04CF9FF2000F06DF9564B1B781A1C564B52005E
:4028C000D35A181CFFF74EFF8FE0002000F060F9FF2000F083F94E4B1B781A1C4E4B5200D35A181CFFF73EFF7FE0002000F076F9FF2000F099F9464B1B781A1C464B520034
:40290000D35A181CFFF72EFF6FE0002000F08CF9FF2000F0AFF93E4B1B781A1C3E4B5200D35A181CFFF71EFF5FE0002000F0A2F9FF2000F0C5F9364B1B781A1C364B520003
:40294000D35A181CFFF70EFF4FE0002000F0B8F9FF2000F0DBF92E4B1B781A1C2E4B5200D35A181CFFF7FEFE3FE0002000F0CEF9FF2000F0F1F9264B1B781A1C264B5200D4
:40298000D35A181CFFF7EEFE2FE0002000F0E4F9FF2000F007FA1E4B1B781A1C1E4B5200D35A181CFFF7DEFE1FE0002000F0FAF9FF2000F01BFA164B1B781A1C164B5200A5
:4029C000D35A181CFFF7CEFE0FE0002000F00EFAFF2000F02FFA0E4B1B781A1C0E4B5200D35A181CFFF7BEFEC0460020FFF7ACFE074B1B780133DAB2054B1A70044B1B786E
:402A00000D2B02D1024B00221A70BD4680BDC046D9010020FC4A00008801002080B582B000AF7860034A84237968D150BD4602B080BDC0460000002090B585B000AF021C20
:402A4000FB1D1A700E23FB603C1C0B34FFF7E1F8031C23700A4B0A4A11680A4A1140FA1D1078FA68041C9440221C0A431A603B1C0B331B78181CFFF7D0F8BD4605B090BD30
:402A800010E400E0FF3FFFFF80B500AF024B802292021A60BD4680BD00E100E080B500AF024B802292021A60BD4680BD80E100E080B584B000AF021CFB1D1A700E4B1B680E
:402AC000DAB23B1C0F3304218A431A70FB1D1B789B00DAB204231340D9B23B1C0F333A1C0F3212780A431A70034B3A1C0F3212781A60BD4604B080BD0004044080B584B03F
:402B000000AF021CFB1D1A700E4B1B68DAB23B1C0F3308218A431A70FB1D1B78DB00DAB208231340D9B23B1C0F333A1C0F3212780A431A70034B3A1C0F3212781A60BD460D
:402B400004B080BD0004044080B584B000AF021CFB1D1A700D4B1B68DAB23B1C0F3301218A431A70FB1D1A7801231340D9B23B1C0F333A1C0F3212780A431A70034B3A1CEA
:402B80000F3212781A60BD4604B080BD0000044080B584B000AF021CFB1D1A700E4B1B68DAB23B1C0F3302218A431A70FB1D1B785B00DAB202231340D9B23B1C0F333A1CC1
:402BC0000F3212780A431A70034B3A1C0F3212781A60BD4604B080BD0000044080B584B000AF021CFB1D1A700E4B1B68DAB23B1C0F3304218A431A70FB1D1B789B00DAB2EB
:402C000004231340D9B23B1C0F333A1C0F3212780A431A70034B3A1C0F3212781A60BD4604B080BD0000044080B584B000AF021CFB1D1A700E4B1B68DAB23B1C0F330821DB
:402C40008A431A70FB1D1B78DB00DAB208231340D9B23B1C0F333A1C0F3212780A431A70034B3A1C0F3212781A60BD4604B080BD0000044080B584B000AF021CFB1D1A7058
:402C80000E4B1B68DAB23B1C0F3310218A431A70FB1D1B781B01DAB210231340D9B23B1C0F333A1C0F3212780A431A70034B3A1C0F3212781A60BD4604B080BD0000044075
:402CC00080B584B000AF021CFB1D1A700E4B1B68DAB23B1C0F3320218A431A70FB1D1B785B01DAB220231340D9B23B1C0F333A1C0F3212780A431A70034B3A1C0F321278AF
:402D00001A60BD4604B080BD0000044080B584B000AF021CFB1D1A700E4B1B68DAB23B1C0F3320218A431A70FB1D1B785B01DAB220231340D9B23B1C0F333A1C0F32127802
:402D40000A431A70034B3A1C0F3212781A60BD4604B080BD0003044080B584B000AF021CFB1D1A700E4B1B68DAB23B1C0F3340218A431A70FB1D1B789B01DAB2402313403E
:402D8000D9B23B1C0F333A1C0F3212780A431A70034B3A1C0F3212781A60BD4604B080BD0003044080B584B000AF021CFB1D1A700D4B1B68D9B23B1C0F337F220A401A7087
:402DC000FB1D1B78DB01D9B23B1C0F333A1C0F3212780A431A70044B3A1C0F3212781A60BD4604B080BDC0460003044080B584B000AF021CFB1D1A700D4B1B68DAB23B1C6F
:402E00000F3301218A431A70FB1D1A7801231340D9B23B1C0F333A1C0F3212780A431A70034B3A1C0F3212781A60BD4604B080BD0001044080B584B000AF021CFB1D1A70A0
:402E40000E4B1B68DAB23B1C0F3340218A431A70FB1D1B789B01DAB240231340D9B23B1C0F333A1C0F3212780A431A70034B3A1C0F3212781A60BD4604B080BD00000440D3
:402E800080B500AF00F02CF8BD4680BD80B500AF054B054A1268802109060A431A6000F017F8BD4680BDC0460000074080B500AF064B1B78002B04D1FFF7E2FF034B0122CA
:402EC0001A70FFF7E3FFBD4680BDC046DC01002080B500AF0B20FEF71DFFBD4680BDC04680B500AF234B00221A60234B234A1A60234B234A12680C210A431A60214B224A63
:402F00001A60224B00221A60214B00221A60214B214A1A60214B00221A600B20FEF710FF0B200321FEF7A2FE1D4B0B20191CFEF777FE1C4B00221A601B4B00221A601B4BFD
:402F400000221A601A4B1B4A1A601B4B00221A601A4B00221A601A4B10221A70194B00221A80194B00221A60184B00221A60BD4680BDC046000007406000074077080080FB
:402F80007000074000030740070300800403074010030740000207400701008004020740D1340000C80E0740880E0740480F0740080F074013010000C80F0740880F0740B5
:402FC000EC010020FC010020F80100200002002080B584B000AF786039600023FB600423BB60364B1B78DBB2102B61D1344B1A680123134002D00823BB6059E07B685A000F
:40300000FF2313407B603B68002B03D12B4B24221A7006E0294B25221A707B68012213437B60284B7A681A60274B284A1A60284B02221A60C046244B1A68264B1340FAD033
:40304000214B1A680423134002D00023BB601CE01D4B1A680223134002D00223BB6014E0194B1A680123134007D0144B10221A700123BB600123FB6007E0104B10221A7069
:4030800080235B00BB600123FB600F4B114A1A60FB68002B0CD0104B0F4A1268520052081A600D4B0C4A1268802109060A431A60BB68181CBD4604B080BDC046EC0100208E
:4030C0006400074040020740000F07401703000068000740070100000000074080B584B000AF786039600023FB600423BB60364B1B78DAB220231340DBB2002B5ED07B68E6
:403100005A00FF2313407B603B68002B03D12E4B24221A7006E02C4B25221A707B68012213437B60294B2A4A1A6000F017F9C046284B1A6801231340FAD1274B7A681A6028
:40314000C046224B1A68254B1340FAD01F4B1A680423134002D00023BB601CE01B4B1A680223134002D00223BB6014E0174B1A680123134007D0144B10221A700123BB6069
:403180000123FB6007E0104B10221A7080235B00BB600123FB600D4B104A1A60FB68002B0CD00F4B0E4A1268520052081A600C4B0B4A1268802109060A431A60BB68181C1E
:4031C000BD4604B080BDC046EC010020000F0740170300006800074040020740070100000000074080B584B000AF78600023FB600423BB60294B1B78DAB220231340DBB26B
:40320000002B46D0264B7A681A60C046254B1A68254B1340FAD0234B1A680423134005D01E4B60221A700023BB601FE01D4B1A680223134005D0194B60221A700223BB6023
:4032400014E0184B1A680123134007D0134B10221A700123BB600123FB6007E00F4B10221A7080235B00BB600123FB600D4B0E4A1A60FB68002B0CD00C4B0C4A12685200AD
:4032800052081A60094B094A1268802109060A431A60BB68181CBD4604B080BDEC01002040020740000F0740070100000000074080B584B000AF786001235B42FB601F4BA6
:4032C0001B78DAB220231340DBB2002B30D0C0461B4B1A680423134004D11A4B1A681A4B1340F5D0164B1A680423134010D0174B1B68FB60124B04221A607B68002B03D164
:40330000134B04221A6013E00C4B60221A700FE00C4B104A1A60104B0F4A1268520052081A600D4B0C4A1268802109060A431A60FB68181CBD4604B080BDC046EC0100208E
:40334000C00F0740000F0740010100004003074068000740170300000000074080B582B000AF264B1B687B60C04600F04FF8031C002BFAD0002000F057F8214B204A126860
:403380000F218A431A601F4B1E4A1268520052081A607A682023134011D0002000F044F80320FEF721FD012000F03EF8C04600F05FF8031C002BFAD00320FEF715FD002057
:4033C00000F032F80320FEF70FFD0F4B01221A600C4B0C4A1268802109060A431A60084B074A12680F218A430E210A431A60012000F01AF8BD4602B080BDC0466400074023
:403400000C000140000007406800074080B500AF044B1A68022313405B08DBB2181CBD4680BDC0460403044080B584B000AF021CFB1D1A700D4B1B68DAB23B1C0F3301216D
:403440008A431A70FB1D1A7801231340D9B23B1C0F333A1C0F3212780A431A70034B3A1C0F3212781A60BD4604B080BD0003044080B500AF044B1B68DAB201231340DBB24E
:40348000181CBD4680BDC0460403044080B500AF034B40221A60FEF773FCBD4680BDC046C000002080B582B000AF7860C046064B1A680F231340082BF9D0044B7A681A60BC
:4034C000BD4602B080BDC046080206404002064080B582B000AF00233B60C24B1B68002B02D0C04B1B689847BF4B1A680123134002D0BE4B00221A60BD4B1B78DAB220234A
:403500001340DBB2002B3CD0BA4B1A6880235B0013400AD0B84B1B889BB2C022920013439AB2B54B1A8001233B60B24B1A68012313400AD0B04B1B889BB29022920013430B
:403540009AB2AD4B1A8001233B603B68002B18D0A74B1B78DAB201231340DBB2002B01D0012300E00223A44A128892B291B21A1C0B1C13439BB29AB29F4B1A809C4B0022D6
:403580001A709B4B1B78DAB220231340DBB2002B00D1AAE1974B1A68102313401CD0974B10221A60924B1B78DAB201231340DBB2002B01D0012300E002238F4A128892B292
:4035C00091B21A1C0B1C13439BB29AB28A4B1A80874B10221A70BEE1854B1B78DAB208231340DBB2002B29D0824B1A68022313400ED0824B02221A607F4B1B889BB288220E
:40360000920013439AB27C4B1A8001233B6015E0774B1B78DAB201231340DBB2002B03D0734B25221A7009E0714B24221A70744B1B68002B02D0734B10221A606C4B1B7867
:40364000DAB204231340DBB2002B00D111E1684B1B78DAB201231340DBB2002B5BD06A4B1A680823134033D0684B1A68684B19680F231940674B1B68CB18D31A7B607B682E
:40368000082B02D908237B601EE07B68002B1BD1614B614A1168614A0A401A6008237B6001233B6010E05E4B1A685A4B1B68D2185C4B1B68DBB21370564B1B685A1C554B59
:4036C0001A607B68013B7B607B68002BEBD11EE04D4B1A680423134019D0514B1A684D4B1B68D2184F4B1B68DBB21370494B1B685A1C484B1A60474B1A68444B1B689A4225
:4037000003D2494B04221A6001E001233B60474B474A1A60ADE0374B1A680223134032D0364B02221A60434B1A68434B19680F231940414B186880231B02034001D001236B
:4037400000E00023CB18D21A3A4B1A60394B1A683A4B1A60284B1B889BB28422920013439AB2254B1A80364B354A1268802149020A431A60324B324A1168324A0A401A604D
:4037800001233B6075E0304B1A681023134065D013E0284B1A681A4B1B689A4214D22B4B2B4A1168234A12688A181278D2B21A60204B1B685A1C1F4B1A601F4B1A680F23D0
:4037C0001340082BE5D100E0C0461A4B1A680C4B1B689A4202D10B4B40221A601D4B1E4A1A6046E0E00100208C0E0740880E0740EC0100200C0F0740FC010020000F0740F4
:4038000010020020880F0740CC0F07400C02002008030740F801002060000740FFFEFFFFF00100204003074068000740C00F0740ED0F000008020020080207400002002022
:4038400004020740FFFFFEFF8C0F074040020740F4010020800F0740F30700003F4B1A684023134005D03E4B1A683E4B1A6001233B603B68002B6ED03B4B3B4A11683B4A37
:403880000A401A603A4B00221A603A4B00221A60394B1B78DAB202231340DBB2002B19D0364B1B78DAB201231340DBB2002B01D0092300E00A23324A128892B291B21A1C9A
:4038C0000B1C13439BB29AB22D4B1A802B4B60221A7040E02B4B2C4A116820220A4001D0182200E010221A6035E0244B1B78DAB210231340DBB2002B2DD1244B234A126841
:40390000520052081A601D4B10221A70164B164A11681F4A0A401A60134B134A11681D4A0A401A60124B00221A60124B00221A60194B1A4A1A601A4B1A4A1A601A4B1B4A36
:403940001A601B4B1B4A1A60104B104A1268802109060A431A60BD4602B080BD8C0F0740080200200002002060000740FFFEFFFFC80F0740880F074004020020EC010020F1
:40398000FC010020680007406400074000000740FF5FFFFFFFFCFFFF800F0740ED0F0000C00F0740F3070000400F0740FF0F0000000F074017030000002934D0012300228B
:4039C00010B488422CD301242407A14204D2814202D209011B01F8E7E400A14204D2814202D249005B00F8E7884201D3401A1A434C08A04202D3001B5C0822438C08A04224
:403A000002D3001B9C082243CC08A04202D3001BDC082243002803D01B0901D00909E3E7101C10BC7047002801D00020C04307B4024802A14018029003BDC0461900000096
:403A40000029F0D003B5FFF7B9FF0EBC4243891A1847C0467047C046F0B5564644465F464D46F0B44F001D1C0B03141C1A0B7B0D87B0061C92469846CF0F002B21D102437A
:403A800000D149E15346002B00D1E4E1504600F0C3FA031E272B00DDD8E1083B5146994028228846111A321CCA4041460A4392469E40D84B0022181A0021804691460391C4
:403AC00011E0D54883423ED0802153464A031A43D000710F0843D14A824600230020F600904499460390291C201C251C4A000C03CB0F240B520D9B4631D1211C014300D14C
:403B000012E1002C00D19DE1201C00F085FA272800DD91E1031C2822083B291C121A9C40D1400C439D40BB4B59461A1A794000204B46019103430F2B26D89900B84B8C46D7
:403B4000634419688F46111C314300D0DFE0082600200221B146824600260391C3E7AE48824200D1C9E080214B031C43AB49680FE4000443ED0052180020594679404B460C
:403B8000019103430F2BD8D942443304290404921A0C0F0C101C7843360C331C80462D0C7B43301C6843111C69439C4643468346180C08186044844500D91FE1010C434628
:403BC000039119040B0C0004C0182104240C0590101C6243090C02924843321C66434A43029BB146060C9046B4461A1C62444244904502D9802673029944160CB046C14411
:403C000000044B46060C12040293931956463204100C021C6A439C46031C7B439146320C574398461B0C9A46D144B94455434F4502D980277E02AD194B461F0C4646ED1926
:403C40001F0433041E0C031C4B436043514354431A0C8018B046401847449A46814202D980214E02A419039B1A1C62445A44624589414E425146B34603040E049C46029943
:403C8000330C6344CE18B046C246DA44D219BA42BF4151467B426F18F9189946DA459B415E42029BB3469845B64176425B461E43000C49459B41AF42AD4136186F425842BD
:403CC000384336180598341956020643CB0D6402701E8641D20D164349021C430E43E0012FD50127049D374073083E1CE00701351E4304950643640823E0231C2B43032011
:403D0000002B00D039E700240025022035E70C22032391460393E6E6042600230120B1469A4600260390DEE600240025012024E703985446022844D0032800D1EAE00128BB
:403D400060D0049A37495018002800DC95E00F273740042F05D0311DB142B641754264190E1CE10105D53048049A8023DF000440D0192E49884224DC019B6507F60864029B
:403D8000420501272E43240B520D1F4000200021090D0D052543264C12052C4014436300301C5E08FF07311C394307B03CBC90469946A246AB46F0BD5A462E1C01920228A4
:403DC000BAD1019E01273740134A00240026DDE7544601970398ADE701260027154C76420D4AD3E72E1CA5E7802213035146194235D10B431D032C0B074AC7E780214B029E
:403E00009B44DBE6019B00221840C7B200240026BCE7C0460DFCFFFFFF07000001FCFFFF304B0000FF030000FFFFFFFEFE070000FFFF0F80FFFF0F00041C283CA5402C1C90
:403E4000002570E600F0E8F8203060E6283B9E40B24600262DE600F0DFF8203019E61C4206D11C432603340B5F462E1C2E4A8DE70B431803040B2C4A88E72C4F049D7B1BF3
:403E8000382B06DD019E012737400022002400267CE71F2B21DC049A254F351CD119201C8E40DD408840321C2843561EB241061C1643DC400F233340042B05D0371DB7427F
:403EC000B641714264183E1C250217D5019B01271F4001220024002658E71648049A211C871AF9400D1C202B12D0134BD01884402643721E96412E430024DBE7019A6507BF
:403F0000F6086002012717402E43040B00223DE70024EDE780210F033C43019824030127240B0740004A31E7FF07000002FCFFFF1E040000E2FBFFFF3E040000134A0B0346
:403F400030B5051C48001C0BC90F430D0020934211DD0F4883420FDC802250030D4A0443D01A1F280BDD0C4DEB1ADC40221C5042002900D1101C30BD084C0819FBE7C54055
:403F800007482A1C1D18AC402243F0E7FE0300001D0400003304000013040000FFFFFF7FEDFBFFFFF8B5041E2DD0C50F00D04442201C00F031F816490A1A0A2816DD0B3807
:403FC0008440570526037A0D360B002700200021381C0F0D3B050F4C33431C401605344361004A08ED07111C2943F8BD0B26011C301A1531231CC4408B40520521031F1C42
:404000000E0B520DE2E70025002200260027DDE71E040000FFFF0F801C2101231B04984201D3000C10391B0A984201D3000A08391B09984201D30009043902A2105C401817
:404040007047C0460403020201010101000000000000000070B50E4B0E4D0024E81A85101E1CAC4204D0A100725890470134F8E700F09AFD0849094A0E1C541AA5100024F2
:40408000AC4204D0A300F05880470134F8E770BDB44B0000B44B0000B44B0000BC4B000010B50023934203D0CC5CC4540133F9E710BD00B58218031C934202D019700133C4
:4040C000FAE700BD0EB400B59CB01DAB02A904CB822202900861920009488A810122886048615042074AC88110681D9A019300F063F8029900230B701CB008BC03B01847C7
:40410000FFFFFF7F54010020F7B501919168071C141C002940D190239289D80002423BD02568216963696E1A58000096C6180098F50FAB1901305D10A84201DB009D023506
:40414000381C53050FD5291C00F004FB061E13D02169009AFFF7A4FFA7891649802239401143A18111E02A1C00F04AFB061E0CD1381C216900F0A6FA0C203860A589402664
:404180003543A5810124604213E0009B6561F018ED1A26612060A560A668002E08DD694627680A793A70A3680137013B2760A3600020FEBD7FFBFFFFF0B5A1B0049007931F
:4041C0008B890E1C171C19060FD53269002A0CD1402100F0BFFA30603061002803D1049C0C262660D6E04020706108AD00212024302369616C76AB763C1C2278002A04D118
:40420000E01B069019D003970FE0252AF8D00134F3E70399321C09780498FFF775FF039A01320392013000D1AFE003990698CB1B8342EEDB0D9F3A180D922178002900D110
:40424000A3E001206A4600234742633201342B60EB606F60AB601370AB65504F2178381C052200F0C1FA002807D0C71B2B680120B840184328600134EFE72B68D90603D50E
:4042800068462021633001701A0703D56A462B276332177021782A2901D00B9B0EE0079A1068111D0791002801DB0B9004E0022247421343EF602B60013409E02078303846
:4042C000092804D80A277B4301341B18F6E70B9323782E2B18D161782A2909D1079B02341A68191D0791002A0DDA012042420AE00134002220783038092804D80A277A43E2
:4043000001341218F6E70992254F2178381C032200F06AFA002806D02B68C21B4021914019432960013421781E4806222976671C00F05AFA002817D01B4800280BD128687F
:40434000079C0723C10501D5E41800E007349C430834079414E007AA00920498291C321C124B00E000BF07E007AC00940498291C321C0E4B00F08CF8059005994A1C04D00E
:404380000D99059A8C180D9436E7B589690601D40D9801E00127784221B0F0BD724B0000784B00007C4B00000000000009410000F7B5151C01930A698B6800900C1C9342F9
:4043C00000DA131C201C2B6043300178002901D001332B602668B00602D52F6802372F602268062616401CD0261C4336377822683E1C731E9E4192061CD5A319181C40302F
:404400003021271CC17045373A784133DA70023610E0617E0098019A089FB847013006D00136E3682868191A8E42F2DBDCE7012040422CE00027B7420ADAE119433109789D
:404440000098019A089B98470130F0D00137F2E72B68256806212940E6680025042903D1F01AC743FD170540A2682669B24201DD931BED180027AF4208DAA17E0098019A8A
:40448000089EB0470130D2D00137F4E70020FEBDF0B50D1C8BB0433507930590069204950A7E0C1C109B6E2A00D1A8E012D8632A24D009D8002A00D1B1E0582A00D0C1E0A6
:4044C00045310A707D4D51E0642A1FD0692A00D0B8E01BE0732A00D1A5E009D86F2A2BD0702A00D0AEE00A68202616430E6038E0752A21D0782A00D0A4E032E018680E1C25
:40450000051D1D600368423633709EE026681F68300606D4750604D5381D186000203D5E02E03D1D1D603D68644B002D3BDA04992D226D420A7036E027681E683D0605D42C
:40454000780603D5351D1D60358802E0311D196035685A4B207E039308276F281ED00A271CE0271C45377820554D38701A682668111D03951960300603D4750601D515886E
:4045800000E01568F00702D520231E4326601027002D03D12668202086432660261C43360022327001E003930A276168A160002903DB2068042398432060002D02D1049EAD
:4045C00000290ED0049E281C391CFFF739FA039A013E515C281C3170391CFFF7EDF9051EF1D1049B9A1B2261082F33D12768F80730D5606890422DDC013262602AE0086815
:404600001E684969050606D4450604D5351D1D603368198003E0321D1A603768396000202061049E16E01E68311D19603668301C00F01EF965682061A84200D925612369B8
:40464000636004E0261C4236327001212161049F00223A7007990598009109AA211C069BFFF7A6FE01300CD0351C2269AB1B93420ADA29780598069A079FB84701350130D9
:40468000F3D10122504217E02668B10705D4099BE068984210DA181C0EE00025E7680998391A8D42F3DA617E0598069A079EB0470130E6D00135F1E70BB0F0BD834B0000B2
:4046C000944B000030B5002940D004390B68002B00DAC9181E4A1368141C002B02D14B60116033E099420FD20D684A199A4205D110682B1855680B604D6000E04B60216005
:4047000024E08A4203D8131C5A68002AF9D11D685C198C420BD10C682D1958191D60904214D1116852686C181C605A600EE08C4202D90C21016009E008680D18954203D1AB
:4047400014685268001908604A60596030BDC046E401002070B50323CD1C9D430835061C0C2D01D20C2501E0002D2DDB8D422BD31C4A1368111C1C1C002C12D02068421B5B
:404780000CD40B2A02D92260A41815E0A34202D166680E601CE065685D6019E0231C6468EAE7301C291C00F051F8421C0CD0C41C03218C43844201D1256009E0211A301C23
:4047C00000F044F80130F7D10C243460002008E0201C0B300722211D9043431A01D05D42E55070BDE401002000B5C9B28218904204D003788B4202D00130F8E7002000BD6C
:40480000F8B5061C0C1C151C002904D1111CFFF7A1FF041C18E0002A03D1FFF753FF2C1C12E000F02CF8A8420ED2301C291CFFF791FF071E07D0211C2A1CFFF731FC301C14
:40484000211CFFF73FFF3C1C201CF8BD38B5074C0023051C081C236000F01CF8431C03D12168002900D0296038BDC046140200200023C25C0133002AFBD1581E704704390B
:404880000B6800B5181F002B02DAC8581918081F00BD00000A4A00B51368002B0CD018186946884202D81060181C00BD054B0C2201201A604342F7E7034B1360EFE7C046D5
:4048C000E80100201402002018020020000000002564000055415254204F4B0D0A00000053746172746564204F4B0D0A000000003B0000003B0D0A00572053746F70204FE8
:404900006B0000005720416464204F6B000000005720526567204F6B000000005720446174204F6B000000006779726F20737461727465640D0A00004720416464204F6BA0
:4049400000000000472042797465204F6B0000004720527374204F6B00000000472053746F70204F6B00000000300F40000400400F40000401000F405B320F4037330F4006
:4049800002400F4006410F4004420F400C430F4002600F40830F0307042C06D10A030B050C090D020EF01430164C170318801A10209C2106222228143307341F36E03A80C8
:4049C0003B08400645154615480F49FF4A074BFF4C404D204EF04F055008580459045A045F01604061A86240632082058506870889018F1C901094079506971899069B087A
:404A00009C029E01A008A112A601A807A920B008B210B31EB406B520B601B701B820BB08BE55BF10C034C106C5ECC6B0C80BC9FFCAFFCBFFCEF0CF44D00CD401D804D904AE
:404A4000DA04DB04DF01E6C0EA40EB02000205100722088109880F1810A0120C1480152019841A401B101D901F8020022148221023122608272029102B802F8030303108C3
:404A8000360839803A143C023F9041084240482049014A084C804F28511056105740581159858210C0E8C26DC45ECA85CC46CEBED003D224D60FE280E4046F10DA8027106D
:404AC00067088B049F10C880D8800A045004C202D40418081940640872048008894092049408C602D801DC04E20110011101000004000000426F6F740D0A00004A280000E5
:404B00006A2800008A280000AA280000CA280000EA2800000A2900002A2900004A2900006A2900008A290000AA290000CA290000883B0000E43D0000E43D0000B83D00005C
:404B4000303D0000303D0000D83D0000B83D0000303D0000D83D0000303D0000B83D0000D03D0000D03D0000D03D0000E83D00004300232D302B2000686C4C00656667457C
:404B800046470030313233343536373839414243444546003031323334353637383961626364656600000000F8B5C046F8BC08BC9E46704781140000E51A0000F8B5C04657
:404BC000F8BC08BC9E46704759140000E04B0000D000002088000000C000000000000000000000000100640001000000C0F1FF0F00366E01C05D0000180000000000E02EC5
:404C00000000000000000000000000000000000000000000000000000000000000000000704B000000000000000000000000000000000000000000000000000000000000B9
:404C4000000000000000000000000000000000000000000000000000000000000000000000000000F000002000000000000000000000000000000000000000000000000024
:404C800000000000000000000000000000000000000000000000000000000000000000000000000000000000000000000000000000000000000000000000000000000000F4
:404CC00000000000000000000000000000000000000000000000000000000000000000000000000000000000000000000000000000000000000000000000000000000000B4
:404D00000000000000000000000000000000000000000000000000000000000000000000000000000000000000000000000000000000000000000000000000000000000073
:404D40000000000000000000000000000000000000000000000000000000000000000000000000000000000000000000000000000000000000000000000000000000000033
:407FC000F89110000020000000003C00000000000000010000000000000000000000000000000000000000000000000000000000000000000000000000000000000000008B
:0200000490303A
:020000005BBCE7
:0200000490402A
:20000000FFFFFFFF00000000000000000000000000000000000000000000000000000000E4
:0200000490501A
:0C000000000204C81193110004E06D4FD1
:0200000490600A
:0100000001FE
:00000001FF