:400000000010002011000000810300008103000008B500F005FC00F0B5F90000F8B572B680220021D2004D4800F09DFF8023DA004B48002100F097FF0022101C4949FF25E5
:4000400054584700261CAE431031E3B2351CC919002B07D00F78013B7E194F78DBB237700231F5E7E4B204320019102AE6D1C0223D4D9104296080203C4F3D4C3D4A3E4DC5
:40008000C10399263E6023603C4F1060C02429603B4A3C49600340263E6010603A4F0B603A4B022531263A4C1D6099203E6039498023394F256002041E06384C0A60802018
:4000C0003E603749374E384B2260384F82050A601E603C78062025433D703D78344A05433D7011688026F3020B43324F324C13603878324E2178171C3578172D05D9304A32
:400100007078B178033E9642F6D12E4B2E4C2F4E1925186021600520356000F031FD2C482C4A01780520116000F060FE3C682A4B2A4D23402A483B60202610272F6080215B
:400140000660284F284D294E294A2A4B2A480C0614601C602F600660F8BDC04600300F4000400F40840F000004000140100001400C00014000000440080004400001044051
:40018000080104400803044008040440000404401804044000500F4004500F4010500F4018500F40100001002001054000700F4000010B40CCF1FF0FCDF1FF0FC9F1FF0F22
:4001C000BDF1FF0F1CFF0B4020FF0B402CFF0B40E5F1FF0F28FF0B40FFFFFBFF08020240200202401000008000000240AF04008008010B4004010B404000024010B5064CBD
:400200002378002B07D10548002802D0044800E000BF0121217010BDF000002000000000800F000008B5084B002B03D00748084900E000BF07480168002903D0064A002A54
:4002400000D0904708BDC04600000000800F0000F4000020D00000200000000010B562B600F084FC00280ED16524012000F0A8FD00F07CFC002806D1013CE4B2002CF4D1BB
:40028000034B40221A6000F063FC00F09BFAFEE7C000002008B500F0EDFA00F025FB00F08DFB08BD70B5054B0D1C161C0024C9B21C8000F077FB3580201C70BD0C010020E2
:4002C000F0B50A275F4387B002900591161C00252A4CBD4219DA00F0F5FA80B220802388002B0CD00220278800F06AFD00F0EAFA81B221802288BA42F4D8002706E0012095
:40030000013500F05DFDADB2E2E7052700253580208800282FD023883088019301994218059993B233808B4221D201982A1893B2049304998D4209D002994819039000F084
:40034000A7FA039A01351070ADB2F2E772B62088019A831A99B2218062B602984219013A1378172BD4D0052000F02AFDD0E7308000F0BAFA0527381C07B0F0BD0C0100204C
:4003800000B5FEE770B50F490F4A01394B1C14D0506895681468031C1E1AAE4202D040CC40C3F9E7D0681D1C5C1B844202D0002640C3F9E710320139E8E700F0A5FDFFF7B3
:4003C0004DFFFEE701000000D40F000008B500239A00032B02D80D48815800E00C490D4801338150302BF3D1FFF718FE0A490B4B086800221A60002800D108608022D305EE
:40040000186801210843186008BDC046000000008103000000000020C0000020C80000200047000038B5041C013806280BD800F061FD2406260F11080400174820E0174BF7
:4004400009E0174B07E0002000F0ACFC002302E0144B00E0144B5A78187800021043022C04D0032C07D0012C15D104E0040A0302234398B20FE000BA0DE00C4800E00C4858
:40048000C578817842780378180628430D02284311040843E3E738BDD87F0000C57F0000D47F0000D27F0000D67F0000C17F0000C97F000038B50220FFF7B4FF051C032097
:4004C000FFF7B0FF6C1CE1010C180220FFF7AAFF0023421CD201191CA24209D21078451EEDB2FD2D00D80121C318DBB20132F3E705485B420578DCB2AC4201D0062002E0E1
:400500000029FBD0002038BDC07F0000F0B5A34CA544FFF7BFFE62B600250095002603AF962124A849003A1CFF23FFF7C9FE0028F5D139880423062967D924AA1478012CCC
:4005400063D193236B4492221F786A4413783C021C4324AF3A19177953790197E71D9C4603238F4251D89179042317294DD1E3189BB2002B08D0BAAA8949D7187A18177881
:40058000013BC01980B2F3E762464042019F110282B239430823914237D168E0342900D09AE0012D00D0F6E0032C00D0F3E06FA80021802200F0D7FC80266FA988193519A8
:4005C0002639E21EFF39AEB200F0C4FC832E00D0DAE0BC797979009F26020E43002F0AD1391C802204A800F0BEFCFF2004A900F0EDFA01200090301C6FA900F0E7FA0125D4
:40060000002800D1C3E000260A23002168469130012703706A4624AC6B4692330E32277000200F1D197058701180BBB25C4FBAACE418E4192778013BC0199BB280B2002BD0
:40064000F4D14442A0B2BAAF564C7B181F19564C38701F19554C000A38701B19172707311F7089B224A89623FFF71CFE57E724AF79783B79081C31380A2801D90523C4E707
:4006800000F02EFC0611FC8C2FFC32428C507800012D00D07FE0002C7DD1FFF70BFF434243413B7163E0012D75D1012C73D1002B71D13F4A25A8146821889524CF090770EA
:4006C0003A0A97209627FF216C446F446844397022700370042199E7012D5CD1022C5AD96BE7012D57D119E7012D54D19620371943009F424DD86FAA901925A9221C00F0FC
:4007000029FCBEB2002380E7002C44D104AB294A191CA0CAA0C125AF21CB21C708210125231C73E7012D36D1032C34D196226A449521177869440C7838021A02204387180A
:40074000FF01002280210139CC5D1219D2B20029F9D1002B08D1FF2806D1174B174918780C78171A3A1BD2B2504224AB1871002301214BE7FFF79EFE002802D110488024E5
:40078000046000F011FB06E00125002601E0061CB8E7032339E7042337E7C04614FDFFFFA7FDFFFFACFDFFFFADFDFFFFAEFDFFFFD4000020A80F0000D07F0000D17F000081
:4007C000C0000020144810B50368002219680B1C013BBF2B03D01C781219D2B2F8E740680478A21AD3B2A34201D1002902D1002000F0D8FAFFF75EFE084C2168221C4029D8
:4008000001D0002803D000231360FFF77FFE8020206000F0C9FA10BDD4000020C000002008B50B4B10201A680A49024000D10A600B68802B0BD1002201200A60FFF7F2FD4E
:40084000002804D00120FFF7EDFDFFF7E9FD08BD00030B40C000002008B5054B802219681006084318600A2000F088FA08BDC0460000064010B5054C2378002B03D100F056
:40088000BFF801202070FFF7E7FF10BD10010020094B00B51968094B1A6891420AD019684A1C4039481E8141484205490240885C1A6000E0002000BDAC010020240100201A
:4008C00068010020064B074A1B68116800B58B4202D31268981A02E010684133181A00BDAC010020240100200C4A0D4B002130B5106811601D68802464022C431C601D68E3
:40090000084C2C401C60084B084C1D68084B25601970084D08492960106030BDC80F064004030640FFFFFEFF24010020AC010020A9010020C00F0640ED0F0000124910B5F0
:400940000A68531C3F3A541EA241544223400F4A1468A342FBD00C681268944208D10C4C0F2224682240082A02D00A4A10600AE0094C02222260094CC0B2E0540B60084BD0
:4009800019680A431A6010BD200100201C0100200802064040020640800F064028010020880F064038B5041C4518AC4204D02078FFF7C4FF0134F8E738BD00000B4A0023D3
:4009C000116810B513600A4B80201C684002204318601C68074820401860074B07481C68022399430460116010BDC046880F064004020640FFFFFEFF1C0100202001002095
:400A00001D4A1E4B1E4810B51E4900241A60046001221D4B1D480A601D490360072008601C491D4804600A601C4A0A2013601C4B1C6000F0ADF90A20032100F07FF9194974
:400A40000A2000F06FF918481849194A194B04600C60146018491C60184A194B04200860146018481C601849184A194B04600C7014601C6010BDC0460B000002000006408C
:400A8000400006404800064007000080000306400403064044000640100306400002064004020640010E0000880E0640C80E0640480F0640080F0640C80F0640880F064093
:400AC000AC01002024010020A9010020200100201C0100200E4B8422D00418601968802250020843186019680A481960C3239A00094B026000210948094A196009490A4BB2
:400B000010600A4A19600A4910601C20086070470001054024010540380105401027000014010540881300000C010540080105402801054008B500F02CF8044B01211A682E
:400B40000A431A6000F029F808BDC0460000054010B5054C2378002B03D1FFF7BBFF01202070FFF7E7FF10BD18010020024B18680106C80F7047C0460400044000000000EA
:400B80000230800804D0C0460138FDD1C046C0467047EFF3108072B6704780F310887047094A10B513680020141C1A0F11070A2A08D0002806D1F0221206914200D1181C93
:400BC0002368F2E710BDC04608000040F0B5071CABB00124FF2800D995E0002900D192E0002508ACB623D7207F2223706070A5700AA8E5706260802200F0ACF92E1C291CFC
:400C00002A1C0195B31C98002558002D02D05219294301960136202EF4D1002A02D1002968D100E0002100910291384D384E2C60384C34603268002AFCDB2B68FFF7B0FF37
:400C4000041E60D1FFF7A5FF334B05901968B6200491D8226946BFB2087603974A7668460C210A5A294F42832C49294A06A8386011601F1C3368002BFCDB2B68A020010649
:400C80008B4201D0002B2ED1009A002A2CD0002180220AA800F067F9019B029902331D4A08AC980001512C6032603468002CFCDB2B68FFF775FF041E16D107ABB6201870A3
:400CC000D92168460C225970115A10485980144A03600F4B1A6031680029FCDB2B68A0252E06B34200D01C1C049838600598FFF754FF08E0019E01250236B300E058009583
:400D00000290E25091E7201C2BB0F0BD08000040040000400400008008010B40050000800600008000B51F2800D901BE024A800083181868196000BD4000002038B5041C26
:400D40000D1E032D00D901BE1F2C00D901BEFFF720FFA308084A99008B1803221440944019680634A2409143A5400C1C2C431C60FFF713FF38BDC04600E400E01F23184038
:400D8000024A0121814011607047C04600E100E01F231840024A0121814011607047C04680E100E001BE7047034B04491A6890B2084318607047C0460CED00E00400FA05AC
:400DC00010B5041C8022074B1002844205D91868FFF7D6FE04496418F4E758686043FFF7CFFE10BDDC0000200080FFFF08B5034B197A4843FFF7C4FE08BDC046DC00002061
:400E0000264B10B51868002800D0804724490A6852071DD5234C23681A0716D0224B234A186811684B1C40394C1EA1414C42204923400C68A34203D11E4B20221A70E9E787
:400E40001D49C0B2C8541360E4E71C49042008601B4A1468A20720D51A4B0F2118680140082917D0184A194B1468186884420CD01C68621C3F3C601E8441614214480A40F5
:400E8000845C14490C601A60E6E7134C022122688A432260114B0220186010BD14010020CC0F06400803064040030640AC01002024010020A901002068010020C00F06407A
:400EC0008C0F064008020640200100201C0100202801002040020640880F0640800F064002B4714649084900095649008E4402BC7047C04602B4714649084900095C49000F
:400F00008E4402BC7047C04670B50E4B0E4D0024E81A85101E1CAC4204D0A100725890470134F8E700F044F80849094A0E1C541AA5100024AC4204D0A300F0588047013494
:400F4000F8E770BDBC0F0000BC0F0000BC0F0000C40F000010B50023934203D0CC5CC4540133F9E710BD00B58218031C934202D019700133FAE700BD08100000B100000047
:400F80000000000001330F4003410F4004430F4002600F40E61062048E04D84018808C40C608E608020111019311C80411140101F8B5C046F8BC08BC9E4670472502000015
:400FC000CD030000F8B5C046F8BC08BC9E467047FD010000E80F0000D000002020000000C00000000000000000000000780F00007C0F00000000E02EC05D00001800000041
:4010000000366E010000000000000000000000000000000000000000000000000000000000000000000000000000000000000000000000000000000000000000000000000B
:401040000000000000000000000000000000000000000000000000000000000000000000000000000000000000000000000000000000000000000000000000000000000070
:401080000010002091100000F51C0000F51C000008B5024B83F3088800F046FE00100020F7B572B6784B01221A7080220021D200764802F042F9802200217548D20002F0C1
:4010C0003CF90023191C734C18592034C2B20192071CFF2297434A00A4180022019ED5B2AE4209D05500665D6519B446BC446D78664635700132F1E7C0B204330918202BBD
:40110000E1D1654B802252001A80644B01221A70634BCC2292001A60624A634B63491A60634B99221A60634A80231360624A80201160624A190211606149624A00061160D3
:40114000614A862111606149614A1160614A62491360624B13221A60614A624B1A60624B02221A60614B1960614B62491A6099231B040B6060490860604961480B606149F0
:401180000860614980208005086060493C200B605F4BC021890419605E4B192119605E4B1A605E4B19780A431A705D4A117881431420014311701A7816210A431A70594ACF
:4011C00080231168DB020B431360574B141C1878564BC0B21978564BC9B21A78172A05D9544A58789978033B9342F6D1524B19221860524B05201960514B1A6000F000FE7A
:40120000504B05201A78504BD2B21A6000F0D0FE22684E4B3021134023604D4A4D4B01201A604D4B31221A604C4B10221A604C4B20221A604B4B11221A604B4A2123136067
:401240004A4A11604A4A13604A4B12221A604A4B822212061A60494A494B1A60494A4A4B1A604A4B4A4A13604A4A13604A4A13604A4A4B4B1A604B4A4B4B1A604B4B8022E6
:401280001A6000F0A1FDF7BD1C700F4000300F4000400F406C3C000000600F4002600F4008000140EEEE03000C000140B66D5B001000014000000440080004400C0004405D
:4012C000060018000801044000020440B66DEF000802044018020440B10D000000030440A46DDB000803044000040440080404401804044000500F4004500F4010500F4056
:401300000400990020500F4024500F4030500F4038500F40E00105402000004000700F4001700F4000010B40CCF1FF0FCDF1FF0FC9F1FF0FBDF1FF0F1CFF0B4020FF0B40AC
:401340002CFF0B40E5F1FF0F28FF0B40FFFFFBFF0600008004010B40080202400C0202401C0202402002024024020240280202402C0202403002024008010B4003000080E4
:40138000000002400B00008040000240170000808000024004000240440002402200008084000240380100800800024000031A4010B5064C2378002B07D1054B002B02D0EF
:4013C000044800E000BF0123237010BD8801002000000000683B000008B5084B002B03D00748084900E000BF07480368002B03D0064B002B00D0984708BDC0460000000037
:40140000683B00008C010020D00000200000000000B589B0021C0449684601F097FF684600F07CFE09B000BD6C3B000070B5012000F052FD012802D19E4B00221A6064201F
:4014400000F0A0FD62B600F0E3FD01F053FA01F0C7FC0020022100F0FFFCFA218901002000F0B0FD642000F08DFD00F0A3FE00F037FF00F0EFFF01F0D3F801F033F801F019
:401480006DF801F075F900F0C5FE00F057FF8A4B3A22FF201A705A7000F088FFFA20800000F070FD00F048F9844800F037FEFA20C00000F067FDFA20800000F063FD012002
:4014C00000F02EFA7E4C2071642000F05BFD022000F026FA6071642000F054FD032000F01FFAA071642000F04DFD04202056FFF78FFF744D281C00F011FE05202056FFF737
:4015000087FF281C00F00AFE06202056FFF780FF6D4E301C00F002FEE379002B01D16B4802E0012B02D16A4800F0F8FD012000F0ADFC684800F0F2FD01232372637A012B52
:4015400000D09BE00025657200F01CFA624A9178012968D163899088984201D1217303E0E189994200D12573217BD088002901D11B1800E01B1A98B2608100F08BFE237CB7
:40158000A02B08D1637C012B05D1237A012B02D1FF2000F00BFF237CA52B08D1637C012B05D1237A012B02D1002000F0FFFE237CB42B08D1A37C012B05D1237A012B02D10B
:4015C000FF2000F0F3FE237CB92B08D1A37C012B05D1237A012B02D1002000F0E7FE237CC82B08D1237A012B05D1002000F0C6FEFF2000F0DBFE237CCD2B0AD1237A012BDC
:4016000007D10025FF20257400F0B8FE281C00F0CDFE237CA28B01332374304BFF209A420BD9002009E0281C00F034FEFF2000F0A5FE281C00F0BAFE281C00F0ABFE631DF5
:40164000DA7F012A17D1251C25350022281CDA7700F064FD301C00F061FD281C204901F097FE002807D11F4800F058FD642000F089FC00F0B9FB082000F022FC00F03AFDE8
:40168000231CC0B22F331870002800D156E7211C231C253130330D2806D1187800220A54611D0120C87702E01A78885401321A7044E7C04600030B40E40300207B3B0000E1
:4016C000A4010020E93D0000813B0000843B0000913B0000B43B0000D40000204B0400009D3B0000A23B000070B5061C0D1C6820002101F071F90D4C002300280CD1301C90
:4017000001F0C2F9012000F03DFC281C01F0BCF9012000F037FC01232370054B1A681023910600D51823034A136070BDB6010020640007406800074008B56B200021FFF7A5
:40174000D3FF1A200421FFF7CFFF1C200821FFF7CBFF054B1B78012B01D1044800E0044800F0DCFC08BDC046B6010020AE3B0000C43B000070B5494B1E78012E00D08CE0EA
:401780006820002101F028F9041E00D085E0301C00F0F8FB3B2001F077F9311C682001F039FA201C01F0AEF93D4D2870201C01F0A9F96870201C01F0A5F9A870201C01F086
:4017C000A1F9E870201C01F09DF92871201C01F099F96871201C01F095F9201C01F092F9201C01F08FF9A871201C01F08BF9E871201C01F087F92872201C01F083F96872EE
:40180000201C01F07FF9A872301C01F07BF9254BC0B2E872196810222B1C8C0600D51822214908250A60002159565A78090211431E4A0A24118002215956DA7809021143B5
:401840001B4A1180042159565A7909021143194A118006229A56D97912020A4392B29A815D57597A2D020D43ADB2DD811C5783212402204384B21C8210B201F0C7FC0E4B48
:401880008321188028B201F0C1FC0C4B8321188020B201F0BBFC0A4B188070BDB60100204C02002064000740680007402E0200202C0200202A02002034020020320200200A
:4018C00030020020F7B5061C01915020002101F083F8104D104C114F002811D1300A01F0D3F8301C01F0D0F8019801F0CDF82A681023910600D51823236001233B7007E027
:4019000000233B702A681023910600D518232360F7BDC0466400074068000740AB010020F8B50021071C502001F056F8124D134C134E002816D1380A01F0A6F8381C01F026
:40194000A3F80121502001F065F9012001F0DAF82A68C0B21023910600D5182323600123337008E0002333702A681023910600D5182323600020F8BD640007406800074013
:40198000AB010020F7B5B84AB84C1378B84D012B02D0042B40D031E12378012B04D10023B448237000F0BAFBB34B1A78B34B012A24D11A78012A21D1FFF7DCFEB04B00228D
:4019C0009A56B04B00211B885A436B88D218AE4B92B25A809A80AD4A5156AD4A12884A43A988521892B2DA801A81AA4A00215156A94A12884A43E98852180BE01B78012BA2
:401A000000D0FBE06A88A04B5A809A80AA88DA801A81EA885A81F1E0237800266670012B09D19E4800F07AFB26706A88A280AA88E280EA882281FF2000F0B8FC638A984A18
:401A400001339BB263828E4F93421AD939780120FFF738FF642000F095FA8C4B02201978FFF730FF642000F08DFA8A4B03201978FFF728FF8B4800F051FB7B4901230B7097
:401A80002370FFF777FE7F4B3A781988019252B25143A3887D4EC9187B4B89B2598099807B490020305609887A4D4843E1889446411889B2D9801981774900202856098810
:401AC0006B4A41432089091859815388764A934212D9237D002B2AD16382012323756346092B02DC019B01333B70704800F016FB63490020085614E06D4A934217D8237D1F
:401B0000002B14D16382624601232375093202DB019B013B3B70654800F000FB584B00201856FFF775FC634800F0F8FA04E0637D002B01D0002323754D49E1228B88D200FB
:401B400093420BD9A37D002B22D163820123A37533785AB20133092A0EDD0EE0564A934216D8A37D002B13D163820123A37533785AB2093201DB013B3370504800F0CEFAA6
:401B800000203056FFF744FC4A4800F0C7FA04E0637D002B01D00023A375354AD388E122D20093420BD9E37D002B22D163820123E3752B785AB20133092A0EDD0EE03E4A4D
:401BC000934216D8E37D002B13D163820123E3752B785AB2093201DB013B2B70384800F09DFA00202856FFF713FC324800F096FA04E0237E002B01D00023E3751C4D314B30
:401C00006A881A4C9A4219D8AA88294B9A4215D8154B1A78012A11D16378002B0ED1608B1F49884207D928486270638200F076FAFF2000F0BBFB638B013300E000236383D8
:401C40006B8822495B18C62B05D8AB885B18C62B01D8012300E000236375EB881B4A9B18C62B35D8012334E0AC01002080020020B8010020FF3B0000B6010020B501002066
:401C8000A801002034020020EC000020A901002032020020AA01002030020020133C0000E7030000273C0000A4060000373C000013050000813B0000AF0400003F3C000003
:401CC000473C0000450500004F3C000087FAFFFF002323766378012B09D1637D012B06D103490B78012B02D104220A702370F7BDAC010020FEE70000094A10B51368094C3E
:401D000018188021041B49008C4201DC106005E001F0DEFA0C23036001235B42181C10BD0C0100203805002070B51048104B0138421C15D01E685C689D680022A118AA4259
:401D400003D0B158A1500432F8E7DA680D1C4C1B944202D0002410C1F9E710330138E7E701F0BCFAFFF762FBFEE7C046010000003C3E000008B500239A00032B02D80D49B0
:401D8000895800E00C490D4801338150302BF3D1FFF786F90A4B00221A600A4B1A68002A00D11A608023DB051A6801210A431A6008BDC04680100000F51C00000000002068
:401DC000C8000020C0000020064B1A68191C002803D080231B06134301E053005B080B607047C04680031A4008B5034B40221A6000F0BCF808BDC046C0000020000000002C
:401E00000230800804D0C0460138FDD1C046C046C0467047EFF3108072B6704780F310887047C046C046C046034B8022196812060A431A607047C04604010B40022800D9B9
:401E400001BE044BC0001B680130C340181C01231840704710020B4038B5041C0D1C022800D901BE201CFFF7E9FF00280BD1064B0322E4001968101CA04081431540A5401E
:401E80000C1C2C431C6038BD0C020B4010B5041CFFF7CAFF094B1A6822431A60E10702D51A689107FCD5E20502D51A689105FCD5E20302D51A689103FCD510BD10020B404A
:401EC000034B04491A680840104318607047C04610020B4008080800034A1923011C1068194018401160704700030B401F2800D901BE034A80008318186819607047C0463E
:401F00004000002038B5041C0D1E032D00D901BE1F2C00D901BEFFF77DFFA308084A9B009B1803221440944019680634A2409143A5400C1C2C431C60FFF770FF38BDC0468B
:401F400000E400E01F23184001238340181C014B1860704700E100E01F23184001238340181C014B1860704780E100E0034B04491A6892B20A431A607047C0460CED00E07D
:401F80000400FA0510B5041C8022074B1202944205D91868FFF734FF044BE418F4E758686043FFF72DFF10BD100100200080FFFF08B5034B1B7A5843FFF722FF08BDC04690
:401FC0001001002038B5041C0D1C012800D901BEC920FFF7EDFF074B07491A682401A1408A43A540141C2C431C604320FFF7E0FF38BDC04608020B40FFFF0000034B802281
:40200000196812060A431A607047C0460000064010B5054C2378002B03D100F023F801232370FFF7EBFF10BDA0020020014B18687047C04640030640024B18680F231840F3
:402040007047C04608030640044B1A680F231340082BF9D0024B18607047C0460802064040020640124A134B10B51A60124A00231360124A012111601148124A072402608A
:4020800011480460114803601148016011490A60114A1360114A1360114A1360114A1360114A1360114A1360114A136010BDC0460B0000020000064040000640480006404D
:4020C00000030640070000800403064010030640440006400002064004020640880E0640C80E0640480F0640080F0640C80F0640880F064008B5FFF79FFF031C002083420B
:4021000001D0FFF793FF044BD82219689200114201D01A60002008BDC00F064010B5041C0134631E1878002802D0FFF78DFFF7E710BD0000084A00231360084A0C21116028
:40214000074A01211160074A07490A6007490A60074A13607047C04600010540240105403801054010270000140105400C0105400801054038B50C1C051CFFF74BFE034B13
:40218000A5401D60FFF74AFE38BDC0460800054010B5FFF73FFE064B01241A6822431A60FFF73CFE201C1821FFF7E4FF10BDC0460000054010B5054C2378002B03D1FFF72C
:4021C000B9FF01232370FFF7E3FF10BDA8020020014B18607047C0463001054008B50120FFF7F6FF014B01221A7008BDAD01002010B5041CFFF70EFE054BA2011968C02476
:40220000A1430C1C14431C60FFF708FE10BDC04610E400E010B5074B802464021C60064B064A04330320DA67FFF7E2FF044B1C6010BDC04680E100E000000020DD2100006F
:4022400000E100E00C4B8022D2041A601A680B491A6000220A6019681960094B0C211960084B1A60084B31221A60084B64221A60074B32221A6070478001054088010540D9
:40228000A4010540B8010540A8010540940105408C010540014B80B2186070478C01054038B50C1C051CFFF7B5FD034BA5401D60FFF7B4FD38BDC0460800054010B5FFF7E5
:4022C000A9FD064B04241A6822431A60FFF7A6FD201C1821FFF7E4FF10BDC0460000054010B5054C2378002B03D1FFF7ABFF01232370FFF7E3FF10BDA902002008B500F03B
:4023000033F80448FFF70AFF6420FFF73BFEFFF76BFD08BDDC3D000010B5041CFFF77AFD054BA2011968C024A1430C1C14431C60FFF774FD10BDC04600E400E0064B10B59B
:4023400001241C60054A064B03201A64FFF7E4FF044B1C6010BDC04680E100E0FD2200000000002000E100E0034B7F2218689043C0B21860C009704710000440044B012251
:4023800019689143C9B202400A431A607047C04600020440044B1022196800019143C9B202400A431A60704700020440044B4022196880019143C9B202400A431A60704727
:4023C00000010440084B802292041A60074B0C221A60074B02221A60064BE12212011A60054B00221A607047C0010540E4010540F8010540D4010540C8010540014B80B211
:4024000018607047C8010540014B186880B27047C801054038B50C1C051CFFF7FBFC034BA5401D60FFF7FAFC38BDC0460800054010B5FFF7EFFC064B08241A6822431A6011
:40244000FFF7ECFC201C1821FFF7E4FF10BDC0460000054010B5054C2378002B03D1FFF7B1FF01232370FFF7E3FF10BDAA020020014B18607047C046F001054038B50220D4
:40248000FFF7F6FF0B4B01221A700B4A0B4C1378012B02D10023137007E02578FFF7B4FF074B6D00E8522378013300202370FFF7A5FF38BDB5010020AB0200204A0200200C
:4024C000B801002010B5041CFFF7A4FC044BA4071A689200920814431C60FFF79FFC10BD10E400E010B5074B802424031C60064B064A8C3303201A60FFF7E4FF044B1C60DC
:4025000010BDC04680E100E0000000207D24000000E100E008B50220FFF7AAFF034B01221A70034B00221A7008BDC046AB0200204A02002038B5041CFFF76CFC054B064984
:402540001D68A2032C1C0C4014431C60FFF766FC38BDC04600E400E0FF3FFFFF064B10B502241C60054A064B03205A64FFF7E2FF044B1C6010BDC04680E100E0152500004E
:402580000000002000E100E0084A00231360084A0C211160074A01211160074A07490A6007490A60074A13607047C046400105406401054078010540FFFF000054010540B2
:4025C0004C01054048010540014B80B21860704748010540014B80B2186070475401054038B50C1C051CFFF715FC034BA5401D60FFF714FC38BDC0460800054010B5FFF743
:4026000009FC064B02241A6822431A60FFF706FC201C1821FFF7E4FF10BDC0460000054010B5054C2378002B03D1FFF7ADFF01232370FFF7E3FF10BDAC020020014B18601F
:402640007047C0467001054038B50120FFF7F6FF3B4C20780C2868D83A4D00F07FFD070E151C232A31383F464D545B00002000F027F9FF2000F094F852E0002000F090F856
:40268000FF2000F099F84BE0002000F095F8FF2000F09EF844E0002000F09AF8FF2000F0A3F83DE0002000F09FF8FF2000F0A8F836E0002000F0A4F8FF2000F0ADF82FE0A5
:4026C000002000F0A9F8FF2000F0B2F828E0002000F0AEF8FF2000F0B7F821E0002000F0B3F8FF2000F0BCF81AE0002000F0B8F8FF2000F0C1F813E0002000F0BDF8FF201C
:4027000000F0C6F80CE0002000F0C2F8FF2000F0CBF805E0002000F0C7F8FF2000F0D0F823785B00E85AFFF755FF0020FFF74CFF23780133DBB20D2B00D10023237038BDE5
:40274000AD020020EC00002038B5041CFFF762FB054B06491D68A2032C1C0C4014431C60FFF75CFB38BDC04610E400E0FF3FFFFF10B5074B8024A4021C60064B064A0833DD
:402780000320DA67FFF7E0FF044B1C6010BDC04680E100E0000000204926000000E100E0044B0422196880009143C9B202400A431A60704700040440044B08221968C0002A
:4027C0009143C9B202400A431A60704700040440044B012219689143C9B202400A431A607047C04600000440044B0222196840009143C9B202400A431A60704700000440AF
:40280000044B0422196880009143C9B202400A431A60704700000440044B08221968C0009143C9B202400A431A60704700000440044B1022196800019143C9B202400A43E1
:402840001A60704700000440044B2022196840019143C9B202400A431A60704700000440044B2022196840019143C9B202400A431A60704700030440044B402219688001E1
:402880009143C9B202400A431A60704700030440044B7F2219681140C201081C1043C0B21860704700030440044B4022196880019143C9B202400A431A60704700000440D8
:4028C000044B012219689143C9B202400A431A607047C0460001044008B5054B8022196812060A431A600B20FFF72CFB08BDC0460000074010B5054C2378002B03D100F082
:4029000007F801232370FFF7E7FF10BDB00200201C4B0C211A6810B50A431A601A4B00241C601A4A1A4B0B201A601A4B1A4A13601A4A14601A4A14601A4A13601A4B1C60AD
:40294000FFF70AFB0B200321FFF7DCFA17490B20FFF7CCFA164B14221C60164BFF321C60154B1C60154B1A60154B10221C60154B1C60154B1A70154B1C80154B1C60154B17
:402980001C6010BD70000740000007407708008060000740070100800003074004030740100307400002074004020740092E0000C80E0740880E0740480F0740080F0740ED
:4029C000C80F0740880F074000050020100500200C0500201405002070B5244A041C13780420102B40D1224B08201D6801231D423AD16000FF252840002902D1242313700F
:402A000002E02521117018431A4B1B4C18601B4B022123601A4B196008252368FF3516492B42F9D00868042303400ED10E68022006420CD10868012310211170184201D0FC
:402A4000181C04E08020400001E00020031C2560002B09D00B4B1A68520052081A601968802212060A431A6070BDC046000500206400074040020740000F074017030000B9
:402A8000680007400000074030B51A49021C0B7804209C062DD5184B1A60184A08241368FF342342F9D010680423034004D0602300200B70031C0FE015680220054202D08E
:402AC00060250D7008E01568102001230870181C1D4201D1802040001460002B09D0084B1A68520052081A601968802212060A431A6030BD0005002040020740000F0740F8
:402B00000000074010B5184B011C18781A1C830626D5164B1868440705D4154804680220FF300442F5D01868042318420BD011480E4C00682360002902D10F4A136011E062
:402B4000602313700EE00D4A094B1A600C4B1A68520052081A601968802212060A431A600120404210BDC04600050020C00F0740000F0740400307406800074017030000E1
:402B8000000007401F4B70B51D6800F097F80028FBD0002000F09AF81B4A0F211368141C8B431360194B19681E1C490049081960AB060FD5002000F089F80320FFF7F8F9C3
:402BC000012000F083F800F08DF80028FBD00320FFF7EEF9002000F079F80320FFF7E8F90B4B01201860326880231B061343336023680F2293430E221343236000F066F847
:402C000070BDC046640007400C000140000007406800074070B5234C051C237804209A063ED56D00FF231D40002902D12423237003E02523237001231D431B4E1B4B3360E6
:402C4000FFF7A0FF1A4B1B68DA07FBD4194B1D6008213368FF31144A0B42F9D01068042303400ED11568022005420CD11068012310222270184201D0181C04E080204000D7
:402C800001E00020031C3160002B09D00A4B1A68520052081A601968802212060A431A6070BDC04600050020000F074017030000680007404002074000000740024B18684C
:402CC0008007C00F7047C04604030440044B012219689143C9B202400A431A607047C04600030440024B1868012318407047C0460403044010B50E200321FFF703F91A496A
:402D00000E20FFF7F3F8194A012313601849194A1948116019491A4A11601A491A4A11601A4900220A601A4901601A4801601A491A480A601A490A601A4A1B4913600222B4
:402D40000A601A490C68204003430B60184B1A60184BC02292001A60174B80221A80174BC22252001A6010BDFD2D000020001A407002005300001A4010001A408400008025
:402D800004001A400000FF0718001A401C001A400200020014001A4028021A40FFFFFFDF38021A4018021A40000F1A4030001A40040F1A4080001A402C0500202805002015
:402DC00008B5064B1A68002A07DB1968802212060A431A600A20FFF7EBF808BD00001A4010B5054C2378002B03D1FFF783FF01232370FFF7E5FF10BDB8020020014B1A68E5
:402E00001A60704710021A40F8B5AD4B1B68002B00D09847AB4B1B68D80702D5AA4B00221A60AA4B1A78910601D4002124E0A84A1068111C0022C40506D5A64AC020148852
:402E400080002043108001220968C80706D5A14A9021108889000143118001E0002AE4D09C4A01211488187808404542684140182043108000221A7018781022840600D48D
:402E8000F6E0934D286810420CD0934901200A6090490C881D78284045426841013020430880DAE0187804071BD52C680220044209D0894A88211060864A89001088014346
:402EC000118001210DE01878C40702D525221A7007E02420187081480068002801D0804802601A780424224200D19BE01A780120024243D07B4A082516682E4223D07A4A1D
:402F00007A4C7B4F166822683F68B61A0F223A40B21AAA4207D8002A06D1764A7649166831401160011C2A1C744D20682D68013A2818734D2D68EDB2057020680130206002
:402F4000002AF1D117E01268224214D0674A6B4E1568366875196A4E3668F6B22E701568013515601568604A1268954202D2654A146000E0011C6448644A49E02C6802222E
:402F8000144220D054490A60614A624915680E680C680F213140E40B691A2040081A106011685D4A11604B4A842110888900014311805A4A8021106849020143116010680C
:402FC000574901402CE0574A1068C40622D5564A1568504A414814680F2214404C4A082C0DD016680468A64209D21068281804784E48E4B20460106801301060E9E714684C
:403000000268944202D1364A402010604848494A106007E01268500604D53D4A11683E4A116001E000294AD0324A3349106801401160414900220A6029490A603F4A1278C6
:4030400091070CD5234A012110881C7821404C42614109310143118060221A702FE0384B1A681023940600D51823264A136026E01878104023D133490C68640064080C6096
:403080001A701C4B304A1C6822401A601C682F4A22401A60284B1C4A1860114B1860254B1A60234A194B1A60294A2A4B1A602A4A094B1A600A6880231B0613430B60F8BDC2
:4030C000B40200208C0E0740880E0740000500200C0F074010050020000F074024050020880F0740CC0F0740200500200C0500200803074060000740FFFEFFFF040500204E
:403100004003074068000740ED0F0000C00F07401C050020080207401405002004020740FFFFFEFF8C0F07400805002040020740F3070000800F0740C80F0740180500206E
:403140006400074000000740FF5FFFFFFFFCFFFFFF0F0000400F07401703000002B4714649084900095C49008E4402BC7047C046002934D00123002210B488422CD3012423
:403180002407A14204D2814202D209011B01F8E7E400A14204D2814202D249005B00F8E7884201D3401A1A434C08A04202D3001B5C0822438C08A04202D3001B9C08224325
:4031C000CC08A04202D3001BDC082243002803D01B0901D00909E3E7101C10BC7047002801D00020C04307B4024802A14018029003BDC046D90000000029F0D003B5FFF781
:40320000B9FF0EBC4243891A1847C046002941D010B4041C4C40A44601230022002900D54942002800D5404288422CD301242407A14204D2814202D209011B01F8E7E4004B
:40324000A14204D2814202D249005B00F8E7884201D3401A1A434C08A04202D3001B5C0822438C08A04202D3001B9C082243CC08A04202D3001BDC082243002803D01B09BA
:4032800001D00909E3E7101C6446002C00D5404210BC7047002806D003DB0020C043400801E08020000607B4024802A14018029003BDC046190000000029EBD003B5FFF7B4
:4032C000A7FF0EBC4243891A1847C0467047C046014B18687047C0468001002070B50E4B0E4D0024ED1AAD101E1CAC4204D0A300F35898470134F8E700F08EFD084B094D28
:403300000024ED1AAD101E1CAC4204D0A300F35898470134F8E770BD243E0000243E0000243E00002C3E000010B50023934203D0CC5CC4540133F9E710BD031C82189342CC
:4033400002D019700133FAE7704700000EB400B59CB01DAB04CB822202A992008A810A4A02908A604A6101225242CA81074A086110681D9A019300F075F8029A0023137047
:403380001CB008BC03B01847FFFFFF7F8001002002780B7801300131002A01D09A42F7D0D01A7047F0B58D6885B0071C0C1C03920193AB4245D390228B89D20013423DD06D
:4033C00062690326564309692068F20F401A96190290021C0198013212187610964200D2161C381C5A050FD5311C00F021FB051E13D0029A2169FFF797FFA289184B1340AB
:4034000080221343A38111E0321C00F065FB051E0CD1381C216900F0C3FA0C233B60A389402213430120A381404217E0029B2561ED1825606661019DF61AA6600198A8423F
:4034400000D2019D2A1C2068039900F090FAA2680020531BA36023685D19256005B0F0BD7FFBFFFFF0B59FB0039005938B890E1C171C19060FD53269002A0CD1402100F077
:40348000D7FA30603061002803D103990C230B60C9E04023736106AD00236B6120236B763023AB763C1C2378002B03D1E21B029211D003E0252BF9D00134F4E70398311C76
:4034C0003A1C029BFFF76EFF013000D1A6E06969029A8B186B612378002B00D19EE0012252426A606A4600235B3201342B60EB60AB601370AB654E4F2178381C052200F0D1
:403500002BFA002807D0C71B2B680120B840184328600134EFE72B68D90603D56A4620215B3211701A0703D56A462B215B32117022782A2A01D0099B0EE0059A111D126807
:403540000591002A01DB099204E05242EA60022213432B60013409E02278303A092A04D80A214B4301349B18F6E7099323782E2B18D163782A2B09D1059B02341A1D1B688B
:403580000592002B0DDA01235B420AE0013400232278303A092A04D80A214B4301349B18F6E70793234F2178381C032200F0D4F9002806D0C71B2B684020B8401843286045
:4035C000013421781C480622671C297600F0C4F9002812D0194B002B06D1059B0722073393430833059314E005AB00930398291C321C134B00E000BF07E005AB009303985F
:40360000291C321C0E4B00F091F804900499013104D06A69049953186B6143E7B3895A0601D40B9801E0012040421FB0F0BDC046E53D0000EB3D0000EF3D0000000000008D
:40364000A5330000F7B5151C01930A698B68061C0C1C934200DA131C221C2B6043321278002A01D001332B602068800602D52B6802332B60216806270F401FD0231C433310
:403680001B785A1E9341226892061FD5E11840313020C870211C5A1C45310978A21840320233D17012E0221C301C019919320123089FB847013011D0009F01370097E068E4
:4036C0002968009F431A9F42EDDBD7E7221C301C01994332089FB847013002D10120404223E0206806212B68E26801400025042903D1D51AEB43DB171D40A26823699A421C
:4037000001DDD31AED1800270097009FAF420BDA221C301C01991A320123089FB8470130DCD0009F0137EFE70020FEBDF0B50D1C8BB0433506920590079304950B7E0C1C55
:40374000109A6E2B00D1A7E011D8632B22D009D8002B00D1B0E0582B00D0C0E045310B707B4D4EE0642B1CD0692B1AD0B7E0732B00D1A5E009D86F2B29D0702B00D0AEE00D
:403780000E68202333430B6036E0752B1FD0782B32D0A4E013680D1C191D423511601B689FE0216813680E0603D5191D11601E6805E04806F9D5191D116000215E5E644B8C
:4037C000002E3BDA049D2D2276422A7036E0216813680E0603D5191D11601E6804E04806F9D5191D1E881160594B227E039308276F2A1ED00A271CE0231C78214533554D15
:40380000197011682368081D039510601E0601D50E6802E05806FBD50E88D90702D52022134323601027002E03D1226820239A432260231C002243331A7001E003930A2778
:403840006368A360002B03DB2568042295432560002E02D1049D002B0ED0049D301C391CFFF7CAFC0398013D435C301C2B70391CFFF77EFC061EF1D1082F09D12168C90744
:4038800006D5626823699A4202DC013D30232B70049E731B23612AE0086813684969050604D5181D10601B68196005E04606F8D5181D10601B68198000232361049D16E014
:4038C0001368191D11601D68281C00F03DF963682061984200D923612069606004E0251C42352B7001232361049E00233370079E05980096211C09AA069BFFF7A3FE013073
:4039000002D10120404221E02A1C059806992369079DA8470130F4D02668B60705D4099BE068984212DA181C10E00025E0680999431A9D42F3DA221C05980699193201237F
:40394000079EB0470130DCD00135EFE70BB0F0BDF63D0000073E0000C9B28218904204D003788B4202D00130F8E70020704770B5814201D300230CE08C18A042FAD285186C
:40398000131C013B0BD351426618F65C6918CE54F7E7934203D0CC5CC4540133F9E770BD30B5002940D004390B68002B00DAC9181E4A1368141C002B02D14B60116033E0BD
:4039C00099420FD208680A189A4205D113685268C01808604A6000E04B60216024E08A4203D8131C5A68002AF9D11D685C198C420BD10968691858181960904214D114685A
:403A00005268091919605A600EE08C4202D90C23036009E008680C18944203D114685268001908604A60596030BDC046C002002070B50323CD1C9D430835061C0C2D01D2B9
:403A40000C2501E0002D3FDB8D423DD3204B1C681A1C211C002913D00868431B0DD40B2B02D90B60CC181EE08C4202D1636813601AE0486860600C1C16E00C1C4968E9E783
:403A8000144C2068002803D1301C00F04BF82060301C291C00F046F8431C15D0C41C03239C4384420AD12560201C0B300722231D9043C31A0BD05A42E25008E0211A301C6D
:403AC00000F030F80130EED10C233360002070BDC0020020BC020020F8B5061C0C1C151C002904D1111CFFF7A3FF041C18E0002A03D1FFF755FF2C1C12E000F02CF8A8426C
:403B00000ED2301C291CFFF793FF071E07D0211C2A1CFFF709FC301C211CFFF741FF3C1C201CF8BD38B5074C0023051C081C2360FEF7E2F8431C03D12368002B00D02B60CC
:403B400038BDC046300500200023C25C0133002AFBD1581E704704390B68181F002B02DAC8581B18181F70470000000025640043616C20436F6D706C0D0A00496E697420AF
:403B8000320D0A00454550524F4D204241440D0A00454550524F4D204F4B0D0A00426F6F7400426F6F74456E61626C0D0A000D0A4D505520496E697420436F6D706C65748B
:403BC000650D0A000D0A4D5055204E6F742064657465637465640D0A003B003B0D0A00484D4320496E697469617465640D0A00484D43204E6F742052656164790D0A005397
:403C0000746162204D6F646520456E74657265640D0A0050726F67204D6F646520456E74657265640D0A00454550524F4D2053746F7265640D0A004B5F645F703A20004B7D
:403C40005F645F713A20004B5F645F723A200052656C6561736520537469636B20746F205377697463680D0A0000000001000F405D320F4034330F4002400F4003410F408B
:403C800004420F400A430F4002600F40830F00100102020C040C06110A030C090E10110E132019381B031E10201C22022337242028142D382F0531183220341F35073620C6
:403CC000372339023BA03E043F01400146104750482849FF4A074BFF4C404D204EF04F055008580459045A045F01604061A862406320821C842087018C068E189001930102
:403D0000940696089901A012A301A406A608AD01B01EB201B420B701BA02BE14BF40C053C102C5E0C6B0C70CC81AC9FFCAFFCBFFCEF0CF44D00CD401D804D904DA04DB04C2
:403D4000DF01E6C0EA40EB0203A204040552080109080A100F021220130215201620170219061A081B021C101D501FA022402404262027432B822D802F82322033013620BB
:403D8000370238083C0240144740498150045118540156205701580159055A908A04C0FDC28CC47CCA99CCA5CE82D016D208D60F6F10DA8027109F10C88008205004C2023D
:403DC000D404180867087C208B0494089820C602D801DE01E001100111010000426F6F740D0A004300232D302B2000686C4C0065666745464700303132333435363738396F
:403E0000414243444546003031323334353637383961626364656600F8B5C046F8BC08BC9E467047D9130000751D0000F8B5C046F8BC08BC9E467047B1130000503E00002F
:403E4000D0000020B8000000B00300000000000000000000AC00010064000100030110101000DC05DC05DC05DC05DC05DC05DC05DC05DC05DC05DC05DC05DC05DC05DC0572
:403E8000DC05DC05DC0500000AD7233C380500200000E02EC05D00001800000000366E010000000000000000000000000000000000000000000000000000000000000000DA
:403EC000E33D0000000000000000000000000000000000000000000000000000000000000000000000000000000000000000000000000000000000000000000000000000A2
:403F00002001002000000000000000000000000000000000000000000000000000000000000000000000000000000000000000000000000000000000000000000000000040
:403F40000000000000000000000000000000000000000000000000000000000000000000000000000000000000000000000000000000000000000000000000000000000041
:403F80000000000000000000000000000000000000000000000000000000000000000000000000000000000000000000000000000000000000000000000000000000000001
:403FC00000000000000000000000000000000000000000000000000000000000000000000000000000000000000000000000000000000000000000000000000000000000C1
:404000000000000000000000000000000000000000000000000000000000000000000000000000000000000000000000000000000000000000000000000000000000000080
:407FC000C19110000020000000002F0000000000000001000000000000000000000000000000000000000000000000000000000000000000000000000000000000000000CF
:0200000490303A
:02000000ACAFA3
:0200000490402A
:20000000FFFFFFFF00000000000000000000000000000000000000000000000000000000E4
:0200000490501A
:0C000000000204C81193110004DBBE4292
:0200000490600A
:0100000001FE
:00000001FF