:400000000010002011000000810300008103000008B500F005FC00F0B5F90000F8B572B680220021D2004D4800F09DFF8023DA004B48002100F097FF0022101C4949FF25E5
:4000400054584700261CAE431031E3B2351CC919002B07D00F78013B7E194F78DBB237700231F5E7E4B204320019102AE6D1C0223D4D9104296080203C4F3D4C3D4A3E4DC5
:40008000C10399263E6023603C4F1060C02429603B4A3C49600340263E6010603A4F0B603A4B022531263A4C1D6099203E6039498023394F256002041E06384C0A60802018
:4000C0003E603749374E384B2260384F82050A601E603C78062025433D703D78344A05433D7011688026F3020B43324F324C13603878324E2178171C3578172D05D9304A32
:400100007078B178033E9642F6D12E4B2E4C2F4E1925186021600520356000F031FD2C482C4A01780520116000F060FE3C682A4B2A4D23402A483B60202610272F6080215B
:400140000660284F284D294E294A2A4B2A480C0614601C602F600660F8BDC04600300F4000400F40840F000004000140100001400C00014000000440080004400001044051
:40018000080104400803044008040440000404401804044000500F4004500F4010500F4018500F40100001002001054000700F4000010B40CCF1FF0FCDF1FF0FC9F1FF0F22
:4001C000BDF1FF0F1CFF0B4020FF0B402CFF0B40E5F1FF0F28FF0B40FFFFFBFF08020240200202401000008000000240AF04008008010B4004010B404000024010B5064CBD
:400200002378002B07D10548002802D0044800E000BF0121217010BDF000002000000000800F000008B5084B002B03D00748084900E000BF07480168002903D0064A002A54
:4002400000D0904708BDC04600000000800F0000F4000020D00000200000000010B562B600F084FC00280ED16524012000F0A8FD00F07CFC002806D1013CE4B2002CF4D1BB
:40028000034B40221A6000F063FC00F09BFAFEE7C000002008B500F0EDFA00F025FB00F08DFB08BD70B5054B0D1C161C0024C9B21C8000F077FB3580201C70BD0C010020E2
:4002C000F0B50A275F4387B002900591161C00252A4CBD4219DA00F0F5FA80B220802388002B0CD00220278800F06AFD00F0EAFA81B221802288BA42F4D8002706E0012095
:40030000013500F05DFDADB2E2E7052700253580208800282FD023883088019301994218059993B233808B4221D201982A1893B2049304998D4209D002994819039000F084
:40034000A7FA039A01351070ADB2F2E772B62088019A831A99B2218062B602984219013A1378172BD4D0052000F02AFDD0E7308000F0BAFA0527381C07B0F0BD0C0100204C
:4003800000B5FEE770B50F490F4A01394B1C14D0506895681468031C1E1AAE4202D040CC40C3F9E7D0681D1C5C1B844202D0002640C3F9E710320139E8E700F0A5FDFFF7B3
:4003C0004DFFFEE701000000D40F000008B500239A00032B02D80D48815800E00C490D4801338150302BF3D1FFF718FE0A490B4B086800221A60002800D108608022D305EE
:40040000186801210843186008BDC046000000008103000000000020C0000020C80000200047000038B5041C013806280BD800F061FD2406260F11080400174820E0174BF7
:4004400009E0174B07E0002000F0ACFC002302E0144B00E0144B5A78187800021043022C04D0032C07D0012C15D104E0040A0302234398B20FE000BA0DE00C4800E00C4858
:40048000C578817842780378180628430D02284311040843E3E738BDD87F0000C57F0000D47F0000D27F0000D67F0000C17F0000C97F000038B50220FFF7B4FF051C032097
:4004C000FFF7B0FF6C1CE1010C180220FFF7AAFF0023421CD201191CA24209D21078451EEDB2FD2D00D80121C318DBB20132F3E705485B420578DCB2AC4201D0062002E0E1
:400500000029FBD0002038BDC07F0000F0B5A34CA544FFF7BFFE62B600250095002603AF962124A849003A1CFF23FFF7C9FE0028F5D139880423062967D924AA1478012CCC
:4005400063D193236B4492221F786A4413783C021C4324AF3A19177953790197E71D9C4603238F4251D89179042317294DD1E3189BB2002B08D0BAAA8949D7187A18177881
:40058000013BC01980B2F3E762464042019F110282B239430823914237D168E0342900D09AE0012D00D0F6E0032C00D0F3E06FA80021802200F0D7FC80266FA988193519A8
:4005C0002639E21EFF39AEB200F0C4FC832E00D0DAE0BC797979009F26020E43002F0AD1391C802204A800F0BEFCFF2004A900F0EDFA01200090301C6FA900F0E7FA0125D4
:40060000002800D1C3E000260A23002168469130012703706A4624AC6B4692330E32277000200F1D197058701180BBB25C4FBAACE418E4192778013BC0199BB280B2002BD0
:40064000F4D14442A0B2BAAF564C7B181F19564C38701F19554C000A38701B19172707311F7089B224A89623FFF71CFE57E724AF79783B79081C31380A2801D90523C4E707
:4006800000F02EFC0611FC8C2FFC32428C507800012D00D07FE0002C7DD1FFF70BFF434243413B7163E0012D75D1012C73D1002B71D13F4A25A8146821889524CF090770EA
:4006C0003A0A97209627FF216C446F446844397022700370042199E7012D5CD1022C5AD96BE7012D57D119E7012D54D19620371943009F424DD86FAA901925A9221C00F0FC
:4007000029FCBEB2002380E7002C44D104AB294A191CA0CAA0C125AF21CB21C708210125231C73E7012D36D1032C34D196226A449521177869440C7838021A02204387180A
:40074000FF01002280210139CC5D1219D2B20029F9D1002B08D1FF2806D1174B174918780C78171A3A1BD2B2504224AB1871002301214BE7FFF79EFE002802D110488024E5
:40078000046000F011FB06E00125002601E0061CB8E7032339E7042337E7C04614FDFFFFA7FDFFFFACFDFFFFADFDFFFFAEFDFFFFD4000020A80F0000D07F0000D17F000081
:4007C000C0000020144810B50368002219680B1C013BBF2B03D01C781219D2B2F8E740680478A21AD3B2A34201D1002902D1002000F0D8FAFFF75EFE084C2168221C4029D8
:4008000001D0002803D000231360FFF77FFE8020206000F0C9FA10BDD4000020C000002008B50B4B10201A680A49024000D10A600B68802B0BD1002201200A60FFF7F2FD4E
:40084000002804D00120FFF7EDFDFFF7E9FD08BD00030B40C000002008B5054B802219681006084318600A2000F088FA08BDC0460000064010B5054C2378002B03D100F056
:40088000BFF801202070FFF7E7FF10BD10010020094B00B51968094B1A6891420AD019684A1C4039481E8141484205490240885C1A6000E0002000BDAC010020240100201A
:4008C00068010020064B074A1B68116800B58B4202D31268981A02E010684133181A00BDAC010020240100200C4A0D4B002130B5106811601D68802464022C431C601D68E3
:40090000084C2C401C60084B084C1D68084B25601970084D08492960106030BDC80F064004030640FFFFFEFF24010020AC010020A9010020C00F0640ED0F0000124910B5F0
:400940000A68531C3F3A541EA241544223400F4A1468A342FBD00C681268944208D10C4C0F2224682240082A02D00A4A10600AE0094C02222260094CC0B2E0540B60084BD0
:4009800019680A431A6010BD200100201C0100200802064040020640800F064028010020880F064038B5041C4518AC4204D02078FFF7C4FF0134F8E738BD00000B4A0023D3
:4009C000116810B513600A4B80201C684002204318601C68074820401860074B07481C68022399430460116010BDC046880F064004020640FFFFFEFF1C0100202001002095
:400A00001D4A1E4B1E4810B51E4900241A60046001221D4B1D480A601D490360072008601C491D4804600A601C4A0A2013601C4B1C6000F0ADF90A20032100F07FF9194974
:400A40000A2000F06FF918481849194A194B04600C60146018491C60184A194B04200860146018481C601849184A194B04600C7014601C6010BDC0460B000002000006408C
:400A8000400006404800064007000080000306400403064044000640100306400002064004020640010E0000880E0640C80E0640480F0640080F0640C80F0640880F064093
:400AC000AC01002024010020A9010020200100201C0100200E4B8422D00418601968802250020843186019680A481960C3239A00094B026000210948094A196009490A4BB2
:400B000010600A4A19600A4910601C20086070470001054024010540380105401027000014010540881300000C010540080105402801054008B500F02CF8044B01211A682E
:400B40000A431A6000F029F808BDC0460000054010B5054C2378002B03D1FFF7BBFF01202070FFF7E7FF10BD18010020024B18680106C80F7047C0460400044000000000EA
:400B80000230800804D0C0460138FDD1C046C0467047EFF3108072B6704780F310887047094A10B513680020141C1A0F11070A2A08D0002806D1F0221206914200D1181C93
:400BC0002368F2E710BDC04608000040F0B5071CABB00124FF2800D995E0002900D192E0002508ACB623D7207F2223706070A5700AA8E5706260802200F0ACF92E1C291CFC
:400C00002A1C0195B31C98002558002D02D05219294301960136202EF4D1002A02D1002968D100E0002100910291384D384E2C60384C34603268002AFCDB2B68FFF7B0FF37
:400C4000041E60D1FFF7A5FF334B05901968B6200491D8226946BFB2087603974A7668460C210A5A294F42832C49294A06A8386011601F1C3368002BFCDB2B68A020010649
:400C80008B4201D0002B2ED1009A002A2CD0002180220AA800F067F9019B029902331D4A08AC980001512C6032603468002CFCDB2B68FFF775FF041E16D107ABB6201870A3
:400CC000D92168460C225970115A10485980144A03600F4B1A6031680029FCDB2B68A0252E06B34200D01C1C049838600598FFF754FF08E0019E01250236B300E058009583
:400D00000290E25091E7201C2BB0F0BD08000040040000400400008008010B40050000800600008000B51F2800D901BE024A800083181868196000BD4000002038B5041C26
:400D40000D1E032D00D901BE1F2C00D901BEFFF720FFA308084A99008B1803221440944019680634A2409143A5400C1C2C431C60FFF713FF38BDC04600E400E01F23184038
:400D8000024A0121814011607047C04600E100E01F231840024A0121814011607047C04680E100E001BE7047034B04491A6890B2084318607047C0460CED00E00400FA05AC
:400DC00010B5041C8022074B1002844205D91868FFF7D6FE04496418F4E758686043FFF7CFFE10BDDC0000200080FFFF08B5034B197A4843FFF7C4FE08BDC046DC00002061
:400E0000264B10B51868002800D0804724490A6852071DD5234C23681A0716D0224B234A186811684B1C40394C1EA1414C42204923400C68A34203D11E4B20221A70E9E787
:400E40001D49C0B2C8541360E4E71C49042008601B4A1468A20720D51A4B0F2118680140082917D0184A194B1468186884420CD01C68621C3F3C601E8441614214480A40F5
:400E8000845C14490C601A60E6E7134C022122688A432260114B0220186010BD14010020CC0F06400803064040030640AC01002024010020A901002068010020C00F06407A
:400EC0008C0F064008020640200100201C0100202801002040020640880F0640800F064002B4714649084900095649008E4402BC7047C04602B4714649084900095C49000F
:400F00008E4402BC7047C04670B50E4B0E4D0024E81A85101E1CAC4204D0A100725890470134F8E700F044F80849094A0E1C541AA5100024AC4204D0A300F0588047013494
:400F4000F8E770BDBC0F0000BC0F0000BC0F0000C40F000010B50023934203D0CC5CC4540133F9E710BD00B58218031C934202D019700133FAE700BD08100000B100000047
:400F80000000000001330F4003410F4004430F4002600F40E61062048E04D84018808C40C608E608020111019311C80411140101F8B5C046F8BC08BC9E4670472502000015
:400FC000CD030000F8B5C046F8BC08BC9E467047FD010000E80F0000D000002020000000C00000000000000000000000780F00007C0F00000000E02EC05D00001800000041
:4010000000366E010000000000000000000000000000000000000000000000000000000000000000000000000000000000000000000000000000000000000000000000000B
:401040000000000000000000000000000000000000000000000000000000000000000000000000000000000000000000000000000000000000000000000000000000000070
:4010800000100020911000002D2000002D20000008B5024B83F3088800F0E2FF00100020F7B572B67C4B01221A7080220021D2007A4805F036FB802200217948D20005F0A4
:4010C00030FB0023191C774C18592034C2B20192071CFF2297434A00A4180022019ED5B2AE4209D05500665D6519B446BC446D78664635700132F1E7C0B204330918202BC3
:40110000E1D1694B802252001A80684B01221A70C021674B89041960CC22664B92001A60654A664B66481A60664B99221A60664A80231360654A80241060654A18021060E7
:40114000644A402010606448644A24061060644A862010606348644A1060644A64481360644B13221A60644A644B1A60644B02221A60644B1860644B64481A6099231B044A
:401180000360634804606348C02403606248A4050460624C6248046062488024A405046061483C240360614B1960614B14211960604B1A60604B187802431A705F4A1078B2
:4011C000A043014311701A7816210A431A705C4A80231168DB020B4313605A4B141C1878594BC0B21978594BC9B21A78172A05D9574A58789978033B9342F6D1554B192234
:401200001860554B05201960544B1A6000F094FF534B05201A78534BD2B21A6001F05AF82268514B302113402360504A504B01201A60504B31221A604F4B10221A604F4BC3
:4012400020221A604E4B11221A604E4A212313604D4A11604D4A13604D4B12221A604D4B822212061A604C4A4C4B1A604C4A4D4B1A604D4B4D4A13604D4A13604D4A1360F2
:401280004D4A4E4B1A604E4A4E4B1A604E4B80221A6000F035FFF7BD1C700F4000300F4000400F40F46F000000600F4002600F400400014008000140EEEE03000C000140E6
:4012C000B66D5B001000014000000440080004400C00044000010440060018000801044000020440B66DEF000802044018020440B10D000000030440A46DDB00080304404B
:4013000000040440080404401804044000500F4004500F4010500F4018500F400400990020500F4024500F4030500F4038500F40E00105402000004000700F4001700F4043
:4013400000010B40CCF1FF0FCDF1FF0FC9F1FF0FBDF1FF0F1CFF0B4020FF0B402CFF0B40E5F1FF0F28FF0B40FFFFFBFF0600008004010B40080202400C0202401C020240A0
:401380002002024024020240280202402C0202403002024008010B4003000080000002400B000080400002401700008080000240040002404400024022000080840002405E
:4013C000380100800800024000031A4010B5064C2378002B07D1054B002B02D0044800E000BF0123237010BD9001002000000000506F000008B5084B002B03D007480849FE
:4014000000E000BF07480368002B03D0064B002B00D0984708BDC04600000000506F000094010020D00000200000000000B589B0021C0449684605F07DF9684601F000F8F2
:4014400009B000BD586F0000F0B5FA2089B0400000F02AFF62B600F06DFF01F0D1FB01F045FE0020022100F093FEFA218901002000F03AFFFA20400000F016FF01F02CF853
:4014800001F0C0F801F06CF901F050FA01F0B0F901F0EAF901F0F2FA01F04EF801F0E0F8D14B3A221A705A7000F050FB00F046FC00F0FEFC052000F0F7FE00F0FFFCCB4C78
:4014C0006060052000F0F0FE00F024FD052000F0EBFE00F025FDA060C54800F0B1FFA068FFF7A4FFC34800F0ABFF012000F06AFEC14800F0A5FFBD4E337B371C012B00D0F7
:40150000C8E2BE4A00249178347301292BD1F3899088984201D1317403E0718A994200D13474317CD088002901D11B1800E01B1A98B2F08101F040F8337DC82B02D1FF2027
:4015400001F0AEF8337DCD2B03D10020307501F0A7F8337DFF2001333375FA8BA84B9A4208D9002006E0201C01F026F8201C01F097F8201C01F0A0F800F0FCFAFA1DD37F02
:401580000133DBB2D377312B01D100F091FCFB1DDB7F322B02D100F091FC7060FB1DDB7F332B01D100F0B6FCFB1DDB7F342B02D100F0B6FCB062FB1DDA7F352A0DD100221A
:4015C000DA77B168B26A881A04F044FE7B4B7A4A04F048F804F00AFEF0623023F05E04F039FE0D1C041C3221705E404204F032FE021C0B1C201C291C01F036FF704A714B43
:4016000004F030F8704A714B03F0C2FB04F0B2FE70633822B05E404204F01CFE041C3223F05E0D1C404204F015FE021C0B1C201C291C01F019FF624A624B04F013F8624AB1
:40164000624B03F0A5FB04F095FE6C4CBB1CDB8FA1686C4D0390F06318B20693029103F019F8029902F056FD296802F0C1FA04F02FFE574A574B03F0F5FF00900191706BA2
:4016800004F026FE544A554B03F0ECFF021C0B1C0098019903F05AF804F06CFE2860009004F016FE484A494B03F0DCFF444A454B03F06EFB4A4A4B4B03F0D4FF04F05AFE12
:4016C000514B524D18603B1DDB8F18B2079302F0E1FF029902F01EFD296802F089FA04F0F7FD3B4A3B4B03F0BDFF04900591039804F0EEFD384A394B03F0B4FF021C0B1C5A
:401700000498059903F022F804F034FE2860039004F0DEFD2C4A2D4B03F0A4FF284A294B03F036FB2E4A2F4B03F09CFF04F022FE374B3A1C18603B1C44331B78211C1632FA
:40174000012B00D070E19289324845373E78324D824203D90323AA4200D80023234A3B70978C131C45331878131CAF4201D8002501E096256D00032800D96BE102F028F92D
:40178000024E78A4191CD28A463100200870A281198B163368184D1BE081258299886182A182D988E1821989A183E18321845B8959E0C046C046C0464D840D4FAF94B53FD0
:4017C0000000000000806640182D4454FB210940CDCCCCCCCCCCDC3F9A9999999999E13F000000000000204008040020AC010020676F0000DC6F0000C96F0000D400002040
:401800004B04000010040020040400202805002024050020E1040000D6060000CE1D079FF67FD28A7E43A2811F8B181CF619B6B2AF19751B25820D1C0835069EED7FE7812E
:40184000754328315E8B483309781B88751BADB24B436582A582818BA283CB1AE382C38BE3832384038C238363836284A284F1E0191C46310978002909D1D28AA2811A8B22
:40188000E28122825A8B6282A2829A8BE2821A8C8F48824208D864290FD1E2899632E281228A963A22820BE08A48824205D0642903D1628A9632628202E0F92900D9C9E092
:4018C000463301311970C5E0032E13D0824CD58A211C65855C8B181CCC851C8B16308C85C0881C1C08860021D164009802F0B2FE50342070794D5020285602F0CBFE011CFF
:40190000009802F031FD02F0A5FEE96CC4B267B22B1C51337E181C700299EE640020009702F0D2FA0490780002F0B4FE071C700002F0B0FE029902F0EDFB011C381C02F06C
:4019400057F9049902F054F902F03AF92B1C80B25233D8802B1C5C331C705F4C069E231C0833DB7F2A1C73435E329BB2D380E28D2F1C101AC01A80B2FA23DB00984206D86F
:40198000574B984201D9608202E0E1239B0063826820385602F07EFE011C039802F0E4FC02F058FEEA6E0099C6B23B1C8918693370B2E9661E704000009102F06BFE009B70
:4019C000051C580002F066FE029902F0A3FB011C281C02F00DF9049902F00AF902F0F0F83B1C80B2523358803B1C70331E703A4B079E0733DB7F3A1C73435E329BB2364F8E
:401A00005380BA8D101AC01A80B2FA23DB00984206D8334B984201D9E08102E0E1239B00E381E389238215E0FA239B00E21DF382D27F079E274F7243D219A381E2812382C4
:401A40006382A382E38223836383A383E38323846384A384214C231C71331A78012A16D172340022201C1A7000F0EAFC1D4800F0E7FC201C1C4904F07FFE002807D11B4825
:401A800000F0DEFC642000F00FFC00F049FB082000F0B2FB00F0C0FC104AC0B2131C7C331870002800D126E5111C131C72317D330D2807D11C7800200855713201211170EF
:401AC000187018E51A78885401321A7013E5C046DB050000DC050000D4000020AC01002083030000DC6F0000756F00007A6F000038B5051C0C1C6820002101F0F3F80D4808
:401B000000F09EFC281C01F045F90B4800F098FC201C01F03FF9094800F092FC084B1A681023910600D51823064A0748136000F087FC38BD866F0000956F0000A46F000068
:401B40006400074068000740B36F000008B56B200021FFF7CDFF1A200421FFF7C9FF1C200821FFF7C5FF024800F06AFC08BDC046C36F000038B50021682001F0B3F8012092
:401B800000F092FB3B2001F005F90121682001F0C7F9002001F03CF93C4C2070002001F037F96070002001F033F9A070002001F02FF9E070002001F02BF92071002001F0E7
:401BC00027F96071002001F023F9002001F020F9002001F01DF9A071002001F019F9E071002001F015F92072002001F011F96072002001F00DF9A072012001F009F9244BA7
:401C0000C0B2E07219681022231C8C0600D51822204908250A60002159565A78090211431D4A0A24118002215956DA78090211431A4A1180042159565A7909021143184A46
:401C4000118006229A56D97912020A4392B29A815D57597A2D020D43ADB2DD811C5783212402204384B21C8210B201F009FF0D4B8321188028B201F003FF0B4B83211880C4
:401C800020B201F0FDFE094B188038BD800200206400074068000740DC010020E4010020DE010020EE010020EC010020F401002010B50021041C772001F014F8012000F0AC
:401CC000F3FA201C01F066F80121772001F028F9002001F09DF8041C012001F099F8064BC2B219681023880600D518230349E0B2000210430B6010BD64000740680007405C
:401D000038B5051C0C1C7720002100F0EBFF012000F0CAFA281C01F03DF8201C01F03AF8044B1A681023910600D51823024A136038BDC046640007406800074038B5AA20C7
:401D4000FFF7B6FF4F4B80B2188000B2FFF76EFB4D4C201C00F074FB012000F0A5FAAC20FFF7A6FF494B80B2188000B2FFF75EFB201C00F065FB012000F096FAAE20FFF7A8
:401D800097FF434D80B2288000B2FFF74FFB201C00F056FB012000F087FAB020FFF788FF3C4B1880FFF742FB201C00F049FB012000F07AFAB220FFF77BFF374B1880FFF73C
:401DC00035FB201C00F03CFB012000F06DFAB420FFF76EFF6880FFF729FB201C00F030FB012000F061FAB620FFF762FF2B4B80B2188000B2FFF71AFB201C00F021FB012049
:401E000000F052FAB820FFF753FF254B80B2188000B2FFF70BFB201C00F012FB012000F043FABA20FFF744FF1E4B80B2188000B2FFF7FCFA201C00F003FB012000F034FA8A
:401E4000BC20FFF735FF184B80B2188000B2FFF7EDFA201C00F0F4FA012000F025FABE20FFF726FF80B2A88000B2FFF7DFFA201C00F0E6FA012000F017FA0C4800F0E0FA36
:401E800038BDC0462C050020DC6F000036050020B4020020320500202E0500203A05002038050020340500203C050020DF6F000008B5F4202E21FFF723FF08BD10B5F62014
:401EC000FFF7F6FE0F4B02B25988521A0E490C886243D417640CA4180C4AE4130021505E0422995EC002611801F0CAFD084B0419A4B21C8024B2201CA021083001F0C0FDAF
:401F000010BDC046B40200202E0500203C0500203005002008B5F4203421FFF7F1FE08BD70B5F620FFF7C4FE344B354C00229B5E1B19191C5943CA17120D52183149121303
:401F400000254C5F30495C43E517ED0C2C19651300268C5F5443E117090C0919091469180231CC17A40F61188024240289100919264C24886143264CC90B0025645F254D29
:401F8000A4000026AD5F6A43D5176D0DAA18224DD2120026AD5F6B43DD176D0DEB18DB12D318E3180233DA17920FD3189B10C01A1A4B5843002803DB400001F013FD02E09F
:401FC00001F010FD4000C217120E121812125243134B5A43D117090C8A181114114A4243D3171B0C9B181B140F4ACB189B18DA17120FD3181B11C01870BDC04630050020BD
:4020000060F0FFFFB40200203A050020320500202C050020380500203605002050C30000DE0B000043E3FFFFCF0E0000FEE70000094A10B51368094C18188021041B4900BA
:402040008C4201DC106005E004F036FB0C23036001235B42181C10BD180100207005002070B51048104B0138421C15D01E685C689D680022A118AA4203D0B158A1500432AC
:40208000F8E7DA680D1C4C1B944202D0002410C1F9E710330138E7E704F014FBFFF7D4F9FEE7C046010000001C73000008B500239A00032B02D80D49895800E00C490D4824
:4020C00001338150302BF3D1FEF7EAFF0A4B00221A600A4B1A68002A00D11A608023DB051A6801210A431A6008BDC046801000002D20000000000020C8000020C000002023
:40210000064B1A68191C002803D080231B06134301E053005B080B607047C04680031A4008B5034B40221A6000F0B2F808BDC046C0000020000000000230800804D0C04626
:402140000138FDD1C046C046C0467047EFF3108072B6704780F310887047C046C046C046034B8022196812060A431A607047C04604010B40022800D901BE044BC0001B68B9
:402180000130C340181C01231840704710020B4038B5041C0D1C022800D901BE201CFFF7E9FF00280BD1064B0322E4001968101CA04081431540A5400C1C2C431C6038BD24
:4021C0000C020B4010B5041CFFF7CAFF094B1A6822431A60E10702D51A689107FCD5E20502D51A689105FCD5E20302D51A689103FCD510BD10020B40034B04491A680840AA
:40220000104318607047C04610020B40080808001F2800D901BE034A80008318186819607047C0464000002038B5041C0D1E032D00D901BE1F2C00D901BEFFF787FFA3083A
:40224000084A9B009B1803221440944019680634A2409143A5400C1C2C431C60FFF77AFF38BDC04600E400E01F23184001238340181C014B1860704700E100E01F2318404F
:4022800001238340181C014B1860704780E100E0034B04491A6892B20A431A607047C0460CED00E00400FA0510B5041C8022074B1202944205D91868FFF73EFF044BE418E7
:4022C000F4E758686043FFF737FF10BD1C0100200080FFFF08B5034B1B7A5843FFF72CFF08BDC0461C01002038B5041C0D1C012800D901BEC920FFF7EDFF074B07491A68A2
:402300002401A1408A43A540141C2C431C604320FFF7E0FF38BDC04608020B40FFFF0000034B8022196812060A431A607047C0460000064010B5054C2378002B03D100F051
:4023400023F801232370FFF7EBFF10BDBC020020014B18687047C04640030640024B18680F2318407047C04608030640044B1A680F231340082BF9D0024B18607047C046B5
:402380000802064040020640124A134B10B51A60124A00231360124A012111601148124A0724026011480460114803601148016011490A60114A1360114A1360114A1360C8
:4023C000114A1360114A1360114A1360114A136010BDC0460B00000200000640400006404800064000030640070000800403064010030640440006400002064004020640D7
:40240000880E0640C80E0640480F0640080F0640C80F0640880F064008B5FFF79FFF031C0020834201D0FFF793FF044BD82219689200114201D01A60002008BDC00F06400E
:4024400010B5041C0134631E1878002802D0FFF78DFFF7E710BD0000084A00231360084A0C211160074A01211160074A07490A6007490A60074A13607047C04600010540C2
:40248000240105403801054010270000140105400C0105400801054038B50C1C051CFFF755FE034BA5401D60FFF754FE38BDC0460800054010B5FFF749FE064B01241A684A
:4024C00022431A60FFF746FE201C1821FFF7E4FF10BDC0460000054010B5054C2378002B03D1FFF7B9FF01232370FFF7E3FF10BDC4020020014B18607047C04630010540C6
:4025000008B50120FFF7F6FF014B01221A7008BDB801002010B5041CFFF718FE054BA2011968C024A1430C1C14431C60FFF712FE10BDC04610E400E010B5074B8024640245
:402540001C60064B064A04330320DA67FFF7E2FF044B1C6010BDC04680E100E0000000200125000000E100E00C4B8022D2041A601A680B491A6000220A6019681960094B73
:402580000C211960084B1A60084B31221A60084B64221A60074B32221A6070478001054088010540A4010540B8010540A8010540940105408C010540014B80B2186070479B
:4025C0008C01054038B50C1C051CFFF7BFFD034BA5401D60FFF7BEFD38BDC0460800054010B5FFF7B3FD064B04241A6822431A60FFF7B0FD201C1821FFF7E4FF10BDC0466F
:402600000000054010B5054C2378002B03D1FFF7ABFF01232370FFF7E3FF10BDC502002008B500F033F80448FFF70AFF6420FFF73BFEFFF775FD08BD7471000010B5041CF5
:40264000FFF784FD054BA2011968C024A1430C1C14431C60FFF77EFD10BDC04600E400E0064B10B501241C60054A064B03201A64FFF7E4FF044B1C6010BDC04680E100E0F4
:40268000212600000000002000E100E0034B7F2218689043C0B21860C009704710000440044B012219689143C9B202400A431A607047C04600020440044B102219680001A1
:4026C0009143C9B202400A431A60704700020440084B802292041A60074B0C221A60074B02221A60064BE12212011A60054B00221A607047C0010540E4010540F8010540A4
:40270000D4010540C8010540014B80B218607047C8010540014B186880B27047C801054038B50C1C051CFFF711FD034BA5401D60FFF710FD38BDC0460800054010B5FFF703
:4027400005FD064B08241A6822431A60FFF702FD201C1821FFF7E4FF10BDC0460000054010B5054C2378002B03D1FFF7B1FF01232370FFF7E3FF10BDC6020020014B1860C0
:402780007047C046F001054038B50220FFF7F6FF0B4B01221A700B4A0B4C1378012B02D10023137007E02578FFF7B4FF074B6D00E8522378013300202370FFF7A5FF38BD16
:4027C000F0010020C70200207E020020C201002010B5041CFFF7BAFC044BA4071A689200920814431C60FFF7B5FC10BD10E400E010B5074B802424031C60064B064A8C334A
:4028000003201A60FFF7E4FF044B1C6010BDC04680E100E0000000208927000000E100E008B50220FFF7AAFF034B01221A70034B00221A7008BDC046C70200207E020020EB
:4028400038B5041CFFF782FC054B06491D68A2032C1C0C4014431C60FFF77CFC38BDC04600E400E0FF3FFFFF064B10B502241C60054A064B03205A64FFF7E2FF044B1C6063
:4028800010BDC04680E100E0212800000000002000E100E0084A00231360084A0C211160074A01211160074A07490A6007490A60074A13607047C0464001054064010540A8
:4028C00078010540FFFF0000540105404C01054048010540014B80B21860704748010540014B80B2186070475401054038B50C1C051CFFF72BFC034BA5401D60FFF72AFCC1
:4029000038BDC0460800054010B5FFF71FFC064B02241A6822431A60FFF71CFC201C1821FFF7E4FF10BDC0460000054010B5054C2378002B03D1FFF7ADFF01232370FFF72E
:40294000E3FF10BDC8020020014B18607047C0467001054038B50120FFF7F6FF3B4C20780C2868D83A4D01F033F8070E151C232A31383F464D545B00002000F027F9FF208C
:4029800000F094F852E0002000F090F8FF2000F099F84BE0002000F095F8FF2000F09EF844E0002000F09AF8FF2000F0A3F83DE0002000F09FF8FF2000F0A8F836E00020AB
:4029C00000F0A4F8FF2000F0ADF82FE0002000F0A9F8FF2000F0B2F828E0002000F0AEF8FF2000F0B7F821E0002000F0B3F8FF2000F0BCF81AE0002000F0B8F8FF2000F05A
:402A0000C1F813E0002000F0BDF8FF2000F0C6F80CE0002000F0C2F8FF2000F0CBF805E0002000F0C7F8FF2000F0D0F823785B00E85AFFF755FF0020FFF74CFF2378013393
:402A4000DBB20D2B00D10023237038BDC9020020E000002038B5041CFFF778FB054B06491D68A2032C1C0C4014431C60FFF772FB38BDC04610E400E0FF3FFFFF10B5074BFF
:402A80008024A4021C60064B064A08330320DA67FFF7E0FF044B1C6010BDC04680E100E0000000205529000000E100E0044B0422196880009143C9B202400A431A60704778
:402AC00000040440044B08221968C0009143C9B202400A431A60704700040440044B012219689143C9B202400A431A607047C04600000440044B0222196840009143C9B2AE
:402B000002400A431A60704700000440044B0422196880009143C9B202400A431A60704700000440044B08221968C0009143C9B202400A431A60704700000440044B10223A
:402B4000196800019143C9B202400A431A60704700000440044B2022196840019143C9B202400A431A60704700000440044B2022196840019143C9B202400A431A60704778
:402B800000030440044B4022196880019143C9B202400A431A60704700030440044B7F2219681140C201081C1043C0B21860704700030440044B4022196880019143C9B2DF
:402BC00002400A431A60704700000440044B012219689143C9B202400A431A607047C0460001044008B5054B8022196812060A431A600B20FFF738FB08BDC046000007400F
:402C000010B5054C2378002B03D100F007F801232370FFF7E7FF10BDCC0200201C4B0C211A6810B50A431A601A4B00241C601A4A1A4B0B201A601A4B1A4A13601A4A14607E
:402C40001A4A14601A4A13601A4B1C60FFF716FB0B200321FFF7E8FA17490B20FFF7D8FA164B14221C60164BFF321C60154B1C60154B1A60154B10221C60154B1C60154B22
:402C80001A70154B1C80154B1C60154B1C6010BD7000074000000740770800806000074007010080000307400403074010030740000207400402074015310000C80E0740F2
:402CC000880E0740480F0740080F0740C80F0740880F07403E0500204C050020480500205005002070B5244A041C13780420102B40D1224B08201D6801231D423AD1600093
:402D0000FF252840002902D12423137002E02521117018431A4B1B4C18601B4B022123601A4B196008252368FF3516492B42F9D00868042303400ED10E68022006420CD118
:402D40000868012310211170184201D0181C04E08020400001E00020031C2560002B09D00B4B1A68520052081A601968802212060A431A6070BDC0463E0500206400074000
:402D800040020740000F074017030000680007400000074030B51A49021C0B7804209C062DD5184B1A60184A08241368FF342342F9D010680423034004D0602300200B7058
:402DC000031C0FE015680220054202D060250D7008E01568102001230870181C1D4201D1802040001460002B09D0084B1A68520052081A601968802212060A431A6030BD33
:402E00003E05002040020740000F07400000074010B5184B011C18781A1C830626D5164B1868440705D4154804680220FF300442F5D01868042318420BD011480E4C006859
:402E40002360002902D10F4A136011E0602313700EE00D4A094B1A600C4B1A68520052081A601968802212060A431A600120404210BDC0463E050020C00F0740000F0740B7
:402E8000400307406800074017030000000007401F4B70B51D6800F097F80028FBD0002000F09AF81B4A0F211368141C8B431360194B19681E1C490049081960AB060FD508
:402EC000002000F089F80320FFF704FA012000F083F800F08DF80028FBD00320FFF7FAF9002000F079F80320FFF7F4F90B4B01201860326880231B061343336023680F22B1
:402F000093430E221343236000F066F870BDC046640007400C000140000007406800074070B5234C051C237804209A063ED56D00FF231D40002902D12423237003E025232F
:402F4000237001231D431B4E1B4B3360FFF7A0FF1A4B1B68DA07FBD4194B1D6008213368FF31144A0B42F9D01068042303400ED11568022005420CD110680123102222707E
:402F8000184201D0181C04E08020400001E00020031C3160002B09D00A4B1A68520052081A601968802212060A431A6070BDC0463E050020000F0740170300006800074085
:402FC0004002074000000740024B18688007C00F7047C04604030440044B012219689143C9B202400A431A607047C04600030440024B1868012318407047C0460403044036
:4030000010B50E200321FFF70FF91A490E20FFF7FFF8194A012313601849194A1948116019491A4A11601A491A4A11601A4900220A601A4901601A4801601A491A480A6059
:403040001A490A601A4A1B49136002220A601A490C68204003430B60184B1A60184BC02292001A60174B80221A80174BC22252001A6010BD0931000020001A4070020053AE
:4030800000001A4010001A408400008004001A400000FF0718001A401C001A400200020014001A4028021A40FFFFFFDF38021A4018021A40000F1A4030001A40040F1A40C2
:4030C00080001A40680500206405002008B5064B1A68002A07DB1968802212060A431A600A20FFF7F7F808BD00001A4010B5054C2378002B03D1FFF783FF01232370FFF73F
:40310000E5FF10BDD4020020014B1A681A60704710021A40F8B5AD4B1B68002B00D09847AB4B1B68D80702D5AA4B00221A60AA4B1A78910601D4002124E0A84A1068111C0C
:403140000022C40506D5A64AC020148880002043108001220968C80706D5A14A9021108889000143118001E0002AE4D09C4A01211488187808404542684140182043108024
:4031800000221A7018781022840600D4F6E0934D286810420CD0934901200A6090490C881D78284045426841013020430880DAE0187804071BD52C680220044209D0894AC5
:4031C00088211060864A890010880143118001210DE01878C40702D525221A7007E02420187081480068002801D0804802601A780424224200D19BE01A780120024243D063
:403200007B4A082516682E4223D07A4A7A4C7B4F166822683F68B61A0F223A40B21AAA4207D8002A06D1764A7649166831401160011C2A1C744D20682D68013A2818734D4A
:403240002D68EDB20570206801302060002AF1D117E01268224214D0674A6B4E1568366875196A4E3668F6B22E701568013515601568604A1268954202D2654A146000E0A1
:40328000011C6448644A49E02C680222144220D054490A60614A624915680E680C680F213140E40B691A2040081A106011685D4A11604B4A842110888900014311805A4A42
:4032C000802110684902014311601068574901402CE0574A1068C40622D5564A1568504A414814680F2214404C4A082C0DD016680468A64209D21068281804784E48E4B281
:403300000460106801301060E9E714680268944202D1364A402010604848494A106007E01268500604D53D4A11683E4A116001E000294AD0324A3349106801401160414975
:4033400000220A6029490A603F4A127891070CD5234A012110881C7821404C42614109310143118060221A702FE0384B1A681023940600D51823264A136026E01878104038
:4033800023D133490C68640064080C601A701C4B304A1C6822401A601C682F4A22401A60284B1C4A1860114B1860254B1A60234A194B1A60294A2A4B1A602A4A094B1A604B
:4033C0000A6880231B0613430B60F8BDD00200208C0E0740880E07403E0500200C0F07404C050020000F074060050020880F0740CC0F07405C050020480500200803074020
:4034000060000740FFFEFFFF400500204003074068000740ED0F0000C00F074058050020080207405005002004020740FFFFFEFF8C0F07404405002040020740F3070000E1
:40344000800F0740C80F0740540500206400074000000740FF5FFFFFFFFCFFFFFF0F0000400F07401703000008B500F001F808BDF0B55F464D4644465646F0B4041C504216
:403480000D1C104359004908C00F884601438946774985B0161C1F1C9B46009401958C46894527D8019841004908039000988946009940420843C00F49460143614519D866
:4034C0006C48C01810434BD099170220084082460198C10F50460843824600984946084317D1504602285BD011DC002811DB201C291C05E0301C391C221C2B1C01F026F9FC
:4035000005B03CBC90469946A246AB46F0BD032835D04046024305D10399002946DB3F493D48EDE7524B98451FD0514B99453AD048464146431A1B153C2B23DD3749364817
:403540005346012B40D0022B33D0002BD8D0344A344B02F017FB344A344B02F013FBCFE7201C291C00F088F8CAE7C14535D05046012842D03CDD022812D00328D5D12C48D7
:403580002C49BDE75A46002A22DB321C3B1C201C291C01F0FDFB00F017FA00F06DF8CFE721482249ACE7039A002AB8DA22482349A6E71B4A1B4B02F0E5FA021C0B1C1A48AA
:4035C0001A4902F0DFFA9BE780242406091997E73C33DADA1A481B49B2E75246012A17D00EDD022A11D0032ADDD11748174987E700289AD11248134982E7154815497FE7AE
:40360000002AD0D1144815497AE71548154977E71548164974E7C046182D4454FB21F93F075C143326A6A13C182D4454FB210940182D4454FB2109C0182D4454FB21F9BF35
:403640000000000000000000D221337F7CD902C00000000000000080182D4454FB21E93FD221337F7CD90240182D4454FB21E9BF0000F07F000010C0F8B556464D4644466B
:403680005F46C54BF0B44E00814688468A4676089E420CDDC14B9E4200DDA7E000D1A2E05046BF4A002800DCE3E0BE4BA6E0BE4B9E4200DDB8E0BD4B9E4200DCA6E0012452
:4036C0006442A3464A4643464846414601F0CAFF061C0F1C321C3B1C01F0C4FF8F4B8E4A041C0D1C01F0BEFF8D4A8E4B01F02EF8221C2B1C01F0B6FF8B4A8C4B01F026F857
:40370000221C2B1C01F0AEFF894A8A4B01F01EF8221C2B1C01F0A6FF874A884B01F016F8221C2B1C01F09EFF854A864B01F00EF8321C3B1C01F096FF834A844B061C0F1C3B
:40374000201C291C01F08EFF814A824B02F01AFA221C2B1C01F086FF7F4A804B02F012FA221C2B1C01F07EFF7D4A7E4B02F00AFA221C2B1C01F076FF7B4A7C4B02F002FA41
:40378000221C2B1C01F06EFF021C58460B1C013000D170E05946CC00301C391C00F0D6FF4A46434601F05EFF814D0B1C81492D19021C0C19101C191C2268636802F0E2F9EE
:4037C0004A46434602F0DEF9021C0B1C2868696802F0D8F9021C50460B1C00280EDA802000060B180AE0002800D159E74A4643464846414600F0AAFF021C0B1C101C191C3A
:403800003CBC90469946A246AB46F8BD584A594B00F09CFF584A594B00F0BEF9002800D14DE74A464346E9E700F0CEF8624B041C0D1C9E4230DC614B9E4256DC221C2B1C9E
:4038400000F084FF4C4A4D4B02F09CF94C4A4D4B061C0F1C201C291C00F078FF021C0B1C301C391C01F094FA8846002181468B4628E7534BC2E7301C391C00F067FF4A46F4
:40388000434601F0EFFE021C0B1C4846414602F079F9021C0B1CB1E74A4B9E421ADC3A4A3A4B02F06FF9384A384B061C0F1C201C291C01F0D7FE304A304B00F047FF021C56
:4038C0000B1C301C391C01F063FA8146022088468346F7E62E482F49221C2B1C01F058FA8846032181468B46ECE6234A234B02F049F9214A214B061C0F1C201C291C00F09F
:4039000025FF0B1C021C391C301C01F041FA0123814688469B46D5E611DA22E33AAD903FEB0D76244B7BA93F513DD0A0660DB13F6E204CC5CD45B73FFF8300922449C23F8C
:403940000D5555555555D53F2F6C6A2C44B4A2BF9AFDDE522DDEAD3F6D9A74AFF2B0B33F711623FEC671BC3FC4EB98999999C93F9C7500883CE4377E000000000000F03FE6
:403980000000000000000040000000000000F83F000000000000F0BFFFFF0F440000F07F182D4454FB21F93FFFFFDB3FFFFF1F3EA071000080710000FFFFF23FFFFFE53F2A
:4039C000FB21F9BFFF7F03404B0059087047C04602B4714649084900095C49008E4402BC7047C046002934D00123002210B488422CD301242407A14204D2814202D209011D
:403A00001B01F8E7E400A14204D2814202D249005B00F8E7884201D3401A1A434C08A04202D3001B5C0822438C08A04202D3001B9C082243CC08A04202D3001BDC08224332
:403A4000002803D01B0901D00909E3E7101C10BC7047002801D00020C04307B4024802A14018029003BDC046D90000000029F0D003B5FFF7B9FF0EBC4243891A1847C046D8
:403A8000002941D010B4041C4C40A44601230022002900D54942002800D5404288422CD301242407A14204D2814202D209011B01F8E7E400A14204D2814202D249005B00DE
:403AC000F8E7884201D3401A1A434C08A04202D3001B5C0822438C08A04202D3001B9C082243CC08A04202D3001BDC082243002803D01B0901D00909E3E7101C6446002C77
:403B000000D5404210BC7047002806D003DB0020C043400801E08020000607B4024802A14018029003BDC046190000000029EBD003B5FFF7A7FF0EBC4243891A1847C046DD
:403B40007047C0468446101C62468C46191C634600E0C0461FB501F007FD002801D40021C8421FBD10B501F037FC4042013010BD10B501F0F9FC002801DB002010BD012061
:403B800010BDC04610B501F0EFFC002801DD002010BD012010BDC04610B501F067FC002801DC002010BD012010BDC04610B501F05DFC002801DA002010BD012010BDC046B8
:403BC0009E2110B5C905041C02F090FC002803D1201C00F03FFD10BD9E21C905201C00F0C3FB00F037FD80231B06C018F3E7C046F8B543024400C50F4E024800240E2A1C73
:403C00009B09000EC90FB6098D425BD0221A002A00DC89E000281DD1002E00D075E0580704D00F221A40042A00D004338021C90419402A1C00293AD00134FF2C00D17FE06A
:403C40009B015B0A5B02E4B2E405580AD20720431043F8BDFF2CE2D08021C9040E431B2A00DD2DE1311C2020D140821A9640721E96410E439B1B5801D1D59B019F09381CE0
:403C800002F03EFC421F974094425BDC141B1F231B1B3A1C9F40611C3B1CCA405F1EBB4113430024BBE7131EB9D100230022DB08FF2C04D1002B43D08020C00303435B021D
:403CC0005B0ABFE7211A002940DD002823D0FF2CA5D08020C00406431B2900DDEEE0301C2027C840791A8E40711E8E4106439B19590100D493E70134FF2C55D07149012280
:403D00001A400B405B08134389E7013A002AB1D0FF2CA4D183E7002E00D180E701390029E5D0FF2CD8D17AE7002A1BD1621CD2B2012A4BDD9F1B7A0123D5F71A0D1C9EE7BB
:403D400000237FE75F4BA41A3B4068E7002946D1611CC8B2012829DDFF2924D0F3185B080C1C5CE7002C13D0FF2818D08024E404524223431B2A4DDD0123F31A041C0D1CA0
:403D800079E7002F00D07AE70023002200248EE7002B3BD0D243002AEFD0FF28EAD1331CFF240D1C3BE7FF24002380E7002C5CD1002B00D180E0002E00D130E79B1958010D
:403DC00000D42CE73F4A0124134028E7002C15D1002B40D1002E63D0331C0D1C1FE7002C21D1002B54D0C943002904D0FF284CD01B2958DD01239B19041C79E7002B19D100
:403E0000002E48D0331C0D1CFF2408E7331C041C0D1C04E71C1C2025D440AA1A93405A1E93412343A9E7FF282FD08024E40449422343DDE7FF24002E00D1F0E68022DB08E1
:403E4000D203134204D0F608164201D1331C0D1CDB00FF24E3E6002E00D1E0E69A1B500100D420E7F31A0D1CD9E6002B0DD0FF24002E00D1D3E68022DB08D2031342E7D0F9
:403E8000F6081642E4D1331CE2E7331CFF24C6E6331C041CC3E6802300229B04FF2406E7231C002203E71C1C2027CC40791A8B40591E8B4123439EE7331CB0E6012616E7CA
:403EC0000126D7E6FFFFFFFBF0B55F4656464D464446F0B446024500C00F85B00F1C760A2D0E804641D0FF2D26D08024240400212643F6007F3D89468B46F90F7C02780029
:403F0000640A000E00918A463CD0FF2834D080231B041C430023E4007F380193009F4346019A7B4049469C4611430F2900D971E0764F89007F58BF46002E3ED1082202239F
:403F400091469B46D9E75A46341CC24601920199022937D0032900D1CFE0012900D0ABE053460B400022002632E0002E19D10421012289469346C0E7221C531E9A41023296
:403F80000192CBE701270197002CC7D0201C02F0B7FA431F9C4076235B420021181A0191BCE7301C02F0ACFA7625431F9E406D4200232D1A99469B469FE70C23032199460E
:403FC0008B469AE7D446012367463B40FF2200267602D205700ADB071043184305B03CBC90469946A246AB46F0BD80260023F603FF22EDE700220026EAE78020C003064206
:404000003BD0044239D1061C26437602760A009BFF22DDE7281A039076016401A64239D3361B1A2201230120311C5B007600002901DBB44201D8361B0343013A002AF3DCEE
:40404000741EA641341C1C43039A7F32002A27DD630704D00F232340042B00D00434270103D52B4B039A1C408032FE2A0BDD012361460B40FF220026AAE706437602760A32
:404080004346FF22A4E7A40101236746660AD2B23B409DE7039F1B22013F03970023C2E77E23039F5B42DB1B1B2B07DD012361460B40002200268BE7D446C5E7221CDA40EF
:4040C000039B9E339C40231C5C1EA34113435A0704D00F221A40042A00D004335F0105D5012361460B400122002671E79E01624601231340760A00226AE78026F6032643E3
:404100007602760A5346FF2262E7C046C0710000FFFFFFF7F0B55F4656464D464446F0B44402460083B00F1C640A360EC50F002E41D0FF2E22D080231B0400201C43E400BF
:404140007F3E82468046391C4B007F02C90F7F0A1B0E8B463BD0FF2B34D0802212041743FF007F3B00215A466A40019252460A430F2A63D87A48920082589746002C3FD1D6
:404180000822022392469846DDE70195404602282AD1019A01251540FF2300246402DB05600AED071843284303B03CBC90469946A246AB46F0BD002C27D104200122824616
:4041C0009046C0E7391C4A1E91410231CBE70121002FC8D0381C02F093F9431F9F4076235B421B1A0021BEE7032800D1AEE001284FD1019842461040C5B200230024CDE7EB
:404200000C2303209A4680469DE7201C02F078F97626431F9C4076420023361A9A46984691E780240025E403FF23B7E75B463C1C01938846AAE73C1C8846A7E7250C2404BF
:404240003A0C240C3F04F6183F0C211C231C794353436F435543FB180A0C9B18B1469F4202D980225202AD1809041A04090C521894011B0C611E8C41920EED181443AD016E
:404280002C43230105D5012263080120144081441C434B467F33002B2DDD600704D00F222240042A00D00434220103D52D4B1C404B468033FE2B17DD019B01251D4000247B
:4042C000FF236BE78020C003044208D0074206D1041C3C436402640A5D46FF235EE704436402640AFF2359E70198A4010125640ADBB2054052E77E235B424A469B1A1B2B09
:4043000005DD019B01251D400024002346E7221CDA404B469E339C40231C5C1EA3411343580704D00F221A40042A00D004335A0105D5019B01251D40002401232EE7019842
:404340009C010125640A0540002327E78027FF03019B3C43640201251D40640AFF231DE700720000FFFFFFF7F8B5C20F430244004D024800240E161C9B09000EC90FAD09AD
:40438000FF2800D183E0012779408A425CD0221A002A00DC8EE000281ED1002D00D07AE0580704D00F221A40042A00D004338021C90401221940324000293AD00134FF2CC9
:4043C00000D183E09B015B0A5B02E4B2E405580AD20720431043F8BDFF2CE1D08021C9040D431B2A00DD31E1291C2020D140821A95406A1E95410D435B1B5801D0D59B0173
:404400009F09381C02F07CF8421F974094425FDC141B1F231B1B3A1C9F40611C3B1CCA405F1EBB4113430024BAE7131EB8D100230022DB08FF2C04D1002B47D08020C003FC
:4044400003435B025B0ABFE7211A002944DD002827D0FF2CA4D08020C00405431B2900DDF2E0281C2027C840791A8D40691E8D4105435B19590100D492E70134FF2C59D078
:40448000734901221A400B405B08134388E7002D00D07AE777E7013A002AADD0FF2CA0D17EE7002D00D17BE701390029E1D0FF2CD4D175E7002A1BD1621CD2B2012A4BDDA6
:4044C0005F1B7A0123D5EF1A0E1C9AE700237BE75F4BA41A3B4063E7002946D1611CC8B2012829DDFF2924D0EB185B080C1C57E7002C13D0FF2818D08024E4045242234377
:404500001B2A4DDD0123EB1A041C0E1C75E7002F00D076E70023002200248AE7002B3BD0D243002AEFD0FF28EAD12B1CFF240E1C36E7FF2400237CE7002C5CD1002B00D142
:4045400080E0002D00D12BE75B19580100D427E73F4A0124134023E7002C15D1002B40D1002D63D02B1C0E1C1AE7002C21D1002B54D0C943002904D0FF284CD01B2958DDBF
:4045800001235B19041C75E7002B19D1002D48D02B1C0E1CFF2403E72B1C041C0E1CFFE61C1C2026D440B21A93405A1E93412343A9E7FF282FD08024E40449422343DDE7BF
:4045C000FF24002D00D1EBE68022DB08D203134204D0ED08154201D12B1C0E1CDB00FF24DEE6002D00D1DBE65A1B500100D41CE7EB1A0E1CD4E6002B0DD0FF24002D00D187
:40460000CEE68022DB08D2031342E7D0ED081542E4D12B1CE2E72B1CFF24C1E62B1C041CBEE6802300229B04FF2402E7231C0022FFE61C1C2027CC40791A8B40591E8B4151
:4046400023439EE72B1CABE6012512E70125D3E6FFFFFFFB4302590A4300C20F1B0E00207E2B0DDD9D2B0CDC802000040143952B0ADC9620C31AD9404842002A00D1081C56
:404680007047034BD018FBE7963B9940F4E7C046FFFFFF7F70B5041E3CD0C60F00D04442201C01F02DFF9E23251C1B1A962B0CDC083884406402640ADBB2321C6402DB0574
:4046C000600AD2071843104370BD992B0ADD0522121A211CD1400A1C011C1B318D40691E8D411543052801DD421F9540164C2C406A0704D00F221540042D00D004346101D2
:404700000CD59F23181AFF281AD0A401640AC3B2321CD3E7002200230024CFE7E408FF2B04D06402640ADBB2321CC7E7002C04D08020C00304436402640A321CFF23BDE70B
:40474000321CFF230024B9E7FFFFFFFBF8B55F46564644464D46F0B40C034D00CE0F610A440F2143C400180380465800400D8246D80F84464046400A530F0343D0006D0D7E
:40478000371C83465246664500D1A4E0AF1A002F00DC09E1002A3BD1184300D0EAE0630700D187E00F232340042B00D182E0221DA242A4416442802309191B040B40371C93
:4047C000141C002B00D17CE0CE4B01359D4200D105E1CD4BE40819404807490204430B0B002000211B031A0B0B0D6D051B0513436A08C64DFF071D4015436D006D08291C0D
:404800003943201C3CBC90469946A246AB46F8BDBC488542C3D0802000040343382F00DDF0E01F2F00DD24E12020C01B1A1C814682405846F8400243944658464A4690402C
:40484000421E9041FB40624602431F1CA21A9442A4416442C91B091B141C0B029FD549024F0A002F00D1C8E0381C01F049FE021C083A1F2A00DDB5E02821091A201C97405C
:40488000C84007439440954200DDB2E0551B691C1F2900DDDCE01F22551B3B1C221CAB40CA40AC40651EAC411343CF401C43391C002574E780231B040B40371C002B00D02B
:4048C00082E7904B4807E4080443C9089D4248D009030B0B84E7AA1A9446002A00DC98E05046002852D08748854200D157E78020000403436246382A00DDFCE01F2A00DD29
:404900004AE120226046101A1A1C82408246914658466246D0404A4602439046584652469040421E9041424602436046C3401219A242A441644259180919141C080200D4BA
:404940002DE7704B01359D4200D122E16E4B60081940012323401C1C0443CB071C4349081DE7231C0B433AD080231B030B431B031B0B35E7013F002F65D15846221A94421E
:40498000A4416442C91A091B141C66E75846184300D104E70122524294446046002800D0C5E058460219C3E7002F73D1681C4005400D012800DCDEE05A46A21A9442BF4180
:4049C000C81A7F42C71B380200D489E05A46141BA3459241591A52428F1A664641E700230024FDE6271C283887400024954200DC4CE74549AD1A3940D1E6201C01F080FDE0
:404A0000203034E75A461A43531E9A41D2B200271CE7002A00D0DCE0681C4205520D012A00DC8DE0374DA84200D1F3E05D462A19A242A441644259180919CC075208144342
:404A40004908051CABE62F48854200D0E6E6A6E62B1C1F3B3A1CDA40131C20296CD03F22551BAF403C43601E84411C430021002595E6381C20381A1CC240101C202F5DD0DA
:404A80004022D71BBB405A461A43531E9A4102430027DBE6002D3BD01A4DAA4500D193E080252D047F422943382F00DDACE01F2F00DD29E12025ED1B081C261CA840FE407E
:404AC000AC400643651EAC413443F9405D462C1BA34592415B1A5242991A55466646BCE6131C3B43141C002B00D0BAE60027002100250024E5E65A461A43531E9A41D2B276
:404B0000002314E7FF070000FFFF7FFFFFFF0F800D1C254358D0FF43002F51D1041BA3459241591A5242891A5546664695E69648854200D0DEE632E6002793E70023A2E718
:404B4000081C2043002D00D0C4E0002800D1F7E05846184300D122E658460219A242A441644259180919141C0A0200D417E6874B0125194013E6081C2043002D39D1002873
:404B800071D15946194303D0191C5C46664606E600270021002494E6604620381A1CC24060469146202800D1ACE04022121A93405A461A43531E9A414B461A430023B6E6E1
:404BC000714DAA4500D06FE7191C5C4655466646E5E5002D22D10D1C254377D0D543002D71D15C445C4592415918524289185546A4E600284DD15946194300D194E0191CE1
:404C00005C466646604DCAE50C43611E8C41E4B200215BE7051C0021002452E65A4DAA4554D05542802210040143382D00DD81E01F2D00DD92E02022501B0A1C84468240B0
:404C4000201CE8400243904662469440601E844142461443E9405C445C459241CB185242991855466AE65846184300D197E55846271ABC429241C81A5242801A020266D582
:404C80005846041BA3459241591A5242891A664685E55846184333D04807E40804438020C9080003014208D0DD08054205D15946CA085C071443291C6646630FC9001943FA
:404CC000E400314D6BE5304A9245AED1191C5C46554664E5002836D05846184310D080254807E408C9082D0304432942E5D0D8082842E2D15D46EA085C071443011CDCE7FC
:404D0000214D4CE5002353E73D1C203D0A1CEA40151C202F34D04026F71BB9400C43611E8C412C430021D1E680210027C903164D0024C6E50C43611E8C41E4B200218AE711
:404D4000191C5C462BE5191C5C460F4D27E5031C3B4300D11CE7011C3C1C20E52020404240190A1CC2409046202D0BD04020451BA9400C43611E8C4145462C4300216AE731
:404D80000021CBE70021F4E7FF070000FFFF7FFFF0B5564644465F464D46F0B41F1C0B031B0B98464B0087B0041C81465B0DC80F161C9A460090002B51D06A4B9A4531D083
:404DC0008022414652030A43630FD2001A43664B90460025E20091469A44002402953B031B0B9B46FD0F7B00311C5B0D019560D05C4A934254D08021584649030143720F13
:404E0000C9001143584A8B469B18F1000020009A04436A4003920F2C00D9ADE0534EA4003459A746404604436ED1002102250824884689460295D2E7009C0298C346494663
:404E40000194022864D0032800D1ABE2012800D038E2019A002402400025A14660E0434623434AD04046002800D1C0E101F048FB031E272B00DDB3E128210D1A211C083B25
:404E80004246E9409A400D1C1543221C9A40A8469146374B00251B1A9A46002402959EE75A4616430320002EB1D1B34600210220ADE75A4632431BD05B46002B00D18AE169
:404EC000584601F01DFB272800DD7DE12822171A011C321C08395B46FA408B40171C1F43331C8B40BB46191C214B1B1A00208EE70027BB460021012089E700200125042451
:404F00008046814602956AE703250C24029566E7019C0394039D01222A400024114DA146002000212403260B0C0D2405114B34432D0523402B435B005B08D207191C4846EB
:404F4000114307B03CBC90469946A246AB46F0BD0022802424039146024DE1E700240025A146DDE7FF07000001FCFFFF407200000DFCFFFFFFFF0F805546ED1A0495D84585
:404F800000D953E100D14EE1049C0025013C4E4604944746A946584603020C0E1C430902250C23041B0C0091381C291C0193FEF719FD019983464143381C8A46291CFEF786
:404FC00055FD330C090419438A450CD95B460919013B8C4200D947E18A4500D844E102225242934409195346CB1A181C291C9846FEF7F8FC071C0198291C784382464046F0
:40500000FEF734FD36040B04360C33439A4509D91B197A1E9C4200D924E19A4500D821E1023F1B195E4632041743380CBB46009E009F51463F0C32045B1A5946BA46120CD2
:405040000F043F0C904651467A434F434146414356467043CF19160CBE19B14202D980277F02C019310C12043604120C4018B618834200D2C4E000D1BEE0191A4846861B2F
:40508000B145BF417F42CF1BA74200D113E1291C381CFEF7A7FC019902904143381C8946291CFEF7E3FC330C0904194389450CD9029B0919013B8C4200D9FFE0894500D802
:4050C000FCE0029F0919023F02974F46CF1B381C291C0597FEF786FC071C0198291C784381460598FEF7C2FC36040904360C0E43B14509D936197B1EB44200D9E0E0B1451A
:4051000000D8DDE0023F3619029D4946761A290439430B0457460A0C1B0C40464546584355437B437A43EB18070CDB199D4202D980256D0252191D0C00041B04000C521935
:405140001B18964235D300D1FCE001231943049E994FF519002D00DCA1E0480709D00F230B40042B05D00B1D8B42894149428B44191C5A46D20107D5904B5C46049E8027C1
:405180001C40FF00A346F5198D4B9D427ADD039C0122224000248B4DA146C1E680242403474627424CD13C432403240B009A854DB6E63619481EB4425ED9011C9642C4D1BA
:4051C000009E9E42C1D1C2E7031C283B311C99408B46002188E6301C01F092F9203072E6283B211C994000228846914651E6201C01F086F920303BE60021B14500D33DE7DC
:40520000009F5A46B944B945BF417F423F19FB18013A9C421ED2984200D97EE000D1B5E0191A93462AE7894500D8ADE64846464642467708D3074608C0071E438146AAE66A
:405240005846204212D1044324032A1C240B89465C4D65E6A342E3D1009F4F45DBD9211A93460BE7171CDDE69B46BCE63C432403240B009A534D53E6B24259D800D18AE0FE
:40528000011C62E75F46C9087B07039E0B437C026D0501229946240B6D0D324040E64A4B049FDB1B382B10DD039C0122224000240025A14634E60121494248E7029304E726
:4052C0001F1C21E7019C039441E71F2B40DC3F48049F0C1C3A1858469140DC40904020430A1C511E8A41011C11435A46DA40131C480709D00F220A40042A05D00A1D8A42F4
:40530000894149425B18111C1A0234D5039C0122224000240125A14602E6009F02214942B9448B44B945894149420919CB18A4E6009D881E6900A942AD416D422C19361953
:4053400000913AE7002B00D033E70024009437E71F4A049C5D46121BD5402A1C202B1FD01C4E5F46A3199F403B1C19434B1E994111430023BCE75A07C9080A43039F914670
:405380005B0201221C0B3A400025C9E54E45C4D89346002172E6009F9F42C9D3011C0FE70023E2E7802424035F463C432403240B019A8946034DB3E5FF030000FFFFFFFEC9
:4053C000FE070000FF07000002FCFFFF1E040000E2FBFFFF3E040000F0B55F4656464D464446F0B40D1C041C8046E80F814618030F03000B3F0B83B084461B480097490031
:405400005E00DF0F490D9246760DBB4681420CD01548864210D00120B14215D003B03CBC90469946A246AB46F0BD009F01202743F4D10D488642EED1604602430120002AEA
:40544000ECD10120B142E9D1009B6345E6D1D045E4D1D94506D00029E0D11C43201C441EA041DBE70020D9E7FF070000F0B55F4656464D464446F0B4CD0FDE0FAC461D0307
:405480002D0BB146374E0F034C00AB465D0080463F0B640D92466D0DB44232D0314EB54235D0002C0ED1384341424141081C002D0BD0002919D1CC452DD0654668420123F5
:4054C000184318E0002DF6D1281C59460A4353425341002806D1002BEDD0634658420123184308E00020002B05D14A46504250414042012318433CBC90469946A246AB4620
:40550000F0BD3E1C0643C9D002204042F3E75E461643C6D0F8E7AC4207DC0BDA614648424841404201231843E5E76646704201231843E0E75F450AD80ED000205F45DAD2DD
:40554000654668426841404201231843D3E76246504201231843CEE7D045F8D80020D045EED3C8E7FF070000F0B556464D4644465F46F0B40D1C83B0041C0190E80F814602
:4055800018030F03000B3F0B84463548009749005E00DF0F490D9246760DB846814234D02F48864236D0002918D0002E1FD1341C67463A4353425341002C1FD00020002B03
:4055C00005D142465042504140420123184303B03CBC90469946A246AB46F0BD0098044360426041041C002EE2D00028E9D1C14515D04F46784201231843E8E7002BF6D0C6
:405600004B46584201231843E1E7009F02202743DDD1C5E7674602201743D8D1C3E7B14204DD4A46504201231843D0E7B14207DB00986045E4D80AD0009F00206745C6D220
:405640004F4678427841404201231843BFE7019A5245D5D8019A00205245F1D3B7E7C046FF070000F0B5564644465F464D46F0B41F1C0B031B0B9A464B0087B0041C80467E
:405680005B0DC80F161C02938146002B68D0694B0299994232D08022534652031A43D200630F1A439246644AE000891880460291002400253B031B0B9B467800FB0F321C42
:4056C000400D039300D175E05A4B984269D08022594652030A43730FD2001A43564B9346C018F200002303994E4671401C430F2C00D9A9E0514EA4003459A74653461C435C
:4057000000D087E00025AA46A84608240225D1E74946022D6CD0032D00D117E2012D00D058E10D40EDB20024A9460023A0460020002125030A0D1C052D0B1205404B2A4309
:40574000134023435B004C465B08E207191C4046114307B03CBC90469946A246AB46F0BD5346234350D05346002B00D184E1504600F0C6FE031E272B00DD76E128210D1AC4
:40578000211C083B5246E9409A400D1C1543221C9A40AA4690462B4B00241B1A0293002588E75B461E430323002E9CD1B3460022022398E75B46334321D05846002800D156
:4057C0004EE100F09DFE272800DD42E128210F1A021C311C083A5B46F94093400F1C1F43331C9340BB461A1C164B181A00237AE701230B4000249946A0460E4B97E7002781
:40580000BB46002201236EE7002104248A46884601254FE70C2403254CE700258024A9462403A846034B82E7DA46904603991D1C6FE7C046FF07000001FCFFFF8072000060
:40584000FFFF0F800DFCFFFF029F160C381804904046070C0004000C1204120C031C5343041C3D1C7443554398463B1C73436419A44644460293230C63449D4204D9029DF1
:40588000802464022D1902951D0C039545462C041B04240C1C1905945C46230C051C58432404240C8446381C604365435F438146CC44280C6044BB46814502D980277F02FF
:4058C000BB442D04070C2D0C000440195546BC462F04E3448446280C3D0C2F1C5743B8462F1C77434243B94647463F0C9144BA46D14446434A4502D980225202B6184F4617
:405900003A0CB6183A0447463F043F0CB8462F1C67435D434443584365190190380C2D184244B846AC4204D9019880235B02C0180190039C029F201C6044C0196045A441D9
:4059400047466442A4462B043C049946240C4C44A046D8448018C246E24490429241574652429146F219E245BF417F424B46BC46D845BF41D4187F4263461F432D0C7F195B
:40598000B24292414C45AD4152426D421543019E7D19AB19E20D5B02059F134342023A439A46531E9A41C30D101C18436402204380465046C0010DD5454601225646049CD1
:4059C0006B082A401A43F30701341A43760804949046B246049E634FF319002B61DD404640070BD00F2244462240042A06D042460432424580414042824490465546ED01BE
:405A000007D5594B5646049F80201E40C000B2463B18564A934200DDEAE644465546E2086807104301226C025B050A408046240B5B0D91467BE6DA4690461D1C69E68024B9
:405A40002403574627421CD13C432403240B484B6DE6031C283B311C99408B460022C3E6301C00F04DFD2030ADE6283B211C994000228A4690468EE6201C00F041FD203035
:405A800078E65846204207D1044303992403240B89469046364B4AE63C432403240B344B45E6344B049E9B1B382B06DD01230B4000249946A046002339E61F2B25DC049C00
:405AC0002D4D46466019524644468640DC4082405746301C2243DF40441EA04102433B1C540709D00F201040042805D0101D9042924152429B18021C1D021AD501230B40AD
:405B000000249946A046012311E61C48049C5546001BC540281C202B16D0194E5746A21997403A1C43461A43531E9A4102430023D6E758075B02D2081C0B01230B4010436B
:405B4000994680460023F2E50022EBE78024240350460123044319402403240B8946044BE5E5C046FF030000FFFFFFFEFE070000FF07000002FCFFFF1E040000E2FBFFFF28
:405B80003E040000F8B55F46564644464D46F0B40C034D00CF0F610A440F2143C4001803DE0F8046B44646465800760A530F3343D600D14A6D0DBA46400DB346904200D17C
:405BC000F5E06246012672409446674500D1ABE02F1A002F00DC11E100283ED15846184300D0F1E0600700D197E00F232340042B00D122E1221DA242A4416442802309199C
:405C00001B04012750460B400740141C002B00D179E0B94B01359D4200D10BE1B74BE40819404807490204430B0B002000211B031A0B0B0D6D051B0513436A08B04DFF0763
:405C40001D4015436D006D08291C3943201C3CBC90469946A246AB46F8BDA7488542C1D0802000040343382F00DDFDE01F2F00DD31E12020C01B1A1C5E468240FE4032435C
:405C800094465A468240101C421E9041FB40624602431F1CA21A9442A4416442C91B091B141C0A029ED549024F0A002F00D1D6E0381C00F025FC021C083A1F2A00DDC3E02C
:405CC0002821231C091A9740CB401F439440954200DDC0E0551B691C1F2900DDEAE01F22551B3B1C221CAB40CA40AC40651EAC411343CF401C43391C002573E780217E4D0E
:405D00000027C90300247C4B4807E4080443C9089D4250D009030B0B87E780231B04012752460B40174071E72A1A9446002A00DCA1E0002854D07048854200D152E780200D
:405D4000000403436046382800DD0EE11F2800DD57E162462020801A1E1C8640B1465E46D6404A4632435E4686409046301C421E9041424602436046C3401219A242A4414C
:405D8000644259180919141C080200D42AE75A4B01359D4200D131E1584B60081940012323401C1C0443CB071C4349081AE71E4300D00AE705E7231C0B433BD080231B039A
:405DC0000B431B031B0B30E7013F002F6DD15E46A21B9442A4416442C91A091B141C60E75846184300D1FDE601267642B4446046002800D0D0E05E463219BFE7002F00D0A7
:405E000080E0681C4005400D012800DCE8E05A46A21A9442BF41C81A7F42C71B3E0200D498E05846041BA3459241591A52428F1AE2463AE700230024F7E680231B0401275D
:405E400056460B403740E1E6271C283887400024954200DC3EE72949AD1A3940C2E6201C00F04EFB203026E75A461A43531E9A41D2B200270EE7002A00D0DEE0681C4605FB
:405E8000760D012E00DC90E01B4DA84200D1F5E05E463219A242A441644259180919CC07520814434908051C9CE61348854200D0D9E697E62B1C1F3B3E1CDE40331C2029A4
:405EC0006FD03F22551BAF403C43601E84411C430021002586E6381C20381E1CC640301C202F60D04022D71BBB405A461A43531E9A4102430027CDE6FF070000FFFF7FFFE0
:405F0000FFFF0F80002D37D0B64DA84200D18FE080252D047F422943382F00DDA8E01F2F00DD24E12025ED1B0E1CAE40B046261CFE404246AC401643651EAC413443F940AC
:405F40005A46141BA34592415B1A5242991A051CE246A6E6131C3B43141C002B00D0A4E60027002100250024CDE65A461A43531E9A41D2B2002300E70D1C254358D0FF438E
:405F8000002F51D15A46141BA3459241591A5242891A051CE24684E69248854200D0D1E620E6002790E700239FE7081C2043002D00D0C2E0002800D1EFE05846184300D17C
:405FC00010E658460219A242A441644259180919141C0A0200D405E6834B0125194001E6081C2043002D38D100286FD15946194303D0191C5C46E246F4E50027002100248A
:4060000081E6604620381A1CC2406646101C202E00D1AAE04022921B93405A461A43531E9A4102430023A8E66E4DA84200D073E7191C5C46051CE246D4E5002D22D10D1C30
:40604000254376D0D543002D70D15C445C459241591852428918051C96E600284CD15946194300D14AE6191C5C46E2465D4DB9E50C43611E8C41E4B2002161E7051C002131
:40608000002440E6574DA84253D05542802216043143382D7BDC1F2D00DD8CE02022561B0A1CB446B240261CEE403243904662469440661EB44142461443E9405C445C450F
:4060C0009241CB1852429918051C5DE65846184300D187E55E46A71BBC429241C81A5242801A060260D55846041BA3459241591A5242891AE24675E55846184333D0480798
:40610000E40804438020C9080003014208D0DD08054205D15946CA085C071443291CE246630FC9001943E4002E4D5BE52D4A9042AFD1191C5C46051C54E5002830D058460D
:40614000184310D080254807E408C9082D0304432942E5D0D8082842E2D15D46EA085C071443011CDCE71F4D3CE5002355E73D1C203D0E1CEE40351C202F2ED04026F71B60
:40618000B9400C43611E8C412C430021D8E60C43611E8C41E4B2002190E7191C5C4621E5191C5C460F4D1DE5031C3B4300D124E7011C3C1C16E52026764276190A1CF24054
:4061C0009046202D0BD04026751BA9400C43611E8C4145462C43002170E70021D1E70021F4E7C046FF070000FFFF7FFF70B50B1C124C09030E0B5900021C490DDD0F0020B0
:40620000A14211DD0E4881420FDC8020400306430C48401A1F280BDD0B4A521AD640321C5042002D00D1101C70BD084BE818FBE7074BC240C9188E403243F1E7FE030000EC
:406240001D0400003304000013040000FFFFFF7FEDFBFFFFF8B5041E31D0C70F00D04442201C00F04DF9184D2D1A0A2819DD0B38844024036D05240B6D0D3A1C0026002026
:4062800000210B0D2403240B1B0523430F4C2D051C402C4364006408D307211C301C1943F8BD061C1536231CB3401E1C0B23181AC44024036D05240B6D0D3A1CDFE7002270
:4062C000002500240026DAE71E040000FFFF0F8043001B0E5A1C4102D2B270B54C0AC50F012A17DDE02292006407090B9818002200231E0D221C34050C431B4940054008BE
:406300002140014349004908ED070B1C2B43101C191C70BD002B15D1002C1CD0201C00F0EFF80A281ADC0B21091A231CCB40191C031C15339C400D4B0903181A4005090BA3
:40634000400DD4E7002C03D06407090B0848CEE707480021CBE700200021C8E7011C0B398C40211C0024E6E7FFFF0F8089030000FF070000F0B54B000D03420F5B0D6D0AD6
:4063800015435A1C5205CC0FC600520D012A27DD394FDA19FE2A1ADC002A35DD8001ED00431E98412843760F3043430704D00F230340042B00D004308021C904014027D03D
:4063C0000132FF2A1DD083015B0AD1B201E0FF2100235802C905400AE40708432043F0BD002B06D1354311D10021002043025B0AEFE72E43EBD08020ED0080042843FF2226
:40640000D3E7FF210023E4E717320DDA05200022C008D1B2FF2AE9D10028D9D08023DB0303435B025B0AD4E78022144912041543C91A1F290DDC124A371C9B18281C9F40D4
:4064400098403B1C5A1E93411843CE4030430022ABE70C4F2A1CFF1AFA40171C202909D0094A98188540281C3043461EB041384300229AE70020F7E780FCFFFF9E030000BD
:4064800082FCFFFF7E030000A2FCFFFF8446081C6146FFE71FB500F0C3F8002801D40021C8421FBD10B500F049F84042013010BD10B500F0B5F8002801DB002010BD01205B
:4064C00010BDC04610B500F0ABF8002801DD002010BD012010BDC04610B500F059F8002801DC002010BD012010BDC04610B500F04FF8002801DA002010BD012010BDC046BE
:406500001C2101231B04984201D3000C10391B0A984201D3000A08391B09984201D30009043902A2105C40187047C046040302020101010100000000000000004A024302DD
:4065400070B55C0A550A43004A001B0EC60F120EC90FFF2B05D0FF2A08D0012093420BD070BD0120002CFBD1FF2AF6D10120002DF6D101209342F3D1AC42F1D18E4205D083
:40658000002BEDD1201C441EA041E9E70020E7E74A024302F0B55C0A550A43004A001B0EC60F120EC90FFF2B31D0FF2A34D0002B16D1604260418446002A14D0002820D199
:4065C0008E4217D1934215DC04DBAC4212D80020AC4212D2704270414042012318430CE0002AEDD194466F426F416046002805D1002FE5D0704201231843F0BD0020002F4C
:40660000FBD148424841404201231843F5E7002CCBD002204042F0E7002DC8D0F9E7C0464A024302F0B55C0A550A43004A001B0EC60F120EC90FFF2B27D0FF2A29D0002BC5
:4066400010D0002A15D194466F426F416046002815D00020002F04D148424841404201231843F0BD604260418446002AECD00028F2D18E4211D0704201231843F1E7002F90
:40668000F7D0704201231843EBE70220002CE8D1D3E70220002DE4D1D1E79342EBDC04DBAC42E8D80020AC42DBD270427041404201231843D5E7C046014B18687047C04600
:4066C0008C01002070B50E4B0E4D0024ED1AAD101E1CAC4204D0A300F35898470134F8E700F00AFE084B094D0024ED1AAD101E1CAC4204D0A300F35898470134F8E770BDBC
:406700000473000004730000047300000C73000010B50023934203D0CC5CC4540133F9E710BD031C8218934202D019700133FAE7704700000EB400B59CB01DAB04CB822211
:4067400002A992008A810A4A02908A604A6101225242CA81074A086110681D9A019300F075F8029A002313701CB008BC03B01847FFFFFF7F8C01002002780B78013001310D
:40678000002A01D09A42F7D0D01A7047F0B58D6885B0071C0C1C03920193AB4245D390228B89D20013423DD062690326564309692068F20F401A96190290021C019801324B
:4067C00012187610964200D2161C381C5A050FD5311C00F021FB051E13D0029A2169FFF797FFA289184B134080221343A38111E0321C00F065FB051E0CD1381C216900F00B
:40680000C3FA0C233B60A389402213430120A381404217E0029B2561ED1825606661019DF61AA6600198A84200D2019D2A1C2068039900F090FAA2680020531BA36023680A
:406840005D19256005B0F0BD7FFBFFFFF0B59FB0039005938B890E1C171C19060FD53269002A0CD1402100F0D7FA30603061002803D103990C230B60C9E04023736106AD06
:4068800000236B6120236B763023AB763C1C2378002B03D1E21B029211D003E0252BF9D00134F4E70398311C3A1C029BFFF76EFF013000D1A6E06969029A8B186B612378A3
:4068C000002B00D19EE0012252426A606A4600235B3201342B60EB60AB601370AB654E4F2178381C052200F02BFA002807D0C71B2B680120B840184328600134EFE72B68C0
:40690000D90603D56A4620215B3211701A0703D56A462B215B32117022782A2A01D0099B0EE0059A111D12680591002A01DB099204E05242EA60022213432B60013409E0EA
:406940002278303A092A04D80A214B4301349B18F6E7099323782E2B18D163782A2B09D1059B02341A1D1B680592002B0DDA01235B420AE0013400232278303A092A04D8B4
:406980000A214B4301349B18F6E70793234F2178381C032200F0D4F9002806D0C71B2B684020B84018432860013421781C480622671C297600F0C4F9002812D0194B002B0E
:4069C00006D1059B0722073393430833059314E005AB00930398291C321C134B00E000BF07E005AB00930398291C321C0E4B00F091F804900499013104D06A690499531876
:406A00006B6143E7B3895A0601D40B9801E0012040421FB0F0BDC046C2720000C8720000CC720000000000008D670000F7B5151C01930A698B68061C0C1C934200DA131CA7
:406A4000221C2B6043321278002A01D001332B602068800602D52B6802332B60216806270F401FD0231C43331B785A1E9341226892061FD5E11840313020C870211C5A1C19
:406A800045310978A21840320233D17012E0221C301C019919320123089FB847013011D0009F01370097E0682968009F431A9F42EDDBD7E7221C301C01994332089FB84717
:406AC000013002D10120404223E0206806212B68E26801400025042903D1D51AEB43DB171D40A26823699A4201DDD31AED1800270097009FAF420BDA221C301C01991A32A8
:406B00000123089FB8470130DCD0009F0137EFE70020FEBDF0B50D1C8BB0433506920590079304950B7E0C1C109A6E2B00D1A7E011D8632B22D009D8002B00D1B0E0582BA0
:406B400000D0C0E045310B707B4D4EE0642B1CD0692B1AD0B7E0732B00D1A5E009D86F2B29D0702B00D0AEE00E68202333430B6036E0752B1FD0782B32D0A4E013680D1CC1
:406B8000191D423511601B689FE0216813680E0603D5191D11601E6805E04806F9D5191D116000215E5E644B002E3BDA049D2D2276422A7036E0216813680E0603D5191DA3
:406BC00011601E6804E04806F9D5191D1E881160594B227E039308276F2A1ED00A271CE0231C78214533554D197011682368081D039510601E0601D50E6802E05806FBD568
:406C00000E88D90702D52022134323601027002E03D1226820239A432260231C002243331A7001E003930A276368A360002B03DB2568042295432560002E02D1049D002BCA
:406C40000ED0049D301C391CFCF710FF0398013D435C301C2B70391CFCF7C4FE061EF1D1082F09D12168C90706D5626823699A4202DC013D30232B70049E731B23612AE064
:406C8000086813684969050604D5181D10601B68196005E04606F8D5181D10601B68198000232361049D16E01368191D11601D68281C00F03DF963682061984200D9236121
:406CC0002069606004E0251C42352B7001232361049E00233370079E05980096211C09AA069BFFF7A3FE013002D10120404221E02A1C059806992369079DA8470130F4D0C6
:406D00002668B60705D4099BE068984212DA181C10E00025E0680999431A9D42F3DA221C0598069919320123079EB0470130DCD00135EFE70BB0F0BDD3720000E4720000D0
:406D4000C9B28218904204D003788B4202D00130F8E70020704770B5814201D300230CE08C18A042FAD28518131C013B0BD351426618F65C6918CE54F7E7934203D0CC5CA0
:406D8000C4540133F9E770BD30B5002940D004390B68002B00DAC9181E4A1368141C002B02D14B60116033E099420FD208680A189A4205D113685268C01808604A6000E087
:406DC0004B60216024E08A4203D8131C5A68002AF9D11D685C198C420BD10968691858181960904214D114685268091919605A600EE08C4202D90C23036009E008680C1870
:406E0000944203D114685268001908604A60596030BDC046DC02002070B50323CD1C9D430835061C0C2D01D20C2501E0002D3FDB8D423DD3204B1C681A1C211C002913D078
:406E40000868431B0DD40B2B02D90B60CC181EE08C4202D1636813601AE0486860600C1C16E00C1C4968E9E7144C2068002803D1301C00F04BF82060301C291C00F046F853
:406E8000431C15D0C41C03239C4384420AD12560201C0B300722231D9043C31A0BD05A42E25008E0211A301C00F030F80130EED10C233360002070BDDC020020D8020020CC
:406EC000F8B5061C0C1C151C002904D1111CFFF7A3FF041C18E0002A03D1FFF755FF2C1C12E000F02CF8A8420ED2301C291CFFF793FF071E07D0211C2A1CFFF709FC301C50
:406F0000211CFFF741FF3C1C201CF8BD38B5074C0023051C081C2360FBF78AF8431C03D12368002B00D02B6038BDC0466C0500200023C25C0133002AFBD1581E7047043951
:406F40000B68181F002B02DAC8581B18181F7047000000000000000025640043616C20436F6D706C0D0A0043757272656E74205146453A2000426F6F7400426F6F74456E40
:406F800061626C0D0A00475952205720416464204F6B0D0A00475952205720526567204F6B0D0A00475952205720446174204F6B0D0A0047595220572053746F70204F6BD4
:406FC0000D0A000D0A4D505520496E697420436F6D706C6574650D0A003B003B0D0A004241524F20494E495420434F4D504C4554450D0A0001000F405D320F4038330F40D0
:4070000002400F4006410F4004420F400C430F4002600F40820F02EE08080C320EC40F0110301240130114981602170119011D01200128322A4C3101320E340136F03A885A
:407040003E103F014056410245E046BC480E49FF4AFF4BFF4EF04F44500C5401580459045A045B045F0166C06A406B028009821085188610870389028C108E0C9120941CC2
:40708000950E960298149D189E039F05A317A420A80CAA11B020B307B420B520B61FB718B980BB08BE10BF50C001C501C650C809C9FFCA07CBFFCC40CD20CEF0CF05D0081E
:4070C000D804D904DA04DF01E040E1A8E240E320018203200420054209180A010D080F80102013201501172019031A0B1D4C1E0820012104221023202780290131443201B6
:4071000035C53720382039083F804001472048204D814E04501053205510564057405D015E085F9082108A408B10C0DDC237C456CA01CCFBCE16D028D230D6F0E280E40437
:407140006F10DA80271067088B049F10C880D8800A045004C202D40418081940640872048008894092049408C602D801DC04E20110011101426F6F740D0A000000000000A4
:40718000E2652F227F2B7A3C075C143326A6813CBDCBF07A8807703C075C143326A6913C4FBB610567ACDD3F182D4454FB21E93F9BF681D20B73EF3F182D4454FB21F93FB3
:4071C00014400000C63F0000F43F00004E3F0000F43F0000EA3F0000F43F00004E3F0000C63F0000C63F0000EA3F00004E3F0000463F0000463F0000463F0000FA3F0000D2
:407200003C42000036420000364200002C4200008C4100008C410000224200002C4200008C410000224200008C4100002C4200008A4100008A4100008A410000C442000033
