:400000000010002011000000810300008103000008B500F005FC00F0B5F90000F8B572B680220021D2004D4800F09DFF8023DA004B48002100F097FF0022101C4949FF25E5
:4000400054584700261CAE431031E3B2351CC919002B07D00F78013B7E194F78DBB237700231F5E7E4B204320019102AE6D1C0223D4D9104296080203C4F3D4C3D4A3E4DC5
:40008000C10399263E6023603C4F1060C02429603B4A3C49600340263E6010603A4F0B603A4B022531263A4C1D6099203E6039498023394F256002041E06384C0A60802018
:4000C0003E603749374E384B2260384F82050A601E603C78062025433D703D78344A05433D7011688026F3020B43324F324C13603878324E2178171C3578172D05D9304A32
:400100007078B178033E9642F6D12E4B2E4C2F4E1925186021600520356000F031FD2C482C4A01780520116000F060FE3C682A4B2A4D23402A483B60202610272F6080215B
:400140000660284F284D294E294A2A4B2A480C0614601C602F600660F8BDC04600300F4000400F40840F000004000140100001400C00014000000440080004400001044051
:40018000080104400803044008040440000404401804044000500F4004500F4010500F4018500F40100001002001054000700F4000010B40CCF1FF0FCDF1FF0FC9F1FF0F22
:4001C000BDF1FF0F1CFF0B4020FF0B402CFF0B40E5F1FF0F28FF0B40FFFFFBFF08020240200202401000008000000240AF04008008010B4004010B404000024010B5064CBD
:400200002378002B07D10548002802D0044800E000BF0121217010BDF000002000000000800F000008B5084B002B03D00748084900E000BF07480168002903D0064A002A54
:4002400000D0904708BDC04600000000800F0000F4000020D00000200000000010B562B600F084FC00280ED16524012000F0A8FD00F07CFC002806D1013CE4B2002CF4D1BB
:40028000034B40221A6000F063FC00F09BFAFEE7C000002008B500F0EDFA00F025FB00F08DFB08BD70B5054B0D1C161C0024C9B21C8000F077FB3580201C70BD0C010020E2
:4002C000F0B50A275F4387B002900591161C00252A4CBD4219DA00F0F5FA80B220802388002B0CD00220278800F06AFD00F0EAFA81B221802288BA42F4D8002706E0012095
:40030000013500F05DFDADB2E2E7052700253580208800282FD023883088019301994218059993B233808B4221D201982A1893B2049304998D4209D002994819039000F084
:40034000A7FA039A01351070ADB2F2E772B62088019A831A99B2218062B602984219013A1378172BD4D0052000F02AFDD0E7308000F0BAFA0527381C07B0F0BD0C0100204C
:4003800000B5FEE770B50F490F4A01394B1C14D0506895681468031C1E1AAE4202D040CC40C3F9E7D0681D1C5C1B844202D0002640C3F9E710320139E8E700F0A5FDFFF7B3
:4003C0004DFFFEE701000000D40F000008B500239A00032B02D80D48815800E00C490D4801338150302BF3D1FFF718FE0A490B4B086800221A60002800D108608022D305EE
:40040000186801210843186008BDC046000000008103000000000020C0000020C80000200047000038B5041C013806280BD800F061FD2406260F11080400174820E0174BF7
:4004400009E0174B07E0002000F0ACFC002302E0144B00E0144B5A78187800021043022C04D0032C07D0012C15D104E0040A0302234398B20FE000BA0DE00C4800E00C4858
:40048000C578817842780378180628430D02284311040843E3E738BDD87F0000C57F0000D47F0000D27F0000D67F0000C17F0000C97F000038B50220FFF7B4FF051C032097
:4004C000FFF7B0FF6C1CE1010C180220FFF7AAFF0023421CD201191CA24209D21078451EEDB2FD2D00D80121C318DBB20132F3E705485B420578DCB2AC4201D0062002E0E1
:400500000029FBD0002038BDC07F0000F0B5A34CA544FFF7BFFE62B600250095002603AF962124A849003A1CFF23FFF7C9FE0028F5D139880423062967D924AA1478012CCC
:4005400063D193236B4492221F786A4413783C021C4324AF3A19177953790197E71D9C4603238F4251D89179042317294DD1E3189BB2002B08D0BAAA8949D7187A18177881
:40058000013BC01980B2F3E762464042019F110282B239430823914237D168E0342900D09AE0012D00D0F6E0032C00D0F3E06FA80021802200F0D7FC80266FA988193519A8
:4005C0002639E21EFF39AEB200F0C4FC832E00D0DAE0BC797979009F26020E43002F0AD1391C802204A800F0BEFCFF2004A900F0EDFA01200090301C6FA900F0E7FA0125D4
:40060000002800D1C3E000260A23002168469130012703706A4624AC6B4692330E32277000200F1D197058701180BBB25C4FBAACE418E4192778013BC0199BB280B2002BD0
:40064000F4D14442A0B2BAAF564C7B181F19564C38701F19554C000A38701B19172707311F7089B224A89623FFF71CFE57E724AF79783B79081C31380A2801D90523C4E707
:4006800000F02EFC0611FC8C2FFC32428C507800012D00D07FE0002C7DD1FFF70BFF434243413B7163E0012D75D1012C73D1002B71D13F4A25A8146821889524CF090770EA
:4006C0003A0A97209627FF216C446F446844397022700370042199E7012D5CD1022C5AD96BE7012D57D119E7012D54D19620371943009F424DD86FAA901925A9221C00F0FC
:4007000029FCBEB2002380E7002C44D104AB294A191CA0CAA0C125AF21CB21C708210125231C73E7012D36D1032C34D196226A449521177869440C7838021A02204387180A
:40074000FF01002280210139CC5D1219D2B20029F9D1002B08D1FF2806D1174B174918780C78171A3A1BD2B2504224AB1871002301214BE7FFF79EFE002802D110488024E5
:40078000046000F011FB06E00125002601E0061CB8E7032339E7042337E7C04614FDFFFFA7FDFFFFACFDFFFFADFDFFFFAEFDFFFFD4000020A80F0000D07F0000D17F000081
:4007C000C0000020144810B50368002219680B1C013BBF2B03D01C781219D2B2F8E740680478A21AD3B2A34201D1002902D1002000F0D8FAFFF75EFE084C2168221C4029D8
:4008000001D0002803D000231360FFF77FFE8020206000F0C9FA10BDD4000020C000002008B50B4B10201A680A49024000D10A600B68802B0BD1002201200A60FFF7F2FD4E
:40084000002804D00120FFF7EDFDFFF7E9FD08BD00030B40C000002008B5054B802219681006084318600A2000F088FA08BDC0460000064010B5054C2378002B03D100F056
:40088000BFF801202070FFF7E7FF10BD10010020094B00B51968094B1A6891420AD019684A1C4039481E8141484205490240885C1A6000E0002000BDAC010020240100201A
:4008C00068010020064B074A1B68116800B58B4202D31268981A02E010684133181A00BDAC010020240100200C4A0D4B002130B5106811601D68802464022C431C601D68E3
:40090000084C2C401C60084B084C1D68084B25601970084D08492960106030BDC80F064004030640FFFFFEFF24010020AC010020A9010020C00F0640ED0F0000124910B5F0
:400940000A68531C3F3A541EA241544223400F4A1468A342FBD00C681268944208D10C4C0F2224682240082A02D00A4A10600AE0094C02222260094CC0B2E0540B60084BD0
:4009800019680A431A6010BD200100201C0100200802064040020640800F064028010020880F064038B5041C4518AC4204D02078FFF7C4FF0134F8E738BD00000B4A0023D3
:4009C000116810B513600A4B80201C684002204318601C68074820401860074B07481C68022399430460116010BDC046880F064004020640FFFFFEFF1C0100202001002095
:400A00001D4A1E4B1E4810B51E4900241A60046001221D4B1D480A601D490360072008601C491D4804600A601C4A0A2013601C4B1C6000F0ADF90A20032100F07FF9194974
:400A40000A2000F06FF918481849194A194B04600C60146018491C60184A194B04200860146018481C601849184A194B04600C7014601C6010BDC0460B000002000006408C
:400A8000400006404800064007000080000306400403064044000640100306400002064004020640010E0000880E0640C80E0640480F0640080F0640C80F0640880F064093
:400AC000AC01002024010020A9010020200100201C0100200E4B8422D00418601968802250020843186019680A481960C3239A00094B026000210948094A196009490A4BB2
:400B000010600A4A19600A4910601C20086070470001054024010540380105401027000014010540881300000C010540080105402801054008B500F02CF8044B01211A682E
:400B40000A431A6000F029F808BDC0460000054010B5054C2378002B03D1FFF7BBFF01202070FFF7E7FF10BD18010020024B18680106C80F7047C0460400044000000000EA
:400B80000230800804D0C0460138FDD1C046C0467047EFF3108072B6704780F310887047094A10B513680020141C1A0F11070A2A08D0002806D1F0221206914200D1181C93
:400BC0002368F2E710BDC04608000040F0B5071CABB00124FF2800D995E0002900D192E0002508ACB623D7207F2223706070A5700AA8E5706260802200F0ACF92E1C291CFC
:400C00002A1C0195B31C98002558002D02D05219294301960136202EF4D1002A02D1002968D100E0002100910291384D384E2C60384C34603268002AFCDB2B68FFF7B0FF37
:400C4000041E60D1FFF7A5FF334B05901968B6200491D8226946BFB2087603974A7668460C210A5A294F42832C49294A06A8386011601F1C3368002BFCDB2B68A020010649
:400C80008B4201D0002B2ED1009A002A2CD0002180220AA800F067F9019B029902331D4A08AC980001512C6032603468002CFCDB2B68FFF775FF041E16D107ABB6201870A3
:400CC000D92168460C225970115A10485980144A03600F4B1A6031680029FCDB2B68A0252E06B34200D01C1C049838600598FFF754FF08E0019E01250236B300E058009583
:400D00000290E25091E7201C2BB0F0BD08000040040000400400008008010B40050000800600008000B51F2800D901BE024A800083181868196000BD4000002038B5041C26
:400D40000D1E032D00D901BE1F2C00D901BEFFF720FFA308084A99008B1803221440944019680634A2409143A5400C1C2C431C60FFF713FF38BDC04600E400E01F23184038
:400D8000024A0121814011607047C04600E100E01F231840024A0121814011607047C04680E100E001BE7047034B04491A6890B2084318607047C0460CED00E00400FA05AC
:400DC00010B5041C8022074B1002844205D91868FFF7D6FE04496418F4E758686043FFF7CFFE10BDDC0000200080FFFF08B5034B197A4843FFF7C4FE08BDC046DC00002061
:400E0000264B10B51868002800D0804724490A6852071DD5234C23681A0716D0224B234A186811684B1C40394C1EA1414C42204923400C68A34203D11E4B20221A70E9E787
:400E40001D49C0B2C8541360E4E71C49042008601B4A1468A20720D51A4B0F2118680140082917D0184A194B1468186884420CD01C68621C3F3C601E8441614214480A40F5
:400E8000845C14490C601A60E6E7134C022122688A432260114B0220186010BD14010020CC0F06400803064040030640AC01002024010020A901002068010020C00F06407A
:400EC0008C0F064008020640200100201C0100202801002040020640880F0640800F064002B4714649084900095649008E4402BC7047C04602B4714649084900095C49000F
:400F00008E4402BC7047C04670B50E4B0E4D0024E81A85101E1CAC4204D0A100725890470134F8E700F044F80849094A0E1C541AA5100024AC4204D0A300F0588047013494
:400F4000F8E770BDBC0F0000BC0F0000BC0F0000C40F000010B50023934203D0CC5CC4540133F9E710BD00B58218031C934202D019700133FAE700BD08100000B100000047
:400F80000000000001330F4003410F4004430F4002600F40E61062048E04D84018808C40C608E608020111019311C80411140101F8B5C046F8BC08BC9E4670472502000015
:400FC000CD030000F8B5C046F8BC08BC9E467047FD010000E80F0000D000002020000000C00000000000000000000000780F00007C0F00000000E02EC05D00001800000041
:4010000000366E010000000000000000000000000000000000000000000000000000000000000000000000000000000000000000000000000000000000000000000000000B
:401040000000000000000000000000000000000000000000000000000000000000000000000000000000000000000000000000000000000000000000000000000000000070
:401080000010002091100000D51D0000D51D000008B5024B83F3088800F0B6FE00100020F7B572B67C4B01221A7080220021D2007A4804F0AEFD802200217948D20004F00F
:4010C000A8FD0023191C774C18592034C2B20192071CFF2297434A00A4180022019ED5B2AE4209D05500665D6519B446BC446D78664635700132F1E7C0B204330918202B49
:40110000E1D1694B802252001A80684B01221A70C021674B89041960CC22664B92001A60654A664B66481A60664B99221A60664A80231360654A80241060654A18021060E7
:40114000644A402010606448644A24061060644A862010606348644A1060644A64481360644B13221A60644A644B1A60644B02221A60644B1860644B64481A6099231B044A
:401180000360634804606348C02403606248A4050460624C6248046062488024A405046061483C240360614B1960614B14211960604B1A60604B187802431A705F4A1078B2
:4011C000A043014311701A7816210A431A705C4A80231168DB020B4313605A4B141C1878594BC0B21978594BC9B21A78172A05D9574A58789978033B9342F6D1554B192234
:401200001860554B05201960544B1A6000F068FE534B05201A78534BD2B21A6000F0D8FE2268514B302113402360504A504B01201A60504B31221A604F4B10221A604F4B6D
:4012400020221A604E4B11221A604E4A212313604D4A11604D4A13604D4B12221A604D4B822212061A604C4A4C4B1A604C4A4D4B1A604D4B4D4A13604D4A13604D4A1360F2
:401280004D4A4E4B1A604E4A4E4B1A604E4B80221A6000F009FEF7BD1C700F4000300F4000400F402465000000600F4002600F400400014008000140EEEE03000C000140ED
:4012C000B66D5B001000014000000440080004400C00044000010440060018000801044000020440B66DEF000802044018020440B10D000000030440A46DDB00080304404B
:4013000000040440080404401804044000500F4004500F4010500F4018500F400400990020500F4024500F4030500F4038500F40E00105402000004000700F4001700F4043
:4013400000010B40CCF1FF0FCDF1FF0FC9F1FF0FBDF1FF0F1CFF0B4020FF0B402CFF0B40E5F1FF0F28FF0B40FFFFFBFF0600008004010B40080202400C0202401C020240A0
:401380002002024024020240280202402C0202403002024008010B4003000080000002400B000080400002401700008080000240040002404400024022000080840002405E
:4013C000380100800800024000031A4010B5064C2378002B07D1054B002B02D0044800E000BF0123237010BD70010020000000004064000008B5084B002B03D00748084939
:4014000000E000BF07480368002B03D0064B002B00D0984708BDC046000000004064000074010020D00000200000000000B589B0021C0449684604F0F5FB684600F062FE4D
:4014400009B000BD4864000010B501F0BBFC002001F0CCFC041C01F0BFFC201C10BD0000F0B5FA2085B0400000F09CFD62B600F0C3FD01F023FA01F097FCFA20400000F0CE
:4014800091FD00F08BFE00F01FFF00F0CBFF01F0ABF801F00BF801F045F801F04DF900F0ADFE00F03FFFB24B3A22B2481A705A7000F028FE00F04AFA00F004FB00F0B6FB26
:4014C00000F058FCAC4800F01DFEAC4D2B78012B00D0DDE1AA4A002411782C7001292CD16B885088984201D1297103E0E988994200D12C7129799088002901D11B1800E079
:401500001B1A98B2688000F0B9FE2B7AC82B02D1FF2000F027FF2B7ACD2B03D10020287200F020FF2B7A954F01332B727A8A954BFF209A4208D9002006E0201C00F09EFEDB
:40154000201C00F00FFF201C00F018FF00F014FA00F0C6FA00F07CFBAB7E0133DBB2AB760A2B04D10023AB7600F010FCE861FFF76BFF28842223E85E04F0DCF9061C242372
:40158000E85E0F1C404204F0D5F9021C0B1C301C391C01F0EBFD6D4B6B4A03F0D3FB6C4A6C4B02F065FF04F055FAA8622C27E85F404204F0BFF9061C2423E85E0F1C404255
:4015C00004F0B8F9021C0B1C301C391C01F0CEFD5E4B5D4A03F0B6FB5D4A5E4B02F048FF04F038FAAF8E28630197654F019BBC68061C654F18B202F0BDFB211C02F070FA4A
:40160000396802F001F904F0D3F9534A534B03F099FB02900391A86A04F0CAF9504A514B03F090FB021C0B1C0298039902F0FEFB04F010FA386004F0BBF9454A454B03F042
:4016400081FB424B404A02F013FF474A474B03F079FB04F0FFF94D4BEF8E186038B202F089FB211C02F03CFA494D296802F0CCF804F09EF9384A394B03F064FB041C301CDF
:401680000D1C04F095F9364A364B03F05BFB021C0B1C201C291C02F0C9FB04F0DBF93C4D286004F085F92A4A2A4B03F04BFB274B254A02F0DDFE2C4A2C4B03F043FB04F08C
:4016C000C9F9344B2D4D1860EA8A334B9A4203D92B1C3833002204E09A4203D0274B012238331A70254E2D4B328B341C00219A4201D996214900231C38331B78002B4FD0C6
:40170000012B64D11E4D7189287B71874743A089231CC71BBFB2687BA787E787019FE5897843281A3A3380B2D8801881144F201C5430BD7B0088221C6843258A1982281A91
:4017400058813DE0C046C0460000000000806640182D4454FB210940CDCCCCCCCCCCEC3F9A9999999999B93F0000000000002040C00300204B640000556400008C01002024
:40178000D40000204B040000C8030020BC030020E0040020DC040020E2040000D60600007089231C7087A5893A336F1A4919E187E189221CD9801981218AA7875981188251
:4017C000518A0A325982998252899A81DA81271C3A37388AFFF72AFE3C4D281C00F092FC7888FFF723FE281C00F08CFCF888FFF71DFE281C00F086FC7889FFF717FE281C42
:4018000000F080FC788AFFF711FE281C00F07AFCB889FFF70BFE281C00F074FC208BFFF705FE281C00F06EFC294F386802F082FAFFF7FCFD281C00F065FC264B186802F078
:4018400079FAFFF7F3FD281C00F05CFC308CFFF7EDFD214800F056FC231C56331A78012A16D157340022201C1A7000F04BFC1B4800F048FC201C1A4904F0F6F9002807D10D
:40188000184800F03FFC642000F08CFB00F01CFB00F024FC144AC0B2131C61331870002800D112E6111C131C573162330D2807D11C7800200855563201211170187004E64B
:4018C0001A78885401321A70FFE5C04662640000E0040020C80300206464000065640000686400006D6400008C010020C046C04638B5051C0C1C6B20002101F051F80D48C6
:4019000000F000FC281C01F0A3F80B4800F0FAFB201C01F09DF8094800F0F4FB084B1A681023910600D51823064A0748136000F0E9FB38BD79640000886400009764000073
:401940006400074068000740A664000008B520200F21FFF7CDFF21202021FFF7C9FF24201021FFF7C5FF024800F0CCFB08BDC046B66400000000000038B500216B2001F035
:401980000FF8A82001F064F801216B2001F026F9002001F09BF82E4D2870002001F096F86870002001F092F8A870002001F08EF8E870002001F08AF82871012001F086F8C2
:4019C000244BC0B26871196810222B1C8C0600D51822214903250A6001229A56197812020A4392B2DA805D5799781C7940B200022D020D430443ADB2A4B21D815C8110B2ED
:401A000003F098FF114B104A03F09CF903F05EFF124B188028B203F08DFF0C4B0A4A03F091F903F053FF0E4B188020B203F082FF064B054A03F086F903F048FF094B188064
:401A400038BDC046C046C046EC51B81E85EB813F400200206400074068000740C2010020C0010020E001002038B5051C0C1C1D20002100F095FF0D4800F044FB281C00F0CB
:401A8000E7FF0B4800F03EFB201C00F0E1FF094800F038FB084B1A681023910600D51823064A0748136000F02DFB38BDC5640000D2640000DF64000064000740680007407A
:401AC000EC64000008B520206721FFF7CDFF024800F018FB08BDC046FA6400000000000038B500211D2000F05BFFA82000F0B0FF01211D2001F072F8002000F0E7FF2E4DB2
:401B00002873002000F0E2FF6873002000F0DEFFA873002000F0DAFFE873002000F0D6FF2874012000F0D2FF244BC0B26874196810222B1C8C0600D5182221490F250A602F
:401B40000D229A56197B12020A4392B25A825D57997B1C7C40B200022D020D430443ADB2A4B29D82DC8210B203F0E4FE114B104A03F0E8F803F0AAFE124B188028B203F068
:401B8000D9FE0C4B0A4A03F0DDF803F09FFE0E4B188020B203F0CEFE064B054A03F0D2F803F094FE094B188038BDC046C046C04608AC1C5A643BBF3F400200206400074020
:401BC00068000740AE010020B8010020B001002038B5051C0C1C1D20002100F0E1FE0D4800F090FA281C00F033FF0B4800F08AFA201C00F02DFF094800F084FA084B1A6872
:401C00001023910600D51823064A0748136000F079FA38BDC9640000D6640000E36400006400074068000740F064000008B525202021FFF7CDFF26200021FFF7C9FF024890
:401C400000F060FA08BDC046086500000000000038B500211D2000F0A3FE882000F0F8FE01211D2000F0BAFF002000F02FFF2E4D2876002000F02AFF6876002000F026FFCD
:401C8000A876002000F022FFE876002000F01EFF2877012000F01AFF244BC0B26877196810222B1C8C0600D5182221491B250A6019229A56197E12020A4392B2DA835D579A
:401CC000997E1C7F40B200022D020D430443ADB2A4B21D845C8410B203F02CFE114B104A03F030F803F0F2FD124B188028B203F021FE0C4B0A4A03F025F803F0E7FD0E4BE4
:401D0000188020B203F016FE064B054A03F01AF803F0DCFD094B188038BDC046C046C0467B14AE47E17AC43F4002002064000740680007403C0200203A020020380200201C
:401D400038B5051C0C1C5D20002100F029FE281C00F07EFE201C00F07BFE044B1A681023910600D51823024A136038BD640007406800074008B52020C021FFF7E1FF02486C
:401D800000F0C0F908BDC0461665000010B500215D2000F005FEA82000F05AFE01211D2000F01CFF002000F091FE002000F08EFEC4B2012000F08AFE044B1A68102391067F
:401DC00000D51823024A2009136010BD6400074068000740FEE70000094A10B51368094C18188021041B49008C4201DC106005E003F0DAFE0C23036001235B42181C10BD9F
:401E0000F40000201805002070B51048104B0138421C15D01E685C689D680022A118AA4203D0B158A1500432F8E7DA680D1C4C1B944202D0002410C1F9E710330138E7E76C
:401E400003F0B8FEFFF70CFBFEE7C046010000000C68000008B500239A00032B02D80D49895800E00C490D4801338150302BF3D1FFF716F90A4B00221A600A4B1A68002AFE
:401E800000D11A608023DB051A6801210A431A6008BDC04680100000D51D000000000020C8000020C0000020064B1A68191C002803D080231B06134301E053005B080B6095
:401EC0007047C04680031A4008B5034B40221A6000F05CF808BDC046C0000020000000000230800804D0C0460138FDD1C046C046C0467047EFF3108072B6704780F31088B2
:401F00007047C046C046C0461F2800D901BE034A80008318186819607047C0464000002038B5041C0D1E032D00D901BE1F2C00D901BEFFF7DFFFA308084A9B009B18032254
:401F40001440944019680634A2409143A5400C1C2C431C60FFF7D2FF38BDC04600E400E01F23184001238340181C014B1860704700E100E01F23184001238340181C014B58
:401F80001860704780E100E001BE7047034B04491A6892B20A431A607047C0460CED00E00400FA0510B5041C8022074B1202944205D91868FFF794FF044BE418F4E75868EA
:401FC0006043FFF78DFF10BDF80000200080FFFF08B5034B1B7A5843FFF782FF08BDC046F8000020034B8022196812060A431A607047C0460000064010B5054C2378002B95
:4020000003D100F023F801232370FFF7EBFF10BD74020020014B18687047C04640030640024B18680F2318407047C04608030640044B1A680F231340082BF9D0024B186039
:402040007047C0460802064040020640124A134B10B51A60124A00231360124A012111601148124A0724026011480460114803601148016011490A60114A1360114A13601C
:40208000114A1360114A1360114A1360114A1360114A136010BDC0460B00000200000640400006404800064000030640070000800403064010030640440006400002064098
:4020C00004020640880E0640C80E0640480F0640080F0640C80F0640880F064008B5FFF79FFF031C0020834201D0FFF793FF044BD82219689200114201D01A60002008BD1B
:40210000C00F064010B5041C0134631E1878002802D0FFF78DFFF7E710BD0000084A00231360084A0C211160074A01211160074A07490A6007490A60074A13607047C04636
:4021400000010540240105403801054010270000140105400C0105400801054038B50C1C051CFFF7C7FE034BA5401D60FFF7C6FE38BDC0460800054010B5FFF7BBFE064B98
:4021800001241A6822431A60FFF7B8FE201C1821FFF7E4FF10BDC0460000054010B5054C2378002B03D1FFF7B9FF01232370FFF7E3FF10BD7C020020014B18607047C046AE
:4021C0003001054008B50120FFF7F6FF014B01221A7008BD8C01002010B5041CFFF78AFE054BA2011968C024A1430C1C14431C60FFF784FE10BDC04610E400E010B5074B65
:40220000802464021C60064B064A04330320DA67FFF7E2FF044B1C6010BDC04680E100E000000020C521000000E100E00C4B8022D2041A601A680B491A6000220A601968B9
:402240001960094B0C211960084B1A60084B31221A60084B64221A60074B32221A6070478001054088010540A4010540B8010540A8010540940105408C010540014B80B240
:40228000186070478C01054038B50C1C051CFFF731FE034BA5401D60FFF730FE38BDC0460800054010B5FFF725FE064B04241A6822431A60FFF722FE201C1821FFF7E4FF8A
:4022C00010BDC0460000054010B5054C2378002B03D1FFF7ABFF01232370FFF7E3FF10BD7D02002008B500F033F80448FFF70AFF6420FFF757FEFFF7E7FD08BDA4660000E0
:4023000010B5041CFFF7F6FD054BA2011968C024A1430C1C14431C60FFF7F0FD10BDC04600E400E0064B10B501241C60054A064B03201A64FFF7E4FF044B1C6010BDC046AF
:4023400080E100E0E52200000000002000E100E0034B7F2218689043C0B21860C009704710000440044B012219689143C9B202400A431A607047C04600020440044B102265
:40238000196800019143C9B202400A431A60704700020440084B802292041A60074B0C221A60074B02221A60064BE12212011A60054B00221A607047C0010540E4010540A3
:4023C000F8010540D4010540C8010540014B80B218607047C8010540014B186880B27047C801054038B50C1C051CFFF783FD034BA5401D60FFF782FD38BDC04608000540E0
:4024000010B5FFF777FD064B08241A6822431A60FFF774FD201C1821FFF7E4FF10BDC0460000054010B5054C2378002B03D1FFF7B1FF01232370FFF7E3FF10BD7E02002070
:40244000014B18607047C046F001054038B50220FFF7F6FF0A4A0B4C1378012B02D10023137007E02578FFF7B7FF074B6D00E8522378013300202370FFF7A8FF38BDC0468D
:402480007F0200203E0200209601002010B5041CFFF730FD044BA4071A689200920814431C60FFF72BFD10BD10E400E010B5074B802424031C60064B064A8C3303201A60C7
:4024C000FFF7E4FF044B1C6010BDC04680E100E0000000204D24000000E100E008B50220FFF7AEFF034B01221A70034B00221A7008BDC0467F0200203E02002038B5041C82
:40250000FFF7F8FC054B06491D68A2032C1C0C4014431C60FFF7F2FC38BDC04600E400E0FF3FFFFF064B10B502241C60054A064B03205A64FFF7E2FF044B1C6010BDC046F4
:4025400080E100E0DD2400000000002000E100E0084A00231360084A0C211160074A01211160074A07490A6007490A60074A13607047C04640010540640105407801054048
:40258000FFFF0000540105404C01054048010540014B80B21860704748010540014B80B2186070475401054038B50C1C051CFFF7A1FC034BA5401D60FFF7A0FC38BDC046DB
:4025C0000800054010B5FFF795FC064B02241A6822431A60FFF792FC201C1821FFF7E4FF10BDC0460000054010B5054C2378002B03D1FFF7ADFF01232370FFF7E3FF10BDD2
:4026000080020020014B18607047C0467001054038B50120FFF7F6FF3B4C20780C2868D83A4D01F059F8070E151C232A31383F464D545B00002000F027F9FF2000F094F824
:4026400052E0002000F090F8FF2000F099F84BE0002000F095F8FF2000F09EF844E0002000F09AF8FF2000F0A3F83DE0002000F09FF8FF2000F0A8F836E0002000F0A4F8DE
:40268000FF2000F0ADF82FE0002000F0A9F8FF2000F0B2F828E0002000F0AEF8FF2000F0B7F821E0002000F0B3F8FF2000F0BCF81AE0002000F0B8F8FF2000F0C1F813E07D
:4026C000002000F0BDF8FF2000F0C6F80CE0002000F0C2F8FF2000F0CBF805E0002000F0C7F8FF2000F0D0F823785B00E85AFFF755FF0020FFF74CFF23780133DBB20D2BBE
:4027000000D10023237038BD81020020C601002038B5041CFFF7EEFB054B06491D68A2032C1C0C4014431C60FFF7E8FB38BDC04610E400E0FF3FFFFF10B5074B8024A40232
:402740001C60064B064A08330320DA67FFF7E0FF044B1C6010BDC04680E100E0000000201126000000E100E0044B0422196880009143C9B202400A431A6070470004044004
:40278000044B08221968C0009143C9B202400A431A60704700040440044B012219689143C9B202400A431A607047C04600000440044B0222196840009143C9B202400A43AA
:4027C0001A60704700000440044B0422196880009143C9B202400A431A60704700000440044B08221968C0009143C9B202400A431A60704700000440044B1022196800018B
:402800009143C9B202400A431A60704700000440044B2022196840019143C9B202400A431A60704700000440044B2022196840019143C9B202400A431A60704700030440F6
:40284000044B4022196880019143C9B202400A431A60704700030440044B7F2219681140C201081C1043C0B21860704700030440044B4022196880019143C9B202400A43DA
:402880001A60704700000440044B012219689143C9B202400A431A607047C0460001044008B5054B8022196812060A431A600B20FFF756FB08BDC0460000074010B5054CAD
:4028C0002378002B03D100F007F801232370FFF7E7FF10BD840200201C4B0C211A6810B50A431A601A4B00241C601A4A1A4B0B201A601A4B1A4A13601A4A14601A4A146048
:402900001A4A13601A4B1C60FFF734FB0B200321FFF706FB17490B20FFF7F6FA164B14221C60164BFF321C60154B1C60154B1A60154B10221C60154B1C60154B1A70154BF8
:402940001C80154B1C60154B1C6010BD70000740000007407708008060000740070100800003074004030740100307400002074004020740192E0000C80E0740880E074041
:40298000480F0740080F0740C80F0740880F0740E4040020F4040020F0040020F804002070B5244A041C13780420102B40D1224B08201D6801231D423AD16000FF2528408D
:4029C000002902D12423137002E02521117018431A4B1B4C18601B4B022123601A4B196008252368FF3516492B42F9D00868042303400ED10E68022006420CD10868012354
:402A000010211170184201D0181C04E08020400001E00020031C2560002B09D00B4B1A68520052081A601968802212060A431A6070BDC046E40400206400074040020740A9
:402A4000000F074017030000680007400000074030B51A49021C0B7804209C062DD5184B1A60184A08241368FF342342F9D010680423034004D0602300200B70031C0FE016
:402A800015680220054202D060250D7008E01568102001230870181C1D4201D1802040001460002B09D0084B1A68520052081A601968802212060A431A6030BDE40400207C
:402AC00040020740000F07400000074010B5184B011C18781A1C830626D5164B1868440705D4154804680220FF300442F5D01868042318420BD011480E4C00682360002954
:402B000002D10F4A136011E0602313700EE00D4A094B1A600C4B1A68520052081A601968802212060A431A600120404210BDC046E4040020C00F0740000F07404003074077
:402B40006800074017030000000007401F4B70B51D6800F097F80028FBD0002000F09AF81B4A0F211368141C8B431360194B19681E1C490049081960AB060FD5002000F0C5
:402B800089F80320FFF724FA012000F083F800F08DF80028FBD00320FFF71AFA002000F079F80320FFF714FA0B4B01201860326880231B061343336023680F2293430E229C
:402BC0001343236000F066F870BDC046640007400C000140000007406800074070B5234C051C237804209A063ED56D00FF231D40002902D12423237003E0252323700123C2
:402C00001D431B4E1B4B3360FFF7A0FF1A4B1B68DA07FBD4194B1D6008213368FF31144A0B42F9D01068042303400ED11568022005420CD11068012310222270184201D04D
:402C4000181C04E08020400001E00020031C3160002B09D00A4B1A68520052081A601968802212060A431A6070BDC046E4040020000F0740170300006800074040020740C5
:402C800000000740024B18688007C00F7047C04604030440044B012219689143C9B202400A431A607047C04600030440024B1868012318407047C0460403044010B50E200F
:402CC0000321FFF72DF91A490E20FFF71DF9194A012313601849194A1948116019491A4A11601A491A4A11601A4900220A601A4901601A4801601A491A480A601A490A6086
:402D00001A4A1B49136002220A601A490C68204003430B60184B1A60184BC02292001A60174B80221A80174BC22252001A6010BD0D2E000020001A407002005300001A4063
:402D400010001A408400008004001A400000FF0718001A401C001A400200020014001A4028021A40FFFFFFDF38021A4018021A40000F1A4030001A40040F1A4080001A4085
:402D8000100500200C05002008B5064B1A68002A07DB1968802212060A431A600A20FFF717F908BD00001A4010B5054C2378002B03D1FFF783FF01232370FFF7E5FF10BD3A
:402DC0008C020020034B8022196852020A431A607047C04604001A40024B034A19680A401A60704704001A40FFFFFEFF08B5002805D00020FFF7C8F8002000B208BD024B1B
:402E0000186880B2F9E7C04680011A40014B1A681A60704710021A40F8B5AD4B1B68002B00D09847AB4B1B68D80702D5AA4B00221A60AA4B1A78910601D4002124E0A84AE8
:402E40001068111C0022C40506D5A64AC020148880002043108001220968C80706D5A14A9021108889000143118001E0002AE4D09C4A012114881878084045426841401875
:402E80002043108000221A7018781022840600D4F6E0934D286810420CD0934901200A6090490C881D78284045426841013020430880DAE0187804071BD52C680220044281
:402EC00009D0894A88211060864A890010880143118001210DE01878C40702D525221A7007E02420187081480068002801D0804802601A780424224200D19BE01A78012011
:402F0000024243D07B4A082516682E4223D07A4A7A4C7B4F166822683F68B61A0F223A40B21AAA4207D8002A06D1764A7649166831401160011C2A1C744D20682D68013AF6
:402F40002818734D2D68EDB20570206801302060002AF1D117E01268224214D0674A6B4E1568366875196A4E3668F6B22E701568013515601568604A1268954202D2654AF8
:402F8000146000E0011C6448644A49E02C680222144220D054490A60614A624915680E680C680F213140E40B691A2040081A106011685D4A11604B4A842110888900014326
:402FC00011805A4A802110684902014311601068574901402CE0574A1068C40622D5564A1568504A414814680F2214404C4A082C0DD016680468A64209D21068281804787B
:403000004E48E4B20460106801301060E9E714680268944202D1364A402010604848494A106007E01268500604D53D4A11683E4A116001E000294AD0324A33491068014047
:403040001160414900220A6029490A603F4A127891070CD5234A012110881C7821404C42614109310143118060221A702FE0384B1A681023940600D51823264A136026E020
:403080001878104023D133490C68640064080C601A701C4B304A1C6822401A601C682F4A22401A60284B1C4A1860114B1860254B1A60234A194B1A60294A2A4B1A602A4A3C
:4030C000094B1A600A6880231B0613430B60F8BD880200208C0E0740880E0740E40400200C0F0740F4040020000F074008050020880F0740CC0F074004050020F0040020AC
:403100000803074060000740FFFEFFFFE80400204003074068000740ED0F0000C00F07400005002008020740F804002004020740FFFFFEFF8C0F0740EC04002040020740EF
:40314000F3070000800F0740C80F0740FC0400206400074000000740FF5FFFFFFFFCFFFFFF0F0000400F07401703000008B500F003F808BD00000000F0B55F464D46444668
:403180005646F0B4041C50420D1C104359004908C00F884601438946774985B0161C1F1C9B46009401958C46894527D8019841004908039000988946009940420843C00FE1
:4031C00049460143614519D86C48C01810434BD099170220084082460198C10F50460843824600984946084317D1504602285BD011DC002811DB201C291C05E0301C391C2A
:40320000221C2B1C00F012FE05B03CBC90469946A246AB46F0BD032835D04046024305D10399002946DB3F493D48EDE7524B98451FD0514B99453AD048464146431A1B15FA
:403240003C2B23DD374936485346012B40D0022B33D0002BD8D0344A344B02F003F8344A344B01F0FFFFCFE7201C291C00F088F8CAE7C14535D05046012842D03CDD0228C4
:4032800012D00328D5D12C482C49BDE75A46002A22DB321C3B1C201C291C01F0E9F800F017FA00F06DF8CFE721482249ACE7039A002AB8DA22482349A6E71B4A1B4B01F024
:4032C000D1FF021C0B1C1A481A4901F0CBFF9BE780242406091997E73C33DADA1A481B49B2E75246012A17D00EDD022A11D0032ADDD11748174987E700289AD112481349D4
:4033000082E7154815497FE7002AD0D1144815497AE71548154977E71548164974E7C046182D4454FB21F93F075C143326A6A13C182D4454FB210940182D4454FB2109C05F
:40334000182D4454FB21F9BF0000000000000000D221337F7CD902C00000000000000080182D4454FB21E93FD221337F7CD90240182D4454FB21E9BF0000F07F000010C023
:40338000F8B556464D4644465F46C54BF0B44E00814688468A4676089E420CDDC14B9E4200DDA7E000D1A2E05046BF4A002800DCE3E0BE4BA6E0BE4B9E4200DDB8E0BD4B56
:4033C0009E4200DCA6E001246442A3464A4643464846414601F0B6FC061C0F1C321C3B1C01F0B0FC8F4B8E4A041C0D1C01F0AAFC8D4A8E4B00F01AFD221C2B1C01F0A2FC1A
:403400008B4A8C4B00F012FD221C2B1C01F09AFC894A8A4B00F00AFD221C2B1C01F092FC874A884B00F002FD221C2B1C01F08AFC854A864B00F0FAFC321C3B1C01F082FC09
:40344000834A844B061C0F1C201C291C01F07AFC814A824B01F006FF221C2B1C01F072FC7F4A804B01F0FEFE221C2B1C01F06AFC7D4A7E4B01F0F6FE221C2B1C01F062FC63
:403480007B4A7C4B01F0EEFE221C2B1C01F05AFC021C58460B1C013000D170E05946CC00301C391C00F0C2FC4A46434601F04AFC814D0B1C81492D19021C0C19101C191CEF
:4034C0002268636801F0CEFE4A46434601F0CAFE021C0B1C2868696801F0C4FE021C50460B1C00280EDA802000060B180AE0002800D159E74A4643464846414600F096FC08
:40350000021C0B1C101C191C3CBC90469946A246AB46F8BD584A594B00F088FC584A594B00F05EF9002800D14DE74A464346E9E700F0CEF8624B041C0D1C9E4230DC614B09
:403540009E4256DC221C2B1C00F070FC4C4A4D4B01F088FE4C4A4D4B061C0F1C201C291C00F064FC021C0B1C301C391C00F080FF8846002181468B4628E7534BC2E7301CE9
:40358000391C00F053FC4A46434601F0DBFB021C0B1C4846414601F065FE021C0B1CB1E74A4B9E421ADC3A4A3A4B01F05BFE384A384B061C0F1C201C291C01F0C3FB304A52
:4035C000304B00F033FC021C0B1C301C391C00F04FFF8146022088468346F7E62E482F49221C2B1C00F044FF8846032181468B46ECE6234A234B01F035FE214A214B061CB6
:403600000F1C201C291C00F011FC0B1C021C391C301C00F02DFF0123814688469B46D5E611DA22E33AAD903FEB0D76244B7BA93F513DD0A0660DB13F6E204CC5CD45B73F9C
:40364000FF8300922449C23F0D5555555555D53F2F6C6A2C44B4A2BF9AFDDE522DDEAD3F6D9A74AFF2B0B33F711623FEC671BC3FC4EB98999999C93F9C7500883CE4377E96
:40368000000000000000F03F0000000000000040000000000000F83F000000000000F0BFFFFF0F440000F07F182D4454FB21F93FFFFFDB3FFFFF1F3ED0660000B066000005
:4036C000FFFFF23FFFFFE53FFB21F9BFFF7F03404B0059087047C04602B4714649084900095C49008E4402BC7047C046002934D00123002210B488422CD301242407A14246
:4037000004D2814202D209011B01F8E7E400A14204D2814202D249005B00F8E7884201D3401A1A434C08A04202D3001B5C0822438C08A04202D3001B9C082243CC08A042F7
:4037400002D3001BDC082243002803D01B0901D00909E3E7101C10BC7047002801D00020C04307B4024802A14018029003BDC046190000000029F0D003B5FFF7B9FF0EBCEF
:403780004243891A1847C0467047C0468446101C62468C46191C634600E0C0461FB501F053FA002801D40021C8421FBD10B501F083F94042013010BD10B501F045FA0028A6
:4037C00001DB002010BD012010BDC04610B501F03BFA002801DD002010BD012010BDC04610B501F0B3F9002801DC002010BD012010BDC04610B501F0A9F9002801DA002077
:4038000010BD012010BDC046F8B543024400C50F4E024800240E2A1C9B09000EC90FB6098D425BD0221A002A00DC89E000281DD1002E00D075E0580704D00F221A40042A6A
:4038400000D004338021C90419402A1C00293AD00134FF2C00D17FE09B015B0A5B02E4B2E405580AD20720431043F8BDFF2CE2D08021C9040E431B2A00DD2DE1311C202095
:40388000D140821A9640721E96410E439B1B5801D1D59B019F09381C02F068F9421F974094425BDC141B1F231B1B3A1C9F40611C3B1CCA405F1EBB4113430024BBE7131E68
:4038C000B9D100230022DB08FF2C04D1002B43D08020C00303435B025B0ABFE7211A002940DD002823D0FF2CA5D08020C00406431B2900DDEEE0301C2027C840791A8E40F3
:40390000711E8E4106439B19590100D493E70134FF2C55D0714901221A400B405B08134389E7013A002AB1D0FF2CA4D183E7002E00D180E701390029E5D0FF2CD8D17AE7B1
:40394000002A1BD1621CD2B2012A4BDD9F1B7A0123D5F71A0D1C9EE700237FE75F4BA41A3B4068E7002946D1611CC8B2012829DDFF2924D0F3185B080C1C5CE7002C13D0CB
:40398000FF2818D08024E404524223431B2A4DDD0123F31A041C0D1C79E7002F00D07AE70023002200248EE7002B3BD0D243002AEFD0FF28EAD1331CFF240D1C3BE7FF24F5
:4039C000002380E7002C5CD1002B00D180E0002E00D130E79B19580100D42CE73F4A0124134028E7002C15D1002B40D1002E63D0331C0D1C1FE7002C21D1002B54D0C943C8
:403A0000002904D0FF284CD01B2958DD01239B19041C79E7002B19D1002E48D0331C0D1CFF2408E7331C041C0D1C04E71C1C2025D440AA1A93405A1E93412343A9E7FF287C
:403A40002FD08024E40449422343DDE7FF24002E00D1F0E68022DB08D203134204D0F608164201D1331C0D1CDB00FF24E3E6002E00D1E0E69A1B500100D420E7F31A0D1C48
:403A8000D9E6002B0DD0FF24002E00D1D3E68022DB08D2031342E7D0F6081642E4D1331CE2E7331CFF24C6E6331C041CC3E6802300229B04FF2406E7231C002203E71C1CAE
:403AC0002027CC40791A8B40591E8B4123439EE7331CB0E6012616E70126D7E6FFFFFFFBF0B55F4656464D464446F0B44402460083B00F1C640A360EC50F002E41D0FF2E7F
:403B000022D080231B0400201C43E4007F3E82468046391C4B007F02C90F7F0A1B0E8B463BD0FF2B34D0802212041743FF007F3B00215A466A40019252460A430F2A63D84C
:403B40007A48920082589746002C3FD10822022392469846DDE70195404602282AD1019A01251540FF2300246402DB05600AED071843284303B03CBC90469946A246AB46F5
:403B8000F0BD002C27D10420012282469046C0E7391C4A1E91410231CBE70121002FC8D0381C01F0E3FF431F9F4076235B421B1A0021BEE7032800D1AEE001284FD1019846
:403BC00042461040C5B200230024CDE70C2303209A4680469DE7201C01F0C8FF7626431F9C4076420023361A9A46984691E780240025E403FF23B7E75B463C1C0193884605
:403C0000AAE73C1C8846A7E7250C24043A0C240C3F04F6183F0C211C231C794353436F435543FB180A0C9B18B1469F4202D980225202AD1809041A04090C521894011B0C0C
:403C4000611E8C41920EED181443AD012C43230105D5012263080120144081441C434B467F33002B2DDD600704D00F222240042A00D00434220103D52D4B1C404B4680332B
:403C8000FE2B17DD019B01251D400024FF236BE78020C003044208D0074206D1041C3C436402640A5D46FF235EE704436402640AFF2359E70198A4010125640ADBB20540F1
:403CC00052E77E235B424A469B1A1B2B05DD019B01251D400024002346E7221CDA404B469E339C40231C5C1EA3411343580704D00F221A40042A00D004335A0105D5019B00
:403D000001251D40002401232EE701989C010125640A0540002327E78027FF03019B3C43640201251D40640AFF231DE7F0660000FFFFFFF74302590A4300C20F1B0E0020D3
:403D40007E2B0DDD9D2B0CDC802000040143952B0ADC9620C31AD9404842002A00D1081C7047034BD018FBE7963B9940F4E7C046FFFFFF7F70B5041E3CD0C60F00D04442C9
:403D8000201C01F0F3FE9E23251C1B1A962B0CDC083884406402640ADBB2321C6402DB05600AD2071843104370BD992B0ADD0522121A211CD1400A1C011C1B318D40691EBF
:403DC0008D411543052801DD421F9540164C2C406A0704D00F221540042D00D0043461010CD59F23181AFF281AD0A401640AC3B2321CD3E7002200230024CFE7E408FF2B7D
:403E000004D06402640ADBB2321CC7E7002C04D08020C00304436402640A321CFF23BDE7321CFF230024B9E7FFFFFFFBF8B55F46564644464D46F0B40C034D00CE0F610A40
:403E4000440F2143C400180380465800400D8246D80F84464046400A530F0343D0006D0D371C83465246664500D1A4E0AF1A002F00DC09E1002A3BD1184300D0EAE06307FF
:403E800000D187E00F232340042B00D182E0221DA242A4416442802309191B040B40371C141C002B00D17CE0CE4B01359D4200D105E1CD4BE40819404807490204430B0BE2
:403EC000002000211B031A0B0B0D6D051B0513436A08C64DFF071D4015436D006D08291C3943201C3CBC90469946A246AB46F8BDBC488542C3D0802000040343382F00DD58
:403F0000F0E01F2F00DD24E12020C01B1A1C814682405846F8400243944658464A469040421E9041FB40624602431F1CA21A9442A4416442C91B091B141C0B029FD54902FF
:403F40004F0A002F00D1C8E0381C01F00FFE021C083A1F2A00DDB5E02821091A201C9740C84007439440954200DDB2E0551B691C1F2900DDDCE01F22551B3B1C221CAB40E1
:403F8000CA40AC40651EAC411343CF401C43391C002574E780231B040B40371C002B00D082E7904B4807E4080443C9089D4248D009030B0B84E7AA1A9446002A00DC98E070
:403FC0005046002852D08748854200D157E78020000403436246382A00DDFCE01F2A00DD4AE120226046101A1A1C82408246914658466246D0404A4602439046584652465E
:404000009040421E9041424602436046C3401219A242A441644259180919141C080200D42DE7704B01359D4200D122E16E4B60081940012323401C1C0443CB071C43490814
:404040001DE7231C0B433AD080231B030B431B031B0B35E7013F002F65D15846221A9442A4416442C91A091B141C66E75846184300D104E70122524294446046002800D0F0
:40408000C5E058460219C3E7002F73D1681C4005400D012800DCDEE05A46A21A9442BF41C81A7F42C71B380200D489E05A46141BA3459241591A52428F1A664641E700234D
:4040C0000024FDE6271C283887400024954200DC4CE74549AD1A3940D1E6201C01F046FD203034E75A461A43531E9A41D2B200271CE7002A00D0DCE0681C4205520D012AE3
:4041000000DC8DE0374DA84200D1F3E05D462A19A242A441644259180919CC07520814434908051CABE62F48854200D0E6E6A6E62B1C1F3B3A1CDA40131C20296CD03F2229
:40414000551BAF403C43601E84411C430021002595E6381C20381A1CC240101C202F5DD04022D71BBB405A461A43531E9A4102430027DBE6002D3BD01A4DAA4500D193E0DB
:4041800080252D047F422943382F00DDACE01F2F00DD29E12025ED1B081C261CA840FE40AC400643651EAC413443F9405D462C1BA34592415B1A5242991A55466646BCE67F
:4041C000131C3B43141C002B00D0BAE60027002100250024E5E65A461A43531E9A41D2B2002314E7FF070000FFFF7FFFFFFF0F800D1C254358D0FF43002F51D1041BA3459E
:404200009241591A5242891A5546664695E69648854200D0DEE632E6002793E70023A2E7081C2043002D00D0C4E0002800D1F7E05846184300D122E658460219A242A44155
:40424000644259180919141C0A0200D417E6874B0125194013E6081C2043002D39D1002871D15946194303D0191C5C46664606E600270021002494E6604620381A1CC2402D
:4042800060469146202800D1ACE04022121A93405A461A43531E9A414B461A430023B6E6714DAA4500D06FE7191C5C4655466646E5E5002D22D10D1C254377D0D543002D8D
:4042C00071D15C445C4592415918524289185546A4E600284DD15946194300D194E0191C5C466646604DCAE50C43611E8C41E4B200215BE7051C0021002452E65A4DAA4570
:4043000054D05542802210040143382D00DD81E01F2D00DD92E02022501B0A1C84468240201CE8400243904662469440601E844142461443E9405C445C459241CB1852425A
:40434000991855466AE65846184300D197E55846271ABC429241C81A5242801A020266D55846041BA3459241591A5242891A664685E55846184333D04807E4080443802006
:40438000C9080003014208D0DD08054205D15946CA085C071443291C6646630FC9001943E400314D6BE5304A9245AED1191C5C46554664E5002836D05846184310D0802570
:4043C0004807E408C9082D0304432942E5D0D8082842E2D15D46EA085C071443011CDCE7214D4CE5002353E73D1C203D0A1CEA40151C202F34D04026F71BB9400C43611E29
:404400008C412C430021D1E680210027C903164D0024C6E50C43611E8C41E4B200218AE7191C5C462BE5191C5C460F4D27E5031C3B4300D11CE7011C3C1C20E5202040420C
:4044400040190A1CC2409046202D0BD04020451BA9400C43611E8C4145462C4300216AE70021CBE70021F4E7FF070000FFFF7FFFF0B5564644465F464D46F0B41F1C0B03CC
:404480001B0B98464B0087B0041C81465B0DC80F161C9A460090002B51D06A4B9A4531D08022414652030A43630FD2001A43664B90460025E20091469A44002402953B0325
:4044C0001B0B9B46FD0F7B00311C5B0D019560D05C4A934254D08021584649030143720FC9001143584A8B469B18F1000020009A04436A4003920F2C00D9ADE0534EA4006A
:404500003459A746404604436ED1002102250824884689460295D2E7009C0298C34649460194022864D0032800D1ABE2012800D038E2019A002402400025A14660E0434661
:4045400023434AD04046002800D1C0E101F00EFB031E272B00DDB3E128210D1A211C083B4246E9409A400D1C1543221C9A40A8469146374B00251B1A9A46002402959EE7E8
:404580005A4616430320002EB1D1B34600210220ADE75A4632431BD05B46002B00D18AE1584601F0E3FA272800DD7DE12822171A011C321C08395B46FA408B40171C1F43FF
:4045C000331C8B40BB46191C214B1B1A00208EE70027BB460021012089E70020012504248046814602956AE703250C24029566E7019C0394039D01222A400024114DA14672
:40460000002000212403260B0C0D2405114B34432D0523402B435B005B08D207191C4846114307B03CBC90469946A246AB46F0BD0022802424039146024DE1E7002400250D
:40464000A146DDE7FF07000001FCFFFF306700000DFCFFFFFFFF0F805546ED1A0495D84500D953E100D14EE1049C0025013C4E4604944746A946584603020C0E1C4309022D
:40468000250C23041B0C0091381C291C0193FFF72DF8019983464143381C8A46291CFFF769F8330C090419438A450CD95B460919013B8C4200D947E18A4500D844E10222E1
:4046C0005242934409195346CB1A181C291C9846FFF70CF8071C0198291C784382464046FFF748F836040B04360C33439A4509D91B197A1E9C4200D924E19A4500D821E11B
:40470000023F1B195E4632041743380CBB46009E009F51463F0C32045B1A5946BA46120C0F043F0C904651467A434F434146414356467043CF19160CBE19B14202D980273A
:404740007F02C019310C12043604120C4018B618834200D2C4E000D1BEE0191A4846861BB145BF417F42CF1BA74200D113E1291C381CFEF7BBFF019902904143381C894698
:40478000291CFEF7F7FF330C0904194389450CD9029B0919013B8C4200D9FFE0894500D8FCE0029F0919023F02974F46CF1B381C291C0597FEF79AFF071C0198291C7843D0
:4047C00081460598FEF7D6FF36040904360C0E43B14509D936197B1EB44200D9E0E0B14500D8DDE0023F3619029D4946761A290439430B0457460A0C1B0C4046454658434B
:4048000055437B437A43EB18070CDB199D4202D980256D0252191D0C00041B04000C52191B18964235D300D1FCE001231943049E994FF519002D00DCA1E0480709D00F23A3
:404840000B40042B05D00B1D8B42894149428B44191C5A46D20107D5904B5C46049E80271C40FF00A346F5198D4B9D427ADD039C0122224000248B4DA146C1E680242403AD
:40488000474627424CD13C432403240B009A854DB6E63619481EB4425ED9011C9642C4D1009E9E42C1D1C2E7031C283B311C99408B46002188E6301C01F058F9203072E6A5
:4048C000283B211C994000228846914651E6201C01F04CF920303BE60021B14500D33DE7009F5A46B944B945BF417F423F19FB18013A9C421ED2984200D97EE000D1B5E06A
:40490000191A93462AE7894500D8ADE64846464642467708D3074608C0071E438146AAE65846204212D1044324032A1C240B89465C4D65E6A342E3D1009F4F45DBD9211A15
:4049400093460BE7171CDDE69B46BCE63C432403240B009A534D53E6B24259D800D18AE0011C62E75F46C9087B07039E0B437C026D0501229946240B6D0D324040E64A4B36
:40498000049FDB1B382B10DD039C0122224000240025A14634E60121494248E7029304E71F1C21E7019C039441E71F2B40DC3F48049F0C1C3A1858469140DC4090402043DD
:4049C0000A1C511E8A41011C11435A46DA40131C480709D00F220A40042A05D00A1D8A42894149425B18111C1A0234D5039C0122224000240125A14602E6009F02214942C0
:404A0000B9448B44B945894149420919CB18A4E6009D881E6900A942AD416D422C19361900913AE7002B00D033E70024009437E71F4A049C5D46121BD5402A1C202B1FD0F5
:404A40001C4E5F46A3199F403B1C19434B1E994111430023BCE75A07C9080A43039F91465B0201221C0B3A400025C9E54E45C4D89346002172E6009F9F42C9D3011C0FE7E0
:404A80000023E2E7802424035F463C432403240B019A8946034DB3E5FF030000FFFFFFFEFE070000FF07000002FCFFFF1E040000E2FBFFFF3E040000F0B55F4656464D46B7
:404AC0004446F0B40D1C041C8046E80F814618030F03000B3F0B83B084461B48009749005E00DF0F490D9246760DBB4681420CD01548864210D00120B14215D003B03CBCB3
:404B000090469946A246AB46F0BD009F01202743F4D10D488642EED1604602430120002AECD10120B142E9D1009B6345E6D1D045E4D1D94506D00029E0D11C43201C441E1F
:404B4000A041DBE70020D9E7FF070000F0B55F4656464D464446F0B4CD0FDE0FAC461D032D0BB146374E0F034C00AB465D0080463F0B640D92466D0DB44232D0314EB54289
:404B800035D0002C0ED1384341424141081C002D0BD0002919D1CC452DD0654668420123184318E0002DF6D1281C59460A4353425341002806D1002BEDD0634658420123B1
:404BC000184308E00020002B05D14A46504250414042012318433CBC90469946A246AB46F0BD3E1C0643C9D002204042F3E75E461643C6D0F8E7AC4207DC0BDA6146484257
:404C00004841404201231843E5E76646704201231843E0E75F450AD80ED000205F45DAD2654668426841404201231843D3E76246504201231843CEE7D045F8D80020D04565
:404C4000EED3C8E7FF070000F0B556464D4644465F46F0B40D1C83B0041C0190E80F814618030F03000B3F0B84463548009749005E00DF0F490D9246760DB846814234D0E1
:404C80002F48864236D0002918D0002E1FD1341C67463A4353425341002C1FD00020002B05D142465042504140420123184303B03CBC90469946A246AB46F0BD0098044330
:404CC00060426041041C002EE2D00028E9D1C14515D04F46784201231843E8E7002BF6D04B46584201231843E1E7009F02202743DDD1C5E7674602201743D8D1C3E7B142B0
:404D000004DD4A46504201231843D0E7B14207DB00986045E4D80AD0009F00206745C6D24F4678427841404201231843BFE7019A5245D5D8019A00205245F1D3B7E7C04647
:404D4000FF070000F0B5564644465F464D46F0B41F1C0B031B0B9A464B0087B0041C80465B0DC80F161C02938146002B68D0694B0299994232D08022534652031A43D200B4
:404D8000630F1A439246644AE000891880460291002400253B031B0B9B467800FB0F321C400D039300D175E05A4B984269D08022594652030A43730FD2001A43564B934697
:404DC000C018F200002303994E4671401C430F2C00D9A9E0514EA4003459A74653461C4300D087E00025AA46A84608240225D1E74946022D6CD0032D00D117E2012D00D0FD
:404E000058E10D40EDB20024A9460023A0460020002125030A0D1C052D0B1205404B2A43134023435B004C465B08E207191C4046114307B03CBC90469946A246AB46F0BD5E
:404E40005346234350D05346002B00D184E1504600F08CFE031E272B00DD76E128210D1A211C083B5246E9409A400D1C1543221C9A40AA4690462B4B00241B1A02930025EF
:404E800088E75B461E430323002E9CD1B3460022022398E75B46334321D05846002800D14EE100F063FE272800DD42E128210F1A021C311C083A5B46F94093400F1C1F433A
:404EC000331C9340BB461A1C164B181A00237AE701230B4000249946A0460E4B97E70027BB46002201236EE7002104248A46884601254FE70C2403254CE700258024A946CA
:404F00002403A846034B82E7DA46904603991D1C6FE7C046FF07000001FCFFFF70670000FFFF0F800DFCFFFF029F160C381804904046070C0004000C1204120C031C5343D9
:404F4000041C3D1C7443554398463B1C73436419A44644460293230C63449D4204D9029D802464022D1902951D0C039545462C041B04240C1C1905945C46230C051C5843BA
:404F80002404240C8446381C604365435F438146CC44280C6044BB46814502D980277F02BB442D04070C2D0C000440195546BC462F04E3448446280C3D0C2F1C5743B8461B
:404FC0002F1C77434243B94647463F0C9144BA46D14446434A4502D980225202B6184F463A0CB6183A0447463F043F0CB8462F1C67435D434443584365190190380C2D1860
:405000004244B846AC4204D9019880235B02C0180190039C029F201C6044C0196045A44147466442A4462B043C049946240C4C44A046D8448018C246E24490429241574667
:4050400052429146F219E245BF417F424B46BC46D845BF41D4187F4263461F432D0C7F19B24292414C45AD4152426D421543019E7D19AB19E20D5B02059F134342023A43B8
:405080009A46531E9A41C30D101C18436402204380465046C0010DD5454601225646049C6B082A401A43F30701341A43760804949046B246049E634FF319002B61DD4046C2
:4050C00040070BD00F2244462240042A06D042460432424580414042824490465546ED0107D5594B5646049F80201E40C000B2463B18564A934200DDEAE644465546E208C7
:405100006807104301226C025B050A408046240B5B0D91467BE6DA4690461D1C69E680242403574627421CD13C432403240B484B6DE6031C283B311C99408B460022C3E6A2
:40514000301C00F013FD2030ADE6283B211C994000228A4690468EE6201C00F007FD203078E65846204207D1044303992403240B89469046364B4AE63C432403240B344BB2
:4051800045E6344B049E9B1B382B06DD01230B4000249946A046002339E61F2B25DC049C2D4D46466019524644468640DC4082405746301C2243DF40441EA04102433B1C91
:4051C000540709D00F201040042805D0101D9042924152429B18021C1D021AD501230B4000249946A046012311E61C48049C5546001BC540281C202B16D0194E5746A21950
:4052000097403A1C43461A43531E9A4102430023D6E758075B02D2081C0B01230B401043994680460023F2E50022EBE78024240350460123044319402403240B8946044B3F
:40524000E5E5C046FF030000FFFFFFFEFE070000FF07000002FCFFFF1E040000E2FBFFFF3E040000F8B55F46564644464D46F0B40C034D00CF0F610A440F2143C400180331
:40528000DE0F8046B44646465800760A530F3343D600D14A6D0DBA46400DB346904200D1F5E06246012672409446674500D1ABE02F1A002F00DC11E100283ED15846184303
:4052C00000D0F1E0600700D197E00F232340042B00D122E1221DA242A4416442802309191B04012750460B400740141C002B00D179E0B94B01359D4200D10BE1B74BE4089B
:4053000019404807490204430B0B002000211B031A0B0B0D6D051B0513436A08B04DFF071D4015436D006D08291C3943201C3CBC90469946A246AB46F8BDA7488542C1D00E
:40534000802000040343382F00DDFDE01F2F00DD31E12020C01B1A1C5E468240FE40324394465A468240101C421E9041FB40624602431F1CA21A9442A4416442C91B091B5A
:40538000141C0A029ED549024F0A002F00D1D6E0381C00F0EBFB021C083A1F2A00DDC3E02821231C091A9740CB401F439440954200DDC0E0551B691C1F2900DDEAE01F2255
:4053C000551B3B1C221CAB40CA40AC40651EAC411343CF401C43391C002573E780217E4D0027C90300247C4B4807E4080443C9089D4250D009030B0B87E780231B040127A9
:4054000052460B40174071E72A1A9446002A00DCA1E0002854D07048854200D152E78020000403436046382800DD0EE11F2800DD57E162462020801A1E1C8640B1465E462B
:40544000D6404A4632435E4686409046301C421E9041424602436046C3401219A242A441644259180919141C080200D42AE75A4B01359D4200D131E1584B6008194001236D
:4054800023401C1C0443CB071C4349081AE71E4300D00AE705E7231C0B433BD080231B030B431B031B0B30E7013F002F6DD15E46A21B9442A4416442C91A091B141C60E78A
:4054C0005846184300D1FDE601267642B4446046002800D0D0E05E463219BFE7002F00D080E0681C4005400D012800DCE8E05A46A21A9442BF41C81A7F42C71B3E0200D438
:4055000098E05846041BA3459241591A52428F1AE2463AE700230024F7E680231B04012756460B403740E1E6271C283887400024954200DC3EE72949AD1A3940C2E6201C53
:4055400000F014FB203026E75A461A43531E9A41D2B200270EE7002A00D0DEE0681C4605760D012E00DC90E01B4DA84200D1F5E05E463219A242A441644259180919CC07A5
:40558000520814434908051C9CE61348854200D0D9E697E62B1C1F3B3E1CDE40331C20296FD03F22551BAF403C43601E84411C430021002586E6381C20381E1CC640301C5D
:4055C000202F60D04022D71BBB405A461A43531E9A4102430027CDE6FF070000FFFF7FFFFFFF0F80002D37D0B64DA84200D18FE080252D047F422943382F00DDA8E01F2FE8
:4056000000DD24E12025ED1B0E1CAE40B046261CFE404246AC401643651EAC413443F9405A46141BA34592415B1A5242991A051CE246A6E6131C3B43141C002B00D0A4E643
:405640000027002100250024CDE65A461A43531E9A41D2B2002300E70D1C254358D0FF43002F51D15A46141BA3459241591A5242891A051CE24684E69248854200D0D1E6B4
:4056800020E6002790E700239FE7081C2043002D00D0C2E0002800D1EFE05846184300D110E658460219A242A441644259180919141C0A0200D405E6834B0125194001E605
:4056C000081C2043002D38D100286FD15946194303D0191C5C46E246F4E500270021002481E6604620381A1CC2406646101C202E00D1AAE04022921B93405A461A43531E05
:405700009A4102430023A8E66E4DA84200D073E7191C5C46051CE246D4E5002D22D10D1C254376D0D543002D70D15C445C459241591852428918051C96E600284CD1594638
:40574000194300D14AE6191C5C46E2465D4DB9E50C43611E8C41E4B2002161E7051C0021002440E6574DA84253D05542802216043143382D7BDC1F2D00DD8CE02022561BE3
:405780000A1CB446B240261CEE403243904662469440661EB44142461443E9405C445C459241CB1852429918051C5DE65846184300D187E55E46A71BBC429241C81A52429C
:4057C000801A060260D55846041BA3459241591A5242891AE24675E55846184333D04807E40804438020C9080003014208D0DD08054205D15946CA085C071443291CE24687
:40580000630FC9001943E4002E4D5BE52D4A9042AFD1191C5C46051C54E5002830D05846184310D080254807E408C9082D0304432942E5D0D8082842E2D15D46EA085C07FA
:405840001443011CDCE71F4D3CE5002355E73D1C203D0E1CEE40351C202F2ED04026F71BB9400C43611E8C412C430021D8E60C43611E8C41E4B2002190E7191C5C4621E559
:40588000191C5C460F4D1DE5031C3B4300D124E7011C3C1C16E52026764276190A1CF2409046202D0BD04026751BA9400C43611E8C4145462C43002170E70021D1E7002101
:4058C000F4E7C046FF070000FFFF7FFF70B50B1C124C09030E0B5900021C490DDD0F0020A14211DD0E4881420FDC8020400306430C48401A1F280BDD0B4A521AD640321C9A
:405900005042002D00D1101C70BD084BE818FBE7074BC240C9188E403243F1E7FE0300001D0400003304000013040000FFFFFF7FEDFBFFFFF8B5041E31D0C70F00D044422B
:40594000201C00F013F9184D2D1A0A2819DD0B38844024036D05240B6D0D3A1C0026002000210B0D2403240B1B0523430F4C2D051C402C4364006408D307211C301C19433A
:40598000F8BD061C1536231CB3401E1C0B23181AC44024036D05240B6D0D3A1CDFE70022002500240026DAE71E040000FFFF0F8043001B0E5A1C4102D2B270B54C0AC50F9E
:4059C000012A17DDE02292006407090B9818002200231E0D221C34050C431B49400540082140014349004908ED070B1C2B43101C191C70BD002B15D1002C1CD0201C00F0F3
:405A0000B5F80A281ADC0B21091A231CCB40191C031C15339C400D4B0903181A4005090B400DD4E7002C03D06407090B0848CEE707480021CBE700200021C8E7011C0B3993
:405A40008C40211C0024E6E7FFFF0F8089030000FF070000F0B54B000D03420F5B0D6D0A15435A1C5205CC0FC600520D012A27DD394FDA19FE2A1ADC002A35DD8001ED0046
:405A8000431E98412843760F3043430704D00F230340042B00D004308021C904014027D00132FF2A1DD083015B0AD1B201E0FF2100235802C905400AE40708432043F0BD4C
:405AC000002B06D1354311D10021002043025B0AEFE72E43EBD08020ED0080042843FF22D3E7FF210023E4E717320DDA05200022C008D1B2FF2AE9D10028D9D08023DB0301
:405B000003435B025B0AD4E78022144912041543C91A1F290DDC124A371C9B18281C9F4098403B1C5A1E93411843CE4030430022ABE70C4F2A1CFF1AFA40171C202909D048
:405B4000094A98188540281C3043461EB041384300229AE70020F7E780FCFFFF9E03000082FCFFFF7E030000A2FCFFFF1C2101231B04984201D3000C10391B0A984201D32B
:405B8000000A08391B09984201D30009043902A2105C40187047C04604030202010101010000000000000000014B18687047C0466801002070B50E4B0E4D0024ED1AAD107B
:405BC0001E1CAC4204D0A300F35898470134F8E700F00AFE084B094D0024ED1AAD101E1CAC4204D0A300F35898470134F8E770BDF4670000F4670000F4670000FC670000C1
:405C000010B50023934203D0CC5CC4540133F9E710BD031C8218934202D019700133FAE7704700000EB400B59CB01DAB04CB822202A992008A810A4A02908A604A6101221A
:405C40005242CA81074A086110681D9A019300F075F8029A002313701CB008BC03B01847FFFFFF7F6801002002780B7801300131002A01D09A42F7D0D01A7047F0B58D6849
:405C800085B0071C0C1C03920193AB4245D390228B89D20013423DD062690326564309692068F20F401A96190290021C0198013212187610964200D2161C381C5A050FD50C
:405CC000311C00F021FB051E13D0029A2169FFF797FFA289184B134080221343A38111E0321C00F065FB051E0CD1381C216900F0C3FA0C233B60A389402213430120A38189
:405D0000404217E0029B2561ED1825606661019DF61AA6600198A84200D2019D2A1C2068039900F090FAA2680020531BA36023685D19256005B0F0BD7FFBFFFFF0B59FB0FC
:405D4000039005938B890E1C171C19060FD53269002A0CD1402100F0D7FA30603061002803D103990C230B60C9E04023736106AD00236B6120236B763023AB763C1C237860
:405D8000002B03D1E21B029211D003E0252BF9D00134F4E70398311C3A1C029BFFF76EFF013000D1A6E06969029A8B186B612378002B00D19EE0012252426A606A4600235A
:405DC0005B3201342B60EB60AB601370AB654E4F2178381C052200F02BFA002807D0C71B2B680120B840184328600134EFE72B68D90603D56A4620215B3211701A0703D5EA
:405E00006A462B215B32117022782A2A01D0099B0EE0059A111D12680591002A01DB099204E05242EA60022213432B60013409E02278303A092A04D80A214B4301349B18F0
:405E4000F6E7099323782E2B18D163782A2B09D1059B02341A1D1B680592002B0DDA01235B420AE0013400232278303A092A04D80A214B4301349B18F6E70793234F217850
:405E8000381C032200F0D4F9002806D0C71B2B684020B84018432860013421781C480622671C297600F0C4F9002812D0194B002B06D1059B0722073393430833059314E0C5
:405EC00005AB00930398291C321C134B00E000BF07E005AB00930398291C321C0E4B00F091F804900499013104D06A69049953186B6143E7B3895A0601D40B9801E00120EC
:405F000040421FB0F0BDC046B2670000B8670000BC670000000000007D5C0000F7B5151C01930A698B68061C0C1C934200DA131C221C2B6043321278002A01D001332B60A8
:405F40002068800602D52B6802332B60216806270F401FD0231C43331B785A1E9341226892061FD5E11840313020C870211C5A1C45310978A21840320233D17012E0221CDD
:405F8000301C019919320123089FB847013011D0009F01370097E0682968009F431A9F42EDDBD7E7221C301C01994332089FB847013002D10120404223E0206806212B68FF
:405FC000E26801400025042903D1D51AEB43DB171D40A26823699A4201DDD31AED1800270097009FAF420BDA221C301C01991A320123089FB8470130DCD0009F0137EFE74B
:406000000020FEBDF0B50D1C8BB0433506920590079304950B7E0C1C109A6E2B00D1A7E011D8632B22D009D8002B00D1B0E0582B00D0C0E045310B707B4D4EE0642B1CD02D
:40604000692B1AD0B7E0732B00D1A5E009D86F2B29D0702B00D0AEE00E68202333430B6036E0752B1FD0782B32D0A4E013680D1C191D423511601B689FE0216813680E0666
:4060800003D5191D11601E6805E04806F9D5191D116000215E5E644B002E3BDA049D2D2276422A7036E0216813680E0603D5191D11601E6804E04806F9D5191D1E881160A2
:4060C000594B227E039308276F2A1ED00A271CE0231C78214533554D197011682368081D039510601E0601D50E6802E05806FBD50E88D90702D52022134323601027002EEA
:4061000003D1226820239A432260231C002243331A7001E003930A276368A360002B03DB2568042295432560002E02D1049D002B0ED0049D301C391CFDF71CFB0398013D9E
:40614000435C301C2B70391CFDF7D0FA061EF1D1082F09D12168C90706D5626823699A4202DC013D30232B70049E731B23612AE0086813684969050604D5181D10601B68B8
:40618000196005E04606F8D5181D10601B68198000232361049D16E01368191D11601D68281C00F03DF963682061984200D923612069606004E0251C42352B7001232361AD
:4061C000049E00233370079E05980096211C09AA069BFFF7A3FE013002D10120404221E02A1C059806992369079DA8470130F4D02668B60705D4099BE068984212DA181CEF
:4062000010E00025E0680999431A9D42F3DA221C0598069919320123079EB0470130DCD00135EFE70BB0F0BDC3670000D4670000C9B28218904204D003788B4202D0013015
:40624000F8E70020704770B5814201D300230CE08C18A042FAD28518131C013B0BD351426618F65C6918CE54F7E7934203D0CC5CC4540133F9E770BD30B5002940D00439FD
:406280000B68002B00DAC9181E4A1368141C002B02D14B60116033E099420FD208680A189A4205D113685268C01808604A6000E04B60216024E08A4203D8131C5A68002A54
:4062C000F9D11D685C198C420BD10968691858181960904214D114685268091919605A600EE08C4202D90C23036009E008680C18944203D114685268001908604A605960A9
:4063000030BDC0469402002070B50323CD1C9D430835061C0C2D01D20C2501E0002D3FDB8D423DD3204B1C681A1C211C002913D00868431B0DD40B2B02D90B60CC181EE082
:406340008C4202D1636813601AE0486860600C1C16E00C1C4968E9E7144C2068002803D1301C00F04BF82060301C291C00F046F8431C15D0C41C03239C4384420AD125601C
:40638000201C0B300722231D9043C31A0BD05A42E25008E0211A301C00F030F80130EED10C233360002070BD9402002090020020F8B5061C0C1C151C002904D1111CFFF76D
:4063C000A3FF041C18E0002A03D1FFF755FF2C1C12E000F02CF8A8420ED2301C291CFFF793FF071E07D0211C2A1CFFF709FC301C211CFFF741FF3C1C201CF8BD38B5074CA8
:406400000023051C081C2360FBF7E6FC431C03D12368002B00D02B6038BDC046140500200023C25C0133002AFBD1581E704704390B68181F002B02DAC8581B18181F70475E
:40644000000000000000000025640055415254204F4B0D0A0053746172746564204F4B0D0A003B003B0D0A00426F6F7400426F6F74456E61626C0D0A004759522057204166
:406480006464204F6B0D0A00475952205720526567204F6B0D0A00475952205720446174204F6B0D0A0047595220572053746F70204F6B0D0A004779726F207374617274E9
:4064C00065640D0A00414343205720416464204F6B00414343205720526567204F6B00414343205720446174204F6B0041434320572053746F70204F6B00416363207374E8
:4065000061727465640D0A004D616720737461727465640D0A004261726F2053746172746564000001000F405D320F4038330F4002400F4006410F4004420F400C430F4034
:4065400002600F40820F02EE08080C320EC40F0110301240130114981602170119011D01200128322A4C3101320E340136F03A883E103F014056410245E046BC480E49FF53
:406580004AFF4BFF4EF04F44500C5401580459045A045B045F0166C06A406B028009821085188610870389028C108E0C9120941C950E960298149D189E039F05A317A4205A
:4065C000A80CAA11B020B307B420B520B61FB718B980BB08BE10BF50C001C501C650C809C9FFCA07CBFFCC40CD20CEF0CF05D008D804D904DA04DF01E040E1A8E240E32003
:40660000018203200420054209180A010D080F80102013201501172019031A0B1D4C1E082001210422102320278029013144320135C53720382039083F804001472048200C
:406640004D814E04501053205510564057405D015E085F9082108A408B10C0DDC237C456CA01CCFBCE16D028D230D6F0E280E4046F10DA80271067088B049F10C880D8805E
:406680000A045004C202D40418081940640872048008894092049408C602D801DC04E20110011101426F6F740D0A000000000000E2652F227F2B7A3C075C143326A6813CA1
:4066C000BDCBF07A8807703C075C143326A6913C4FBB610567ACDD3F182D4454FB21E93F9BF681D20B73EF3F182D4454FB21F93F083C0000023C0000023C0000F83B0000B6
:40670000583B0000583B0000EE3B0000F83B0000583B0000EE3B0000583B0000F83B0000563B0000563B0000563B0000903C000058460000F44500003C4600002245000016
:406740003C460000304600003C46000022450000F4450000F445000030460000224500001845000018450000184500007C480000284F00001651000016510000084F000072
:40678000F24D0000F24D0000FA4E0000084F0000F24D0000FA4E0000F24D0000084F0000F04D0000F04D0000F04D00001E5100004300232D302B2000686C4C0065666745D4
:4067C00046470030313233343536373839414243444546003031323334353637383961626364656600000000F8B5C046F8BC08BC9E467047F5130000551E0000F8B5C04614
:40680000F8BC08BC9E467047CD13000020680000D0000020A0000000A8030000000000000000000001006400010000000AD7233C01010303010000000AD7A33C0AD7A33B74
:406840000AD7A33B180500200000E02EC05D00001800000000366E010000000000000000000000000000000000000000000000000000000000000000B0670000000000001D
:4068800000000000000000000000000000000000000000000000000000000000000000000000000000000000000000000000000000000000000000000801002000000000AF
:4068C0000000000000000000000000000000000000000000000000000000000000000000000000000000000000000000000000000000000000000000000000000000000098
:406900000000000000000000000000000000000000000000000000000000000000000000000000000000000000000000000000000000000000000000000000000000000057
:406940000000000000000000000000000000000000000000000000000000000000000000000000000000000000000000000000000000000000000000000000000000000017
:4069800000000000000000000000000000000000000000000000000000000000000000000000000000000000000000000000000000000000000000000000000000000000D7
:407FC00038911000002000000080580000000000000001000000000000000000000000000000000000000000000000000000000000000000000000000000000000000000AF
:0200000490303A
:02000000F658B0
:0200000490402A
:20000000FFFFFFFF00000000000000000000000000000000000000000000000000000000E4
:0200000490501A
:0C000000000204C81193110004EA07EB91
:0200000490600A
:0100000001FE
:00000001FF